:020000040800F2
:1000000018110020890200088B2D0008D525000852
:10001000892D000889090008FD3E00080000000045
:10002000000000000000000000000000A9320008ED
:100030008B090008000000008D2D0008AB3200087D
:10004000A3020008A3020008A3020008A3020008FC
:10005000A3020008A3020008A3020008A3020008EC
:10006000A3020008A3020008A3020008A3020008DC
:10007000A3020008A3020008A3020008A3020008CC
:10008000A302000800000000A3020008A302000869
:10009000A3020008A3020008A3020008A3020008AC
:1000A000A3020008A3020008A3020008A30200089C
:1000B000A3020008A3020008A3020008A30200088C
:1000C000A3020008A3020008A3020008A30200087C
:1000D000A3020008F13E0008A3020008A3020008E2
:1000E000A3020008A3020008A3020008A30200085C
:1000F000A3020008A3020008A302000800000000F9
:1001000000000000A302000800000000A302000895
:10011000A302000800000000A30200082533000825
:10012000A3020008A3020008A3020008A30200081B
:10013000A30200080000000000000000A302000865
:10014000A3020008A3020008000000000000000055
:10015000000000000000000000000000000000009F
:10016000000000000000000000000000A3020008E2
:10017000A3020008000000000000000000000000D2
:1001800000000000A30200080000000000000000C2
:10019000000000000000000000000000000000005F
:1001A0000000000000000000A3020008A3020008F5
:1001B000A3020008A3020008A30200080000000038
:1001C00000000000A3020008000000000000000082
:1001D000A3020008A302000800F002F800F044F8AF
:1001E0000AA090E8000C82448344AAF10107DA4592
:1001F00001D100F039F8AFF2090EBAE80F0013F0A0
:10020000010F18BFFB1A43F0010318472C510000DF
:100210004C510000103A24BF78C878C1FAD8520770
:1002200024BF30C830C144BF04680C607047000070
:100230000023002400250026103A28BF78C1FBD8EF
:10024000520728BF30C148BF0B607047642900F0D7
:100250005581732900F05183002070471FB503F0CA
:100260003FFF1FBD10B510BD00F04BFB1146FFF75F
:10027000F5FF03F0F7FE00F069FB03B4FFF7F2FFB0
:1002800003BC00F071FB00000948804709480047A3
:10029000FEE7FEE7FEE7FEE7FEE7FEE7FEE7FEE736
:1002A000FEE7FEE704480549054A064B7047000093
:1002B00015330008D9010008180B00201811002080
:1002C000180D0020180D002053EA020C00F0698080
:1002D0002DE9F04B4FF00006002B1FBFB3FA83F55A
:1002E00003FA05F424FA05F65E4012BF1643B2FA8B
:1002F00082F502FA05F4C5F120051EBF22FA05FCBD
:1003000044EA0C04203556EA044C4FEA144418BF62
:10031000641C4FF000084FF00009904271EB030C91
:1003200039D3002919BFB1FA81F701FA07F6B0FAFB
:1003300080F700FA07F6C7F120071EBF20FA07FC76
:1003400046EA0C062037B6FBF4FCA7EB0507103F86
:1003500007F01F0BCBF120060CFA0BFB2CFA06F66C
:1003600044BFB3460026202FA4BF5E464FF0000BCB
:100370005BEA060C08BF4FF0010B19EB0B09ABFB56
:10038000027C48EB0608C01B06FB02CC0BFB03CC2F
:1003900071EB0C01C1E70B46024641464846BDE8F9
:1003A000F08B13B54FF000004FF00001AFF3008069
:1003B000BDE81C40704710B54C1084EA530404D5C6
:1003C0004042C1F1000138BF491E1B4204D55242D0
:1003D000C3F1000338BF5B1EFFF776FF14F0804FB8
:1003E00004D04042C1F1000138BF491E14F0004F53
:1003F00004D05242C3F1000338BF5B1E10BD0000A1
:100400000FB41CB5074B06AA7B44694600900598BB
:1004100000F041FA0020694600F050FA1CBC5DF87B
:1004200014FB0000B10400000FB41CB50C0007AAB7
:10043000009001D02044401E074B7B446946019048
:10044000069800F028FA002C03D06946002000F03E
:1004500035FA1CBC5DF814FB8904000070B5044635
:1004600085690068C10601D5302600E02026C00756
:1004700007D070BDD4E9012130469047206A401C66
:1004800020626D1EF6D570BD70B504468569007892
:10049000C00707D170BDD4E9012120209047206A10
:1004A000401C20626D1EF6D570BD70B50C46054629
:1004B000012A05D02878800600D5EA69002302E0E9
:1004C000012305E05B1C934202D2E05C0028F9D1D5
:1004D000A869E618C01AA861286A18442862284644
:1004E000FFF7BCFF04E0D5E9012114F8010B9047A8
:1004F000B442F8D32846FFF7C7FF70BD2DE9F0419D
:100500000646002410687529314616A510D0AFF3B1
:100510000080002802DA404213A507E031688A070C
:1005200001D512A502E0490704D511A5012401E077
:10053000AFF3008000210A2206F1240709E0B0FB96
:10054000F2FCB0FBF2F302FB1C003030785418468A
:10055000491C0028F3D123462A463046BDE8F04125
:1005600000F03BB9000000002D0000002B0000004F
:10057000200000002DE9F0474FF0000A89460446AC
:10058000C0F820A02046E1688847002876D02528BA
:1005900006D0D4E901219047206A401C2062F1E78F
:1005A000E168204600258847C4F81CA006460027BD
:1005B000C4F818A02A2E09D0304603F0B0FC38B396
:1005C00004EB8708303EC8F8186019E059F8041B9E
:1005D000204604EB87029161E1688847012F0646B7
:1005E00018D1E069002820DA25F020051DE0D8F8B0
:1005F000180000EB800006EB40003038C8F8180007
:100600002046E1688847064603F089FC0028EED1C1
:10061000012F0AD02E2E08D12046E16888477F1C82
:100620000646022F45F02005C4DBA069002803DA46
:10063000404245F00105A061E80701D025F0100512
:10064000B6B1A6F14100192802D8203645F400655C
:100650004A463146204625604D46FFF7F7FD58B122
:10066000012806D0ED1D25F0070000F1080989E7F3
:1006700004E005F1040985E730468AE7206ABDE811
:10068000F08710B5431C02E010F8011B71B181071F
:10069000FAD14FF0013202C88C1A8C4314EAC2110D
:1006A000F9D0C01A0A0603D0C01E10BDC01A10BD72
:1006B0000A0401D0801E10BD0902FCD0401E10BDEE
:1006C0004FF000020429C0F0128010F0030C00F07B
:1006D0001B80CCF1040CBCF1020F18BF00F8012BF9
:1006E000A8BF20F8022BA1EB0C0100F00DB85FEAC7
:1006F000C17C24BF00F8012B00F8012B48BF00F893
:10070000012B70474FF0000200B513469446964601
:10071000203922BFA0E80C50A0E80C50B1F1200114
:10072000BFF4F7AF090728BFA0E80C5048BF0CC0C2
:100730005DF804EB890028BF40F8042B08BF704720
:1007400048BF20F8022B11F0804F18BF00F8012B92
:10075000704700004FF0013C50F8042B51F8043B67
:100760009A4221D1A2EB0C03934313EACC1317D185
:1007700050F8042B51F8043B9A4215D1A2EB0C031C
:10078000934313EACC130BD150F8042B51F8043BDC
:100790009A4209D1A2EB0C03934313EACC13DBD0AA
:1007A0004FF00000704700BFD01A01BAB1FA81F1D2
:1007B00001F0180122FA01F0CB40C1F12001DBB2B7
:1007C000C0B2C01A2CFA01F3D11A914311EAC31135
:1007D000E6D170477047704770472DE9F0470D46E6
:1007E00099469246044600F124080168880604D51B
:1007F000E06921F01001216000E00120A84201DD44
:10080000471B00E00027A1697A1902EB0900081ACA
:10081000A0612078C00602D42046FFF71FFE002604
:1008200008E0D4E901211AF806009047206A401C2C
:10083000761C20624E45F4DB2078C0060AD520469F
:10084000FFF70CFE06E0D4E9012130209047206A32
:10085000401C2062381EA7F10107F4DC07E0D4E950
:10086000012118F805009047206A401C2062281ECC
:10087000A5F10105F3DC2046FFF706FE207800060F
:1008800002D50220BDE8F0870120FBE701694A1C80
:1008900002610878704700B58FB0CDE901310021C1
:1008A000059105497944CDE9031011466846FFF7E3
:1008B00061FE0FB000BD0000E5FFFFFF0A6802F80F
:1008C000010B0A607047D1E900239A4202D2531CFF
:1008D0000B601070704710B5436913B1AFF300801F
:1008E00001E0FFF7E2FD012010BD127800F12401C4
:1008F0000A7000224A700122EDE711684FF0FF32C2
:10090000E9E7754600F02CF8AE4605006946534607
:1009100020F00700854618B020B5FFF7C3FCBDE8FE
:1009200020404FF000064FF000074FF000084FF056
:10093000000B21F00701AC46ACE8C009ACE8C009E7
:10094000ACE8C009ACE8C0098D46704710B5044654
:10095000AFF300802046BDE81040FFF78EBC0000DA
:1009600000487047B80A002001491820ABBEFEE7D6
:1009700026000200704700000248417881F0010122
:100980004170704708000020FEE7704710B5002155
:1009900040F6B83405E0224602235B1C9342FCD3A8
:1009A000491C8142F7D310BD72B6FEE710B590F82E
:1009B000253000210122022B03D00421C163012133
:1009C00022E003681C6824F00E041C60836C1C6821
:1009D00024F480741C6003681C6824F001041C600B
:1009E00090F84430046C03F01F0302FA03F36360D1
:1009F000D0E913345C60436D33B11C6824F4807417
:100A00001C60D0E916345C6080F82520002280F854
:100A10002420084610BD70B590F82520002401213F
:100A20002346022A07D00422C26380F8251080F8EA
:100A30002430012429E00268156825F00E051560B0
:100A40000268156825F001051560826C156825F4AB
:100A50008075156090F84420056C02F01F0201FAC1
:100A600002F26A60D0E913255560426D32B1156813
:100A700025F480751560D0E91625556080F825109D
:100A800080F82430816B01B18847204670BD00009A
:100A900070B5044600F03CF90546601C02D00448DD
:100AA0004068044400F034F9401BA042FAD370BD02
:100AB000A80000202DE9F04FDFF820920023012646
:100AC0000324A9F1040B85B00F2709F1040AABF147
:100AD000040EFAE006FA03F52A407CD091F804C02F
:100AE0000CF0030CBCF1010F02D0BCF1020F26D1B7
:100AF000D0F808C0CDF800C04FEA430C04FA0CF857
:100B0000CDF810C0DDF800C02CEA080CCDF800C00C
:100B1000D1F80C80DDF810C008FA0CF8DDF800C040
:100B200048EA0C08C0F80880D0F804C02CEA050C8C
:100B30000D79C5F300159D4045EA0C0545600D791A
:100B4000ED43AD070ED0C5684FEA430804FA08FC30
:100B500025EA0C05D1F808C00CFA08FC4CEA050C93
:100B6000C0F80CC00D7905F00305022D16D1DD0883
:100B700000EB850CCDF808C0DCF820805D074FEA5B
:100B8000D56C07FA0CF528EA05080D6905FA0CF58D
:100B9000DDF808C045EA0805CCF8205005684FEAA2
:100BA000430CCDF808C004FA0CFC25EA0C0591F8BA
:100BB00004C00CF00308DDF808C008FA0CF848EA95
:100BC0000508C0F800804D6815F4403F7CD0444DC6
:100BD000D5F860C000E077E04CF0010CC5F860C0CB
:100BE0002D6E23F0030C05F0010500953D4D654485
:100BF0000295AD684FEA837C4FEA1C7807FA08FC3F
:100C000025EA0C05B0F1904F06D0DFF8DCC0604556
:100C100005D14FF0010C20E04FF0000C1DE0DFF893
:100C2000CCC0604502D14FF0020C16E0DFF8C0C026
:100C3000604502D14FF0030C0FE0DFF8B8C060450B
:100C400002D14FF0040C08E0DFF8ACC0604502D1DF
:100C50004FF0050C01E04FF0060C0CFA08FC4CEAD2
:100C6000050C029DC5F808C0D9F80050CC46D1F853
:100C7000048095435FEAC82800D51543CCF800509E
:100C8000DAF80050D446D1F8048095435FEA88280A
:100C900000D51543CCF80050DBF80050DC46D1F805
:100CA000048095435FEA883800D51543CCF800509E
:100CB000DEF80050F446D1F8048095435FEAC83866
:100CC00000D51543CCF800505B1C0A6832FA03F5D6
:100CD0007FF400AF05B0BDE8F08F000008040140CC
:100CE00000100240000001400004004800080048D5
:100CF000000C00480010004800140048006908403B
:100D000000D0012070470AB181617047816270474D
:100D10000148806870470000A800002002488168F0
:100D20004268114481607047A800002010B500247B
:100D3000032000F073F80F2000F008F808B1012438
:100D400001E000F025F8204610BD000070B50E4E01
:100D500005460024706898B14FF47A71B1FBF0F049
:100D60000A490968B1FBF0F000F0F8FE40B9102D17
:100D700006D200222946501E00F030F8356000E00F
:100D80000124204670BD0000A8000020B40000200F
:100D90000A4882B0016E41F001010166016E01F066
:100DA00001010091816D41F080518165806D00F0FD
:100DB0008050009002B000F0A1B800000010024086
:100DC000002809DB00F01F0201219140400980004A
:100DD00000F1E020C0F8001170470000F0B40E4BA5
:100DE0001B680C46C3F30223C3F10705042D00D989
:100DF0000425191D072901D2002300E0DB1E01266E
:100E000006FA05F1491E214099409E40761E164083
:100E10003143F0BC03F073B80CED00E0064900F07C
:100E2000070208684FF6FF03184040EA0220034A11
:100E300010430860704700000CED00E00000FA0568
:100E40002B492C4B0A6832214A432B4940B1B0F55B
:100E5000007F086829D020F4C06040F480602CE056
:100E60000868C0F34120022804D051F8800F20F414
:100E7000807022E0D1F8800020F48070C1F88000FA
:100E8000086820F4C06040F400700860B2FBF3F022
:100E9000401C00E0401E4A69520501D50028F9D1E6
:100EA000486940050AD503207047C0F34120022855
:100EB00006D051F8800F40F4807008600020704721
:100EC000D1F8800040F48070C1F88000086820F4F8
:100ED000C06040F400700860B2FBF3F0401C00E01A
:100EE000401E4A695205DBD50028F9D1D8E7000039
:100EF000B400002040420F000070004002488168AA
:100F000041F4804181607047007000402DE9F84352
:100F10000446006800269D4D00035ED5A86D00279D
:100F2000C00008D4A86D40F08050A865A86D0127C6
:100F300000F080500090DFF85892D9F8001041F48A
:100F40008071C9F80010FFF7E3FE804606E000BF9D
:100F5000FFF7DEFEA0EB080002282BD8D9F800002E
:100F6000C005F5D5D5F8900010F4407014D0216C70
:100F7000814211D0D5F89000D5F8901020F440703F
:100F800041F48031C5F89010D5F8901021F48031EB
:100F9000C5F89010C5F89000C00711D0FFF7B8FE53
:100FA000804641F2883907E0FFF7B2FEA0EB080166
:100FB000494501D903260BE0D5F890008007F3D509
:100FC000D5F89000216C20F440700843C5F89000DB
:100FD0001FB1A86D20F08050A8652078C00707D009
:100FE000D5F88800616820F003000843C5F8880040
:100FF0002078800707D5D5F88800A16820F00C007C
:101000000843C5F888002078400707D5D5F8880040
:10101000E16820F030000843C5F888002078000718
:1010200007D5D5F88800216920F0C0000843C5F82D
:1010300088002078800607D5D5F88800616920F4FB
:1010400040600843C5F888002078400607D5D5F8E9
:101050008800A16920F440500843C5F88800207832
:10106000000607D5D5F88800E16920F44040084320
:10107000C5F888002088C00507D5D5F88800216A02
:1010800020F440300843C5F888002088800507D543
:10109000D5F88800616A20F440200843C5F888002C
:1010A000208840050FD5D5F88800A16A20F44010AB
:1010B0000843C5F88800A06AB0F5801F03D1E8682E
:1010C00040F48010E860208800050FD5D5F888002E
:1010D000E16A20F440000843C5F88800E06AB0F5F2
:1010E000800F03D1E86840F48010E8602088C004D5
:1010F0000FD5D5F88800216B20F040700843C5F863
:101100008800206BB0F1807F03D1E86840F4801044
:10111000E86020884FF0006180040ED5D5F8880083
:10112000626B20F040601043C5F88800606B884215
:1011300003D1E86840F48010E860208840040ED5B0
:10114000D5F88800A26B20F040601043C5F88800F5
:10115000A06B884203D1E86840F48010E8602088E2
:1011600000040FD5D5F88800E16B20F0405008430B
:10117000C5F88800E06BB0F1805F03D1E86840F407
:101180008030E8603046BDE8F8830000001002407F
:10119000007000402DE9F0470E4605004FF00007B3
:1011A00025D0DFF8AC81D8F8000000F00F00B04285
:1011B0000CD2D8F8001021F00F013143C8F800100C
:1011C000D8F8000000F00F00B04210D12968614C3F
:1011D000C80741F2883A5AD06868DFF87C91032842
:1011E00008D0022820682DD0400500282CDB0120E3
:1011F000BDE8F08720688001F9D5E06800F00302BF
:10120000E068C0F30310401C032A19D0534A00BF02
:10121000B2FBF0F0E268C2F306225043E268C2F388
:101220004162521C5200B0FBF2F0484517D9A06849
:1012300010F0F00F0CD0880711D5A86840B10EE06F
:10124000474AE5E78003D0E700F0B6F8484506D9FD
:10125000A06820F0F00040F08000A0608027A06827
:10126000696820F003000843A060FFF751FD814644
:1012700006E000BFFFF74CFDA0EB090151453AD84D
:10128000A068696800F00C00B0EB810FF2D128680B
:10129000810714D5400703D5A06840F4E060A06042
:1012A0002878000705D5A06820F4605040F4E0607D
:1012B000A060A068A96820F0F000084304E0802F37
:1012C00003D1A06820F0F000A060D8F800104046DC
:1012D00001F00F01B14216D9016821F00F0131432D
:1012E0000160FFF715FD074607E000BFFFF710FD9F
:1012F000C11B514501D903207AE7D8F8000000F05E
:101300000F00B042F2D12878400705D5A068E968FF
:1013100020F4E0600843A0602878000706D5A068A4
:10132000296920F4605040EAC100A06000F044F850
:10133000A1680C4AC1F30311515C01F01F01C840C0
:101340000949086009480068BDE8F047FFF7FEBC9E
:10135000002002400010024000B4C4040024F40045
:1013600000366E01E2520008B4000020A800002000
:101370000548064900688968054AC1F30221515CA5
:1013800001F01F01C8407047B40000200010024067
:10139000F25200080548064900688968054AC1F309
:1013A000C221515C01F01F01C8407047B400002009
:1013B00000100240F2520008184910B58868C0F3C6
:1013C00081021748012A0BD08A68164BC2F38102AA
:1013D000022A06D08A68C2F38102032A03D00020C1
:1013E00010BD184610BDCA6802F00304CA68C2F3F3
:1013F0000312521C032C02D0B0FBF2F001E0B3FB4D
:10140000F2F0CA68C968C2F306225043C1F34161D1
:10141000491C4900B0FBF1F010BD00000010024073
:101420000024F40000366E012DE9F84304007AD060
:101430002078F84DC00747D0A868E96800F00C0094
:1014400001F003010C2802D0082817D001E003297D
:1014500014D06068B0F5803F17D0B0F5A02F286891
:1014600017D020F480302860286820F4802028607D
:101470006068E0B1FFF74CFC064614E02868800382
:1014800022D560680028D2D01EE0286840F4803061
:10149000EDE740F480202860F7E700BFFFF738FC55
:1014A000801B642870D828688003F7D50CE0FFF70C
:1014B0002FFC064605E000BFFFF72AFC801B6428CE
:1014C000F0D828688003F7D4207880074CD5A86826
:1014D000E96800F00C0001F003010C2802D0042898
:1014E0000DD001E002290AD0E068002828682BD03E
:1014F00040F480702860FFF70BFC064619E028686E
:10150000400502D5E068002891D06868217C20F071
:10151000FE4040EA01606860BF480068FFF716FCC3
:10152000002800D120E072E1FFF7F2FB801B0228C7
:10153000B8D828684005F7D56868217C20F0FE40BF
:1015400040EA016068600FE020F480702860FFF7D7
:10155000DFFB064605E000BFFFF7DAFB801B022831
:10156000A0D828684005F7D42078000729D56069FD
:101570000028D5F8940013D040F00100C5F894007D
:10158000FFF7C6FB064606E090E000BFFFF7C0FB92
:10159000801B022886D8D5F894008007F6D510E085
:1015A00020F00100C5F89400FFF7B2FB064604E006
:1015B000FFF7AEFB801B022878D8D5F8940080078F
:1015C000F6D42078400761D5A86D0026C00008D465
:1015D000A86D40F08050A865A86D012600F08050ED
:1015E00000908E480168C90511D40168804641F415
:1015F00080710160FFF78CFB074604E0FFF788FB72
:10160000C01B022852D8D8F80000C005F6D5A06843
:10161000012815D00528D5F8900016D020F001003B
:10162000C5F89000D5F8900020F00400C5F89000AF
:10163000A06841F28838B8B1FFF76AFB07460EE0B0
:10164000D5F8900040F00100F0E740F00400C5F844
:101650009000F5E7FFF75CFBC11B414526D8D5F8A4
:1016600090008007F6D50CE0FFF752FB074604E038
:10167000FFF74EFBC11B414518D8D5F890008007F5
:10168000F6D41EB1A86D20F08050A86520788006A1
:1016900029D5A0690028D5F8980013D040F00100A2
:1016A000C5F89800FFF734FB064606E075E000BF7A
:1016B000FFF72EFB801B02286FD8D5F89800800713
:1016C000F6D510E020F00100C5F89800FFF720FBE8
:1016D000064604E0FFF71CFB801B02285DD8D5F806
:1016E00098008007F6D4E069F0B3A968C1F38101DE
:1016F00003295DD00228286820F08070286003D07C
:10170000FFF706FB04464BE0FFF702FB064604E04A
:10171000FFF7FEFA801B02283FD828688001F7D423
:10172000F4E908016FF00F0202EB01110843218A6E
:101730005204490802EB4151A26841EA02210843E0
:10174000217D4FF07E42490802EB41610843217B35
:1017500040EAC160E968324A11400843E8602868FD
:1017600040F08070286000E05EE0E86840F0807043
:10177000E860FFF7CDFA044605E000BFFFF7C8FABE
:10178000001B022809D828688001F7D54CE000BF6B
:10179000FFF7BEFA001B022802D90320BDE8F88338
:1017A00028688001F4D4E8681E490840E8603BE0FE
:1017B0000128F3D0E868226A00F00301914226D1A3
:1017C000616A00F0F0020901103991421FD1A26A4A
:1017D00000F4FE41B1EB022F19D194F82C2000F057
:1017E0007841B1EBC26F12D1218E00F4C0024908DA
:1017F0004905A1F50011914209D194F8341000F087
:10180000C06049084906A1F1007181420CD0012055
:10181000C4E7000000100240A80000200070004053
:101820000C809F01FCFFEEFE0020B7E710B50068BA
:101830000B4641680D480140080CD870C1F30424E0
:101840005C7001F03F049C70C1F34231197052B9D1
:1018500001F027FCD870587801F023FC5870987874
:1018600001F01FFC9870002010BD00003FFFFF003A
:1018700010B50B4601688968596001680969C1F3B0
:101880000E019960006801680D480140C1F30540F0
:101890001870C1F306245C7001F07F049C70890D00
:1018A000D97052B901F0FDFB1870587801F0F9FBBE
:1018B0005870987801F0F5FB9870002010BD00007A
:1018C0007F7F7F0070B504004FF0010040D094F896
:1018D000250028B9002084F82400204600F040F8B4
:1018E000022084F825002068C168C943C90630D5A4
:1018F000CA214162216853204862204601F0E6FB7C
:1019000010BB20688169154A11408161216888698E
:101910006268A369104322691A43104388612189D0
:10192000E06840EA014021680861204601F0F3FBCD
:1019300050B9D4E90721114322686369956925F0FC
:1019400060452B43194391612268FF21516208B120
:1019500070BD0020012184F8251070BDBFFF8FFBF2
:1019600010B592B0044644216846FEF7CBFE1049FC
:10197000206888421AD14FF4002000904FF4407044
:1019800010906846FFF7C2FA08B1FFF70DF8094852
:1019900050F8901F41F4004140F83819016841F4B3
:1019A00080610160006800F48060119012B010BD89
:1019B000002800400010024070B5044690F8240052
:1019C0000B4601281BD0012684F82460022084F8ED
:1019D0002500B2B19878D97840EA0145587819784D
:1019E000000240EA413005432168CA20486221686C
:1019F00053204862204601F069FBD0B120E002206C
:101A000070BD5878C10603D500F0EF000A30587059
:101A1000D87801F04FFB0504587801F04BFB45EAFC
:101A20000025987801F046FB0543187845EA4035D3
:101A3000DAE70848054020684560204601F06BFB66
:101A40002268FF21516208B984F82560002184F8DA
:101A5000241070BD3FFFFF002DE9F041044690F8CF
:101A6000240090460D46012811D0012784F82470E7
:101A7000022084F825002168CA204862216853208A
:101A80004862204601F022FB002618B129E002201E
:101A9000BDE8F0812068B8F1000F80694FEA40602E
:101AA00024D0002800DBEE70A8782978EA7840EA94
:101AB00001406978090241EA825108431849084007
:101AC000216808602068816921F480218161D5E95D
:101AD0000301084321688A6910438861204601F0A8
:101AE0001AFB2268FF215162A0B115E0002800DB3B
:101AF000EE70287801F0DEFA0304687801F0DAFA73
:101B000043EA0023A87801F0D5FA0343E87843EAD2
:101B10008050D3E784F8257084F82460B8E700008B
:101B20007F7F7F0070B504460B482168C860FFF7CF
:101B3000EFF805464FF47A7607E000BFFFF7E8F8C4
:101B4000401BB04201D9032070BD2068C0688006E8
:101B5000F4D5002070BD00005F00010010B5401EEC
:101B6000B0F1807F01D3012010BD4FF0E02460610F
:101B70000F21601702F0C3F90020A0610720206147
:101B8000002010BD7047704770477047704770471E
:101B9000F0B590F83C20012A3AD0012580F83C505D
:101BA000022280F83D2003685A689C68194E1A4F3B
:101BB000B34201D0BB4204D122F4700C4A6842EA1D
:101BC0000C02DFF858C002EA0C02D1F800C04CEA5F
:101BD000020CC3F804C00268B2420DD0B2F1804FCB
:101BE0000AD00F4B9A4207D00E4B9A4204D0BA4209
:101BF00002D00D4B9A4204D1896824F08003194326
:101C0000916080F83D50002180F83C100846F0BDFE
:101C10000220F0BD002C0140003401408FFFFFFD89
:101C2000000400400008004000400140704710B52B
:101C3000040003D094F83D0010B107E0012010BD6E
:101C4000002084F83C00204600F022F8022084F8AE
:101C50003D00211D206801F06BFB012084F8480045
:101C600084F83E0084F83F0084F8400084F8410086
:101C700084F8420084F8430084F8440084F8450066
:101C800084F8460084F8470084F83D00002010BD29
:101C900008B500680B49884212D10B48816D41F0AC
:101CA00020018165806D002200F020000090114627
:101CB0003720FFF793F8BDE808403720FFF780B8DA
:101CC00008BD0000001400400010024090F83D10D4
:101CD000012901D001207047022180F83D100168E0
:101CE000CA6842F00102CA600068104988420ED0FA
:101CF000B0F1804F0BD00E49884208D00D49884280
:101D000005D00D49884202D00C49884207D181682C
:101D10000B4A1140062906D0B1F5803F03D0016877
:101D200041F001010160002070470000002C0140DB
:101D30000004004000080040003401400040014021
:101D40000700010070472DE9F04104460068C668AD
:101D500005694FF00007A90713D5B10711D5F91E82
:101D6000016101202077206880698007204602D029
:101D7000FFF7E8FF04E000F0B7F8204600F0B5F800
:101D80002777680716D5700714D521686FF004000F
:101D90000861022020772068806910F4407F204687
:101DA00002D0FFF7CFFF04E000F09EF8204600F0DD
:101DB0009CF82777280715D5300713D521686FF0D1
:101DC00008000861042020772068C0698007204649
:101DD00002D0FFF7B7FF04E000F086F8204600F0DD
:101DE00084F82777E80616D5F00614D521686FF039
:101DF00010000861082020772068C06910F4407F37
:101E0000204602D0FFF79EFF04E000F06DF8204668
:101E100000F06BF82777E80708D0F00706D02168B4
:101E20006FF001000861204600F060F8280601D438
:101E3000A80408D5300606D521686FF40250086161
:101E40002046FFF7A0FEE80508D5300606D5216834
:101E50006FF4807008612046FFF794FE680608D58D
:101E6000700606D521686FF040000861204600F03A
:101E70009FF8A80608D5B00606D521686FF02000A7
:101E800008612046FFF780FEE80208D5F00206D57B
:101E900021686FF4801008612046FFF777FEA802E2
:101EA00008D5B00206D521686FF4001008612046FD
:101EB000FFF76BFE680208D5700206D521686FF443
:101EC000800008612046FFF762FE28020AD5300232
:101ED00008D521686FF4000008612046BDE8F04194
:101EE000FFF7A4BEBDE8F0817047704770B529497F
:101EF000294C884206D1D4E90E01401C41F1000171
:101F0000C4E90E01D4E90E014FF47A720023FEF702
:101F100052FA1A4302D1A068401CA060E0694FF653
:101F2000FF7500280EDA0020E061A071E0701A4809
:101F30007D30FEF7A6FB184982B22B467D3117484B
:101F400000F0F0FAA079002822D0D4E90E10D4E9EC
:101F500010238E1A60EB03024FF47A73F31A72F1B6
:101F6000000215DBC4E91010E269521EE261002A8A
:101F70000EDD0BA10D48FEF743FA0C48FEF781FB7E
:101F80002B46BDE8704082B20849044800F0CABA46
:101F900070BD0000D808002008000020240A00209E
:101FA00054696D653A202564530D0A00C804002069
:101FB000704790F88410012918D0012180F884100E
:101FC0002421C0F8881001680A680B6823F0010317
:101FD0000B6022F000510022426603681960202144
:101FE000C0F8881080F8842010467047022070479F
:101FF0007047704770B5044690F8840001281DD0E2
:10200000012084F884002420C4F888002068056832
:10201000026822F0010202602068826822F0606299
:102020000A438260204601F0E1F920680560202023
:10203000C4F88800002084F8840070BD022070BDC0
:1020400070B5044690F8840001281DD0012084F862
:1020500084002420C4F8880020680568026822F003
:10206000010202602068826822F060420A438260B6
:10207000204601F0BBF9206805602020C4F88800E4
:10208000002084F8840070BD022070BD7047704746
:10209000704700002DE9F04103680446D8691968CB
:1020A0009A6840F60F0528424FF000054FF00206EF
:1020B0000AD187067ED501F0200702F0805C57EA3E
:1020C0000C0777D0616F42E1B64FDFF8DCC21740F2
:1020D00001EA0C0C57EA0C0C6CD05FEAC07C0CD007
:1020E0005FEAC15C09D54FF0010CC3F820C0D4F8F9
:1020F000903043F00103C4F89030830709D5D3072B
:1021000007D023681E62D4F8903043F00403C4F86B
:10211000903043070AD5D30708D0266804233362DA
:10212000D4F8903043F00203C4F8903003070CD584
:1021300001F020033B4308D0266808233362D4F81B
:10214000903043F00803C4F8903003050BD54B01E1
:1021500009D526684FF400633362D4F8903043F019
:102160002003C4F89030D4F89030002B3DD0800686
:1021700009D501F0200002F08051084303D0616FBF
:1021800009B120468847D4F890002168896849063B
:1021900002D410F0280F2AD0204601F00BFA206854
:1021A000806840061ED52068083050E8001F21F0E6
:1021B000400100E021E040E80012002AF3D1D4F809
:1021C000800078B179498163D4F88000FEF723FC60
:1021D00000280AD0D4F88000816B00E02046BDE8DA
:1021E000F04108472046FFF753FFBDE8F081204645
:1021F000FFF74EFFC4F89050F7E7D4F86CC02027E3
:10220000BCF1010F7ED15FEAC06C7BD55FEAC16C87
:1022100078D51020186220688068400651D5D4F81F
:1022200080100A6850680004000C3ED0B4F85C309E
:1022300083423AD9A4F85E000868006880062CD46E
:10224000216851E8000F20F4807041E80002002A64
:10225000F6D12068083050E8001F21F0010140E865
:102260000012002AF5D12068083050E8001F21F044
:10227000400140E80012002AF5D1C4F88C70E566F0
:10228000216851E8000F20F0100041E80002002A08
:10229000F6D1D4F88000FEF789FB2667B4F85C001D
:1022A000B4F85E10401A81B207E0B4F85C108142C5
:1022B0009BD11068800698D526672046FFF798FEC8
:1022C00093E7B4F85C00B4F85E10401A81B2B4F839
:1022D0005E00002889D0002987D0226852E8000FCC
:1022E00020F4907042E80003002BF6D12D4BDB4325
:1022F0002068083050E8002F1A4040E8002CBCF15C
:10230000000F00E00EE0F3D1C4F88C70E56665675D
:10231000206850E8002F22F0100240E80023002B34
:10232000F6D1C9E7C60209D5560207D54FF4801089
:1023300018622046BDE8F041FFF7A9BE03060AD5A2
:1023400001F0800302F40002134304D0A16F0029BE
:102350007FF444AF49E7420611D54A060FD520461F
:10236000016851E8002F22F0400241E80023002BD1
:10237000F6D1C0F88870856700F02BF935E70202C6
:1023800006D54A0004D52046BDE8F041FFF77EBEE1
:10239000C00195D5002993DA2046BDE8F041FFF74A
:1023A00028BE00000100001020010004A53500082F
:1023B00010B5040003D0D4F8880010B107E0012064
:1023C00010BD002084F88400204600F027F8242067
:1023D000C4F888002068016821F001010160A06A4A
:1023E00010B1204601F024F8204601F075FB0128C9
:1023F000E6D02068416821F49041416020688168FE
:1024000021F02A0181602068016841F0010101602A
:102410002046BDE8104001F06FB8000010B598B03C
:102420000446142111A8FEF76DF944216846FEF711
:1024300069F91B492068884230D101200024CDE988
:1024400000046846FEF762FD08B1FEF7ADFA1548D4
:10245000016E41F480410166016E01F480411691E4
:10246000C16C41F00101C164C06C11A900F0010010
:1024700016904FF4C06011900220CDE9120407209D
:10248000CDE914404FF09040FEF714FB00221146B6
:102490002520FEF7A3FC2520FEF792FC18B010BD06
:1024A000003801400010024030B4D0F88C30202BAE
:1024B00002D0022030BC7047A9B1A2B10023C3668C
:1024C0000A4C0368A3420BD05B681B0208D5046862
:1024D00054E8003F43F0806344E80035002DF6D116
:1024E00030BC01F033BC0120E4E700000080004074
:1024F0000A49884211D10A48A1F58073416842789F
:102500005A54491C41600A2A01D101210170044931
:102510000122491C0148FFF7C7BF7047240A002069
:10252000A00000202DE9F8430446D0F88800984622
:1025300016460D46202802D00220BDE8F883A5B13A
:102540009EB10020C4F890002120C4F888001834FF
:10255000FEF7DEFBA6878146E68754F8100C20279D
:10256000183CB0F5805F02D003E00120E5E7206968
:1025700010B12E46002510E000260EE080212046F6
:1025800001F06CFCC0B9DEB116F8010B216888625D
:10259000B4F85600401EA4F85600B4F856004B4656
:1025A0004FF00002CDF800800028E7D14FF0400145
:1025B000204601F053FC40B1C4F888700320BCE70A
:1025C00035F8020BC0F30800E0E7C4F8887000207B
:1025D000B3E77047FEE7000070B52B4801682B4C4D
:1025E000A269891A0A2947D30068A06101F09EFCFC
:1025F00001262071012806D0022806D0032804D025
:10260000042802D002E0667100E06071A079002524
:1026100010B96179012909D0E17821B16279022AE2
:102620001FD0032A21D0084327D02AE0002000F041
:1026300005FAA671E570D4E90E01C4E910016571CF
:1026400013A11648E269FDF7DBFE1448FEF719F8FE
:10265000BDE8704082B24FF6FF7310491048FFF793
:1026600061BFE069401CE0610BE0E069401EE06191
:10267000657101D5401CE06170BD6079042800D10E
:10268000E670657170BD0000B000002008000020F9
:1026900054696D653A202564530D0A00C804002072
:1026A000240A002000B585B014216846FEF72AF8F8
:1026B0004FF6FF70009000200321CDE90201019048
:1026C00069460248FEF7F6F905B000BD000800486B
:1026D00000B585B014216846FEF714F84FF6FF7078
:1026E0000090012001900320039000200290694691
:1026F0000248FEF7DFF905B000BD00000008004801
:1027000070B5002406462146204600F0FBF800F094
:1027100031F94FF49635304600F000F9641CAC42B4
:10272000F9D370BD30B587B014216846FDF7EAFFD4
:102730001E48C16C41F00401C164C16C01F0040188
:102740000591C16C41F00101C164C16C01F001014E
:102750000591C16C41F00201C164C06C012500F01B
:10276000020005904FF44870CDE900050024039461
:10277000694602940E48FEF79DF9280203940090E2
:10278000CDE901544FF0904469462046FEF792F996
:10279000FFF79EFFA06940F48070A06104481830E4
:1027A000016841F40871016007B030BD00100240BB
:1027B00000040048203AD2B2034B02EB420203EB82
:1027C000021200F019B80000EA400008F0B50E4609
:1027D0000746002540F23F1407E021463846FFF740
:1027E000E9FF103C6D1CA4B2761C3278002A01D09F
:1027F000142DF2D3F0BD00002DE9F04791468A4632
:102800000026044600F07EF8DFF84080012700BF74
:1028100000F0B0F85FF0000539F8160007FA05F18E
:102820000842404601D1408800E0008800F076F878
:102830006D1C102DF0D3641CE4B25146204600F00C
:1028400061F8761C182EE3D3BDE8F0870000002065
:1028500010B5FFF767FF002000F014F8084CA080C7
:10286000A088A0F50241303906D000F019FB002005
:1028700000F008F8A08010BD00F089FAF7E700002A
:102880000000002070B51D490A6842F400720A6019
:102890000A6842F480720A60184C103C226842F0C8
:1028A00020022260164A1060086840F0200008608C
:1028B00000BF00BF00BF206840F0200020602068FB
:1028C00040F480702060FFF7EDFE4FF09041886A81
:1028D00040F48070886200BF00BF00BF0848001F3E
:1028E000006885B2886940F480708861FFF7F0FE67
:1028F000206840F400702060284670BD280400481D
:102900001408004810B50C460146202000F060F87D
:102910002146BDE81040212000F05AB8134A116842
:1029200041F400711160114910390B6843F4807350
:102930000B600B6843F020030B600D4B18601068B0
:1029400040F02000106000BF00BF00BF086840F0EA
:1029500020000860086840F48070086000BF00BF75
:1029600000BF086840F40070086070472804004801
:10297000140800481449086840F4007008600868AA
:1029800040F48070086010481038026842F020025D
:1029900002600E4B22221A600A6842F020020A608E
:1029A00000BF00BF00BF016841F020010160016865
:1029B00041F48071016000BF00BF00BF016841F4B5
:1029C00000710160704700002804004814080048A6
:1029D000184B10B51A6842F400721A601A6842F473
:1029E00080721A60134A103A146844F0200414608C
:1029F000114C2060186840F02000186000BF00BF34
:102A000000BF106840F020001060106840F4807033
:102A100010602160186840F02000186000BF00BFFF
:102A200000BF106840F020001060106840F4807013
:102A3000106010BD280400481408004831B5124C3D
:102A400001224FF47F412046FEF75DF90F4D012230
:102A500004212846FEF757F9002204212846FEF7F4
:102A600052F99DF80000002201022046FEF74BF9C2
:102A7000012204212846FEF746F92846BDE83840E1
:102A800000220421FEF73FB900080048000C00486E
:102A900038B52B4801682B4CE268891AC8294ED3F7
:102AA0000068E060002228492848FEF7E1FE002285
:102AB00004F130012548FEF7B9FE1820216A01F023
:102AC000ABFA23A12548E269FDF79AFC2349482087
:102AD00001F0A2FA1C48817800914378027820A185
:102AE0001E48FDF78DFC1D49C02001F095FA04F148
:102AF0003000817800914378C27819A11748FDF71A
:102B00007FFC1649D82001F087FAE07868B1602090
:102B1000E16A01F081FAFDF72FFF607800B1A0783B
:102B20002070BDE83840FFF789BFA07908B1616A1D
:102B300000E0A16ABDE83840602001F06DBA38BD00
:102B4000B000002008000020B4040020B0080020DD
:102B500054696D653A20256453000000CC000020C4
:102B600025643A25643A256400000000F0B587B07A
:102B700014216846FDF7C6FD2D48C16C41F00401E3
:102B8000C164C16C01F004010591C16C41F02001E8
:102B9000C164C16C01F020010591C16C41F00101DB
:102BA000C164C16C01F001010591C16C41F00201E9
:102BB000C164C16C01F002010591C16C41F00801D2
:102BC000C164C06C1B4E00F008004FF47F440590B8
:102BD000002221463046FEF796F8174F00220421C6
:102BE0003846FEF790F80125CDE90045002402940F
:102BF000694630460394FDF75DFFCDE90054694610
:102C00004FF090400294FDF755FF0720CDE90004F6
:102C100069460A480294FDF74DFF04200090CDE973
:102C20000154694638460394FDF744FF07B0F0BDF0
:102C30000010024000080048000C00480004004852
:102C400030B587B014216846FDF75CFD21480024AB
:102C50001F490594C0E900144A21816042F20F71B6
:102C6000C0E903144FF080414461C0E906410462A9
:102C7000FEF728FE08B1FDF797FE23258DF80050DA
:102C800059208DF8010050208DF802000194039422
:102C9000012269460F480494FEF7DEFE08B1FDF7F5
:102CA00083FE01208DF8140009208DF815003020D6
:102CB0008DF816008DF81750012205A90548FEF77A
:102CC0007BFE002801D0FDF76FFE07B030BD00008D
:102CD00000280040B00800203EB500240F480094B2
:102CE00001940D49029401604FF4FA51C0E90114B6
:102CF00009218461C160FEF79AFF08B1FDF754FE17
:102D00000094694605480294FEF742FF002801D06E
:102D1000FDF74AFE3EBD000000140040D808002028
:102D2000184810B5164901604FF4E13141600021A7
:102D300081600C22C160C0E904128161C16101623D
:102D400041628162FFF734FB08B1FDF72DFE0021DF
:102D50000C48FFF775F908B1FDF726FE0021094878
:102D6000FFF748F908B1FDF71FFE0648FFF721F904
:102D7000002803D0BDE81040FDF716BE10BD0000CE
:102D800000380140240A0020FEE7FEE7704730B516
:102D900001210020FFF71CFE4FF47A70FDF7F6FDCD
:102DA00000210120FFF714FE41F290711020FFF77F
:102DB0000FFE4FF41C516020FFF70AFE0121612035
:102DC000FFF706FE02214620FFF702FE48F210013F
:102DD0001320FFF7FDFD48F2FE011220FFF7F8FD7A
:102DE0004FF4A0610220FFF7F3FD41F23001032010
:102DF000FFF7EEFD40F2033421463020FFF7E8FDF7
:102E000021463120FFF7E4FD21463220FFF7E0FDA7
:102E1000E51E29463320FFF7DBFD03213420FFF7B1
:102E2000D7FD21463520FFF7D3FD14213620FFF7CB
:102E3000CFFD21463720FFF7CBFD21463820FFF795
:102E4000C7FD21463920FFF7C3FD29463A20FFF789
:102E5000BFFD03213B20FFF7BBFD21463C20FFF7D0
:102E6000B7FD4FF4A0513D20FFF7B2FD4FF40071C4
:102E70009220FFF7ADFD21469320FFF7A9FD40F614
:102E80000D019020FFF7A4FD41F218010320FFF788
:102E90009FFDBDE8304040F273110720FFF798BD59
:102EA00010B543F20801E320FFF792FD1221E7205D
:102EB000FFF78EFD41F23121EF20FFF789FD002160
:102EC0000120FFF785FD4FF4E0610220FFF780FD50
:102ED00041F230010320FFF77BFD00210420FFF7C2
:102EE00077FD40F207210820FFF772FD002109203D
:102EF000FFF76EFD00210A20FFF76AFD00210C207C
:102F0000FFF766FD00210D20FFF762FD00210F2075
:102F1000FFF75EFD00211020FFF75AFD0721112069
:102F2000FFF756FD00211220FFF752FD002113206C
:102F3000FFF74EFDC820FDF7ABFD41F29061102078
:102F4000FFF746FD40F227211120FFF741FD322017
:102F5000FDF79EFD1D211220FFF73AFD3220FDF7FF
:102F600097FD4FF400611320FFF732FD1421292053
:102F7000FFF72EFD0B212B20FFF72AFD3220FDF756
:102F800087FD00212020FFF723FD00212120FFF7EE
:102F90001FFD07213020FFF71BFD40F20771312094
:102FA000FFF716FD06213220FFF712FD40F20471F3
:102FB0003520FFF70DFD41F604713620FFF708FDBF
:102FC00004213720FFF704FD00213820FFF700FD22
:102FD00040F206713920FFF7FBFC40F201713C2002
:102FE000FFF7F6FC0F213D20FFF7F2FC00215020F7
:102FF000FFF7EEFCEF215120FFF7EAFC0021522001
:10300000FFF7E6FC40F23F115320FFF7E1FC4FF4DD
:103010001C516020FFF7DCFC01216120FFF7D8FC88
:1030200000216A20FFF7D4FC00218020FFF7D0FCAC
:1030300000218120FFF7CCFC00218220FFF7C8FC93
:1030400000218320FFF7C4FC00218420FFF7C0FC8F
:1030500000218520FFF7BCFC10219020FFF7B8FC71
:1030600000219220FFF7B4FC03219320FFF7B0FC6E
:103070004FF488719520FFF7ABFC00219720FFF7F4
:10308000A7FC00219820FFF7A3FC41F218010320C0
:10309000FFF79EFCBDE8104040F273110720FFF7D8
:1030A00097BC010901EB810100F00F0000EB41002A
:1030B000C0B270470022014602E00A39C9B2521C70
:1030C0000A29FAD2100741EA106070472DE9F04151
:1030D000044600680025C168490619D4C16841F05A
:1030E0008001C160FDF714FE06464FF47A7803278D
:1030F00008E000BFFDF70CFE801B404502D9032508
:1031000084F825702068C068400601D4032DF1D1F1
:103110002846BDE8F08170B5044600680025C16806
:1031200021F08001C160206881694FF003068906A3
:1031300007D42046FEF7F6FC98B184F825600325F5
:103140000FE0816921F0200181612046FEF7EAFC51
:1031500010B184F8256003252068816941F02001C1
:103160008161284670BD00002DE9F0413C4E307869
:10317000012872D13B4C01270025E0784FF6FF78FB
:1031800001282ED138A13A48FDF7E4FA18B1E078C9
:1031900001280CD025E0E069401CE0613148563040
:1031A000FDF76FFA2F4982B2434656314AE031A10A
:1031B0002F48FDF7CFFA18B1E07801280CD010E0C5
:1031C000E069401EE06127486230FDF75AFA254960
:1031D00082B24346623135E029A12548FDF7BAFAAB
:1031E00020B1E078A17908431ED02EE0A771E570E8
:1031F000D4E90E01C4E910011A487030FDF741FA14
:10320000184982B24746434670311F48FFF78AF992
:103210001EA12148E269FDF7F3F81F48FDF731FAD6
:1032200082B23B461C490DE01CA11148FDF792FA01
:1032300058B90C48E7708830FDF723FA094982B283
:10324000434688311048FFF76DF94FF48071084804
:10325000FDF736FA134805603570BDE8F0810000CF
:10326000A000002008000020706C75730D0A00009B
:10327000240900207265647563650D0A0000000072
:1032800073746172740D0A00240A002054696D651C
:103290003A202564530D0A00C80400207365740D9C
:1032A0000A000000A40000207047FDF737BD10B5EC
:1032B00094B038216846FDF725FA14210EA8FDF7D1
:1032C00021FA4FF40070FDF7BBFD012000900004CF
:1032D000019002200324CDE907041421CDE90A104E
:1032E0000C900D9009946846FEF79EF808B172B6EE
:1032F000FEE70F20CDE90E040020109011901290EF
:1033000002210EA8FDF746FF002801D072B6FEE7A5
:1033100014B010BD0248016841F4700101607047AB
:1033200088ED00E00148FEF70EBD0000D80800203F
:103330002DE9F0430268264B264D274E274C4FF0CF
:103340008049984207D0484505D0A84203D0B042F2
:1033500001D0A04203D122F070074A683A43204FBF
:10336000DFF880C0DFF8808098420DD048450BD050
:10337000A84209D0B04207D0A04205D0B84203D03D
:10338000604501D0404503D122F44075CA682A4304
:103390004D6922F080022A4302608A68C2620A688C
:1033A0008262984207D0A04205D0B84203D060455F
:1033B00001D0404501D109690163012141610169E1
:1033C000C90703D0016921F001010161BDE8F08363
:1033D000002C01400004004000080040003401407F
:1033E00000400140004401400048014030B5416EBA
:1033F000B9B1026891689268C1F342610B4B520FF8
:103400009C5CE50003F10804A25CB5FBF2F2A0F8B5
:103410006A205A5C615CD200B2FBF1F1A0F868103E
:1034200030BD0121A0F86A10F8E70000D252000870
:1034300090F82810090706D501684A68836B22F4C2
:1034400000421A434A6090F82810C90706D0016864
:103450004A68C36A22F400321A434A6090F828107E
:10346000890706D501684A68036B22F480321A4343
:103470004A6090F82810490706D501684A68436BEE
:1034800022F480221A434A6090F82810C90606D513
:1034900001688A68C36B22F480521A438A6090F8EC
:1034A0002810890606D501688A68036C22F4005248
:1034B0001A438A6090F82810490611D501684A68B5
:1034C000436C22F480121A434A60416CB1F5801FAC
:1034D00006D101684A68836C22F4C0021A434A602C
:1034E00090F82810090606D501684A68C06C22F4D5
:1034F000002202434A6070472DE9F8430026044643
:10350000C0F89060FDF704FC8046206800684FF02A
:10351000200500076FF07E4713D54346002229049B
:103520002046009700F09AFC58B1216851E8000F3E
:1035300020F0800041E80002002AF6D1C4F888504B
:1035400021E020680068400722D5434600224FF45E
:1035500080012046009700F081FCC8B1216851E845
:10356000000F20F4907041E80002002AF6D1206894
:10357000083050E8001F21F0010140E80012002A45
:10358000F5D1C4F88C5084F884600320BDE8F8833A
:10359000C4F88850C4F88C5044F86C6F6660267686
:1035A0000020F3E710B5806A0021A0F85E10FEF756
:1035B0006FFD10BD10B5026852E8001F21F4907134
:1035C00042E80013002BF6D10E4B0268083252E895
:1035D000001F194042E80014002CF6D1C16E0129E9
:1035E00008D1016851E8002F22F0100241E80023C1
:1035F000002BF6D12021C0F88C100021C166416754
:1036000010BD0000FEFFFFEF10B5B0F86020D0F84D
:103610008C300168222B04D0886940F00800886152
:1036200010BD496A836D11401980816D891C8165C7
:10363000B0F85E10491EA0F85E10B0F85E100029C8
:10364000EED1026852E8001F21F4907142E80013A5
:10365000002BF6D10168083151E8002F22F0010259
:1036600041E80023002BF5D12021C0F88C10002167
:1036700041670167154B02689A420BD052681202EB
:1036800008D5036853E8002F22F0806243E8002445
:10369000002CF6D1C26E012A02D0FEF729FF10BD20
:1036A000C166026852E8001F21F0100142E80013D1
:1036B000002BF6D10168CA69D243D20601D4102288
:1036C0000A62B0F85C10FEF793FC10BD0080004069
:1036D0002DE9F0470446B0F860600068C569D0F88D
:1036E00000A0D0F80890D4F88C10222905D0816968
:1036F00041F008018161BDE8F087B4F868704FF0CF
:10370000000844E02068406AA16D30400880A06D48
:10371000801CA065B4F85E00401EA4F85E0020681E
:10372000C569690730D0E9070AD05FEACA5107D5F1
:1037300001210162D4F8900040F00100C4F890002B
:10374000A8070BD55FEAC97008D02168022008627B
:10375000D4F8900040F00400C4F8900068070BD53E
:103760005FEAC97008D0216804200862D4F890008C
:1037700040F00200C4F89000D4F8900020B1204638
:10378000FEF786FCC4F89080B4F85E0000B30FB179
:10379000A806B7D4B4F85E000028ACD0B4F868101E
:1037A0008142A8D92068083050E8001F21F08051DC
:1037B00040E80012002AF5D12A486067206850E8E6
:1037C000001F41F0200140E80012002AF6D192E7E4
:1037D000216851E8000F20F4807041E80002002ABF
:1037E000F6D1214A2068083050E8001F114040E817
:1037F0000013002BF6D12020C4F88C00C4F874808C
:103800004046C4F87080194A216891420BD049683B
:10381000090208D5226852E8001F21F0806142E8C1
:103820000013002BF6D1E16E012903D02046FEF7EC
:103830005FFEAFE7E066216851E8000F20F010005E
:1038400041E80002002AF6D12068C169C943C906CF
:1038500001D410210162B4F85C102046FEF7C8FBC9
:1038600098E7000009360008FEFFFFEF00800040E7
:1038700010B5B0F86020D0F88C300168222B04D04D
:10388000886940F00800886110BD496A1140826D66
:103890001170816D491C8165B0F85E10491EA0F859
:1038A0005E10B0F85E100029EED1016851E8002FDB
:1038B00022F4907241E80023002BF6D10168083110
:1038C00051E8002F22F0010241E80023002BF5D13E
:1038D0002021C0F88C10002141670167154B026858
:1038E0009A420BD05268120208D5036853E8002FA1
:1038F00022F0806243E80024002CF6D1C26E012A37
:1039000002D0FEF7F5FD10BDC166026852E8001F47
:1039100021F0100142E80013002BF6D10168CA69BA
:10392000D243D20601D410220A62B0F85C10FEF72E
:103930005FFB10BD008000402DE9F0470446B0F861
:1039400060600068C569D0F800A0D0F80890D4F88D
:103950008C10222905D0816941F008018161BDE800
:10396000F087B4F868704FF0000844E02068406ABF
:10397000A16D30400870A06D401CA065B4F85E00D9
:10398000401EA4F85E002068C569690730D0E907C9
:103990000AD05FEACA5107D501210162D4F890002C
:1039A00040F00100C4F89000A8070BD55FEAC97089
:1039B00008D0216802200862D4F8900040F004008A
:1039C000C4F8900068070BD55FEAC97008D0216879
:1039D00004200862D4F8900040F00200C4F890007F
:1039E000D4F8900020B12046FEF752FBC4F8908036
:1039F000B4F85E0000B30FB1A806B7D4B4F85E0007
:103A00000028ACD0B4F868108142A8D920680830EA
:103A100050E8001F21F0805140E80012002AF5D143
:103A20002A486067216851E8000F40F0200041E813
:103A30000002002AF6D192E7216851E8000F20F435
:103A4000807041E80002002AF6D1214A206808303F
:103A500050E8001F114040E80013002BF6D1202051
:103A6000C4F88C00C4F874804046C4F87080194AC9
:103A7000216891420BD04968090208D5226852E8B2
:103A8000001F21F0806142E80013002BF6D1E16EA7
:103A9000012903D02046FEF72BFDAFE7E066206842
:103AA00050E8001F21F0100140E80012002AF6D172
:103AB0002068C169C943C90601D410210162B4F864
:103AC0005C102046FEF794FA98E700007138000871
:103AD000FEFFFFEF008000402DE9F0410446016841
:103AE00080682269E3691043626900251A43104324
:103AF000DFF82CC20A688B4B1A4002430A60206828
:103B00004168E26821F44051114341602168A06995
:103B1000614501D0226A10438A68834B1A400243F0
:103B20008A602068C16A626A21F00F011143C16294
:103B30007E4923687E488B420DD1D0F8880010F072
:103B4000030006D0012855D0022842D003283FD1D7
:103B500052E001203DE077498B420BD1D0F888003C
:103B600010F00C0035D0042833D0082840D00C28A1
:103B70002ED141E070498B420BD1D0F8880010F073
:103B8000300026D0102835D0202831D030281FD141
:103B900032E06A498B420BD1D0F8880010F0C000A7
:103BA00017D0402826D0802822D0C02810D123E06A
:103BB00063450DD1D0F8880010F4406009D0B0F50D
:103BC000806F17D0B0F5006F12D0B0F5406F13D0F2
:103BD00010205B495B4F00264FF4004263453BD108
:103BE00060B1022813D004280BD0082872D10DE050
:103BF0000220EEE70420ECE70820EAE7FDF7B8FB37
:103C000001E0FDF7D9FB010001D17CE01146606ABB
:103C100037F810206768B1FBF2F007EB47038342E7
:103C200070D8B0EB073F6DD8002308461946FCF763
:103C30004BFB090241EA1061020278081018714139
:103C40003A460023FCF740FB3F4AA0F54071914201
:103C500058D82168C86056E0E3694FF6EF78934280
:103C60002CD109284ED2DFE800F00508114D0D4D8A
:103C70004D4D1000FDF77CFB01E0FDF78BFB0100D3
:103C800004D140E0FDF798FBF9E71146606A37F888
:103C90001000B1FBF0F04100606801EB5001B1FB96
:103CA000F0F0A0F1100141452CD84FF6F071014021
:103CB000C0F3420001432068C16024E0092821D2FA
:103CC000DFE800F0050912200E2020201100FDF78A
:103CD0004FFB02E016E0FDF75DFB010004D112E0AE
:103CE000FDF76AFBF9E71146606A37F81000B1FB8F
:103CF000F0F1606801EB5001B1FBF0F0A0F11001B0
:103D000041450AD901250120A4F86A0024F8680F6A
:103D10002846E6602661BDE8F08180B299E70000A0
:103D200000800040F369FFCFFFF4FF11003801402D
:103D3000001002400044004000480040004C004099
:103D40000024F400BA520008FFFC0F0070B5816532
:103D5000A0F85C20A0F85E200023436781684FF440
:103D60008056FF24B14204D10169F9B940F2FF1134
:103D700022E07F25C1B1B1F1805F1AD0A0F8603098
:103D8000C0F890302221C0F88C100168083151E849
:103D9000003F43F0010341E80034002CF5D1416EAF
:103DA000B1F1005F0ED031E0016941B9A0F8604087
:103DB000E6E7016919B13F21A0F86010E0E7A0F83B
:103DC0006050DDE7B0F8681091421FD88168B142B9
:103DD00001D10169B9B11D494167016941B1026869
:103DE00052E8001F41F4807142E80013002BF6D125
:103DF0000168083151E8002F42F0805241E8002369
:103E0000002BF5D120E012494167F1E78168B1420A
:103E100001D1016969B10F494167016959B102686E
:103E200052E8001F41F4907142E80013002BF6D1D4
:103E30000AE009494167026852E8001F41F0200189
:103E400042E80013002BF6D1002070BD393900087C
:103E5000D136000871380008093600082DE9F0470E
:103E6000994617460D4604464FF00008089E33E079
:103E7000701C31D0FCF74CFFA0EB0900B04218D801
:103E8000BEB120680168490726D5802D24D0402D79
:103E900022D0C169C94309070DD40825056220460F
:103EA000FFF788FBC4F8905084F884800120BDE8B7
:103EB000F0870320FBE7C069C04300050CD42168EC
:103EC0004FF4006008622046FFF774FB2020C4F81E
:103ED000900084F88480ECE72068C06935EA00002F
:103EE00004D00020B842C3D00020E0E70120F9E769
:103EF0000148FEF7CFB80000240A0020FEE70907BA
:103F0000090E002804DB00F1E02080F8001470475F
:103F100000F00F0000F1E02080F8141D70473038E9
:103F20000A2801D201207047002070472DE9F04196
:103F3000374E0025374C30782F464FF0904820B14F
:103F4000012818D002285FD149E001212046FCF762
:103F5000D5FE70B102212046FCF7D0FE48B1042105
:103F60002046FCF7CBFE20B101214046FCF7C6FEFF
:103F700080BB012031E001212046FCF7BFFE70B17B
:103F800002212046FCF7BAFE48B104212046FCF786
:103F9000B5FE20B101214046FCF7B0FED0B90121A9
:103FA0002046FCF7ABFE78B102212046FCF7A6FEC6
:103FB00060B104212046FCF7A1FE48B10121404632
:103FC000FCF79CFE38B107E0012505E0022503E07F
:103FD000032501E017E004250220307014E00121E0
:103FE0002046FCF78BFE78B102212046FCF786FEC6
:103FF00050B104212046FCF781FE28B10121404642
:10400000FCF77CFE00B137702846BDE8F081000067
:104010009C000020000400487FB505460C46084679
:10402000FCF72FFBC0F11400430809A008A1CDE95B
:104030000014CDE9023007A214210948FCF7F4F975
:1040400004B02846BDE870400549FEF7BFBB00003C
:1040500000000000252A732573252A730000000044
:10406000B8000020FCF762FEFFF721F9FEF77EFDA5
:10407000FEF732FEFEF7E4FDFEF752FE0122134981
:104080001348FEF711FA1348FDF720FEFEF7E0FB98
:104090004FF6FF742046FEF733FB0020FEF7CEFC00
:1040A0004FF480710C48FCF70BFB0C48FCF7E9FA65
:1040B00082B2234609490648FEF734FAFFF754F85E
:1040C000FEF7E6FCFEF788FAF8E70000A100002002
:1040D000240A0020D80800202409002050000020D5
:1040E0004FF04070E1EE100A704700000000000041
:1040F00000000000000000000000000000000000C0
:1041000000000000000000000000000000000000AF
:10411000000000000000000000000000800180019D
:104120008001800180018001800180018001800187
:1041300080018001800100000000800180010000FA
:104140000000000000000000000000000000CC00A3
:10415000CC00CC00CC00CC00CC0000000000000063
:10416000000000000000000000000000000000004F
:10417000000000000000000000000000000000003F
:10418000000000000000600C600C600C300630067F
:10419000FE1FFE1F300638071803FE1FFE1F180300
:1041A00018038C018C018C01000000008000E003EA
:1041B000F80F9C0E8C1C8C188C009800F801E007FE
:1041C000800E801C8C188C189C18B80CF00FE00323
:1041D00080008000000000000000000000000000DF
:1041E0000E181B0C110C11061106110311039B0173
:1041F0008E01C038C06C6044604430443044184480
:10420000186C0C380000000000000000E001F00312
:104210003807180618063003F001F000F8009C314A
:104220000E33061E061C061C063FFC73F021000020
:1042300000000000000000000000000000000C0072
:104240000C000C000C000C000C0000000000000032
:10425000000000000000000000000000000000005E
:104260000000000000000000000000000002000349
:104270008001C000C00060006000300030003000ED
:104280003000300030003000300060006000C000BE
:10429000C000800100030002000000002000600058
:1042A000C000800180010003000300060006000634
:1042B0000006000600060006000600030003800159
:1042C0008001C0006000200000000000000000002D
:1042D000000000000000C000C000D806F807E001A0
:1042E000300338070000000000000000000000005C
:1042F00000000000000000000000000000000000BE
:104300000000000000008001800180018001800128
:10431000FC3FFC3F800180018001800180010000A2
:10432000000000000000000000000000000000008D
:10433000000000000000000000000000000000007D
:10434000000000000000000000000000800180016B
:1043500000010001800000000000000000000000DB
:10436000000000000000000000000000000000004D
:104370000000E007E007000000000000000000006F
:10438000000000000000000000000000000000002D
:10439000000000000000000000000000000000001D
:1043A000000000000000000000000000C000C0008D
:1043B000000000000000000000000000000C000CE5
:1043C00000060006000600030003000380038001CE
:1043D00080018001C000C000C000600060000000DB
:1043E000000000000000000000000000E003F007F3
:1043F000380E180C0C180C180C180C180C180C187B
:104400000C180C180C18180C380EF007E0030000FC
:10441000000000000000000000000000000180011A
:10442000C001F001980188018001800180018001B4
:1044300080018001800180018001800180010000F5
:10444000000000000000000000000000E003F80F82
:10445000180C0C180C1800180018000C00060003AB
:104460008001C000600030001800FC1FFC1F00002D
:10447000000000000000000000000000E001F8075C
:10448000180E0C0C0C0C000C0006C003C007000C2E
:10449000001800180C180C18180CF807E00300009E
:1044A000000000000000000000000000000C000EF2
:1044B000000F000F800DC00C600C600C300C180C4D
:1044C0000C0CFC3FFC3F000C000C000C000C00002E
:1044D000000000000000000000000000F80FF80FCE
:1044E000180018000C00EC03FC071C0E001C001840
:1044F000001800180C181C0C180EF807E003000038
:10450000000000000000000000000000C007F00FE5
:10451000381C181818000C00CC03EC0F3C0E1C1CA7
:104520000C180C180C18181C380EF007E0030000CB
:10453000000000000000000000000000FC1FFC1F45
:10454000000C00060006000380038001C001C000CB
:10455000E0006000600070003000300030000000BB
:10456000000000000000000000000000E003F00771
:10457000380E180C180C180C3806F007F007180C39
:104580000C180C180C180C18380CF80FE00300006D
:10459000000000000000000000000000E003F00741
:1045A000380E1C0C0C180C180C181C1C381EF81B90
:1045B000E0190018000C000C1C0EF807F0010000B8
:1045C00000000000000000000000000000000000EB
:1045D00000000000000080018001000000000000D9
:1045E00000000000000000000000800180010000C9
:1045F00000000000000000000000000000000000BB
:1046000000000000000080018001000000000000A8
:104610000000000000000000000080018001000197
:104620000001800000000000000000000000000009
:10463000000000000000000000000010001C800FBF
:10464000E003F8001800F800E003800F001C0010E1
:10465000000000000000000000000000000000005A
:1046600000000000000000000000F81F0000000033
:104670000000F81F00000000000000000000000023
:10468000000000000000000000000000000000002A
:104690000000000000000000000008003800F001E9
:1046A000C007001F0018001FC007F00138000800F5
:1046B000000000000000000000000000E003F80F10
:1046C000180C0C180C180018000C000600038001D0
:1046D000C000C000C00000000000C000C00000001A
:1046E0000000000000000000000000000000E007E3
:1046F00018180420C229224A1144094409440944D3
:1047000009221113E20C024004201818E0070000EF
:104710000000000000000000000000008003800393
:10472000C006C006C006600C600C30183018301887
:10473000F83FF83F1C700C600C6006C006C000001B
:10474000000000000000000000000000FC03FC0F5F
:104750000C0C0C180C180C180C0CFC07FC0F0C188B
:104760000C300C300C300C300C18FC1FFC07000017
:10477000000000000000000000000000C007F01F63
:1047800038381C300C700660060006000600060073
:104790000600060006600C701C30F01FE0070000E9
:1047A000000000000000000000000000FE03FE0FFB
:1047B000060E06180618063006300630063006309B
:1047C0000630063006180618060EFE0FFE0300001F
:1047D000000000000000000000000000FC3FFC3F63
:1047E0000C000C000C000C000C00FC1FFC1F0C004B
:1047F0000C000C000C000C000C00FC3FFC3F000007
:10480000000000000000000000000000F83FF83F3A
:1048100018001800180018001800F81FF81F1800DA
:1048200018001800180018001800180018000000E0
:10483000000000000000000000000000E00FF83F52
:104840003C780E6006E007C00300030003FE03FE91
:1048500003C007C006C00EC03CF0F83FE00F0000E8
:104860000000000000000000000000000C300C30D0
:104870000C300C300C300C300C30FC3FFC3F0C305A
:104880000C300C300C300C300C300C300C30000084
:104890000000000000000000000000008001800116
:1048A0008001800180018001800180018001800100
:1048B0008001800180018001800180018001000071
:1048C00000000000000000000000000000060006DC
:1048D00000060006000600060006000600060006A8
:1048E00000060006180618063807F003E00100006D
:1048F0000000000000000000000000000630061864
:10490000060C060606038601C60066007600DE0079
:104910008E0106030606060C061806300660000027
:104920000000000000000000000000001800180057
:1049300018001800180018001800180018001800B7
:1049400018001800180018001800F81FF81F0000C1
:104950000000000000000000000000000EE01EF05B
:104960001EF01EF036D836D836D836D866CC66CC8F
:1049700066CCC6C6C6C6C6C6C6C686C386C3000043
:104980000000000000000000000000000C301C309F
:104990003C303C306C306C30CC30CC308C310C3313
:1049A0000C330C360C360C3C0C3C0C380C30000034
:1049B000000000000000000000000000E007F81FF9
:1049C0001C380E70066003C003C003C003C003C0E0
:1049D00003C003C006600E701C38F81FE00700001B
:1049E000000000000000000000000000FC0FFC1FA1
:1049F0000C380C300C300C300C300C18FC1FFC0741
:104A00000C000C000C000C000C000C000C00000052
:104A1000000000000000000000000000E007F81F98
:104A20001C380E70066003E003C003C003C003C05F
:104A300003C007E006630E3F1C3CF83FE0F700C0F0
:104A4000000000000000000000000000FE0FFE1F3C
:104A500006380630063006300638FE1FFE0706030D
:104A60000606060C0618061806300630066000001A
:104A7000000000000000000000000000E003F80F4C
:104A80001C0C0C180C180C001C00F803E00F001E86
:104A90000038063006300E301C1CF80FE00700000E
:104AA000000000000000000000000000FE7FFE7F0C
:104AB00080018001800180018001800180018001EE
:104AC000800180018001800180018001800100005F
:104AD0000000000000000000000000000C300C305E
:104AE0000C300C300C300C300C300C300C300C30E6
:104AF0000C300C300C300C301818F81FE007000098
:104B0000000000000000000000000000036006300C
:104B1000063006300C180C180C18180C180C380E2F
:104B200030063006700760036003C001C00100005A
:104B30000000000000000000000000000360C361EE
:104B4000C361C36166336633663366336633663387
:104B50006C1B6C1B6C1B2C1A3C1E380E380E000094
:104B60000000000000000000000000000FE00C70DA
:104B700018303018700C600EC00780038003C0032B
:104B8000E006700C301C18180C300E6007E00000B6
:104B900000000000000000000000000003C00660EC
:104BA0000C301C383818300C6006E007C003800158
:104BB000800180018001800180018001800100006E
:104BC000000000000000000000000000FC7FFC7FEF
:104BD000006000300018000C000600038001C000D7
:104BE0006000300018000C000600FE7FFE7F000011
:104BF000000000000000000000000000E003E003EF
:104C000060006000600060006000600060006000A4
:104C10006000600060006000600060006000600094
:104C200060006000E003E00300000000300030009E
:104C3000600060006000C000C000C000C0018001D2
:104C4000800180010003000300030006000600004D
:104C5000000000000000000000000000E003E0038E
:104C6000000300030003000300030003000300032C
:104C7000000300030003000300030003000300031C
:104C800000030003E003E003000000000000C00197
:104C9000C00160036003600330063006180C180C76
:104CA0000000000000000000000000000000000004
:104CB00000000000000000000000000000000000F4
:104CC00000000000000000000000000000000000E4
:104CD000000000000000000000000000FFFFFFFFD8
:104CE0000000000000000000000000000C000C00AC
:104CF0000C000C000C000C00000000000000000084
:104D000000000000000000000000000000000000A3
:104D10000000000000000000000000000000000093
:104D2000000000000000F003F8071C0C0C0C000F42
:104D3000F00FF80C0C0C0C0C1C0FF80FF018000006
:104D40000000000000000000000000001800180033
:104D5000180018001800D803F80F380C1818181885
:104D60001818181818181818380CF80FD80300005D
:104D70000000000000000000000000000000000033
:104D8000000000000000C003F007300E180C1800EF
:104D9000180018001800180C300EF007C0030000AF
:104DA00000000000000000000000000000180018D3
:104DB000001800180018C01BF01F301C1818181815
:104DC0001818181818181818301CF01FC01B0000ED
:104DD00000000000000000000000000000000000D3
:104DE000000000000000C003F00F300C1818F81F7E
:104DF000F81F180018003818301CF00FC00700000A
:104E0000000000000000000000000000800FC00F44
:104E1000C000C000C000F007F007C000C000C00024
:104E2000C000C000C000C000C000C000C000000042
:104E30000000000000000000000000000000000072
:104E4000000000000000E00DF80F180E0C0C0C0C18
:104E50000C0C0C0C0C0C0C0C180EF80FE00D000CCC
:104E60000C0C1C06F807F0010000000018001800E8
:104E7000180018001800D807F80F381C1818181850
:104E800018181818181818181818181818180000D2
:104E9000000000000000000000000000C000C00092
:104EA000000000000000C000C000C000C000C00042
:104EB000C000C000C000C000C000C000C0000000B2
:104EC000000000000000000000000000C000C00062
:104ED000000000000000C000C000C000C000C00012
:104EE000C000C000C000C000C000C000C000C000C2
:104EF000C000C000F8007800000000000C000C00AA
:104F00000C000C000C000C0C0C060C038C01CC00EB
:104F10006C00FC009C018C030C030C060C0C0000C4
:104F2000000000000000000000000000C000C00001
:104F3000C000C000C000C000C000C000C000C00071
:104F4000C000C000C000C000C000C000C000000021
:104F50000000000000000000000000000000000051
:104F60000000000000007C3CFF7EC7E383C183C1DA
:104F700083C183C183C183C183C183C183C1000055
:104F80000000000000000000000000000000000021
:104F90000000000000009807F80F381C18181818B7
:104FA00018181818181818181818181818180000B1
:104FB00000000000000000000000000000000000F1
:104FC000000000000000C003F00F300C1818181883
:104FD0001818181818181818300CF00FC003000013
:104FE00000000000000000000000000000000000C1
:104FF000000000000000D803F80F380C181818182B
:105000001818181818181818380CF80FD8031800A2
:105010001800180018001800000000000000000030
:10502000000000000000C01BF01F301C18181818EA
:105030001818181818181818301CF01FC01B001862
:105040000018001800180018000000000000000000
:10505000000000000000B007F003700030003000D6
:1050600030003000300030003000300030000000F0
:105070000000000000000000000000000000000030
:10508000000000000000E003F003380E180C3800A8
:10509000F003C007000C180C380EF007E003000006
:1050A0000000000000000000000000000000800080
:1050B000C000C000C000F007F007C000C000C00082
:1050C000C000C000C000C000C000C00780070000D2
:1050D00000000000000000000000000000000000D0
:1050E00000000000000018181818181818181818D0
:1050F0001818181818181818381CF01FE019000094
:10510000000000000000000000000000000000009F
:105110000000000000000C18180C180C180C3006C9
:1051200030063006600360036003C001C001000068
:10513000000000000000000000000000000000006F
:10514000000000000000C141C141C36163636363AB
:1051500063633636363636361C1C1C1C1C1C00009D
:10516000000000000000000000000000000000003F
:105170000000000000001C38381C300C6006600382
:105180006003600360036006300C381C1C380000AC
:10519000000000000000000000000000000000000F
:1051A0000000000000001830301830187018600C33
:1051B000600CE00CC006C006800380038003800101
:1051C0008001C001F000700000000000000000003D
:1051D000000000000000FC1FFC1F000C0006000384
:1051E0008001C000600030001800FC1FFC1F0000A0
:1051F000000000000000000000000000000380012B
:10520000C000C000C000C000C000C000600060005E
:10521000300060004000C000C000C000C000C000FE
:10522000C000800100030000000000008001800138
:105230008001800180018001800180018001800166
:105240008001800180018001800180018001800156
:105250008001800180018001000000006000C0002A
:10526000C0018001800180018001800100030003F2
:10527000000600030001800180018001800180019F
:105280008001C0006000000000000000000000007D
:1052900000000000000000000000F010F81F080FE0
:1052A00000000000000000000000000000000000FE
:1052B00000000000000000000000010002000400E7
:1052C000060008000A000C001000200040008000CA
:1052D00000010101010307010000080402040801A4
:1052E00001010000000000000000010203040607A5
:1052F00008090000000001020304000053746174F7
:1053000075733A2052756E6E696E670053746174DE
:1053100075733A2053657474696E670054696D65DE
:10532000720000005374617475733A2074696D657E
:10533000206F757400000000585300080000002022
:10534000B80000001402000810540008B800002043
:1053500060100000300200080000FFFF00000000A5
:10536000010001010000000000000000000000003A
:1053700000000000F4010000000000000000000038
:105380001C530008FC520008245300080C5300086A
:10539000000000000000000000000000000000000D
:1053A000000000000000000048656C6C6F20776F03
:1053B000726C640D0A0074696D6520706C75730DF4
:1053C0000A0074696D65207265647563650D0A0075
:1053D00074696D652073746172740D0A0074696D6F
:1053E00065206F75740D0A007365742073746174A1
:1053F000650D0A0000000000000000000000000031
:105400001000000001000000000000000024F40073
:04000005080001D915
:00000001FF
