:020000040800F2
:100000008061002031030008872C0008B522000819
:10001000852C0008ED100008C55500080000000000
:10002000000000000000000000000000790200084D
:100030004516000800000000CD020008C53F00087A
:100040004B0300084B0300084B0300084B03000858
:100050004B0300084B0300084B0300084B03000848
:100060004B0300084B0300084B0300084B03000838
:100070004B0300084B0300084B0300084B03000828
:100080004B0300084B0300084B0300084B03000818
:10009000BD1200084B0300084B0300084B03000887
:1000A0004B0300084B0300084B0300084B030008F8
:1000B000A9430008B9430008CD4300084B030008DA
:1000C0004B0300084B0300084B0300084B030008D8
:1000D0004B030008514F000875500008F15200080A
:1000E0004B0300084B0300084B030008F5430008CE
:1000F000A94800084B030008094400084B03000806
:100100004B0300084B030008E14300084B030008C1
:100110004B030008594E00084B0300084B0300082E
:100120004B0300084B0300084B0300084B03000877
:100130004B0300084B0300084B0300084B03000867
:100140004B0300084B0300084B0300084B03000857
:100150004B0300084B0300084B0300084B03000847
:100160004B0300084B0300084B0300084B03000837
:100170004B0300084B0300084B0300084B03000827
:100180004B0300084B03000800F002F800F064F88D
:100190000AA090E8000C82448344AAF10107DA45E2
:1001A00001D100F059F8AFF2090EBAE80F0013F0D0
:1001B000010F18BFFB1A43F00103184734D40000A5
:1001C00054D400000A444FF0000C10F8013B13F027
:1001D000070408BF10F8014B1D1108BF10F8015BA0
:1001E000641E05D010F8016B641E01F8016BF9D193
:1001F00013F0080F1EBF10F8014BAD1C0C1B09D1EA
:100200006D1E58BF01F801CBFAD505E014F8016B5B
:1002100001F8016B6D1EF9D59142D6D370470000ED
:100220000023002400250026103A28BF78C1FBD8FF
:10023000520728BF30C148BF0B607047642900F0E7
:100240000381732900F03E82002070471FB50BF038
:1002500012FB1FBD10B510BD00F0B0FA1146FFF73C
:10026000F5FF07F03DF900F0CEFA03B4FFF7F2FF17
:1002700003BC06F0F1FE00002A4B19680868B0E8DC
:10028000F04F80F30988BFF36F8F4FF0000080F3C9
:10029000118870470000000006480068006880F37D
:1002A000088862B661B6BFF34F8FBFF36F8F00DF70
:1002B00000BF00BF08ED00E0DFF80C00016841F46A
:1002C00070010160704700BF88ED00E0EFF3098026
:1002D000BFF36F8F134B1A681EF0100F08BF20ED8D
:1002E000108A20E9F04F106008B44FF0500080F3FE
:1002F0001188BFF34F8FBFF36F8F09F03DFE4FF0B2
:10030000000080F3118808BC19680868B0E8F04F55
:100310001EF0100F08BFB0EC108A80F30988BFF3FD
:100320006F8F7047D0000020EFF30580704700000A
:100330000948804709480047FEE7FEE7FEE7FEE779
:10034000FEE7FEE7FEE7FEE7FEE7FEE704480549B5
:10035000054A064B70470000D93F00088901000894
:10036000805B002080610020805D0020805D002097
:10037000704700000FB4044910B503AA029800F0BA
:10038000A5F910BC5DF814FBBC0000202DE9F0417C
:100390000E460446002020622046E168884730B3BC
:1003A000252805D0D4E901219047206A401CF2E7B6
:1003B000E168204600278847050018D0A5F14100D4
:1003C000192802D820354FF40067324629462046C6
:1003D0002760FFF733FF40B1012804D0F61D26F057
:1003E00007060836D8E7361DD6E72846DAE7206A3A
:1003F000BDE8F08170B50C460546012A05D0287885
:10040000800600D5EA69002302E0012305E05B1CB9
:10041000934202D2E05C0028F9D1A869E618C01A1C
:10042000A861286A184428622846AFF3008004E0D7
:10043000D5E9012114F8010B9047B442F8D32846BE
:10044000AFF3008070BD00002DE9F04106460024A6
:1004500010687529314616A510D0AFF3008000282A
:1004600002DA404213A507E031688A0701D512A5D8
:1004700002E0490704D511A5012401E0AFF3008093
:1004800000210A2206F1240709E0B0FBF2FCB0FBD0
:10049000F2F302FB1C00303078541846491C002847
:1004A000F3D123462A463046BDE8F04100F086B835
:1004B000000000002D0000002B00000020000000C4
:1004C000032A40F2308010F0030C00F0158011F880
:1004D000013BBCF1020F624498BF11F801CB00F858
:1004E000013B38BF11F8013BA2F1040298BF00F8AC
:1004F00001CB38BF00F8013B11F0030300F0F88096
:10050000083AC0F0088051F8043B083A51F804CB8F
:10051000A0E80810F5E7121D5CBF51F8043B40F855
:10052000043BAFF30080D20724BF11F8013B11F860
:1005300001CB48BF11F8012B24BF00F8013B00F8A4
:1005400001CB48BF00F8012B704702F0FF0343EADC
:10055000032242EA024200F002B84FF000020429EE
:10056000C0F0128010F0030C00F0F680CCF1040C07
:10057000BCF1020F18BF00F8012BA8BF20F8022B16
:10058000A1EB0C0100F0E8B85FEAC17C24BF00F8E1
:10059000012B00F8012B48BF00F8012B7047704772
:1005A00070477047704710B500F0FCF8006810BD48
:1005B00010B5044600F0F6F8046010BD2DE9F047D0
:1005C0000D4699469246044600F1240801688806C3
:1005D00004D5E06921F01001216000E00120A8426B
:1005E00001DD471B00E00027A1697A1902EB090031
:1005F000081AA0612078C00602D42046AFF300801C
:10060000002608E0D4E901211AF806009047206A84
:10061000401C761C20624E45F4DB2078C0060AD5CB
:100620002046AFF3008006E0D4E901213020904756
:10063000206A401C2062381EA7F10107F4DC07E0A5
:10064000D4E9012118F805009047206A401C206277
:10065000281EA5F10105F3DC2046AFF300802078C9
:10066000000602D50220BDE8F0870120FBE700006C
:1006700001694A1C02610878704700B58FB0CDE966
:1006800001310021059105497944CDE90310114656
:100690006846FFF77BFE0FB000BD0000E5FFFFFFDF
:1006A00010B5436913B1AFF3008001E0FFF7A2FE7C
:1006B000012010BD127800F124010A7000224A7056
:1006C0000122EDE711684FF0FF32E9E7074B70B503
:1006D0000D467B44FFF7D1FF0446284600F066F83C
:1006E00010B14FF0FF3070BD204670BDB76D0000F7
:1006F00010B5203AC0F00B80B1E81850203AA0E8BD
:100700001850B1E81850A0E81850BFF4F5AF5FEAF0
:10071000027C24BFB1E81850A0E8185044BF18C9A3
:1007200018C0BDE810405FEA827C24BF51F8043B4A
:1007300040F8043B08BF7047D20728BF31F8023B9E
:1007400048BF11F8012B28BF20F8023B48BF00F832
:10075000012B70474FF0000200B5134694469646B1
:10076000203922BFA0E80C50A0E80C50B1F12001C4
:10077000BFF4F7AF090728BFA0E80C5048BF0CC072
:100780005DF804EB890028BF40F8042B08BF7047D0
:1007900048BF20F8022B11F0804F18BF00F8012B42
:1007A00070470000004870471C5B0020007B00F091
:1007B00080007047004870471C5B00207546FFF7BB
:1007C000F9FFAE4605006946534620F0070085460E
:1007D00018B020B5FFF7BAFDBDE820404FF0000685
:1007E0004FF000074FF000084FF0000B21F0070119
:1007F000AC46ACE8C009ACE8C009ACE8C009ACE85C
:10080000C0098D46704710B50446AFF300802046FE
:10081000BDE81040FFF729BD0029816802D041F0F2
:10082000010101E021F0010181607047084B10B522
:10083000D3F8042307490A40D0E900142143D0E942
:100840000240044321431143C3F8041310BD0000C8
:1008500000200140E030FCFFC06C80B270470246CF
:10086000002012680A4200D00120704730B542686B
:100870000F4B0C791A400B6842EA04221343436081
:1008800082680C4B4D791A40D1E9034323438C68AD
:1008900044EA4504234313438360C26A097D22F47A
:1008A0007002491EC9B242EA0151C16230BD000066
:1008B000FFFEFFFCFDF7FFC070B5072609290AD926
:1008C000C568A1F10A0404EB4404A640B543A34063
:1008D0001D43C56007E0056901EB4104A640B5432F
:1008E000A3401D4305611F23072A09D2446B521EF2
:1008F00002EB820293409C4391400C43446370BDE1
:100900000D2A09D2046BD21F02EB820293409C4352
:1009100091400C43046370BDC46A0D3A02EB82023D
:1009200093409C4391400C43C46270BD816841F088
:10093000804181607047000038B535489FED351A19
:100940009FED350AD0ED000A10EE810AF3EE0B0A96
:1009500080EE201ABDEEC10A10EE103A642B00DDC5
:1009600064232E48DFED2E0A90ED000A20EE200AC7
:10097000BDEEC00A10EE100A002800DA40422949F4
:1009800091ED000A20EE200ABDEEC00A10EE101A0A
:10099000002900DA4942244C2278A2B100222270B8
:1009A000224C2578012D10D0214DB5F904403AB3E1
:1009B000B5F90220B5F9001001B02346BDE830407A
:1009C0001CA0FFF7D7BC0122E9E71E4890ED000A02
:1009D0001D48BDEEC00A10EE103A90ED000A1B480B
:1009E000BDEEC00A10EE102A90ED000A18A0BDEE70
:1009F000C00A10EE101AFFF7BDFC0020207038BDB1
:100A0000CAB2C1B216A00094FFF7B4FC38BD000012
:100A10001800002000007A4400401C46705A002054
:100A20000000C842845A002024020020C101002096
:100A3000400200207B4225643A25643A25647D24E7
:100A400000000000500100204C010020480100205F
:100A50007B4325643A25643A25647D240000000028
:100A60007B4125643A25643A25643A25647D240057
:100A700030B58DB00121022002F0DEFE01210D0211
:100A8000284602F0F1FE032002218DF82C000A9185
:100A900000248DF82F400AA9134801F0D1F9012153
:100AA000284602F0EDFE0021284602F0E9FE0694F9
:100AB00068020994CDE9070406A8FFF7B7FE8DF890
:100AC000044000948DF80540029404940120074CE2
:100AD0008DF8140069462046FFF7C8FE0121204624
:100AE000FFF79AFE0DB030BD000402400020014027
:100AF00070B58CB00121022002F09EFE01214E0251
:100B0000304602F0B1FE03208DF82C0001250024B0
:100B10000A958DF82F400AA9134801F091F9012197
:100B2000304602F0ADFE0021304602F0A9FE0694E8
:100B300068040994CDE9070406A8FFF777FE8DF84D
:100B4000044000948DF8054002940494074C8DF8FD
:100B5000145069462046FFF789FE01212046FFF721
:100B60005BFE0CB070BD000000040240002101409B
:100B70001CB506F097FCDFF8FC93DFF8FCA3FF4CF4
:100B800040F6C41B4FF4FA7501900A2101A809F040
:100B900021F8FB4E40F6B8317068884201DA401CFB
:100BA0007060B068401CB06001F0ACFA01F02EFE3D
:100BB000F448006830B1DFF8D08398F800000328CB
:100BC0007DD0FAE0F148007810B101F0B7F916E0F5
:100BD000EF48007810B102F0D5FE10E0ED48007843
:100BE00010B102F055FD0AE0EB4890ED001AEB4819
:100BF000D0ED000AEA4890ED000A00F025FDE94832
:100C000090ED000ABDEEC00A10EE100A04F0FCF8E8
:100C100028B1002003460246014600908FE0E24ED4
:100C2000D6ED020A96ED000A01F0E2FC00EE100A91
:100C3000DE4FB8EEC00A86ED010AD7ED020A97ED45
:100C4000000A01F013FD00EE100ADFF86483B8EE2D
:100C5000C00A87ED010AD8ED020A98ED000A01F0FA
:100C600043FD00EE100AD34BB8EEC00A88ED010A2E
:100C7000D3ED020A93ED000A01F074FD00EE100AB4
:100C800044F23C10B8EEC00A83ED010A01F076FE92
:100C9000C94800780628BFF478AFDFE800F0031AEF
:100CA000355303530020009093ED010ABDEEC00AB6
:100CB00010EE103A98ED010AB1EE400A00E043E070
:100CC000BDEEC00A10EE102A97ED010AB1EE400AFF
:100CD0002BE00020009093ED010ABDEEC00A10EE5B
:100CE000103A98ED010AB1EE400ABDEEC00A10EECE
:100CF000102A97ED010ABDEEC00A10EE101A96ED0B
:100D0000010AB1EE400A16E0AC480068009093ED8D
:100D1000010ABDEEC00A10EE103A98ED010ABDEED0
:100D2000C00A10EE102A97ED010ABDEEC00A10EEBF
:100D3000101A96ED010ABDEEC00A10EE100A03F07B
:100D40005BF822E70020E1E79D4F3868002804DDCA
:100D5000401E44F29F11386006E09A490868002856
:100D600004DD401E08609849C9F8001092480078D8
:100D7000062814D2DFE800F0030A27270327002003
:100D80000090D9F800301846424222E0002000903E
:100D9000D9F8003019464A42104603F02DF8894828
:100DA0000068002809DC3868002806DC00200346BB
:100DB00002460146009003F01FF898F800004746ED
:100DC000042808D00EE000200090D9F80030184622
:100DD0001A461146E1E7002003460246014600900C
:100DE00003F00AF83878062804D1A72142F20F70E0
:100DF00003F0DAFC387807281CD008283BD00928F3
:100E000061D00A287ED00B287DD00C287CD00D28FC
:100E10007BD00E287AD00F2879D0132891D16B4E31
:100E2000307801288DD104F0FDFA69490020307036
:100E30000870AAE6DAF80000514640B92068584523
:100E400001DA401D2060584501DB01200860206860
:100E5000A84206DD0A68012A0AD1401F2060A84284
:100E600006DC0868012803D102202560CAF80000CA
:100E70005848216855E0DAF800005146022802D0AF
:100E8000544825600560486840B96068584501DAF3
:100E9000401D6060584501DB012048606068A84241
:100EA00006DD4A68012A0AD1401F6060A84206DCBC
:100EB0004868012803D102206560CAF8040045494A
:100EC0006068091FDCE0DAF804005146022803D00C
:100ED00040486560001F0560886840B9A0685845B3
:100EE00001DA401DA060584501DB01208860A06840
:100EF000A84206DD8A68012A11D1401FA060A842DD
:100F00000DDC05E00FE06BE092E0BBE0DBE0E5E04C
:100F10008868012803D10220A560CAF808002E487D
:100F2000A168016031E6DAF808005146022802D0D3
:100F30002948A5600560C86840B9E068584501DAED
:100F4000401DE060584501DB0120C860E068A84210
:100F500006DDCA68012A0AD1401FE060A84206DC0B
:100F6000C868012803D10220E560CAF80C001A49BC
:100F7000091F33E0900100204C5A0020740100202A
:100F8000E00100205C0100206801002055010020E4
:100F90005601002054010020A4010020A0010020DF
:100FA0009C01002018000020705A0020845A002064
:100FB000985A0020AC5A00204501002098010020DA
:100FC0006C0100207001002061BEFFFFDC010020E9
:100FD0008C0100203818004040040140E0684FE0D8
:100FE000DAF80C005146022802D03D48E560056061
:100FF000086940B92069584501DA401D206158450B
:1010000001DB012008612069A84206DD0A69012A86
:101010000AD1401F2061A84206DC0869012803D1DB
:1010200002202561CAF810002D492069091F27E018
:10103000DAF810005146022803D029482561001F24
:101040000560486940B96069584501DA401D606132
:10105000584501DB012048616069A84206DD4A6904
:10106000012A0AD1401F6061A84206DC48690128B4
:1010700003D102206561CAF8140019496069083972
:10108000086082E50020CAF81400CAF81000CAF807
:101090000C00CAF80800CAF80400CAF8000065612C
:1010A0002561E5600E48A56065600838256005602B
:1010B000001D0560001D0560001D056009480560F4
:1010C000001D056061E5B0686421B0FBF1F0C00768
:1010D00004D001200449C1F8A00256E50020F9E738
:1010E0003C0401403418004000004042FEE700008C
:1010F0001CB50121084602F09FFB4FF48070009060
:1011000001208DF8040000218DF8061003218DF8D0
:1011100005108DF807006946014800F091FE1CBDDE
:10112000000002402DE9FE4F0024D8B3D1B3CAB36A
:10113000C3B3401E491EC7B2CEB2521E5B1E02F0A0
:10114000FF099DB20121082002F076FB012148062B
:1011500002F07EFB02218DF804104FF0030B4FF0DC
:1011600000088DF806808DF805B04FF0010ACDF823
:1011700000B08DF807A069464D4800F061FE0922D5
:1011800000214B4800F098FE09220121484800F058
:1011900093FE4848C0F80080016841F001010160F9
:1011A000021D09E0FFE70120BDE8FE8F641CA4B228
:1011B000642C01D90220F7E71168C907F6D03D4831
:1011C000016801600168016001680160016841F027
:1011D0001001016001680160016801603549434602
:1011E0001C31C1F80080D1F80080DDF830C048EA39
:1011F0008C7CC1F800C0D1F800C04CEA07670F60D2
:101200000F6847EA06560E600F6847EA09460E6007
:101210000E682E430E60016821F0010101604FF657
:10122000F07005E0641CA4B2844201D90320BBE73E
:101230001168C907F6D12048016841F00101016039
:101240001D491C310A6822F001020A601A4A0C3258
:10125000146844F001041460021D14681460164AF6
:10126000143214681460144A40321360121D136063
:101270000A6842F001020A60016803600D481430F8
:10128000016841F00201016014208DF808008DF81A
:1012900009A08DF80AB08DF80BA002A801F0F4FCAB
:1012A00001220221034800F07DF900207CE70000C4
:1012B000000C0240006400400066004010B588B099
:1012C00002A907A8CDE9000106AB05AA04A90020E0
:1012D00000F070F80498A0F5807181394BD129494C
:1012E00001209FED2F1A087027490020304C08700C
:1012F0002649087026490870264908702649087052
:10130000264908709DF809009DF8081000EB01209F
:1013100000B200EE100A2348F8EEC00A80EE810AFF
:1013200080ED000A9DF80B009DF80A1000EB0120EB
:1013300000B200EE900A1C48F8EEE00AC0EE811AF6
:10134000C0ED001A9DF80D009DF80C1000EB012077
:1013500000B200EE900A1549F8EEE01A0978022969
:10136000C1EE810A09D000EE100AB8EEC00AC0EE44
:10137000010AC4ED000A08B010BD04F025F984ED9F
:10138000000AF8E757010020540100205601002010
:1013900055010020BC010020BD01002020020020DA
:1013A00000007A449C010020A0010020450100209B
:1013B000A4010020F0B5224CDDE9057504EB001412
:1013C000D4F8B06516F004061670D4F8B02532D003
:1013D000D2080A60D4F8B01501F002011970D4F8EF
:1013E000B41501F00F013970D4F8B8152970D4F88C
:1013F000B815090A6970D4F8B815090CA970D4F8A1
:10140000B815090EE970D4F8BC152971D4F8BC15CB
:10141000090A6971D4F8BC15090CA971D4F8BC1576
:10142000090EE97148B1012804D10648016841F06C
:1014300020010160F0BD520DCBE70248001FF5E727
:10144000006000401064004038B50024009108237B
:101450002246214600F014F8054640F6FF7301E0ED
:10146000641CA4B2284600F06BF8072801D09C4207
:10147000F6D39C4201D3012038BD002038BD0000C6
:10148000F0B506462C48059D0468640101D500208E
:1014900008E00468240101D5012003E00068C000D1
:1014A00046D50220254C002704EB0014C4F88075B3
:1014B000E9B3F600D4F880753743C4F88075D4F8E2
:1014C000806546EA8101C4F88015D4F8801541EAA8
:1014D0004201C4F88015D4F8842503F00F0122F0EE
:1014E0000F02C4F88425D4F884250A43C4F884255F
:1014F0002979EA796B7941EA0261AA79120442EA10
:1015000003221143C4F88C152978EA786B7841EAF4
:101510000261AA78120442EA03221143C4F8881532
:10152000D4F8801541F00101C4F88015F0BD01E048
:10153000FF20FBE77605BDE708640040006000403F
:10154000174928B1012810D002281BD00520704768
:1015500008680A6800F0010002F00202024308680D
:1015600000F0806042EA1060704708680A6800F086
:10157000010002F002020243086800F0006042EA43
:101580005060704708680A6800F0010002F002022B
:101590000243086800F0805042EA90607047000003
:1015A00008640040002A426901D00A4300E08A43EF
:1015B000426170477CB5144C00206D46215C295473
:1015C000401CC0B20828F9D3294640F20110FFF7A9
:1015D0003BFF00202118097A2954401CC0B208287A
:1015E000F8D369464FF48170FFF72EFF00202118D1
:1015F000097C2954401CC0B20828F8D3694640F23F
:101600000310FFF721FF7CBDAE06002030B5034676
:101610000020012908D10022094C03E0A55C6840A4
:10162000521CD2B29A42F9D3002908D1044A32326C
:1016300003E0545C6040491CC9B29942F9D330BD03
:10164000AE060020704700002DE9F0472DED0E8B0F
:10165000F0EE418AB0EE408AB0EE0CEAFD4BDFF8C6
:10166000F883FE4E1878FE4FB8EE0CCA9FEDFDDBF6
:10167000DFEDFECAFE4AFF4DFF4CB6EE00AA08B1F0
:10168000012810D1B0EE681AB0EE480A02F0EEFB65
:10169000FA4890ED008A90ED019AD0ED028A187810
:1016A00068B3012852D0C0B202287CD0032803D0EE
:1016B000042879D0052878D192ED000AB0EE4E1AB0
:1016C00068EE800AB0EE480A00EECA0A00EE8A8A86
:1016D000F0EE4C0A85ED020A84ED028A07F018FF4D
:1016E00085ED020A94ED020AB0EE4E1AF0EE4C0AB5
:1016F00007F00EFF84ED020AC6ED02CAB8E098EDCD
:10170000000A92ED001A79EE080A30EE010A38EE6E
:10171000491AF0EE601A48EEC00A48EE801AC5ED8C
:10172000020AB0EE602AF0EE410A08EE801A48EE96
:10173000C00AB0EE420AC4ED020AC6ED021A87EDF5
:10174000021AB0EE4E1AF0EE4C0A76E1DFF8308362
:10175000F0EE490A98ED000A40EE280A20EE280A29
:1017600010EE100AC5ED020A0AF014F869EE0AEA52
:1017700041EC1B0B1EEE900A0AF00CF841EC1A0B20
:1017800018EE100A0AF006F841EC190BB0EE4D0AFB
:10179000F0EE6D0A04F044FF9FEDBA1B51EC100B04
:1017A00053EC112B02E069E02DE163E009F0FCFC51
:1017B00053EC192B09F0F8FC53EC1A2B09F000FF3D
:1017C00053EC1B2B09F046FA09F012FAA06098EDD1
:1017D000000A20EE280A10EE100A09F0DBFF41ECA7
:1017E000190B1EEE900A09F0D5FF41EC1A0B18EE0A
:1017F000100A09F0CFFF41EC180BB0EE4D0AF0EEE5
:101800006D0A04F00DFF9FEDA11B51EC100B53EC82
:10181000112B09F0C9FC53EC182B09F0C5FC53EC53
:101820001A2B09F0CDFE53EC192B09F013FA09F02D
:10183000DFF9B06095ED020AB0EE4E1AF0EE4C0AF8
:1018400007F066FE85ED020A94ED020AB0EE4E1A2C
:10185000F0EE4C0A07F05CFE84ED020A96ED020AF7
:10186000B0EE4E1AF0EE4C0A07F052FE86ED020A78
:10187000C7ED02CABDEC0E8BBDE8F087DFED85AA8F
:1018800092ED000A914620EE0A0A10EE100A09F0C5
:1018900081FF41EC190B18EE900A09F07BFF41EC37
:1018A000100B04F0FDFEB0EE40BAF0EE60BAD8F8CE
:1018B000000009F06FFF53EC1B2B09F087FA53EC83
:1018C000192B09F07DFE09F093F902EE100A9FED45
:1018D000721ADFED720AB0EE680A07F019FEB5EE73
:1018E000C00AF0EE408AF1EE10FA16D099ED000A27
:1018F000F0EE420A40EE4A0A60EE880A80EE821A52
:10190000F0EE420A40EE0A0A20EE880AC0EE020A11
:1019100085ED021AC4ED020A03E085ED028A84ED2A
:10192000028A9FED5F0A28EE800A10EE100A09F085
:1019300031FF41EC1B0B18EE900A09F02BFF41EC34
:10194000100B9FED581B04F043F89FED581B51EC12
:10195000100B53EC112B09F027FC41EC190B18EE7E
:10196000900A09F017FF41EC100BB0EE4D1AF0EEA3
:101970006D1A04F02DF89FED4F1B51EC100B53EC3A
:10198000112B09F011FC53EC192B09F063F953ECFE
:101990001B2B09F015FE9FED491B53EC112B09F091
:1019A00059F909F025F900EE100ADFED460A70EE4C
:1019B000600A9FED450A454BB0EE4E1A00EEAA0AAA
:1019C000F0EE4C0ABDEEC00A83ED000A95ED020A66
:1019D00007F09EFD85ED020A94ED020AB0EE4E1A64
:1019E000F0EE4C0A07F094FD84ED020AC6ED02CA3F
:1019F000C7ED02CA40F698024FF44871186807F024
:101A000097FD186036E792ED000AD8ED000AB0EEB7
:101A10004E1A30EE200A60EE280AB0EE480A00EEB8
:101A2000CA0A00EE8A8AF0EE4C0A85ED020A84EDBD
:101A3000020A86ED028A87ED028A07F069FD85EDCC
:101A4000020A94ED020AB0EE4E1AF0EE4C0A07F0CC
:101A50005FFD3DE045010020B4010020985A0020C0
:101A6000AC5A002000000000000008400000000008
:101A7000B0010020705A0020845A0020645A0020CF
:101A8000B8010020000000000000E0BF00000000DE
:101A90000000E03FD7231F440AD7A33E48E1FABE27
:101AA000E5D0E23F00000000000000400000000020
:101AB000D34DF43F000000809318E4BF0000000005
:101AC000022BF93F4C37C93F0080BB4498010020EE
:101AD00084ED020A96ED020AB0EE4E1AF0EE4C0AC0
:101AE00007F016FD86ED020A97ED020AB0EE4E1AD7
:101AF000F0EE4C0A07F00CFD87ED020ABAE6000092
:101B00001CB50121082001F097FE0820009000205C
:101B10008DF8040003208DF8050001208DF80700E2
:101B20006946024800F08CF91CBD0000000C024020
:101B3000F0B5012189B0084601F08AFE0121032099
:101B400001F07AFE03258DF8055002264FF400407F
:101B50008DF8046001242B4F00908DF806408DF81D
:101B600007406946384600F06BF98DF805508DF84E
:101B700004608DF806408DF807400820224C009044
:101B80006946204600F05CF901220F21384600F03A
:101B900093F901220321204600F08EF902A803F0F8
:101BA00029F900244FF6FF70ADF80840039075073F
:101BB000ADF81040ADF80A4002A9284603F0DCF861
:101BC00000231A460321284602F0F7FE05A802F07A
:101BD00077FFADF81C4005A9284602F01BFF012144
:101BE000284602F0CFFE01221146284602F070FF7F
:101BF0000021284603F096F80121284602F0C8FE8D
:101C000009B0F0BD000002400004024030B589B0C8
:101C10000121022001F01CFE0121022001F00CFE36
:101C20003020039003208DF8110002208DF8100061
:101C300001208DF81200224C8DF8130003A92046D4
:101C400000F0FEF802220421204600F035F90222BD
:101C50000521204600F030F9684603F0CBF8002457
:101C60004FF6FF70174DADF800400190ADF80840F9
:101C7000ADF802406946284603F07EF800231A4674
:101C80000321284602F099FE05A802F019FFADF8DD
:101C90001C4005A9284602F0BDFE0121284602F09D
:101CA00071FE01221146284602F012FF002128464B
:101CB00003F038F80121284602F06AFE09B030BD71
:101CC000000402400004004030B589B00121042026
:101CD00001F0BEFD0121022001F0AEFDC020039005
:101CE00003208DF8110002208DF8100001208DF8DE
:101CF0001200224C8DF8130003A9204600F0A0F832
:101D000002220621204600F0D7F8022207212046B1
:101D100000F0D2F8684603F06DF800244FF6FF702B
:101D2000174DADF800400190ADF80840ADF8024005
:101D30006946284603F020F800231A460321284666
:101D400002F03BFE05A802F0BBFEADF81C4005A961
:101D5000284602F05FFE0121284602F013FE012210
:101D60001146284602F0B4FE0021284602F0DAFFB0
:101D70000121284602F00CFE09B030BD00040240EB
:101D80000008004030B589B00121082001F060FD55
:101D90000121084601F050FD274C02220021204677
:101DA00000F08AF802220121204600F085F8022185
:101DB0008DF811108DF81010012103208DF81210EC
:101DC00003908DF8131003A9204600F039F86846F7
:101DD00003F010F800244FF6FF70184DADF80040E6
:101DE0000190ADF80840ADF802406946284602F07F
:101DF000C3FF00231A460321284602F0DEFD05A892
:101E000002F05EFEADF81C4005A9284602F002FE75
:101E10000121284602F0B6FD01221146284602F0B3
:101E200057FE0021284602F07DFF0121284602F0DE
:101E3000AFFD09B030BD000000000240000C0040C2
:101E4000F0B5002201274FF0030C0B6807FA02F5EA
:101E50002B40AB422CD1066853000CFA03F4A64386
:101E600006600E79D0F800E09E4046EA0E06066055
:101E70000E79012E01D0022E12D18668A64386600B
:101E80004E79D0F808E09E4046EA0E068660466825
:101E9000AE43466045688E799640B6B2354345609C
:101EA000C568A543C560CC799C40C3681C43C46029
:101EB000521C102AC9D3F0BD4B07DB0E9A40C9084B
:101EC00010B500EB8100016A0F249C40A143016220
:101ED000016A1143016210BD0183704710B50A4CBD
:101EE0000146072301222046FEF7E6FC2046FEF7C6
:101EF0001DFD02212046FEF7B2FC0028F9D0204645
:101F0000BDE81040FEF7A8BC0020014010B50A4C07
:101F10000146072301222046FEF7CEFC2046FEF7AD
:101F200005FD02212046FEF79AFC0028F9D0204644
:101F3000BDE81040FEF790BC00210140F0B46448B9
:101F40006449027864480E780578644804789FED07
:101F5000641A644BDFED642ADFED641A644F9FED71
:101F6000652A654897ED000A6449F1EE400A52B1CE
:101F7000012A08D0092C66D2DFE804F065434649FF
:101F80004E5156596200092C24D2DFE804F0230593
:101F9000080B1013181B200080ED000A0CE080EDE8
:101FA000000A01E080ED001AC3ED000A53E0C0ED25
:101FB000000AF9E7C0ED000A83ED001A4BE0C0ED1E
:101FC000000A01E080ED001A83ED000A43E080ED95
:101FD000000AF9E780ED001A83ED001A012E04D003
:101FE000012D07D081ED001A35E0C0EE220A60EE27
:101FF000820A03E0C0EE220A60EEA10AC1ED000AE7
:1020000029E080ED000A0CE080ED000A01E080ED9F
:10201000001AC1ED001A0EE0C0ED000AF9E7C0EDAC
:10202000000A81ED001A06E0C0ED000A01E080ED33
:10203000001A81ED002A012E08D0012D09D00AE0F6
:1020400080ED000AF5E780ED001AEAE781ED002A4D
:1020500001E0C1ED001A022A06D0032A11D0052A98
:102060000FD0042A0DD01FE091ED000AF0EE000A17
:1020700020EE200AF2EE020A80EE201A81ED001A0C
:1020800012E0D0ED000AF5EEC00AF1EE10FAD1ED43
:10209000000A03D2F1EE600AC1ED000A20EE800AC8
:1020A000C0EE220AC1ED000AD0ED000A9FED141A1D
:1020B00080EE810A80ED000AD3ED001AC1EE810A9C
:1020C000C3ED000A91ED001AF0BCFFF7BDBA0000A5
:1020D00045010020BE010020BF0100205801002062
:1020E00000000000A00100200000FA43DB0FC9BF80
:1020F00048010020DB0FC93F9C010020A401002003
:1021000000007A4410B502202DED048B01F01AFC7A
:10211000394C2060032001F015FC6060042001F0C0
:1021200011FCA060052001F00DFC3449E060097845
:1021300006291BD2DFE801F04903505049502168BD
:10214000494200EE101A6168F8EEC09A494200EE6A
:10215000101AA168B8EEC09A494200EE101A404227
:10216000F8EEC08A00EE100AB8EEC08A9FED241A7D
:10217000244869EE810A90ED000A234860EE801A37
:10218000D0ED000A214881EEA02A69EE011A61EE25
:10219000801A80ED002A81EEA02A68EE811A1C4880
:1021A00028EE011A61EE801A21EE000A80EE201A54
:1021B00080ED002A174881EEA02A80ED002A1648FB
:1021C00080ED001ABDEC048B10BD94ED000AF8EE12
:1021D000C09A94ED010ABCE794ED000A6168F8EE3C
:1021E000C09A494200EE101AB8EEC09A94ED020A65
:1021F000F8EEC08AB6E70000F45A0020450100203E
:102200000000C842AC010020A8010020705A002044
:10221000845A0020985A0020AC5A00202DE9F04141
:1022200000250E4607462C4608E03846FFF756FEC6
:102230000544052005F0E0F8641CE4B2B442F4D390
:10224000B5FBF6F080B2BDE8F081000010B50820C3
:10225000FFF75CFE08F058FF9FED0E1B53EC112BAF
:1022600008F0A2FF9FED0D1B53EC112B08F09CFF13
:102270009FED0C1B53EC112B08F096FF9FED0B1BF1
:1022800053EC112B08F090FF08F0B2FC00EE100A9E
:1022900010BD00006666666666660A4000000000C3
:1022A000000026400000008014AEEF3F0000000058
:1022B0000000303FFEE7000070B50D4C0025C4F86B
:1022C000A8520C48016821F440010160016841F402
:1022D00080010160C4F8AC52012004F52A7405F0B5
:1022E000A7F80120206005F0A3F8256070BD00006C
:1022F00000804042000402401CB50121022001F090
:102300009BFA4FF44060012400908DF804400020B7
:102310008DF8060003208DF805008DF8074069460A
:102320000448FFF78DFD0448C0F8A842C0F8AC424D
:102330001CBD0000000402400080404270B50D4CFE
:102340000026C4F8A8620C48016821F4400101602D
:10235000016841F4800101600125C4F8AC522846AF
:1023600004F52A7405F064F82560012005F060F892
:10237000266070BD00804042000402402DE9F04715
:10238000814618480025016821F440010160016878
:102390000160154E2C462F464FF00108C6F8A87272
:1023A000012005F045F8C6F8A8826806D6F82C1278
:1023B000000E11B140F0010501E020F001050120FF
:1023C00005F036F8641CE4B2082CE7D3B9F1000F2D
:1023D00004D0FFF7B3FF2846BDE8F087FFF76CFF96
:1023E000F9E70000000402400080404270B50D464D
:1023F000044600F01BF8204600F0B0F800F05EF84C
:10240000284600F0ABF800F059F800F00FF844F05F
:10241000010000F0A3F800F051F80120FFF7AEFF33
:10242000044600F02BF8204670BD000070B511483E
:10243000016821F440010160016841F480010160FC
:102440000D4C0120C4F8AC02D4F82C1200290FD096
:10245000C4F8A80204F0ECFF0025C4F8AC52D4F88C
:102460002C02002804D1012004F0E2FFC4F8A85295
:1024700070BD000000040240008040420D4810B5CD
:10248000016821F440010160016841F480010160AC
:10249000094C0020C4F8A802C4F8AC02012004F5DD
:1024A0002A7404F0C5FF012020606060BDE8104080
:1024B00004F0BEBF000402400080404270B51248E4
:1024C0000024016821F440010160016801600F4DA2
:1024D0000126C5F8AC62304604F0AAFFC5F8A86230
:1024E00007E0641CE4B2322C03D9FFF7C7FF0020D9
:1024F00070BD012004F09CFFD5F82C020028F0D11B
:10250000C5F8A802012070BD0004024000804042CE
:102510002DE9F0411D4614460F468046069EFFF702
:1025200065FF621CFF21C4F1080301FA02F22B448B
:102530005B1ED9400A43C5F108018E40D2B2F1B208
:10254000C4F10703D940104040EA01023946404631
:1025500000F034F80120BDE8F08100002DE9F041E1
:1025600005461448016821F440010160016841F406
:1025700080010160104E0027C6F8A8723C464FF05B
:102580000108E809C6F8AC026806050E012004F04F
:102590004FFFC6F8A882012004F04AFFC6F8A872CF
:1025A000012004F045FF641CE4B2082CE9D3BDE827
:1025B000F0810000000402400080404270B51546E2
:1025C0000E460446FFF732FF2046FFF7C7FFFFF72E
:1025D00075FF3046FFF7C2FFFFF770FF2846FFF791
:1025E000BDFFFFF76BFFFFF749FF012070BD000043
:1025F000174830EEC00A1749D0ED060A174A91ED88
:10260000001A70EE600A144960EE810A91ED001A1A
:1026100041EE000A90ED051A70EE810A10EE901A54
:10262000C0ED050A914203DDDFED0D0AC0ED050A9C
:1026300010EE901A0B4A914203D9DFED0B0AC0ED60
:10264000050A80ED060ABDEEE00A10EE100A70479A
:10265000E00100204C01002050010020007882465B
:1026600000788246007882C6007882C6174830EE2D
:10267000C00A1749D0ED090A174A91ED001A70EE09
:10268000600A144960EE810A91ED001A41EE000AD9
:1026900090ED081A70EE810A10EE901AC0ED080A4B
:1026A000914203DDDFED0D0AC0ED080A10EE901A2D
:1026B0000B4A914203D9DFED0B0AC0ED080A80ED09
:1026C000090ABDEEE00A10EE100A7047E001002092
:1026D0004C0100205001002000788246007882469C
:1026E000007882C6007882C6174830EEC00A1749C3
:1026F000D0ED0C0A174A91ED001A70EE600A1449E9
:1027000060EE810A91ED001A41EE000A90ED0B1A7D
:1027100070EE810A10EE901AC0ED0B0A914203DDB3
:10272000DFED0D0AC0ED0B0A10EE901A0B4A914234
:1027300003D9DFED0B0AC0ED0B0A80ED0C0ABDEEEC
:10274000E00A10EE100A7047E00100204C01002062
:10275000500100200078824600788246007882C6C8
:10276000007882C6174830EEC00A1749D0ED0F0A2C
:10277000174A91ED001A70EE600A144960EE810A62
:1027800091ED001A41EE000A90ED0E1A70EE810AEA
:1027900010EE901AC0ED0E0A914203DDDFED0D0A36
:1027A000C0ED0E0A10EE901A0B4A914203D9DFEDEC
:1027B0000B0AC0ED0E0A80ED0F0ABDEEE00A10EE26
:1027C000100A7047E00100204C0100205001002059
:1027D0000078824600788246007882C6007882C6F9
:1027E0001CB50121102001F027F800218DF80410FC
:1027F000032101208DF8051000908DF8070069462F
:102800000148FFF71DFB1CBD001002402DE9F05FE1
:10281000322004F023FC3D4D0446DFF8F4B0286874
:102820003C4E3D4F4FF000084FF496794FF4FA7A42
:1028300001282ED1012C30D19BF80000401CC0B2E1
:102840008BF8000015285FD1344AC5F80080404657
:10285000C2F8A082324A8BF800801E21C2F8009094
:10286000304AC2F800A0C6F814A0C6F810A0C6F8F6
:102870000CA0C6F808A0C6F804A0C6F800A0C7E9D6
:102880000408F860B860786038600122264802F0D9
:102890001FF9286850B3012836D1022C34D11F49C2
:1028A000C5F800804046C1F8A0821D4A8BF8008020
:1028B000C2F800901B4AC2F800A0C6F814A0C6F8DF
:1028C00010A0C6F80CA0C6F808A0C6F804A0C6F868
:1028D00000A0C7E90408F860B86078603860BDE817
:1028E000F05F01221E21104802F0F2B8022C0BD139
:1028F0000F490E480A680260898881800E490D4898
:102900000A68026089888180BDE8F09F5C01002030
:1029100068010020740100204C5A00200000404251
:102920006C01002070010020000401404C020020D6
:1029300052020020580200205E0200207CB50121D6
:10294000084600F079FF01208DF8040000228DF880
:10295000062003218DF80510074D4FF480548DF8A3
:102960000700009469462846FFF76AFA2146284680
:10297000FFF7B2FA7CBD00000000024000EE900AB2
:1029800041421E4AB8EEE01A00EE901A00B592EDF0
:10299000010AF8EEE00A06F0BBFD00EE900A82EDB7
:1029A000010A174AB8EEE01A00EE901A92ED010AF9
:1029B000F8EEE00A06F0ACFD00EE900A82ED010AA6
:1029C000104AB8EEE01A00EE901A92ED010AF8EE05
:1029D000E00A06F09DFD00EE900A82ED010A0A4A27
:1029E000B8EEE01A00EE901A92ED010AF8EEE00A55
:1029F00006F08EFD82ED010A00BD0000705A002035
:102A0000845A0020985A0020AC5A0020BC2801D3D8
:102A1000012210E0622801D302220CE02A2801D30F
:102A2000032208E0142801D3042204E00A2801D379
:102A3000052200E006221A21D020FFF7BFBD10B505
:102A400004464FF47A70844201D9044602E0042C13
:102A500000D20424B0FBF4F0401EC2B21921D020F1
:102A6000FFF7ACFD6008BDE81040FFF7CFBF10B521
:102A700080226B21D020FFF7A1FDC82004F0BCFC10
:102A800000226B21D020FFF799FD012000F03AF8D9
:102A9000002000F02EF83220FFF7D1FF002238216D
:102AA000D020FFF78BFD00226A21D020FFF786FDA2
:102AB00000222321D020FFF781FD80223721D02062
:102AC000FFF77CFD7521D020FFF790FC682801D02E
:102AD000012010BD01226B21D020FFF76FFD0022E5
:102AE0006C21D020FFF76AFD3220FFF7A8FF0020FD
:102AF00010BD08B50223009004221C21D020FFF74E
:102B000007FD08BD08B50223009004221B21D02038
:102B1000FFF7FEFC08BD000008B504F0C3FC0D4C37
:102B20004FF47A7500900A21684607F053F8206840
:102B3000A8420ADA401C2060606820612089A082D7
:102B4000D4F80A00E061E089208400F049F800F040
:102B500003F8E8E73C02002070B53C21D020FFF7E5
:102B600045FC04463B21D020FFF740FC04EB00204D
:102B70001A4C3E212080D020FFF738FC05463D212D
:102B8000D020FFF733FC05EB002060804021D020EF
:102B9000FFF72CFC05463F21D020FFF727FC05EB73
:102BA000002000B2A4F10A01A0800968B1F57A7F83
:102BB00012DB04F118032188198062885A809880FA
:102BC0009B1F1D88491B21805988511A6180998853
:102BD000401A00F58040A08070BD00004602002031
:102BE00070B54421D020FFF701FC04464321D020DA
:102BF000FFF7FCFB04EB00201F4C46212080D02077
:102C0000FFF7F4FB05464521D020FFF7EFFB05EB6E
:102C1000002060804821D020FFF7E8FB05464721CF
:102C2000D020FFF7E3FB05EB002000B2211FA080BE
:102C300009684FF47A75114A114BA94203DA012051
:102C40001860107070BDA94201D1002111704FF4BD
:102C500096711960084B21881233198062885A8056
:102C600098809B1F1D88491B21805988511A6180BB
:102C70009988401AA08070BD4002002044010020C5
:102C800034000020FEE7704730B50F23C27801788A
:102C90000125FAB1144A126801F1E02102F4E06260
:102CA000C2F5E062C2F30722C2F10404D3404278C5
:102CB000A24084781C401443220181F8002400784B
:102CC00000F01F018D404009800000F1E020C0F8B5
:102CD000005130BD01F01F0085404809800000F11F
:102CE000E020C0F8805130BD0CED00E002490843FF
:102CF00002490860704700000000FA050CED00E092
:102D000010B40021084B0A46002003EBC004401C0D
:102D1000C0B262548028F8D3491CC9B20829F3D341
:102D200010BC00F0D1B800006402002010B57F286C
:102D300016D83F2914D80723A3EBD10301F00701CC
:102D4000C1F107040121A140064CDBB204EBC00035
:102D5000002AC25CC9B201D00A4300E08A43C254CF
:102D600010BD000064020020F0B516460D4607466F
:102D70000024FFF7DBFF324629463846FFF7D6FF2F
:102D80002819C1B232463846FFF7D0FF641CE4B2BE
:102D9000082CF5D3F0BD00007CB50121082000F01F
:102DA0004BFD01268DF8046000244FF4F0408DF8AF
:102DB000064000908DF805408DF807406946404870
:102DC000FFF73EF80121080700F042FD012000F066
:102DD0002DFD002000F0A8FD002000F027FD394D5A
:102DE000C5F8B042642005F52C7504F005FB2E6093
:102DF0000021AE2000F012FA0021D52000F00EFADA
:102E00000021502000F00AFA0021A82000F006FA64
:102E100000213F2000F002FA0021D32000F0FEF94B
:102E20000021084600F0FAF90021402000F0F6F9F0
:102E300000218D2000F0F2F90021142000F0EEF9BD
:102E40000021202000F0EAF90021022000F0E6F93C
:102E50000021A12000F0E2F90021C02000F0DEF9FD
:102E60000021DA2000F0DAF90021122000F0D6F972
:102E70000021812000F0D2F90021EF2000F0CEF9EE
:102E80000021D92000F0CAF90021F12000F0C6F994
:102E90000021DB2000F0C2F90021302000F0BEF953
:102EA0000021A42000F0BAF90021A62000F0B6F914
:102EB0000021AF2000F0B2F9FFF722FF7CBD000037
:102EC000000C02400080414270B5104E002505F113
:102ED000B000C0B2002100F0A1F90021084600F0C6
:102EE0009DF90021102000F099F9002406EBC400A0
:102EF0000121405D00F092F9641CE4B2802CF5D30E
:102F00006D1CEDB2082DE2D370BD000064020020FC
:102F100070B515460E4604460CE02A46314620465A
:102F200000F0A8F81034E4B2702C02D90024103656
:102F3000F6B2AD1C28780028EFD170BD70B51546EB
:102F40000E4604460CE02A463146204600F04EF874
:102F50000C34E4B2742C02D900240C36F6B2AD1C49
:102F600028780028EFD170BD2DE9F04F203A98461F
:102F70000D468346894602F0FF0A00262EE0B8F18E
:102F80000C0F08D0174901EB0A100027845D2006BA
:102F900007D5099A08E014490AEB4A0001EB8000C2
:102FA000F3E7099890B1002229465846FFF7BEFE84
:102FB0006D1C6006EDB2040EA5EB0901414507D179
:102FC0000BF101004D4600F0FF0B05E00122EBE79D
:102FD0007F1CFFB2082FDAD3761CF6B24645CED35B
:102FE000BDE8F08FEEBD00087AB900082DE9F74F73
:102FF000172514781E4B8B46002000EB800101EB57
:10300000C00113F81160A6422DD103EB4109567897
:1030100099F80110B14226D100254FF0800A09EB42
:103020000500009990F8028005F0010000240BEBE8
:10303000550701EBC0062AFA04F010EA080F06EB68
:103040000400F9B2C0B201D0012200E00022FFF773
:103050006DFE641CE4B2082CEDD36D1CEDB2182D8E
:10306000DDD3BDE8FE8F401CC0B2A842C5D3F8E74F
:1030700048D100082DE9F74F652514781D4B8B4684
:10308000002000EB001113F81160A6422DD103EBD4
:103090004109567899F80110B14226D100254FF028
:1030A000800A09EB0500009990F8028005F0010004
:1030B00000240BEB550701EBC0062AFA04F010EAD6
:1030C000080F06EB0400F9B2C0B201D0012200E003
:1030D0000022FFF72BFE641CE4B2082CEDD36D1C1C
:1030E000EDB2202DDDD3BDE8FE8F401CC0B2A8425A
:1030F000C7D3F8E7DEC300082DE9FF4F81B00027F2
:10310000DDF838B01D46924680463C464FF0010936
:103110004FEA5B0627E0281B401EC1B20A2004F0DC
:10312000FBF9BAFBF0F00A21B0FBF1F201FB12004F
:1031300027B9691E8C4201DA48B101273030C2B28A
:1031400006FB0480C0B25B46CDF8009006E006FBAB
:103150000480C0B25B462022CDF800900299FFF7B0
:1031600003FF641CE4B2AC42D5D305B0BDE8F08FD8
:10317000F8B516460D460446012714E07A2C02D90C
:1031800000241035EDB23A2D03D900242546FFF76F
:10319000B7FD009732780C2329462046FFF7E4FE5E
:1031A0000834E4B2761C30780028E7D1F8BDF8B5D1
:1031B00016460D460446012714E07A2C02D9002455
:1031C0001035EDB23A2D03D900242546FFF798FDBE
:1031D00000973278102329462046FFF7C5FE0834B1
:1031E000E4B2761C30780028E7D1F8BD30B50A4D3E
:1031F00000242868C11700EB1170B4EB201F01DA1E
:10320000012200E0002200212046FFF7ADFD641CF2
:10321000E4B2802CEDD330BDD801002030B50023BE
:103220000E4A012411B1C2F8AC4201E0C2F8AC323E
:103230000021C2F8B832050602D5C2F8B44201E056
:10324000C2F8B432C2F8B8424006491C000EC9B2F6
:103250000829EED3C2F8AC4230BD000000804142E4
:103260000020044A01461154401CC0B20928FAD378
:1032700070470000640600202DE9F8430125074649
:10328000ADF800501B4800264670ADF800501A4CAF
:1032900080464FF6FF7924E0BDF80000384202D0A6
:1032A000C4F8B05201E0C4F8B062C4F8A0520520DE
:1032B00004F0BEF8C4F8A062052004F0B9F8C4F820
:1032C000A052D4F83C0230B198F80110BDF80020AB
:1032D000114388F80110BDF8001009EA4100ADF86B
:1032E0000000BDF80000FF28D6D9BDE8F843102043
:1032F00004F09EB8640600200000424270B5FFF75B
:10330000AFFF00F013F90B480B4AB0F803400A482E
:10331000083244800020012512F8103000F101002D
:103320005B1E05FA03F12142C0B202D01028F3D38C
:10333000002070BD640600203C00002010B5154C34
:103340000020C4F8A802102004F52A7404F070F8D4
:103350000120FFF791FF4320FFF78EFF0020FFF7CA
:103360008BFF0120FFF788FF0020FFF785FF00207B
:10337000FFF782FF0020FFF77FFF0020FFF77CFFB1
:103380000020FFF779FF01202060BDE810401020E9
:1033900004F04EB80000424210B5154C0020C4F8AD
:1033A000A802102004F52A7404F042F80120FFF767
:1033B00063FF4320FFF760FF0020FFF75DFF002061
:1033C000FFF75AFF5A20FFF757FF5A20FFF754FF25
:1033D0005A20FFF751FF5A20FFF74EFF5A20FFF700
:1033E0004BFF01202060BDE81040102004F020B801
:1033F000000042427CB50121102000F01DFA4FF47C
:103400000040002400908DF8044003208DF8050052
:103410000C4E02258DF8075069463046FEF710FD28
:1034200001218DF804108DF806404FF4A8508DF856
:10343000055000908DF8071069463046FEF700FDF4
:103440007CBD00000010024010B5FFF757FF00EEF2
:10345000100A27482C4BB8EE400A012280ED000AE2
:103460002448C17900EE901A2349F8EE600AC1EDB4
:10347000000A017A00EE901A2049F8EE600AC1EDC8
:10348000000A417901EE101A1D49B8EE411A81ED8A
:10349000001A807910EE101A01EE100A1948B1F1E5
:1034A000814FB8EE411A80ED001A184801D1017819
:1034B000E1B15968002918D010EE901A144B9942C6
:1034C00013DA0178002910D112490968B1F57A7F21
:1034D0000BDB114902700020087010490870104978
:1034E0000870104908701049087010BD5A60E3E771
:1034F000D401002064060020C4010020C80100207F
:10350000CC010020D00100203C000020540100200C
:103510000000EC423C020020560100205501002032
:1035200057010020BC010020BD0100202DE9FC4115
:1035300000268DF800600125ADF80450224CC4F837
:10354000A862224F3878FFF797FE7878FFF794FE4D
:1035500002208DF800001E4F4FF6FF782CE0ADF8EA
:1035600004501DE0C4F8A052052003F061FFC4F828
:10357000A062052003F05CFFC4F8A052D4F83C021E
:1035800040B19DF80000BDF80410385C08439DF878
:1035900000107854BDF8041008EA4100ADF80400AA
:1035A000BDF80400FF28DDD9102003F041FF9DF88D
:1035B0000000401C8DF800009DF800000928CED3C3
:1035C000C4F8A852BDE8FC81000042423C00002043
:1035D0006406002010B500F00DF800F00BF800F0C4
:1035E00009F8FFF7ABFE00F027F8BDE81040FFF741
:1035F000D3BE000010B50F4C0020C4F8A802102064
:1036000004F52A7403F014FF0120FFF735FE422071
:10361000FFF732FE0020FFF72FFE0020FFF72CFE01
:103620000020FFF729FE01202060BDE81040102097
:1036300003F0FEBE0000424210B5144C0020C4F856
:10364000A802012004F52A74FFF716FE4420FFF7B4
:1036500013FE0020FFF710FE0120FFF70DFE0320F0
:10366000FFF70AFE0020FFF707FE0020FFF704FE29
:103670000020FFF701FE0020FFF7FEFD0120206083
:10368000BDE81040102003F0D3BE0000000042420D
:10369000554830B4D0ED000A9FED540A54486FF0FD
:1036A000130370EE600AFDEEE00A10EE901AD0ED02
:1036B000000A504870EE600AFDEEE00A10EE902A13
:1036C000D0ED000A9A4230EE600ABDEEC00A10EE5C
:1036D000100A02DD142A00DA0022994202DD1429C0
:1036E00000DA0021984202DD142800DA0020424B63
:1036F000434C424D1B6894ED000AF1EE040AAB42C4
:1037000002D130EE200A04E03E4DAB4203D130EE50
:10371000600A84ED000AB5EEC00AF1EE10FA03D299
:103720009FED390A84ED000A00EE102A01EE901A8E
:10373000D4ED000AB8EEC00A02EE100AF8EEE11A63
:10374000DFED352AB8EEC22A20EE201A9FED2F0AAF
:1037500061EEA01A22EE222A21EE001A2C4A61EE16
:10376000801A2C4B22EE000A2C4982ED001A2C48BC
:10377000C3ED001A81ED000A00789FED2A2AF0B10E
:1037800001281CD0022806D003280FD005280DD010
:1037900004280BD019E0F0EE000A20EE200AF2EE29
:1037A000020A80EE202A81ED002A0EE0B5EEC01A52
:1037B000F1EE10FA03D2B1EE400A81ED000A20EEDC
:1037C000200AC0EE020AC1ED000A9FED172A81EE21
:1037D000020AC1EE820A82ED000AC3ED000A91EDF1
:1037E000001A30BCFDF730BFC401002000000043C8
:1037F000C8010020CC010020D4010020000030418D
:103800004801002000001041000000000000003CC2
:103810009C010020A0010020DB0FC93FA401002073
:10382000450100200000FA4300007A440149086283
:103830007047000000000E42044A0029116801D0C0
:10384000014300E0814311607047000030380240BE
:10385000044A0029116801D0014300E0814311604E
:103860007047000040380240044A0029116801D026
:10387000014300E08143116070470000443802407A
:10388000044A0029116801D0014300E0814311601E
:10389000704700002438024070B5204B1968204C56
:1038A00011F00C0104D06610042903D0082903D0BC
:1038B00004601BE0066019E0184A121F1168C1F38A
:1038C0008055116801F03F0115B1B6FBF1F101E03F
:1038D000B4FBF1F114681268C4F388146143C2F3B5
:1038E0000142521C5200B1FBF2F1016019680F2233
:1038F00002EA11110B4A545C0168E14041601C6806
:10390000072505EA9424145D21FA04F484601B68F9
:1039100005EA5333D25CD140C16070BD0838024023
:103920000024F400C0000020054900220A700A703B
:10393000012802D0042801D105200870704700003A
:10394000703802400021022807D003280BD0042839
:103950000BD005280BD0002070474FF08042506AF2
:10396000516200B27047044A02E0044A00E0044A8F
:103970001068116000B27047240400402408004021
:10398000240C00402DE9F0414FF4FA66614B7710AA
:1039900032463946186805F0CBFD5F4D1860324657
:1039A0003946286805F0C4FD5C4C2860324639462B
:1039B000206805F0BDFD3246594E2060394630681A
:1039C00005F0B6FD30602A6821681B686FF063045B
:1039D000A2F2DC52A0F2DC50A1F2DC51A3F2DC53E3
:1039E000A24202DD642A00DA0022A04202DD64283D
:1039F00000DA0020A14202DD642900DA0021A3429E
:103A000002DD642B00DA002300EE101A454CB8EEFC
:103A1000C00AD4ED000A30EE800ABDEEC00A10EEF6
:103A2000101A002900DA00214FF4FA754A4392FB7C
:103A3000F5F24042484390FBF5F000EE102ADFED2E
:103A40003C1A394CF8EEC00A00EE100A5842374DC5
:103A5000B8EEC01A00EE100A374AC4ED000AB8EEFC
:103A6000C00A364885ED001A20EE212ADFED311A12
:103A700082EE210A82ED000A007850B1012808D0B8
:103A800002280DD0032812D0052810D004280ED00B
:103A900022E002EE101AB8EEC22A20EE020A17E067
:103AA000F0EE001A20EE210AF2EE021A10E0F5EE16
:103AB000C00AF1EE10FA03D2B1EE400A82ED000A1C
:103AC000B0EE402A00EE101AB8EEC00A22EE000A4C
:103AD00080EE212A82ED002A9FED190A1949C0EED5
:103AE000801AC1EE000AC4ED001AC5ED000A08787C
:103AF00038B19FED150A401E84ED000A82ED000AE0
:103B0000087092ED001A94ED000ABDE8F041FDF74F
:103B10009BBD0000780000207C0000208000002079
:103B200084000020480100209C010020A00100200A
:103B3000DB0FC93F0000FA43A4010020450100202B
:103B400000007A44E00100200000000010B551ECB4
:103B5000100B2DED068BB0EE439AF0EE629AB0EEAC
:103B600042AAF0EE618AB0EE418A07F041F8BDEE5C
:103B7000CA0A154910EE102ABDEEE90A086081ED67
:103B8000018A10EE103AC1ED058AC1E9022381EDE8
:103B9000049A9900514300EE101A0C49B8EEC00A7D
:103BA00081ED000A9FED0A0A0A4929EE000A81ED1B
:103BB000000A09490860094880ED008A0848C0EDFC
:103BC000008ABDEC068B10BD045B0020A80100201C
:103BD000DB0F4940AC010020B0010020B4010020FF
:103BE000B801002070B53E4C4FF4AD700A21206042
:103BF0000920FEF713FB21683A4C90FBF1F0C0B2AC
:103C00002070052801D905202070C0B29FED361A1A
:103C10009FED363A06281DD2DFE800F00310293464
:103C20003D48F0EE411A9FED323AF2EE0A2AB3EE29
:103C30000E2A9FED301A9FED300B09E09FED303AD0
:103C4000F2EE0A2AB3EE0E2ADFED2E1A9FED2E0BAE
:103C5000FFF77CFF2578042208242D482D490723EF
:103C6000062D38D2DFE805F02D3038383438F0EE44
:103C7000411AF2EE0A2AB3EE0E2A9FED271A9FEDA3
:103C8000270BE5E7F2EE0A2AB3EE0E2AF0EE411A10
:103C90009FED240BDCE7F0EE411AF2EE0A2AB3EEB8
:103CA0000E2A9FED221A9FED220BD1E79FED223ABB
:103CB000F2EE0A2AB3EE0E2AF0EE411A9FED1F0B28
:103CC000C6E704600E2005E0062202600A2001E03B
:103CD00004600B20086070BD02600B6070BD0000C6
:103CE000940100204501002000000000B81E853D21
:103CF0009A99993D7B14AE3D022B8716D9CEB73FDA
:103D00008FC2753D643BDF3D0000000000000000F5
:103D10006001002064010020BC74133E000000809C
:103D20006ABCC43F000000A0EFA7C63FE926313EB1
:103D3000000000C09DEFC73FC520303D000000E0FF
:103D40007A14CE3F0CB500222749009201920868F0
:103D500040F4803008604FF4A043086800F400305D
:103D600001900098401C0090019810B9009898426A
:103D7000F3D10868800334D5012001901A484030FF
:103D8000026842F0805202601848026842F44042E1
:103D900002601548083002680260026842F400427E
:103DA0000260026842F4A0520260031F104A1A60C7
:103DB0000A6842F080720A600A689201FCD50D49D7
:103DC00040F205720A60016821F003010160016898
:103DD00041F0020101600168C1F381010229FAD1B9
:103DE0000CBD01920CBD0000003802400070004084
:103DF00008544007003C0240F0B5174E174F059D90
:103E000044F29F14002803DA34602044386002E052
:103E10003C60201A30601248002903DA44632144D0
:103E2000816302E08463611A41630E48002A03DA69
:103E300084631119416302E04463A11A8163002B7A
:103E400003DA04641919C16302E0C463E11A01646E
:103E500005480560F0BD000034440140344801408D
:103E600000400140000001403818004000B5B0EEAD
:103E7000412AF0EE602AB0EE401A9FED490A494807
:103E8000D0ED001ADFED480AB5EEC01AF1EE10FAD7
:103E900002DD71EE801A0EE0B5EEC01AF1EE10FAF6
:103EA00002D271EEC01A06E0B5EEC01AF1EE10FAB9
:103EB00003D161EEA01AC0ED001A3A49F5EEC02A0E
:103EC000D1ED011AF1EE10FA02DD71EE801A0EE06A
:103ED000F5EEC02AF1EE10FA02D271EEC01A06E039
:103EE000F5EEC02AF1EE10FA03D161EEA01AC0ED92
:103EF000011A2C49B5EEC02AD1ED021AF1EE10FAE2
:103F000002DD31EE800A0EE0B5EEC02AF1EE10FAC5
:103F100002D231EEC00A06E0B5EEC02AF1EE10FA88
:103F200003D121EEA00A80ED020AB0EE410A03F0AF
:103F3000A5FAF0EE400AB0EE410A03F09FFAF1EE66
:103F4000401AB0EE601A90ED000AF0EE610A05F03A
:103F5000DFFA80ED000AB0EE620A03F08FFAB0EEED
:103F6000401AB0EE620A03F089FAF1EE400A90EDD1
:103F7000010A05F0CDFA80ED010AB0EE420A03F025
:103F80007DFAB0EE401AB0EE420A03F077FAF1EE95
:103F9000400A90ED020A05F0BBFA80ED020A00BD6E
:103FA0000AD7233C645A00206666663F4FF0E02142
:103FB0000428086903D020F004000861704740F02D
:103FC0000400FAE710B506F0ABFB012803D0BDE80A
:103FD000104006F099B810BD124810B5016841F4C0
:103FE000700101601048016841F0010101600E4A52
:103FF00000210832116002680C4B1A400260031D58
:104000000B4A1A60026822F48022026006480C30D3
:104010000160FFF797FE03494FF0006080390860A8
:1040200010BD000088ED00E000380240FFFFF6FE02
:104030001030002470B5048C24F001040484058B36
:10404000048C4FF6FF7606EA0313134325F0F305BD
:104050002B4324F00A020A4342F001010383018446
:1040600070BDF0B5048C24F010040484078B068C1A
:104070004FF6FF7404EA011527F4734704EA03318D
:10408000394304EA02220A4326F0A001294341F001
:10409000100102830184F0BD2DE9F04188460746F6
:1040A0008AB001210220FFF7C7FB01214804FFF776
:1040B000DBFB1F4E032208213046FDF7FDFE0220E8
:1040C0008DF804000024C0018DF806400125009001
:1040D0008DF8075003208DF8050069463046FDF73E
:1040E000AFFE144EADF808800397ADF81040ADF860
:1040F0000A4002A9304600F03FFE6020ADF81400EF
:10410000ADF81650ADF8204005A9304600F0E8FCA7
:104110000821304600F01AFD0121304600F028FC4D
:104120000121304600F034FC0AB0BDE8F081000007
:1041300000040240004401402DE9F0418846074652
:104140008AB001210220FFF777FB01218804FFF7E5
:104150008BFB214E032209213046FDF7ADFE0220E4
:104160008DF80400002400028DF80640012500901F
:104170008DF8075003208DF8050069463046FDF79D
:104180005FFE164EADF808800397ADF81040ADF80D
:104190000A4002A9304600F0EFFD6020ADF814009F
:1041A000ADF81650ADF8204005A9304600F098FC57
:1041B0000821304600F0CAFC0121304600F0F2FB35
:1041C0000121304600F0D4FB0121304600F0E0FB35
:1041D0000AB0BDE8F0810000000402400048014040
:1041E0002DE9F041884606468AB001214020FFF7BC
:1041F0002FFB01210220FFF71FFB02208DF8180082
:104200004FF44040059003208DF819000024264FFC
:104210008DF81A4001258DF81B5005A93846FDF789
:104220000FFE09220E213846FDF746FE09220F2116
:104230003846FDF741FE08961C4EADF81C80ADF8DF
:104240002440ADF81E4007A9304600F095FD6020DF
:10425000ADF80000ADF802500294ADF80C40ADF896
:1042600010406946304600F03BFC6946304600F09D
:1042700073FC0821304600F069FC0821304600F04C
:10428000B5FC0121304600F08DFB0121304600F0E5
:104290007FFB064940F2DC5038310860091F086096
:1042A0000AB0BDE8F08100000004024000180040A0
:1042B0002DE9F0418846074601218AB00846FFF7FC
:1042C000D3FA01211020FFF7B7FA354E0122092158
:1042D0003046FDF7F1FD01220B213046FDF7ECFDE4
:1042E00001220D213046FDF7E7FD01220E21304667
:1042F000FDF7E2FD4FF4D440059002208DF8180040
:1043000003208DF8190000248DF81A4001258DF83E
:104310001B5005A93046FDF793FD224EADF81C80D9
:104320000897ADF82450ADF81E4007A9304600F0BC
:1043300023FD6020ADF80000ADF80250ADF80C4050
:104340006946304600F0CCFB6946304600F004FC7C
:104350006946304600F054FC6946304600F09EFC49
:104360000121304600F01EFB0821304600F0EEFB34
:104370000821304600F03AFC0821304600F088FC65
:104380000821304600F0C4FC0121304600F0F0FA6C
:104390000121304600F0FCFA0AB0BDE8F0810000CF
:1043A00000100240000001404FF08040018A018A65
:1043B00021F001010182704703480188018821F042
:1043C000010101807047000010040040034801888B
:1043D000018821F0010101807047000010080040B1
:1043E00003480188018821F0010101807047000025
:1043F000100C004003480188018821F00101018070
:1044000070470000101800402DE9F0478E48002446
:104410008169B1F5C86F13DD8C490A7882B98C4A7D
:104420001268B2F57A7F0BDB01220A7089490C70A1
:1044300089490C7089490C7089490C7089490C7044
:1044400080460078884D000642F20F764FF4FA77E6
:104450002DD40221284600F0D1FA40B3022128468B
:1044600000F093FA98F80000400628463DD500F089
:10447000BDFA80B2A8F80600B8F804104246884297
:1044800001D2566300E05463401A516B08445061F6
:10449000516A401A00D54042B84200DD516150696E
:1044A000506288F800400021284600F049FB98F847
:1044B000010000063AD40421284600F09FFAA8B370
:1044C0000421284600F061FA98F8010040062846C9
:1044D0004AD500F08DFA80B2A8F80A00B8F80810A2
:1044E000424688420ED296630DE000F07FFA014604
:1044F000A8F8041098F8001041F0400188F8001066
:104500000221D1E79463401A916B08449061916A4B
:10451000401A00D54042B84200DD91619069906236
:1045200088F801400021284600F056FB98F8020068
:1045300000063AD40821284600F060FAA8B3082102
:10454000284600F022FA98F80200400628464BD58B
:1045500000F050FA80B2A8F80E00B8F80C104246ED
:1045600088420ED2D6630DE000F042FA0146A8F868
:10457000081098F8011041F0400188F8011002215C
:10458000D1E7D463401AD16B0844D061D16A401A94
:1045900000D54042B84200DDD161D069D06288F8D0
:1045A00002400021284600F069FB98F80300C1464C
:1045B000000647D41021284600F020FA002841D0F8
:1045C0001021A846284600F0E0F999F803004D466E
:1045D00040062BD5404600F00FFA80B26882298A47
:1045E00088420ED22E640DE000F004FA0146A8F8CD
:1045F0000C1098F8021041F0400188F802100221D6
:10460000D0E72C64401A296C08442862296B401AB0
:1046100000D54042B84200DD2962286A2863EC7068
:1046200000214046BDE8F04700F068BB44464046E4
:1046300000F0E2F92882E878022140F04000E870BA
:104640002046EFE7BDE8F087640000205601002017
:104650003C02002055010020540100205701002099
:10466000BC010020BD010020000401402DE9F04103
:10467000884605468AB001210220FFF7F5F801219E
:104680000420FFF7D9F84FF47070022603908DF8DC
:10469000106003208DF811000024414F8DF8124066
:1046A0008DF8136003A93846FDF7CAFB03220621E3
:1046B0003846FDF701FC032207213846FDF7FCFBD5
:1046C000032208213846FDF7F7FB0322092138466B
:1046D000FDF7F2FB334FADF814800695ADF81C40A2
:1046E000ADF8164005A9384600F046FB01250F201D
:1046F000ADF80040ADF80450ADF80800ADF8024048
:10470000ADF806406946384600F084F90420ADF85B
:104710000000ADF80450ADF80240ADF80640ADF829
:1047200008406946384600F075F90820ADF80000E9
:10473000ADF80450ADF80240ADF80640ADF80840C1
:104740006946384600F066F90C20ADF80000ADF877
:104750000450ADF80240ADF80640ADF80840694697
:10476000384600F057F92E208DF820008DF8216092
:104770008DF822608DF8235008A8FEF785FA0122F3
:104780001E21384600F0A4F90121384600F00AF94C
:104790000121384600F0FCF80AB0BDE8F0810000C5
:1047A00000080240000401402DE9F0418846064619
:1047B0008AB001210220FFF757F801210420FFF7FA
:1047C0003BF802208DF818004FF47070059003201C
:1047D0008DF819000024324F8DF81A4001258DF80C
:1047E0001B5005A93846FDF72BFB0322062138464E
:1047F000FDF762FB032207213846FDF75DFB03222C
:1048000008213846FDF758FB032209213846FDF7F9
:1048100053FB0896234EADF81C80ADF82440ADF84C
:104820001E4007A9304600F0A7FA6020ADF800004E
:10483000ADF802500294ADF80C40ADF81040694656
:10484000304600F04DF96946304600F085F969467A
:10485000304600F0D5F96946304600F01FFA0821CD
:10486000304600F073F90821304600F0BFF9082106
:10487000304600F00DFA0821304600F049FA0022D7
:104880001E21304600F024F90121304600F08AF85C
:104890000121304600F07CF80AB0BDE8F08100004C
:1048A00000080240000401400248018821F0010193
:1048B00001807047100401402DE9F043894680468D
:1048C00001218BB00804FEF7CFFF01211020FEF775
:1048D000B3FF254F032205213846FDF7EDFA0322E9
:1048E00006213846FDF7E8FA02208DF8180003206B
:1048F0008DF81900002460268DF81A4001250596D0
:104900008DF81B5005A93846FDF79AFA174FADF8F8
:104910001C90CDF82080ADF82440ADF81E4007A9CA
:10492000384600F029FAADF80060ADF80250ADF855
:104930000C406946384600F0D3F86946384600F026
:104940000BF90821384600F001F90821384600F03B
:104950004DF90121384600F00BF80121384600F0EE
:1049600017F80BB0BDE8F083001002400040014092
:104970000029018802D041F0800101E021F080018E
:1049800001807047C94301827047C9430182704763
:104990000029018802D041F0010101E021F001016C
:1049A00001807047002930F8441F02D041F40041D3
:1049B00001E0C1F30E010180704770B50589048BD9
:1049C000068C25F007050D434FF6FC410C4040F2E4
:1049D00001110C434FF6FF7101EA031126F0220684
:1049E0001143314305810483018470BD406B7047DE
:1049F000806B7047C06B7047006C704702460020A8
:104A0000138A92890B4202EA010202D0002A00D0E6
:104A1000012070472DE9F0410C460E884988A28894
:104A20002389054616B3042E28D0082E2E8C4FF667
:104A3000FF702BD026F480562E84AF8B2E8C00EA8C
:104A4000022200EA013127F473473A4300EA0330B7
:104A5000104326F420420A4342F48051A88329845B
:104A6000E1882846BDE8F04100F07AB9FFF7E2FAA4
:104A7000E1882846BDE8F04100F056B9FFF7F1FAA9
:104A8000E1882846BDE8F04100F056B926F480766A
:104A90002E84AF8B2E8C00EA012100EA0310104314
:104AA00027F0F307384326F420620A4342F480716A
:104AB000A8832984E1882846BDE8F04100F048B980
:104AC00000210180418001228280C18001817047E4
:104AD000002A828901D00A4300E08A43828170471C
:104AE00030B5028C22F001020284028C8388048B90
:104AF00022F0020224F073050C882C438D891543A3
:104B00004A882A430C4DA84202D00C4DA8420DD130
:104B100022F00805CA8923F440732A4322F00405D1
:104B20008A882A430D8A1D434B8A2B438380048342
:104B300089684163028430BD0000014000040140E7
:104B4000028C22F002020A4302847047028B22F098
:104B500008020A430283704770B5028C22F01002EB
:104B60000284028C8388048B0D8824F4E6464FF679
:104B7000FF7404EA052535438E8922F0200204EAF9
:104B8000061616434A8804EA02123243104EB04217
:104B900002D0104EB04215D122F08006CA8923F40B
:104BA000406304EA0212324322F040068A8804EA93
:104BB000021232430E8A04EA86061E434B8A04EA36
:104BC000830333438380058389688163028470BDD6
:104BD0000000014000040140028C4FF6FF7322F0F8
:104BE000200203EA0111114301847047028B4FF642
:104BF000FF7322F4006203EA01211143018370472D
:104C000070B5028C22F480720284028C8388848BBB
:104C10000D8824F0730425438E894FF6FF7422F427
:104C2000007204EA062616434A8804EA0222324346
:104C3000104EB04202D0104EB04215D122F40066A0
:104C4000CA8923F4405304EA0222324322F48066E4
:104C50008A8804EA022232430E8A04EA06161E43B8
:104C60004B8A04EA03133343838085838968C163D5
:104C7000028470BD0000014000040140028C4FF628
:104C8000FF7322F4007203EA01211143018470478B
:104C9000828B22F008020A438283704770B5028C2F
:104CA00022F480520284058C8288838B0C8823F442
:104CB000E6464FF6FF7303EA0424344325F4005616
:104CC0008D8903EA053535434E8803EA06362E43BF
:104CD000084DA84202D0084DA84205D122F48045D3
:104CE0000A8A03EA82122A438280848389680164E3
:104CF000068470BD0000014000040140028C4FF6A4
:104D0000FF7322F4005203EA01311143018470471A
:104D1000828B4FF6FF7322F4006203EA01211143F4
:104D20008183704741627047028B22F00C0202833C
:104D3000028B0A4302837047028B22F44062028393
:104D4000028B4FF6FF7303EA01210A430283704787
:104D5000828B22F00C028283828B0A43828370470B
:104D6000828B22F440628283828B4FF6FF7303EAC8
:104D700001210A438283704730B50288164C174DD3
:104D8000A0420DD0A8420BD0B0F1804F08D0144BF8
:104D9000984205D0134B984202D0134B984203D14E
:104DA00022F070034A881A43104B984206D0104BE9
:104DB000984203D022F440730A891A4302804A6859
:104DC000C2620A880285A04201D0A84201D1897A34
:104DD00001860121818230BD0000014000040140B4
:104DE0000004004000080040000C0040001000409B
:104DF000001400404FF0FF3141600021018001812B
:104E000041808172704700000A2809DB0C48D0F805
:104E10000C0228B10B480078012801D0002070470F
:104E2000094A012000211160084A1160084A5163B3
:104E30009163084A916391631164D16370470000E4
:104E40000080414244010020344401403448014084
:104E5000004001400000014070B52F4C40F2255148
:104E6000204600F01DFB00284ED0204600F0A6FB97
:104E7000C1B22A480068B0F57A7F45DB294A284C40
:104E8000002590797B29215400D028B1401CC0B264
:104E900090710B2802D037E0957135E09571A07ABA
:104EA0007D2831D100210920FCF7B0FB617A8842CE
:104EB0002AD11D4805701D4805701D4805701D4804
:104EC00005701D4805701D4805702179E07800F0D7
:104ED000D1FB1B4D85ED000AA179607900F0CAFB7A
:104EE000184880ED000A217AE07900F0C3FB1648EB
:104EF000164EF0EE400A0078022807D0217AE079B9
:104F000000F0B8FB86ED000A002070BD95ED000AA8
:104F100000F05AFBF6E7000000500040E4010020DA
:104F2000E0060020A80000205401002056010020C7
:104F30005501002057010020BD0100202002002063
:104F40009C010020A001002045010020A4010020B8
:104F500070B5334D40F22551284600F0A1FA0028E3
:104F600056D000240126284600F028FBC1B22D4867
:104F70000068B0F57A7F4BDB2C4B2B4D0022187864
:104F80007B29295400D028B1401CC0B218700B28CE
:104F900002D03DE01A703BE01A70A87A7D2837D124
:104FA0000020295C401C4C400928FADB687AA042AA
:104FB00000D06EBB1E48017849B9012101701D481F
:104FC00002701D4802701D4802701D4802701D4885
:104FD00002702979E87800F04DFB1B4C84ED000A43
:104FE000A979687900F046FB184880ED000A297A13
:104FF000E87900F03FFB1648164EF0EE400A0078C4
:10500000022807D0297AE87900F034FB86ED000AFF
:10501000002070BD94ED000A00F0D6FAF6E700001B
:1050200000100140E401002070060020A8000020CC
:10503000BC01002055010020540100205601002031
:1050400057010020200200209C010020A001002028
:1050500045010020A401002000B5054B0022985C0A
:1050600004F0DEFB521CD2B2182AF8D300BD0000B7
:10507000AE0600202DE9F04140F225512DED048BC4
:10508000834800F00DFA00280FD08148001D0088E9
:1050900080490968B1F57A7F07DB7F494FF0020844
:1050A0000A68012112B1012A70D0EBE000247B4D87
:1050B000412810D12A79412A0DD1794A137853B960
:1050C000784B1C70784B1C701170784A1470784AB9
:1050D0001470784A1470C3B2774A784FDFF8E0C191
:1050E000784E2B714B2808D0492808D04A2806D082
:1050F00036782EB1012E0BD01EE031700CE03470EA
:10510000A0F14106072E26D9082814DC137013E0FD
:10511000432809D047280BD03C708CF80040412828
:1051200019D0452817D006E03C708CF8001002E03A
:1051300039708CF8004014709FED630A634A9FED4C
:10514000649A644E58280AD059280DD07B2817D06D
:105150007D281CD00EE0A0F140061670ECE7D6EDDD
:10516000000A30EE800A03E0D6ED000A30EEC00AF5
:1051700086ED000A6878012803D0022809D060E093
:105180006970A8781354401CA8705AE063E085F851
:105190000180D078502806D05078232848D0A878AD
:1051A000E87090462AE04C48017041E0A978081A5E
:1051B00005F093FF41EC110B9FED480B00F008FC4C
:1051C000EF78B0EE408A08EB0700F0EE608A10F846
:1051D000010C303805F081FF53EC182B05F0E4FF8B
:1051E00041EC180BA86806F0D5FA53EC182B05F023
:1051F00031FD05F0FDFC7F1EA860EF70E878042803
:10520000D4D298F801003038032811D2DFE800F03A
:1052100002070B0095ED020A86ED000A08E095ED05
:10522000020A304802E095ED020A2F4880ED000A9C
:105230006C70AC70EC7085ED029A32212348FBF75C
:105240008CF996ED000AB5EEC00AF1EE10FA19D20B
:1052500086ED009A16E0254A412808D0432808D058
:10526000452809D0472809D05A2809D00AE01170EA
:1052700008E082F8008005E0032002E0042000E05E
:10528000052010700020BDEC048BBDE8F08100000B
:10529000004400403C0200205C010020A8000020E7
:1052A0005501002054010020560100205701002024
:1052B000BC010020BD01002058010020BE010020DB
:1052C000BF010020C00100200000C8427B06002072
:1052D0000000000048010020C10100200000000083
:1052E000000024404C010020500100208D010020CE
:1052F00070B5394C40F22551204600F0D1F8002815
:1053000068D0204600F05AF93449C0B20968B1F5B6
:105310007A7F5FDB32490024096811B101294DD041
:1053200058E0314A2F4D7B285179685400D029B17B
:10533000491CC8B250710B2802D04BE0547149E0AF
:105340005471A87A7D2845D100210920FCF75EF927
:10535000697A88423ED12548047025480470254862
:1053600004702548047025480470254804702548B9
:1053700004702979E87800F07DF9234C84ED000A67
:10538000A979687900F076F9204880ED000A297A39
:10539000E87900F06FF91E481E4EF0EE400A0078E2
:1053A000022806D0297AE87900F064F986ED000A2F
:1053B00010E094ED000A00F007F9F7E7174A164BE2
:1053C00023281178585403D15C54154B01201870D0
:1053D000491C1170002070BD00480040E40100200D
:1053E0005C010020E0060020A800002054010020FD
:1053F000560100205501002057010020BC0100206B
:10540000BD010020200200209C010020A0010020FE
:1054100045010020A4010020C05A00208C0100207A
:10542000DC01002010B50022084B094C03E0985C19
:1054300004F0FEF9521C20788242F8DB0D2004F0C3
:10544000F7F9BDE810400A2004F0F2B9C05A002074
:105450008C01002000B5054B0022985C04F0E8F9AF
:10546000521CD2B2182AF8D300BD0000AE060020AC
:1054700000B5054B0022985C04F0E4F9521CD2B24E
:10548000182AF8D300BD0000AE060020002981894B
:1054900002D041F4005101E021F4005181817047B4
:1054A00070B501F01F0501260024C1F3421306FA6E
:1054B00005F2012B0FD0022B0FD0838A4FEA112166
:1054C0000088134206FA01F600EA060001D000B196
:1054D0000124204670BD8389F0E7038AEEE710B50A
:1054E000C1F3421301F01F040121A140012B07D099
:1054F000022B07D01430002A026805D00A4304E0CA
:105500000C30F8E71030F6E78A43026010BD000067
:105510007FB50446008A0D46C98820F440500143F7
:105520002182A08941F20C618843A9882A8911430C
:105530006A8902431143A181A08A20F44071A8899D
:105540000843A0826846FEF7A7F91A48844202D0B1
:105550001948844201D1039800E00298A189090406
:1055600000EBC00101EB0010296801D5490000E003
:105570008900B0FBF1F06422B0FBF2F109010B09E4
:105580006FF018056B4300EB8300A3891D044FF0F7
:10559000320306D503EBC000B0FBF2F000F00700C9
:1055A00005E003EB0010B0FBF2F000F00F00084341
:1055B00020817FBD00100140001401408088C0F3AD
:1055C00008007047FEE7000010B52DED048BB0EE2B
:1055D000608AB0EE409ADFED238AB5EEC08AF1EE24
:1055E00010FA3CD0B5EEC09AF1EE10FA37D089EE41
:1055F000080A01F043FFB4EEE80AF1EE10FA0FD802
:10560000B5EEC08AF1EE10FAB0EE490A02DD01F003
:1056100035FF03E001F032FFB1EE400A80EE288A48
:105620001148B6EE001A90ED000A1048C9EE080ABB
:1056300040EE010A90ED001A81EE200A10EE100AE9
:1056400006F0A8F841EC100B00F056F851EC100BE6
:1056500005F0CEFA00EE100ABDEC048B10BD9FEDF4
:10566000040AF9E73333B33EB0010020B40100204F
:105670000000000070B501EB002004B24FF47A7511
:1056800094FBF5F005FB10402DED028B05F025FD98
:105690009FED0B1B53EC112B05F086FD41EC180B15
:1056A00094FBF5F005F019FD53EC182B05F0D2FA38
:1056B00005F09EFABDEC028B00EE100A70BD0000F2
:1056C000FCA9F1D24D62503F03B40198410000980B
:1056D00050EAC12018BF04204A0D18BF40F0010055
:1056E00040F2FF72B2EB515F08BF40F002000128A8
:1056F00008BF052002B0704770B59B482DED020B26
:105700002DED068B079D25F00044A04218DC97483C
:10571000844202DC0AD1069840B19DED060BBDEC37
:10572000068B02B0BDE8704001F052BC002DCCBF2A
:105730009FED8F0B9FED900BBDEC068B02B070BD03
:105740008F48A04215DD8F48A042D8BF4FF0FF34EC
:1057500058DD9DED060B51EC100BFFF7B5FF04284B
:1057600008BF01F069FC9DED060BBDEC068B02B095
:1057700070BD9DED060B51EC100B01F073FECDE9F1
:10578000060181489FED828BA0423CDD8248A04209
:105790001FDD00249FED82AB9DED060B53EC1A2B11
:1057A00051EC100B05F056FA9DED060B41EC190B70
:1057B00053EC1A2B51EC100B05F0F6FC53EC182BA4
:1057C00005F0FEFE53EC192B05F000FBCDE90601B8
:1057D00049E09DED060B012453EC182B51EC100B06
:1057E00005F038FA9DED060B41EC190B53EC182B24
:1057F00051EC100B05F0E4FE53EC192B05F0E6FA22
:10580000CDE906012FE06848A0421FDD02249FED8C
:10581000689B9DED060B53EC192B51EC100B05F01A
:10582000C3FC53EC182B05F015FA9DED060B41EC6B
:10583000180B53EC192B51EC100B05F0C1FE53EC77
:10584000182B05F0C3FACDE906010CE09DED060B1F
:10585000032453EC102B9FED580B51EC100B05F06B
:10586000B5FACDE906019DED060B53EC102B51EC7A
:10587000100B05F099FC41EC180B53EC182B05F0BC
:1058800093FC41EC190B4E480621B0EE490AF0EEAC
:10589000690A784401F060F953EC182B51EC100BB5
:1058A00005F082FC41EC180B4648B0EE490AF0EED8
:1058B000690A0521784401F04FF953EC192B51EC9A
:1058C000100B05F071FC41EC100B51EC180B53EC74
:1058D000102B002C0EDA05F0BDF99DED061B53ECE4
:1058E000112B05F061FC9DED061B53EC112B05F00F
:1058F0008FFD35E005F0AEF99DED061B53EC112B45
:1059000005F052FC41EC100B2F48784400EBC4002A
:1059100090ED001B51EC100B53EC112B05F050FED9
:105920009DED061B53EC112B05F04AFE41EC100BCC
:105930002648784400EBC40090ED001B51EC100B9E
:1059400053EC112B05F064FD41EC100B002DA2BFB0
:10595000BDEC068B02B070BD51EC100B05F03CF9AC
:1059600041EC100B01E70000000010440000F07F44
:10597000182D4454FB21F93F182D4454FB21F9BF45
:105980000000DC3F0000203E0000F33F000000006C
:10599000000000000000F03F0000E63F00000000B3
:1059A00000000000000000400080034000000000F4
:1059B000000000000000F83F000000000000F0BF01
:1059C000727B0000287B0000B27A00006A7A000037
:1059D0002DE9F04D2DED040B2DED0E8B96B0DDE98C
:1059E0002550279CDDF890A025F0004624F00048C3
:1059F000BAF1000F14BF0121002101EB4502FC495F
:105A000053184A1093422AD3002814BF01230023BD
:105A100003EB44030B44F7498B4220D358EA0001BF
:105A20009FEDF59B76D0DFF8D8B35D4503D1BAF191
:105A3000000F05D188E0BAF1000F08BF002100D0A7
:105A4000012101EB450111F5001F08D8002814BF02
:105A50000121002101EB440111F5001F0BD99DED3F
:105A6000261B9DED240B16B0BDEC0E8B04B0BDE8DB
:105A7000F04D01F0B7BA0027002DBCBFE1498845C1
:105A800021DAE1498845A8BF02271CDAC3451ADCA0
:105A9000DE4901EB2851142908DDC1F1340220FA56
:105AA00002F101FA02F282420DD108E058B9C1F1C7
:105AB000140228FA02F101FA02F2424503D101F080
:105AC0000101C1F1020756EA0A0124D1002C22DAB1
:105AD000002D18BF022F01D0012F0AD00220FAF7A3
