:020000040000FA
:1000000070582020D5000000D9000000DB0000005F
:1000100000000000000000000000000000000000E0
:10002000000000000000000000000000DD000000F3
:100030000000000000000000DF000000C95A0000BE
:10004000E3000000952E0000815B00008D5D000044
:100050008910000095100000E3000000E30000009C
:1000600000000000E3000000E300000000000000CA
:1000700000000000555D0000715D0000395D00006A
:10008000115B0000495B0000D95A0000F55A0000DE
:10009000655B00002D5B0000000000000000000018
:1000A000E3000000E300000000000000000000008A
:1000B000E300000000000000E3000000251C000039
:1000C0000348854600F00CFE004800472D8E0000D6
:1000D0007058202003480047FEE7FEE7FEE7FEE7F2
:1000E000FEE7FEE7C1000000F8B500242546002920
:1000F00004DA0E46012400214042B141002B04DA0B
:100100001E46002352420125B34100F071FC8C468B
:1001100017461E46AC4203D0002540428D41AC46F6
:10012000002C02D0002657429E4161463A46334693
:1001300001B0F0BD30B5434351435C18010C130CC2
:100140000D465D432C1980B292B20546554351438A
:100150000A0C09044D1962415843010C000440196E
:10016000514130BDD2B201E00270401C491EFBD2A9
:1001700070470022F6E710B513460A4604461946B2
:10018000FFF7F0FF204610BD421C0178401C0029FB
:10019000FBD1801A704710B5002200E0521C835C2E
:1001A0008C5CA34201D1002BF8D1D8B2E1B2401A45
:1001B00010BD30B505460020034600E05B1C9342AD
:1001C00005D2EC5CC85C201A01D1002CF6D130BD00
:1001D0000FB400B58DB009900B9010A900200091CC
:1001E000C0430A9000200C900648069006480790ED
:1001F0006A4609A80F9900F075FC0DB008BC04B060
:1002000018470000050B0000250B0000FFB5002774
:10021000FF4383B000205C6801909E681D46A96979
:100220007F1C049888470090296A88470028F6D1E7
:100230000098401C0CD0032040028443002E19DD9E
:10024000600614D500982B2809D02D280FD103E083
:100250000020C04307B0F0BD012080020443A9691B
:100260007F1C04988847761E0090002E02DD0098BF
:10027000302803D00598002825D035E00120400221
:100280000443A969761E7F1C049888470090002EBD
:1002900003DD782805D0582803D00598002810D011
:1002A00022E00598002801D010281DD1012040022D
:1002B0008443A969761E7F1C04988847009010200B
:1002C00002E0082000E00A2005900DE0012149022B
:1002D0000C43059A0199761E514308180190A969AB
:1002E0007F1C049888470090002E05DD0599009832
:1002F00000F0E2FB0028E9DAE96904988847A005E4
:1003000002D40120C043A5E7E00722D1600611D541
:100310006005019800D5404229680A1D2A600968D5
:10032000220501D5087014E0220701D5088010E0ED
:1003300008600EE02868011D29600068210502D5CB
:100340000199017005E02107019901D5018000E0C4
:10035000016038467EE7F8B502464A40D40F4200B5
:100360004B0052085B089A4202D2024608461146E8
:100370004A0023D0C30D4A00DDB2120EAD1A202D63
:1003800035DA49020126490AF6058A19002C00D0FF
:10039000524220214F1B1146B9402A411018C20D6C
:1003A0009A4221D0002C17D0012D08DCDA05801AE2
:1003B000D20F8019D207DBB200F0CEFBF8BDDA0510
:1003C000801A012340001B06C01880185A4280186A
:1003D000CA0F1043490007E04908C2071143DA0574
:1003E000801A80194008801800F0AEFBF8BD61004B
:1003F0000122511A001BF7E70122D2075140AAE758
:100400000122D2075040A6E7024670B54A40D30FFA
:10041000DB0740002DD04A002AD0010E140E000246
:1004200012020919400A520A8418E501044654438D
:10043000000A120A2E045043A4194219200CC54385
:10044000AA18120C0125AD03521C521912047F394F
:10045000240400D0521C104301D44000491EC2B2F3
:100460000C06C0092018401C4008802A02D003E076
:10047000002070BD40084000002900DA0020184329
:1004800070BD70B502464A40D50F40004A00ED07E6
:1004900040085208002814D0002A12D0C40DD30DF1
:1004A00041020120C0055202490A520AE41A091801
:1004B00012187D34914201D3641C00E04900002CE5
:1004C00001DA002070BD0023914201D3891A034351
:1004D000400849000028F7D100290AD0914202D1F2
:1004E0000121C90705E0914201D2012101E001216A
:1004F000C943E005C018401900F026FB70BD00009C
:10050000F0B507460846584087B0C00F0490480031
:100510000E46590040084908BC1A884105D23846A1
:1005200031461E4617460B46024658004008104307
:100530004CD0300D039040055900400D490D0590F9
:10054000401A0290402872DA18030121000B0905B5
:100550000843019004980092002805D00199524266
:100560000020884100920190029840210A1A0199C6
:10057000009800F06DFA05460C466B4607CB00F07C
:1005800088FAC0197141039A0E0D0023D7175640FF
:100590001A467A40164344D0049A002A2DD0029A73
:1005A000012A039A15DC1205C01A9141012636056D
:1005B000001C7141D20F059ED20700930192029652
:1005C0002A46234600F03AFB07B0F0BD38463146D4
:1005D000FAE71605224A0F46B218C01AB7410121A0
:1005E0000905001C4F4100187F4111461818794138
:1005F000E20F10436D19644113E0E2076D081543E3
:100600006408C2071443039A01261205C01A9141D7
:100610003605001C7141CE07400830434908C01818
:1006200051412A46234600F0FCFACDE7FFE7049843
:1006300001224000C117121A00238B410498314651
:10064000C417381AA141EEE730B40124E40763402F
:1006500030BC55E730B40124E407614030BC4FE7BB
:100660000000E0FFF0B51FB488B00B990998002492
:1006700048400999C00F490049080991C0070B99E2
:100680000090490049080B9109990898A64608432B
:100690001CD00B990A98084318D0099801244000EF
:1006A000420D4800410D099824050003000B20432A
:1006B00009900B980003000B20430B9050181C4925
:1006C0004018002201901446104605E00020014623
:1006D0000DB0F0BD032801DA034600E003239C4679
:1006E000C11A0AAE0AE05F0008ADED5B4F00F75B90
:1006F0007D430027AA187C41491C5B1E6145F2DD41
:10070000410004AB5A522104120C0A43240C401C31
:100710000828DFDB01980290009970460191009053
:10072000059B049A0799069800F088FAD0E7000024
:100730000DFCFFFFF0B50C465C4085B0E40FE4070C
:1007400003944C0000266408590094464908024668
:100750000296224321D062460A431ED06200570D02
:100760004A000E032303550D012402462C4924059B
:10077000781B1B0B360B4018234326436146009021
:100780001C46501AB44103D30098401C009002E06C
:10079000921800985B41002803DA0020014605B05A
:1007A000F0BD0020012109050746864611E0644698
:1007B0001D46141BB54106D36546521BB341744612
:1007C00007430C43A646CD07400849082843921822
:1007D0005B4105460D43EAD11046184313D06046ED
:1007E000194650407140084306D06046101AB34184
:1007F00006D20122002306E000220123DB0702E0EB
:100800000122D2435310009874460105381C6141FF
:10081000029C039D0019694100F003FABFE7000044
:10082000FD0300000122D207002800DB101A002976
:1008300000DB511A814201D8012070470020704727
:100840000122D207002800DB101A002900DB511A10
:10085000814201D201207047002070470122D20757
:10086000002800DB101A002900DB511A814201D355
:1008700001207047002070470122D207002800DBCA
:10088000101A002900DB511A814201D9012070475A
:10089000002070470122D207002800DB101A00292F
:1008A00000DB511A814201D10120704700207047BE
:1008B000C217C10F504010B54018CA079623002137
:1008C00000F04AF910BD10B500229623114600F041
:1008D00043F910BD0EB505490291002100910A4669
:1008E0000B46019100F0AAF903B000BD33040000EB
:1008F000C20F410040020123400ADB05D207090E66
:10090000C0187F2901DA00207047962903DC96235E
:10091000591AC84001E096398840002AF4D0404274
:10092000704700004A0009030123090B1B05194306
:10093000094B10B5520D9A4201DA002010BD064B4A
:1009400034339A4203DC9A1A00F092F810BD03493E
:100950005118884010BD0000FF030000CDFBFFFFD1
:1009600070B50446002903D000202022012310E0A6
:10097000002801D00020C043C046C0460DE02546F7
:10098000D5408D4205D30D469540641B1D469540CC
:1009900040191546521E002DF1DC214670BD0000A5
:1009A00070B5002504462E46002911D0002C01DA2E
:1009B00001254442002901DA012649422046FFF779
:1009C000CFFFB54200D04042002D00D0494270BD5B
:1009D000002C02DA0121C90702E0002C00DD0349E6
:1009E0000846C046C046214670BD0000FFFFFF7F9D
:1009F000F0B51FB40646002082B0054640240191A0
:100A000000901BE0019922460F46304600F030F876
:100A1000049A059B801A994110D310461946224624
:100A200000F016F8361A8F41019722460120002166
:100A3000009F00F00DF838184D4100902046641ECC
:100A40000028DFDC019B00982946324607B0F0BD44
:100A500010B5202A04DB0146203A9140002010BD49
:100A6000914020239C1A0346E3401943904010BD57
:100A700010B5202A04DB0846203AD040002110BDE2
:100A80000B46D340D0402024A21A91400843194677
:100A900010BD10B5202A06DBCB170846203A1041BE
:100AA000C1170B4306E00B461341D0402024A21A85
:100AB00091400843194610BD3A2800D2303820230F
:100AC00002469A43412A01D310463738884201D35F
:100AD0000020C0437047000002681378511801607D
:100AE0001846704710B5D16004495161044911623C
:100AF00000211161114600F00DF910BDD90A000066
:100B0000050D00004268002A08D001680B78491CD6
:100B1000002B03D0521E06C0184670470121C16049
:100B2000881E70474268002A0BD0C3680168002BFA
:100B300007D183688B4204D0491E521C06C0002096
:100B400070470020C0437047002904DA401C490068
:100B500001D140084000704770B40024050C05D155
:100B60001024000402D1002921D01124050E01D146
:100B700000020834050F01D10001241D850F01D1A9
:100B80008000A41C002801DB4000641C002908D060
:100B900020252E1B0D46F540A14000D00121294300
:100BA000084301061B1B000ADB1D02D5002070BC98
:100BB0007047DB05181880180029F8DA401C490036
:100BC000F5D170BC40084000704770B5002801DCCA
:100BD000002070BD410040020126400AF605090EC2
:100BE0008019CA0701D14000491E4D10002211464C
:100BF0003F353346CB409B18D418844201D8001BA4
:100C00001A464000491C1729F3DD5100814202D2E7
:100C10000021C94300E00021E8058018FFF794FF98
:100C200070BD10B5002B08DA0024401C61419218F9
:100C30005B411A4301D14008400010BDF0B51FB41C
:100C400082B005460C0003D0084608F017F902E010
:100C500008F014F920300246009021462846FFF79C
:100C6000F7FE049B059A04460F46184311430843B8
:100C700014D0184610431BD0009840210A1A184679
:100C80000599FFF7F5FE05460E46009A059904986A
:100C9000FFF7DEFE084305D0012004E02046394678
:100CA00007B0F0BD0020C11705430E432C43374366
:100CB00000990E986305401A7905E40A00220C4356
:100CC000FD0A0A3002D500200146E9E701051019A6
:100CD00069410C9C0D9D00196941FFF7A2FFDFE7F8
:100CE000064C0125064E05E0E36807CC2B430C3C7F
:100CF00098471034B442F7D3FFF7E6F99C9F000001
:100D0000BC9F000010B50F21C0B2490200F0AAF943
:100D100010BD0000F3B58DB000200A9001200B90AB
:100D2000002608460C300C4609906269012109989A
:100D30009047051E2ED0252D2DD0216A88470028EA
:100D400018D06269012109989047216A88470028D4
:100D5000F7D1411E62690998904700E0761CA169AD
:100D60000D988847216A88470028F7D1E1690D98D6
:100D70008847DAE7A1690D9888470746A84201D15C
:100D8000761CD2E7E1690D9888477F1C02D10A984A
:100D9000002877D049E1002762693D463946099825
:100DA00090472A280CD162690121099890470125B2
:100DB00006E00A214F433F18303FEBD41020054393
:100DC0006269012109989047014630390A2903D206
:100DD0009B498F42DEDCECE7E90600D4994F6C2892
:100DE0000AD04C2810D0682824D06A282ED0742825
:100DF0000CD07A280AD00DE0626901210998904749
:100E00006C2823D004211CE02020054362690121C5
:100E100009989047A760656065284FD026DC582860
:100E200039D01ADC452849D012DC252834D0412895
:100E3000B0D143E06269012109989047682802D047
:100E400008210D43E6E70120C002DEE70220DCE7CF
:100E5000462833D047282CD130E05B2870D0612859
:100E60002CD063286CD0642823D161E06F284FD048
:100E700009DC662822D0672820D0692826D06E2871
:100E800017D12EE0CDE070284DD073286FD0752893
:100E90004ED078280DD154E0A1690D9888470546B9
:100EA000252800D16CE7E1690D9888476D1C00D1B9
:100EB0006DE7BAE00A224CE00A2252E00120234604
:100EC0006A46C0430D99C046C046A3E0284640216B
:100ED00008436060A807234601D5002239E00022BC
:100EE0003FE0E80700D020E72068011D216000688E
:100EF000290501D5067018E7290701D5068014E7F2
:100F0000A90703D5F117066041600EE706600CE7FC
:100F10002846402108436060A807234601D50822DF
:100F200017E008221DE0484928460840606016E0A6
:100F30002846402108436060A8072346BCD5B9E78E
:100F400015E02846402108436060A80707D52346DE
:100F500010220120C0430D99C046C0465AE02346E6
:100F600010220120C0430D99FFF750F952E00021F3
:100F70000C910B460091632802D05B2807D043E018
:100F8000E80601D40120A060012000903CE06269E5
:100F90000121099890475E2805D101200C90014657
:100FA0006269099890472169002906D10B4601AA78
:100FB0008F00491CD3510829FADB002835D021695C
:100FC00000290ED1C117C90E09184A11930001AAB0
:100FD0009A1849094901411A0120136888400343BE
:100FE000136062690121099890475D28E5D10C984A
:100FF000002808D0002001AB81005A58401CD24381
:101000005A500828F8DB01AB01202246C0430D9955
:10101000C046C04600280ADA401C06D10B980028BA
:1010200003D00020C0430FB0F0BD0A98FBE7E907EA
:1010300002D10A99491C0A91361800200B9074E6D7
:10104000CCCCCC0CFFFFFF7FF1F7FFFF420005D0B7
:101050004200120E52428A4201DB00207047C9054D
:10106000081870477F2801D9002207E0054B420885
:101070009A5CC00700D112091207120F012090409C
:10108000084070474C950000014800687047C04612
:1010900020100040014800687047C04620300040E2
:1010A000F0B583B002920E46054606F049FB01906A
:1010B0007527974CE05D022802D0974805F01EF88E
:1010C0000220E05500206060A0604B20C0008542F7
:1010D00000DB05464A48854200DC05462560494953
:1010E0003046FFF79FFB002829D1474F454D30463A
:1010F0003946FFF730F906462946FFF793FB0028EB
:101100001DD130463946FFF726F906462946FFF736
:1011100089FB002813D130463946FFF71CF90646F3
:101120002946FFF77FFB002809D130463946FFF7F3
:1011300012F906462946FFF79FFB0028D7D133490D
:101140003046FFF78BFB002829D1314F2F4D304619
:101150003946FFF700F906462946FFF77FFB0028CE
:101160001DD130463946FFF7F6F806462946FFF707
:1011700075FB002813D130463946FFF7ECF80646D8
:101180002946FFF76BFB002809D130463946FFF7A7
:10119000E2F806462946FFF753FB0028D7D16B2714
:1011A0000125E555266706F0CBFA6921615C002927
:1011B00003D0427F002A05D003256A22A25C002AC0
:1011C00005D10FE001256A22A25C002A0AD0E25D67
:1011D000002A07D00029029C05D0407F002802D0B9
:1011E0002D1D00E0029C4C48294605F033F8002CE8
:1011F00004D001984169484804F0AAFF03B0F0BD4B
:10120000A8FDFFFF000034430000B4C3000034C356
:101210000000B443F0B585B0044606F04FF806462A
:1012200006F08EFA054675223949885C032806D0F7
:10123000174604F0F5FB06F023FD3A463449687F73
:101240000027002861D0692501234B554220305CDE
:1012500000285AD04B208000844200DB04460493CF
:10126000322C00DC322403940292885C032806D0DE
:1012700028484168304606F00DFD002845D006F0AC
:10128000EFFC01906B270021214E0C46F15506F032
:1012900057FA715D002906D0427F002A01D003224F
:1012A00000E0012204926A22B25C002A0AD0F25DB8
:1012B000002A07D00029049905D0407F002802D0D9
:1012C000091D00E00499144804F0C4FF03201049EC
:1012D000029A88540398086025468C6001984069FA
:1012E0000E49FFF791F804462946FFF7B7FA0028A0
:1012F00001D1BF2000E03F2001062046FFF72BF878
:10130000FFF7F6FA024948600127384605B0F0BDFC
:1013100054022020300020206807202000002041B7
:10132000F0B503460020002B15D0002A13D0704CD6
:101330006579002D0FD125786F1C03263E40677814
:10134000BE4208D0267006206843201841850385D8
:10135000283002710120F0BD10B50446002808D0E5
:101360006348002181800160022002F0ADF8012174
:1013700004E05F484079012807D10021601E8441C4
:101380005B484471022002F09FF810BD80B55848B8
:10139000002181800160022002F096F880BDC046E5
:1013A0005348403041784A1E9141427B531E9A4136
:1013B00052005118407E421E9041800040187047F4
:1013C0002120F949085C421E90414000497E4A1E96
:1013D000914140187047C046F0B587B0074603906A
:1013E00000240694022001900490012040040590FE
:1013F000ED4D2E46403624213046FEF7BAFE2846F3
:10140000183000908460AC61EC616C62AC62EC629C
:101410002C636C63AC63EC63AC60EF60AC71AC806C
:101420002C601F2704A90291384602F011F83846B3
:1014300002F03AF84142414140202954039868643F
:10144000A86471701E273846029902F001F83846E8
:1014500002F02AF803992965696541424141717397
:10146000317320273846029901F0F2FF384602F026
:101470001BF80399E965296641424141717631764D
:1014800016263046029F394601F0E2FF304602F050
:101490000BF80399E96141424141697629761826A2
:1014A0003046394601F0D4FF304601F0FDFF039984
:1014B00069623C7041424141009841720172059459
:1014C000019D2846394601F0C3FF2846214601F018
:1014D000FBFF07B0F0BDC046B349886800228A60B0
:1014E0007047C046B049887900228A717047C0466B
:1014F00058012020F0B583B004461F2001F0D4FF2E
:10150000414241414022A84EB35CFF273D46F4359D
:1015100002958B4205D14123F25C8A4207D10A46EB
:1015200019E0B154746430464030427813E0756C71
:10153000651B1E2D0FD3F154002800D108E1717AEC
:101540000120014371724221715C002914D1B17AEA
:101550000143B17210E0002A0ED04220305C002816
:101560000AD1B06C201A0299884205D94220012183
:101570003154F07A0843F0721E2001F095FF414289
:1015800041414C22B25C8A4205D14D23F25C8A4231
:1015900007D10A4619E03465304640300173427B7A
:1015A00013E0356D651B1E2D0FD3F154002800D1BB
:1015B000D7E0717A0220014371724E21715C0029DB
:1015C00015D1B17A0143B17211E0002A0FD04E203B
:1015D000305C00280BD1706D201A0299884206D920
:1015E0004E2001213154F07A02210143F17220256D
:1015F000284601F059FF414241415822B25C8A42DB
:1016000005D15923F25C8A4207D10A461DE0F465F0
:10161000304640300176427E17E001972746F46D50
:101620003C1B1E2C3C46019F0FD3F154002800D1D7
:10163000A0E0717A0420014371725A21715C002983
:1016400015D1B17A0143B17211E0002A0FD05A20AE
:10165000305C00280BD1306E201A0299884206D9DE
:101660005A2001213154F07A04210143F1721620ED
:1016700001F01AFF41424141307E88420CD1707E18
:1016800088420BD0F069201A1E2807D37176B079F2
:1016900001210143B17101E0F4613176182001F0BC
:1016A00003FF41424141705D88420DD12120325CEF
:1016B0008A420BD0726AA21A1E2A07D33154B0791B
:1016C00002210143B17101E0715574627079002803
:1016D00067D1B078002814D0F068201A61D4F0786F
:1016E00001282ED102200025294601F0EDFEF079D7
:1016F000002848D0401EF071000644D0F570708A72
:101700004DE07078317881424BD03179002904D096
:10171000F168611A45D400213171062141437118E5
:101720008A8DB28202377780401C03220240727099
:10173000488D7082088D3082307DF0710220012149
:1017400002E00121F170022001F0BEFE308A26E0A5
:10175000422000213154B464307A012101433172B6
:10176000FFE64E20002131547465307A0221014396
:10177000317230E75A20002131543466307A042126
:101780000143317267E7758070783178091A481E15
:101790008141708A421E034693410B403371001908
:1017A000F06003B0F0BDC04658012020B0B504463B
:1017B00004F036F9FFF7EAFD002C02D005F022FD17
:1017C00001E005F02DFD044605F078FD054603F027
:1017D00093FE502001220146FFF7A2FD002C05D008
:1017E000502003220146FFF79BFDB0BD403528780D
:1017F000002805D06878002802D002A007F0BEF9C2
:10180000B0BDC0464552522C475241595F4E4F52CF
:101810004D414C495A4154494F4E5F52414E474504
:101820000D0A000080B504F0FBF8FFF7AFFD05F0EE
:101830009BFE002806D0502064210222FFF770FD95
:10184000012080BDFA2078210322FFF769FD0020E6
:1018500080BD0000F0B58DB00E4605464348856555
:10186000C16502668120800001ACE085AF204000A8
:10187000C830A08515480B9015480A901548099066
:10188000154808901548079015480690154805908A
:10189000154804901046FFF70BF8144F3946FEF731
:1018A000F0FD03903046FFF703F83946FEF7E9FDF7
:1018B00002902846FEF7FCFF3946FEF7E2FD019054
:1018C000204606F087F90DB0F0BDC046B0045E01B9
:1018D000C800960000000C423333B33E0000B4420F
:1018E000000070420000FA450000A04200007A4467
:1018F000F0B587B0009315460E4607461748069088
:101900000590174804901046FEF7D2FF154C21466B
:10191000FEF77AFD03903046FEF7CAFF2146FEF738
:1019200073FD02903846FEF7C3FF2146FEF76CFDBB
:1019300001900D4C012101AA204604F08DFB0B49BA
:101940004F638E63CD6300980864FEF7B1FF0549CD
:10195000FEF75AFD206107B0F0BDC04600001644F6
:10196000000096436F12833A68072020540220201B
:10197000B0B50A78032313400B4A84580B4D254019
:10198000EB18A92424061B198350072212064B6862
:1019900013401124240205599543EA1802510019F5
:1019A00049780161B0BDC04608080000FCFFFF0097
:1019B000811E091F00BFFCD270470000B0B53F2355
:1019C0001B04044C25689D43084310431840281805
:1019D0002060B0BD38010B40F0B585B00122140283
:1019E000344B19680494A1431960950362490E6849
:1019F0002E4208D10E682E4205D10E682E4202D129
:101A00000E682E42F3D0457E15409E6996437519A7
:101A10009D612025455D03263540DF69B7437D196B
:101A2000DD61254D2E6805272F60476A3C681C62E2
:101A30007C685C62072434402C60C4697F252D02D9
:101A4000DE69AE436406640C3419DC6150C8056875
:101A50000095476885680195C568029503929A6963
:101A6000164D15402207120B3403A4B2A2183A43B4
:101A7000009C2407240D1443019A1443029A144332
:101A8000007C20430E4A0240501998611868049A5D
:101A900010431860039840020A68024208D10A689D
:101AA000024205D10A68024202D10A680242F3D01A
:101AB00005B0F0BD08010B40001340408D00F0FF61
:101AC00072FF0F00F0B5184B1D46083D2E6801242B
:101AD000A6432E600326360330401F68B7433818EC
:101AE00018601868FF26B043C9B24018186028680B
:101AF000204328601868002A11D021070843186085
:101B000020021D490A68024208D10A68024205D132
:101B10000A68024202D10A680242F3D0F0BD2107EE
:101B200088431860F0BDC04610010B4010B5114944
:101B3000886001225305104804681C4208D10468DB
:101B40001C4205D104681C4202D104681C42F3D037
:101B500012040B6813430B600168C90608D40168BE
:101B6000C90605D40168C90602D40168C906F3D5BF
:101B700010BDC04604010B4004020B4010B5072302
:101B80009B04194092008018134A84589C436118A2
:101B9000815010BD10B5054B0B4091004018044911
:101BA0004258044C1440E218425010BDDBB6C1FF4D
:101BB0007018000024493E0010B51143054A0A4040
:101BC0009900401804494358044C1C40A218425044
:101BD00010BDC04677770200301800008888FDFFEE
:101BE00010B511438F2211409B00C0183123DB0137
:101BF000C45894436118C15010BD000010B5029C38
:101C0000A400001911431943014A815010BDC04678
:101C10005018000092008018014A81507047C04659
:101C20001018000070470000F0B599B0B348016883
:101C30000122914317460492016004210160B049DA
:101C40004160002484600168022529430160016825
:101C500005220A430260EFF3108072B6A94E346089
:101C600062B6A9487821FEF784FA30462C304C2120
:101C7000FEF77FFA7460B46006F0E2FE7068FFF76A
:101C8000ABFBFFF79DFB3946814374209E4E3154D8
:101C900006F070FA05F0D2F906F038FB05F010FBFB
:101CA00005F0E2FF04F078F904F08AF90C940B9443
:101CB0000A9409940894079406940594934F38461F
:101CC00004F0F2F992499620706492487960B86005
:101CD000F96009A905AA384604F0F7FA8E4812906F
:101CE000119010940F948D480E908D480D900DAA70
:101CF0003846294604F0B0F9192040017D256F01CE
:101D00003146F76102973062064603904C62824882
:101D10001290119010940F9480480E9080480D906E
:101D200003210DAA7948009104F096F9764887625C
:101D3000C66204637648129011907A4810900F940E
:101D4000049988070E907F20C00501900D900DAA80
:101D50006E4F384604F080F9EE003046CD30290150
:101D6000694A56639163D46310646F4939616F495E
:101D70001291119110946E490F910E948125E905ED
:101D80000D910DAA3846214604F066F969484121B3
:101D900009063F221206BA62F96238636648019961
:101DA0007961B8615020584A506516654B218B0007
:101DB000D364029890641046AA0005460DA8C28517
:101DC0001A46FA32828501931A4632324285090157
:101DD00001855A492966EC655949A9655949169101
:101DE00059491591594914915949139159491291D9
:101DF000594911914D49109158490F910E945849E4
:101E00000D9105F0E7FE03989638686605F098FC9A
:101E10006927E95D002906D0427F002A01D0009A97
:101E200000E0012204926B236A220392AA5C002A3A
:101E300002930AD0EA5C002A07D0002905D0407F2F
:101E40000028049902D0091D00E004992F4804F0ED
:101E500001FA03F0E5FD05F077FC05F071FC06469C
:101E6000407F03996854E8557069286705F068FC5D
:101E7000EA5D002A08D0417F002905D00321039B99
:101E8000EB5C002B05D10EE00121039BEB5C002BEA
:101E900009D0029BEB5C002B05D0002A03D0407FC9
:101EA000002800D0091D194804F0D4F9707F0028DB
:101EB00009D005F059FB002805D0502064210222EA
:101EC000FFF72EFA04E0962103220198FFF728FA83
:101ED0000C494C628C62086848608860C860086180
:101EE00048618861CC610C621EA006F047FE2A485A
:101EF00006F044FE03F0A6FC19B0F0BD10E000E0CF
:101F00007F38010030002020540220206807202064
:101F100000001644000016430000C842210C9C3B00
:101F2000290FC33C00009643713D9A3F0000A04238
:101F30009A99993E0000A0408FC2F53C30570500A9
:101F4000400D0300C800960000000C423333B33E3E
:101F50000000B442000070420000FA450000AF43A8
:101F600000004843424F4F542C4D53504D3047339F
:101F70003530375F4449414E5341495F54455354CE
:101F80002C5632342C574845454C5445432C393651
:101F900030300D0A00000000F89D0000F0B5FFB0E1
:101FA000CAB006F04DFEE74806F09EFDE64A91688D
:101FB0001068411A0A2901D200F049FF559150607A
:101FC0009060FFF797FAFFF787FA0446000A5890E7
:101FD0002043210C57910843C6B2250E2E43FFF72C
:101FE00081FA012156913146014300D1C2E0C10777
:101FF00004D1002815D003F025FC12E0FFF7E0F92A
:102000000127874303F00CFDFFF7C0F905F038FE08
:1020100005F05EF97420CD490F5403F013FC03F072
:102020006BFA002E00D1A5E0C7484668FFF7B8F963
:102030005799C9B2589AD2B2E3B200930192029171
:102040000395049059AF6021C14A3846334606F0E3
:10205000F9FE384606F092FD032634406C22BB4957
:10206000885C6F23CF5C00280DD0002C0BD0274359
:10207000CF5403F0D5FCFFF789F9B6A006F07EFD3A
:1020800003F0E0FB76E0002874D15493539205F0FE
:1020900015F9002C14D04221405C002810D0752086
:1020A000AA4B185C002802D003F0BAFCA74B6D21A4
:1020B000012058546E215A5C22435A54FFF74CF9C0
:1020C0006D24A24B185D002828D0589806406E2138
:1020D000585C06420E46569909D00020985518556E
:1020E000FFF73AF9994B195D481E8141985DFF222F
:1020F0005740002914D02840384011D0002098556E
:1021000018551C46FFF728F9C820FFF783F8002868
:1021100024D001205399605493A0AFE7FF2047409B
:102120003D4209D003F07CFCFFF730F9FA2078211A
:102130000322FFF7F5F81DE0549A985C58998843FC
:10214000985457993940C80706D188070FD44807D3
:1021500010D5FFF767FB0DE0012009E0FFF716F946
:10216000FA2078210322FFF7DBF884A086E700201D
:10217000FFF71CFB559804F09FFF05F0F7FF04469E
:1021800004F05AFF22780021002A02D16278002A46
:1021900025D06D4F786805F09DFBF9687868411A85
:1021A00014293AD3F86005F09BF87520674D285C38
:1021B000032832D105F082F8796805F06BFD00281C
:1021C00015D005F04DFD40697349FEF71DF9044631
:1021D0000021FEF743FB002817D1BF2016E002695B
:1021E000002A594FD6D1406941424141D2E76C2083
:1021F0002C5C03F049FA03F013FC68A006F0BEFC67
:10220000002C0AD003F01EFB07E03F200106204609
:10221000FEF7A1F8FEF76CFB686039697868411A2F
:10222000642902D3386103F0CBFE6C20474E305C4A
:10223000411E884175215891715C0029569900D042
:10224000014603205390C0015790002923D178699B
:102250007968081A5799743188421CD906F054F8E5
:102260002521405C002800D1ACE10424204606F082
:102270004BF906F049F8054624202F5CA869464929
:10228000FEF7C2F806460021FEF7E8FA002800D063
:102290006AE1BF2069E104F0CFFE044605F050FA80
:1022A000064606F031F82525405D002800D18BE078
:1022B000A3693846E76906CC40687469B669009737
:1022C0000194029606F03AF906F030F9064606F057
:1022D00027F9044606F018F8415D002908D0816905
:1022E00000693246FEF7DCFE002C174F05D16BE08B
:1022F00003F096FB002C144F66D006F005F8044658
:102300002420255CA0692449FEF77EF806460021BA
:10231000FEF7A4FA002801D1BF2000E03F2001060B
:102320003046FEF718F8FEF7E3FA7B6822462432BF
:1023300051781279A668E46803960494042D35D385
:10234000042434E0E549000030002020540220201D
:102350005F9E000041434B2C4C4F43414C5F4C4926
:102360004E452C300D0A000041434B2C4C4F43414D
:102370004C5F4C494E452C310D0A00004552522C01
:102380004C4F43414C5F4C494E455F4E4F545F525A
:10239000454144590D0A0000000020414552522C8D
:1023A0004C494E455F4C4F53540D0A006C1CE4B22F
:1023B00000AD16C5059059AC7021654A204606F05F
:1023C00041FD204606F0DAFB5598FEF77CFA61499C
:1023D000FEF757F8064604F02FFE044605F0B0F964
:1023E00003465D485899455C281F0122D143884225
:1023F00000D2AAE05492002062906190A0695F90A0
:102400005594E0696090544F386F599038685296EF
:102410001E46FEF74DFA04465B90B868FEF748FA90
:102420005C907868FEF744FA4C49FEF72AF85A9017
:102430007069B1695E915D90032D529E1BD1274654
:1024400005F00EFC242159AA549B53542E21455CBF
:102450004148406EFEF72CFA032D3E4C214600D039
:1024600001465498C20738469043FDF7CDFF2146F8
:10247000FEF707F861903A4C23462C33394859A9A6
:10248000324603F03FFF676D002638463146FEF7BF
:10249000E5F93F2154910D06BF2152910A0600280B
:1024A000294600D1114651923846FDF754FFFEF7F8
:1024B0001FFA07462848C7602948846D20463146E0
:1024C000FEF7CCF9002800D1519D20462946FDF7A2
:1024D00042FFFEF70DFA204A1061559B1969791ADF
:1024E00051615969401A90611D4F5898385C002815
:1024F0002BD0FE6E002530462946FEF7AFF939464F
:1025000007460C6F20462946FEF7A8F955905498C7
:10251000050652980006002F294600D101460746BD
:102520003046FDF718FFFEF7E3F9064655980028F8
:1025300000D13D4620462946FDF70DFFFEF7D8F9AC
:102540000146304605F08AFE054F034E3CE0C0468A
:10255000D99D000000007A44540220200000204150
:1025600030002020680720203F2001063046FDF77C
:10257000F2FEFEF7BDF906494B682A46243251782F
:102580001279AE68ED6803960495042F03D201E03A
:10259000300020207C1C084F084EE4B200AD16C568
:1025A000059059AC7021064A204606F04BFC2046A7
:1025B00006F0E4FA06E0C046300020205402202055
:1025C000D99D000003F02CFA6824315D7D20C00005
:1025D000002908D0B9697A68511A0246C832914276
:1025E00001D9002131555899715CFE250A462A40CF
:1025F000022A00D008E2032901D0579854383A6AD9
:1026000079688A1A824200D2FCE151955494396269
:1026100005F0ACFD4C9004F00FFD4F9005F090F8E4
:102620005290F86DEA49FDF7EFFE3C46074600265A
:102630003146FEF713F93F212E910D06BF212D9152
:10264000090655910028294600D155993846FDF7CD
:1026500082FEFEF74DF95090606EDD49FDF7D4FE25
:1026600007463146FEF7FAF80028294600D1559969
:102670003846FDF770FEFEF73BF94E90206ED449C8
:10268000FDF7C2FE07463146FEF7E8F80028294666
:1026900000D155993846FDF75EFEFEF729F94D90B9
:1026A000A06ECB49FDF7B0FE07463146FEF7D6F8DF
:1026B0000028294600D155993846FDF74CFEFEF713
:1026C00017F94B90206CC24C2146FDF79DFE074642
:1026D0003146FEF7C3F80028294600D155993846FF
:1026E000FDF739FEFEF704F94A90529880692146B9
:1026F000FDF78AFE07463146FEF7B0F80028294666
:1027000000D155993846FDF726FEFEF7F1F84990BD
:10271000B048406C2146FDF777FE07463146FEF78C
:102720009DF80028294600D155993846FDF713FE3B
:10273000FEF7DEF84890A848006F2146FDF764FEDA
:1027400007463146FEF78AF80028294600D15599F8
:102750003846FDF700FEFEF7CBF847909D48006B2A
:102760002146FDF751FE07463146FEF777F800286F
:10277000294600D155993846FDF7EDFDFEF7B8F82A
:1027800046909448406B2146FDF73EFE0746314691
:10279000FEF764F80028294600D155993846FDF720
:1027A000DAFDFEF7A5F845908A48806B2146FDF7D3
:1027B0002BFE07463146FEF751F80028294600D186
:1027C00055993846FDF7C7FDFEF792F84490814FC2
:1027D000F86B2146FDF718FE04463146FEF73EF839
:1027E0000028294600D155992046FDF7B4FDFEF793
:1027F0007FF842904C9988574390012008564C909E
:10280000BC6C20463146FEF729F80028294600D145
:1028100055992046FDF79FFDFEF76AF84190FC6C44
:1028200020463146FEF71AF80028294600D155996E
:102830002046FDF790FDFEF75BF840903C463F6D6B
:1028400038463146FEF70AF8002800D1559D384633
:102850002946FDF780FDFEF74BF8359069205E4E66
:10286000305C389010205299085E34906A20305CB9
:1028700036906B20305C339060685590F0683F90E4
:102880003069529070693E90B0693790F0693C9021
:10289000306A3B90706A3A90B06A39904F980169FB
:1028A0003D9140694F90F36A326B706B3290B06B20
:1028B0003190F06B3090306C2F90776CB56CF06C81
:1028C000316D746D2890299111921093359817905D
:1028D00040981690419815904598209034982190F2
:1028E00044982290429823903698249033982590CB
:1028F0002694279538981890199732981A903198FD
:102900001B9030981C902F981D9047981E904698C9
:102910001F90489814904A981290379808904D98B4
:1029200009904B980A904C980B903C980C903B98CF
:102930000D903A980E9039980F903F9800903D98DE
:1029400001903E980290509803904E9804904398BE
:102950000590529806904F98079049981390579970
:10296000403159AC1D4A2046559B06F06BFA204673
:1029700006F004F905F0C8FC2821405C0028154F3A
:10298000549C519D3ED005F0BFFC04462420265C9B
:10299000A0690F49FDF738FD05460021FDF75EFFF0
:1029A000002801D12D9800E02E9801062846FDF759
:1029B000D2FCFDF79DFF7B682246243251781279C4
:1029C000A568E46803950494042E09D3042408E060
:1029D0000000204130002020540220202A9D0000C9
:1029E000741C374E519DE4B20091019202940590FF
:1029F00059AC7021334A204606F024FA204606F0EE
:102A0000BDF8549C5898315C03290CD1796A7868D8
:102A1000411A579A0F329142539904D9786202F0C1
:102A200033FE5898315C2940274B022902D0579930
:102A3000743100E0591CFA697868821A8A4200D21F
:102A4000D8E15494F86105F091FB054604F0F4FADE
:102A5000539004F075FE044604F030FC559003F0EA
:102A600099FA5190F0684F90306950905294A06953
:102A70003F90FC4804F0E2FB4E905898305C011FF8
:102A800028784D9043B20120C24391424B9308D223
:102A900006210A465A434F92285641435091C0B2EC
:102AA00000E068784A906B216A25692058901022CE
:102AB000F86B519C237A002B08D0636807E0C0466E
:102AC00054022020D99D00009F0F0000002339935D
:102AD000549B715C43914C95715D42915899715C26
:102AE000449152998A5E4892F25C4792BC6B326F75
:102AF0003C923A6C3A927A6C3B92BA6C3E92497F25
:102B00004191396D549153990A69469249694591A9
:102B100079684991D149FDF777FC0646002151912A
:102B2000FDF79CFE3F210D06BF210F060028294618
:102B300000D139463046FDF70EFCFDF7D9FE409036
:102B40002046C649FDF760FC04465199FDF786FE14
:102B5000002829463E4600D131462046FDF7FBFBC2
:102B6000FDF7C6FE3D903C98BC49FDF74DFC044680
:102B7000519F3946FDF772FE0028294600D13146A3
:102B80002046FDF7E8FBFDF7B3FE3C903B98B349C8
:102B9000FDF73AFC04463946FDF760FE0028294659
:102BA00000D131462046FDF7D6FBFDF7A1FE3B9054
:102BB0003A98AA49FDF728FC04463946FDF74EFE2F
:102BC0000028294600D131462046FDF7C4FBFDF719
:102BD0008FFE3A903F98A149FDF716FC044639460E
:102BE000FDF73CFE0028294600D131462046FDF77E
:102BF000B2FBFDF77DFE3F903E9C20463946FDF737
:102C00002DFE0028294600D131462046FDF7A3FBC2
:102C1000FDF76EFE044654983946FDF71FFE002866
:102C200000D13546559E403654982946FDF793FB12
:102C3000FDF75EFE429913914399149139991591CC
:102C400044990D9141990E91A8214B9B4B434A9F6A
:102C50007AB24A4347990191489902914699039162
:102C6000459904914F9905915099069107930892BF
:102C7000791E8F414D990029764D00D1569756996E
:102C800000910F943C9910913D99119140991291A6
:102C90003A9909913F990A913B990B910C9059AC43
:102CA0005694714A20465799499B06F0CBF8204626
:102CB00005F064FF0C205299085E54900E20085EC7
:102CC0005290654F5898385C49904C98385C4490C5
:102CD0006868589053980168519140685390F8691A
:102CE0005090386A4F90786A4D90B86A4C90F86A64
:102CF0004B90386B4A90786B3D90B86B3C90307835
:102D00004890707847905598018846914188459140
:102D100081884391C18842910189419141894091C3
:102D200081893F91C0895590F86B3B90386C3A90FF
:102D3000786C3E90BB6CF96C3A6D786DBC6D3994D3
:102D4000FD6D3E6E7F6E449C289429902A932B91B2
:102D50002C923D9820903C9821903B9822903A9854
:102D6000239039982490259526962797394F439C90
:102D70001894429D1995419E1A9640991B913F9A2D
:102D80001C92559B1D9349981E903E981F90109140
:102D9000119212934E981390489914914799159156
:102DA000469A1692459B17934B9908914A99099117
:102DB0000A900B920C930D940E950F9654980090D8
:102DC0005298019051980290539803905098049013
:102DD0004F9805904D9806904C980790234A569C22
:102DE00020465799589B06F02DF8204605F0C6FE60
:102DF00078681B4BB96A411A994226D9B86204F027
:102E00009FFC0021415E58910222815E579104236C
:102E1000C45E0623C55E0823C65E0A23C75E037F21
:102E2000817FC07F589A0092579A0192029403952D
:102E3000049605970691079059AC60210CA2204694
:102E400006F000F8204605F099FE05F0F9FE7FB087
:102E50004AB0F0BD30002020540220200000204164
:102E60009F0F000026020000C49E0000639C00002B
:102E70004442472C25752C25642C25642C25642C74
:102E800025642C25642C25642C25752C25750D0AAC
:102E90000000000080B500F009FA80BDF0B589B0EF
:102EA000089315460F46079070491046FDF7E4FC5D
:102EB00004466F492846FDF7C3FC0023002806D1CD
:102EC000002C07D1397C0F9C002908D113E0D8438E
:102ED000002CF7D00120397C0F9C00290BD0C2B206
:102EE0008A4208D03B823B607B60BB60FB60029300
:102EF0000393069305E079680691B9680291F96831
:102F000003910597387400212046FDF7B5FC07466C
:102F100056492046FDF7B5FA0546002F01D17F201E
:102F2000C505544C28462146FDF7A6FC002800D1D3
:102F30002C463F20050620462946FDF79DFC00282B
:102F400000D12C46079D69682046FDF75DFA089F71
:102F50003946FDF759FA04903846069E3146FDF78A
:102F60004BFA01462868FDF74FFA0499FDF7F3F98B
:102F70000490A8682146FDF784FA0446304631469D
:102F8000FDF7E9F901463846FDF736FA0299FDF7F3
:102F9000E2F901462046FDF737FA0499FDF7DBF91F
:102FA00001460398FDF7D7F904462E6932480640DA
:102FB00020463146FDF760FC0028304600D120460F
:102FC00001900E9F01200490C00703903518204601
:102FD0002946FDF735FC0028029500D1019D2846C1
:102FE00001973946FDF7B7F9044607984769224823
:102FF000074020463946FDF73FFC0028384600D1FF
:103000002046079003983F1820463946FDF718FCE4
:10301000002800D1079F1098079038462146FDF7F9
:1030200039FC002812D138460199FDF7E5F904462C
:103030003146FDF721FC002800D126462046029D9E
:103040002946FDF7FDFB002800D135460598049977
:1030500041740899416006998160C560079800280D
:1030600000D00560384609B0F0BDC0460AD7233C01
:103070000AD723BC0000A040FFFFFF7F80003D492E
:103080000858112109024258012313434350704745
:1030900070B5C107490F374A525811210B02D15858
:1030A0000124A143D150D1188D681F263604B543A1
:1030B0008D602325ED0140085051D0582043D05059
:1030C0004B68200203434B600B4BD3180B4C121977
:1030D0001C68044208D11C68044205D11C680442E3
:1030E00002D11C680442F3D0126898614B68834394
:1030F0004B6090B270BDC046301000008062550039
:10310000F0B581B00C46C1002288144B5A528000A1
:10311000184A155811200602A8590127B843A8518A
:103120005918606848602846FEF722FCA819816893
:103130000622D34319408160A17A114082681A4067
:1031400051188160A9593A040A43AA512189416161
:10315000A8593843A85101B0F0BDC0464402202010
:103160008000044908580449425801231B021343B4
:10317000435070478C9500000411000070B50301A6
:103180000C4A9B184C68CD680E69360126432E43C5
:103190004C89240134430D892543F0241D510B78BB
:1031A00049781943BF231940800084589C43611813
:1031B000815070BD10B142400001014A81507047FA
:1031C00008B242400001014A8150704704B24240B7
:1031D0000001014A815070470CB2424011A21256C0
:1031E00001280DD8D2B21F201040012383400F4880
:1031F0000360042915D00E4810180323984305E0F6
:1032000004290ED00C201040074BC0189207D20E94
:103210008901C9B29140FF23934002689A430A434F
:10322000026070470101000014ED00E000E100E0E1
:1032300000E400E010B5164B0B438100154C0B5118
:103240000B590B51910014A251584000A94B1A5C24
:103250001818407843009200A74C0F2803D8A258B2
:10326000104C141904E0A2589D2464011419203B49
:10327000994023680B432360012181400A481318B9
:103280001C6A0C431C6213580B43135010BDC046FC
:1032900081000C0004804240010000000200000098
:1032A000030000009013000028100000F0B581B06A
:1032B000664800780090002839D0002504260AE0EE
:1032C000606838186060614800780090361D6D1C99
:1032D000009885422BD25D498C5921784900854858
:1032E0004218527801273B469340415C890082484E
:1032F0004158104809581940E160E7D0607800F063
:10330000D3F80090217849007A48421852783B4619
:103310009340415C8900784A515807480A581A433B
:103320000A5000980028CBD00020C743C8E701B05E
:10333000F0BDC0463810000048100000F0B587B05E
:103340000C4606460878012779043A46FFF772FFD3
:10335000207840006749085C411E884100252946C5
:10336000FFF73CFF380506903804059002270497C4
:10337000607804A900F06CF801A9222008811048A7
:10338000088064207043401E0290284601F01CF81B
:1033900004222846394601F0A7F8284601F0CCF867
:1033A000284601F0D3F9294801784A1C02708900A7
:1033B000401844600349284601F0C2F907B0F0BD47
:1033C00007630000C9330000F0B520490A78002ADD
:1033D0003AD003201040531E032B01D200231EE0DD
:1033E000FC231A400C46103400252B4626460C3E82
:1033F000366877687560B7602646083E3668776835
:103400007560B760261F366877687560B760266894
:1034100077687560B76010341B1D9A42E6D10028AA
:1034200012D09A0089184B685C6800225A609C6030
:10343000012809D08B685C685A609C60022803D020
:10344000C868416842608160F0BDC046BC01202070
:103450004B688A681A430978022903D0012907D1E9
:10346000104906E00D490A4380000D49425070475B
:1034700081210A4381000A4BCA5040001D490A5C61
:1034800092001D4B9A5808184078012181409520E0
:1034900040011150101801637047C04681000400BC
:1034A0000480424081000402400012490A5C9200FC
:1034B000114B9A582723DB01D25808184078C24094
:1034C000012010407047C04610B54000094A135C07
:1034D0009B00094CE358002902D00849591802E022
:1034E00095214901591810184078012282400A603C
:1034F00010BDC046949500002800202090120000C6
:10350000F0B599B0019200220260179016924260C5
:10351000FE200840022801D0D44D00E0D44D0727FA
:10352000394601984143119103210E91414307917E
:1035300005210F9141430A910621109141431391B6
:103540004100099181000C91C0001490012012905B
:1035500000041890FF20C0431590169C05E0083722
:1035600015983818072800D1ABE00198169946182D
:1035700028463146FDF7F4F9AE420BD81899884237
:1035800008D2A04206D9F91F179A506051701299BB
:103590001170044609981699461828463146FDF7D9
:1035A000DFF9AE420BD81899884208D2A04206D95A
:1035B000B91F179A506051701299117004460798FC
:1035C0001699461828463146FDF7CAF9AE420BD87F
:1035D0001899884208D2A04206D9791F179A5060DC
:1035E00051701299117004460C9816994618284685
:1035F0003146FDF7B5F9AE420BD81899884208D28A
:10360000A04206D9391F179A506051701299117053
:1036100004460A981699461828463146FDF7A0F93F
:10362000AE420BD81899884208D2A04206D9F91E9A
:10363000179A506051701299117004461398169998
:10364000461828463146FDF78BF9AE420BD818993B
:10365000884208D2A04206D9B91E179A506051700C
:10366000129911700446169811990E182846314681
:10367000FDF776F9AE420BD81899884208D2A042DD
:1036800006D9791E179A506051701299117004462C
:103690001498169E861928463146FDF761F916964C
:1036A000AE4200D95BE71899884200D357E7A042A1
:1036B00000D854E7179948604F70129A0A70044670
:1036C0004DE70E21019841430B910A214143089196
:1036D0000C214143119100010D900027072605E0C0
:1036E000083615983018072800D1ACE016960998CE
:1036F000C61928463146FDF733F9AE420CD8189961
:10370000884209D2A04207D91699C91F179A50605A
:1037100051700221117004460C98C6192846314692
:10372000FDF71EF9AE420CD81899884209D2A04282
:1037300007D91699891F179A50605170022111708C
:1037400004461398C61928463146FDF709F9AE42DA
:103750000CD81899884209D2A04207D91699491F56
:10376000179A506051700221117004461498C619BE
:1037700028463146FDF7F4F8AE420CD81899884235
:1037800009D2A04207D91699091F179A50605170A3
:103790000221117004460898C61928463146FDF7E3
:1037A000DFF8AE420CD81899884209D2A04207D956
:1037B0001699C91E179A5060517002211170044663
:1037C0001198C61928463146FDF7CAF8AE420CD802
:1037D0001899884209D2A04207D91699891E179ACA
:1037E000506051700221117004460B98C61928468A
:1037F0003146FDF7B5F8AE420DD8189988420AD285
:10380000A042169E08D9711E179A5060517002216D
:103810001170044600E0169E0D98C71928463946D7
:10382000FDF79EF8AF4200D95AE71899884200D3B5
:1038300056E7A04200D853E7179A5060567002210D
:10384000117004464CE71521019841430991092163
:10385000414305910F2141430491182141431291A5
:103860001221414306910027072609E000B4C40451
:10387000005A6202083615983018072800D1ACE0CB
:1038800016960798C61928463146FDF769F8AE42E4
:103890000CD81899884209D2A04207D91699C91F95
:1038A000179A506051700E99117004461398C619FA
:1038B00028463146FDF754F8AE420CD81899884294
:1038C00009D2A04207D91699891F179A50605170E2
:1038D0000E99117004460598C61928463146FDF721
:1038E0003FF8AE420CD81899884209D2A04207D9B5
:1038F0001699491F179A506051700E99117004461D
:103900001198C61928463146FDF72AF8AE420CD860
:103910001899884209D2A04207D91699091F179A07
:10392000506051700E99117004460498C6192846CB
:103930003146FDF715F8AE420CD81899884209D2E5
:10394000A04207D91699C91E179A506051700E9956
:10395000117004460698C61928463146FDF700F84E
:10396000AE420CD81899884209D2A04207D91699BC
:10397000891E179A506051700E991170044609986B
:10398000C61928463146FCF7EBFFAE420DD8189910
:1039900088420AD2A042169E08D9711E179A50601A
:1039A00051700E991170044600E0169E1298C719C6
:1039B00028463946FCF7D4FFAF4200D95AE7189998
:1039C000884200D356E7A04200D853E717994860D1
:1039D0004E700E9A0A7004464CE71C210198414330
:1039E000079114214143039140010E9000270726BF
:1039F00005E0083615983018072800D1ACE0169677
:103A00000C98C61928463146FCF7AAFFAE420CD8DE
:103A10001899884209D2A04207D91699C91F179A46
:103A2000506051700421117004461498C61928463C
:103A30003146FCF795FFAE420CD81899884209D25E
:103A4000A04207D91699891F179A50605170042116
:103A5000117004461198C61928463146FCF780FFBC
:103A6000AE420CD81899884209D2A04207D91699BB
:103A7000491F179A506051700421117004460D9827
:103A8000C61928463146FCF76BFFAE420CD8189990
:103A9000884209D2A04207D91699091F179A506087
:103AA00051700421117004460398C6192846314606
:103AB000FCF756FFAE420CD81899884209D2A042B2
:103AC00007D91699C91E179A5060517004211170B8
:103AD00004461298C61928463146FCF741FFAE420B
:103AE0000CD81899884209D2A04207D91699891E84
:103AF000179A506051700421117004460798C61936
:103B000028463146FCF72CFFAE420DD81899884262
:103B10000AD2A042169E08D9711E179A50605170A1
:103B200004211170044600E0169E0E98C71928461D
:103B30003946FCF715FFAF4200D95AE71899884279
:103B400000D356E7A04200D853E7179A506056704A
:103B50000421117004464CE723210198414305914B
:103B6000192141430091282141430C911E214143D9
:103B700002910027072605E0083615983018072817
:103B800000D1ACE016960A98C61928463146FCF7D3
:103B9000E7FEAE420CD81899884209D2A04207D954
:103BA0001699C91F179A506051700F9911700446E9
:103BB0000898C61928463146FCF7D2FEAE420CD80A
:103BC0001899884209D2A04207D91699891F179AD5
:103BD000506051700F99117004460498C619284618
:103BE0003146FCF7BDFEAE420CD81899884209D286
:103BF000A04207D91699491F179A506051700F9922
:103C0000117004460398C61928463146FCF7A8FEF1
:103C1000AE420CD81899884209D2A04207D9169909
:103C2000091F179A506051700F991170044600983F
:103C3000C61928463146FCF793FEAE420CD81899B7
:103C4000884209D2A04207D91699C91E179A506016
:103C500051700F99117004460298C61928463146D2
:103C6000FCF77EFEAE420CD81899884209D2A042D9
:103C700007D91699891E179A506051700F991170C3
:103C800004460598C61928463146FCF769FEAE423F
:103C90000DD8189988420AD2A042169E08D9711EE2
:103CA000179A506051700F991170044600E0169EEB
:103CB0000C98C71928463946FCF752FEAF4200D986
:103CC0005AE71899884200D356E7A04200D853E734
:103CD000179948604E700F9A0A7004464CE72A21E3
:103CE000019841430A91302141430F9124214143DE
:103CF00008910027072605E0083615983018072890
:103D000000D1ACE016961398C61928463146FCF748
:103D100027FEAE420CD81899884209D2A04207D992
:103D20001699C91F179A5060517010991170044666
:103D30001198C61928463146FCF712FEAE420CD83F
:103D40001899884209D2A04207D91699891F179A53
:103D5000506051701099117004460698C619284693
:103D60003146FCF7FDFDAE420CD81899884209D2C5
:103D7000A04207D91699491F179A5060517010999F
:103D8000117004461298C61928463146FCF7E8FD22
:103D9000AE420CD81899884209D2A04207D9169988
:103DA000091F179A506051701099117004460298BB
:103DB000C61928463146FCF7D3FDAE420CD81899F7
:103DC000884209D2A04207D91699C91E179A506095
:103DD00051701099117004460898C619284631464A
:103DE000FCF7BEFDAE420CD81899884209D2A04219
:103DF00007D91699891E179A506051701099117041
:103E000004460A98C61928463146FCF7A9FDAE4279
:103E10000DD8189988420AD2A042169E08D9711E60
:103E2000179A5060517010991170044600E0169E68
:103E30000F98C71928463946FCF792FDAF4200D9C2
:103E40005AE71899884200D356E7A04200D853E7B2
:103E5000179948604E70109A0A7004464CE7312159
:103E60000198414311910726314641431091382171
:103E700041431391002705E00836159830180728AC
:103E800000D1ACE016961098C61928463146FCF7CA
:103E900067FDAE420CD81899884209D2A04207D9D2
:103EA0001699C91F179A5060517007211170044666
:103EB0000B98C61928463146FCF752FDAE420CD885
:103EC0001899884209D2A04207D91699891F179AD2
:103ED000506051700721117004460998C619284690
:103EE0003146FCF73DFDAE420CD81899884209D204
:103EF000A04207D91699491F179A5060517007219F
:103F0000117004460798C61928463146FCF728FD6B
:103F1000AE420CD81899884209D2A04207D9169906
:103F2000091F179A506051700721117004460598B7
:103F3000C61928463146FCF713FDAE420CD8189935
:103F4000884209D2A04207D91699C91E179A506013
:103F500051700721117004460A98C6192846314647
:103F6000FCF7FEFCAE420CD81899884209D2A04258
:103F700007D91699891E179A506051700721117040
:103F800004461198C61928463146FCF7E9FCAE42B2
:103F90000DD8189988420AD2A042169E08D9711EDF
:103FA000179A5060517007211170044600E0169E68
:103FB0001398C71928463946FCF7D2FCAF4200D9FE
:103FC0005AE71899884200D356E7A04200D853E731
:103FD000179A506056700721117004464CE70198FB
:103FE000800111900026072705E00837159838183A
:103FF000072800D1ACE0169714988719284639464F
:10400000FCF7AEFCAF420CD81899884209D2A04206
:1040100007D91699C91F179A50605170082111705D
:1040200004460D98871928463946FCF799FCAF429B
:104030000CD81899884209D2A04207D91699891F2D
:10404000179A506051700821117004461298871910
:1040500028463946FCF784FCAF420CD818998842B0
:1040600009D2A04207D91699491F179A506051707A
:104070000821117004460E98871928463946FCF726
:104080006FFCAF420CD81899884209D2A04207D9D8
:104090001699091F179A5060517008211170044633
:1040A0000C98871928463946FCF75AFCAF420CD8C1
:1040B0001899884209D2A04207D91699C91E179AA1
:1040C000506051700821117004460F9887192846D6
:1040D0003946FCF745FCAF420CD81899884209D202
:1040E000A04207D91699891E179A5060517008216D
:1040F000117004461398871928463946FCF730FC9E
:10410000AF420DD8189988420AD2A042169F08D90A
:10411000791E179A5060517008211170044600E012
:10412000169F1198861928463146FCF719FCAE42B5
:1041300000D95AE71899884200D356E7A04200D820
:1041400053E7179A506057700821117004464CE7E6
:1041500019B0F0BDF0B58DB079487A4A42607A481E
:1041600042607A4842607A4842607A4842607A48BF
:1041700042607A4842607A4842607A4842607A48AF
:1041800042607A4842607A4E72607A4D6A607A4C38
:1041900062607A4B5A607A494A607A4842607A4A49
:1041A000674F3A60684F3A60684F3A60684F3A60CC
:1041B000684F3A60684F3A60684F3A60684F3A60BB
:1041C000684F3A60684F3A60684F3A6032602A60E0
:1041D00022601A600A60026010200390FDF7E8FB7D
:1041E0006A48042101604F2141600021816002681A
:1041F000052304931A4302606548016041606548E5
:10420000243801600F210802634F3A1F136883436B
:10421000012466029819029210600320C0433B46B5
:10422000083B1A6802401A603868A0433860386852
:104230005A4A104038602003009001912246FDF751
:1042400041FC5748FDF7C8FB20050790069464061B
:10425000564D1F200006396B8143396304980204D0
:1042600000200799FDF7AAFB4A484F490160422701
:104270002868204204D14B48FDF79AFB7F1EF7D1F6
:104280004548806C05900698420400200799FDF788
:1042900095FB40484449016042272868204204D1E8
:1042A0004048FDF785FB7F1EF7D13E481730059942
:1042B0004843394FB96CFCF753FB3D4940180F2870
:1042C00015D33868354908403860069800023968C7
:1042D0000143396028683042BBD128683042B8D1E8
:1042E00028683042B5D128683042F3D0B1E7029B4C
:1042F0001868039A1043202188431860019800032E
:10430000396B814309200003081838631868009945
:1043100008431860786B10437863386BB043386398
:1043200000242046FDF702FC22A008A90A4628C85E
:1043300028C268C868C2204600F052FA0DB0F0BD2D
:1043400000080A40030000B100280A40008810401D
:104350000008104000281040000850400008864027
:1043600000288640004808400088864000A8864013
:1043700000080940000887400088464000A84640E1
:1043800000080040002800400100002610E000E086
:10439000288042402C030B4008010B40FFFEFFFF2A
:1043A00020990000D10300000100000E04020B4020
:1043B00043F6FFFF0405000000C2010000001800E2
:1043C0000000003000000000F0B583B08000E44A37
:1043D0001558012318032C180822A2600A782A50C5
:1043E00027482A18487802925060DE482F184868FB
:1043F00078600191087A222823D8C0467844007951
:1044000040008744191E191E1E1E1E1E1E1E1E1E43
:104410001E1E1E1E111E111E1E1E1E1E1E1E1E1ED6
:104420001E1E1E1E111E1100032000073968814345
:1044300058070818386004E00320000739688143F2
:10444000396000262846314632461C46FDF7E2FB1D
:104450006104284632463346FDF7AEFB3868A94969
:1044600001403960019A107A3F210840527A024394
:1044700038688843104338600298046003B0F0BD88
:104480000811000070B582B08100A64A5018437828
:1044900080241C43515C8A000F4BD45049000F4AC2
:1044A000535C9B000E4CE358511849780D4A9950C3
:1044B00084780094C0788000A9490D5800262846C9
:1044C000314632463346FDF799FB284631462246AF
:1044D000FDF754FB02B070BD04804240949500008B
:1044E00028002020D0120000B0B583009C4CE35877
:1044F0000E4C1D590D431D511449085C1F210140EC
:1045000001238B400A490B60042A0ED08107C90E93
:10451000FF238B40074C00190324A04304689C43ED
:104520009201D2B28A4022430260B0BD281000003E
:1045300080E200E000E400E00449085C1F21014043
:1045400001208840024908607047C046EC9700008F
:1045500000E100E0F0B585B08200814B9F58012258
:1045600003921303FC180822A2600A78FA50112261
:104570001202BA184B780192D3607A4A029000284E
:1045800004910AD0BD18087A20285BD000280CD1ED
:104590004868401E686088240CE0087A202814D0FF
:1045A0000521CC01002813D013E04868400868605A
:1045B0000520C401002238462146FDF7EBFA01220E
:1045C00038462146FDF7E6FA52E04C4C002800D16F
:1045D00088240226384621463246FDF7DBFA0325B9
:1045E000384621462A46FDF7D5FA002438462146AA
:1045F00022463346FDF7E0FA3846214622462B464E
:10460000FDF7DAFA00963846214622462346FDF7A2
:10461000F5FA00953846214622462346FDF7EEFA84
:104620003846214622463346FDF7DAFA3846214617
:1046300022462B46FDF7D4FA04994A4ABD18087A57
:104640002028A3D14868401E68602C4C00223846C0
:104650002146FDF79FFA38462146039C2246FDF786
:1046600099FA032000072968814360070818286029
:1046700000243846214622462346FDF79DFA384657
:1046800021462246039E3346FDF796FA00943846AB
:10469000214622462346FDF7B1FA009638462146C8
:1046A00022462346FDF7AAFA3846214622462346EB
:1046B000FDF796FA3846214622463346FDF790FA32
:1046C00028680F490140049B187ABD220240587A9D
:1046D0001043084302210143296028680949014029
:1046E000296001998E600298002803D00320086099
:1046F00005B0F0BD0F20086005B0F0BD010400005A
:104700004000FFCF7F00FFFF8000064A1018C278EC
:104710009200134B9A58807880001018024A8150FA
:104720007047C0460C9600001018000080000C492D
:1047300008580C4942580123134343507047C04660
:104740008000014A1150704718022020800004495F
:104750000858044942580123134343507047C04648
:10476000F49700000418000010B586B0642005908E
:10477000002404941048039003A92046FEF7C0FCCF
:104780002046FEF77BFC2046FEF7EAFC01200105EF
:1047900002910004019000943A206C462146FEF7F5
:1047A00057FE36202146FEF753FE35202146FEF700
:1047B0004FFE06B010BDC046010500008000514903
:1047C00008580121C902014A815070478810000031
:1047D00080004C4908588921490140187047C0465B
:1047E000F0B585B001900A78D200434DAB185B68F4
:1047F00080241C43AA589200404BD4504A78D200DF
:10480000AC1864683E4E2643AA589200D6508300E6
:104810003C4AD758012420033A1808239360002506
:104820003D5011200602B8590494E2430292104010
:10483000B851887A0A89024388891043324A024073
:10484000B859324B03409818B851887BCA7B024351
:10485000087C10437E221040BC19636893431818EB
:104860006060B8590322D20390430396B851486858
:10487000FCF730F8264B2E462A46FBF7F3FE02469D
:104880000B460198032801D0234900E02149304616
:104890000096FBF74FFF05460E46FCF743F881B242
:1048A00022691E4B1340C9182161FCF713F8024618
:1048B0000B4628463146FBF7C7FE194B009D2A469A
:1048C000FBF7D0FE174B2A46FBF71AFEFCF72AF837
:1048D0003F21084062698A43801860616068049AD9
:1048E00010406168029B194008186060039978586D
:1048F0001043785005B0F0BD10980000048042408D
:10490000800004001099000018670000E798FDFF80
:1049100000003040D0129341D01283410000FFFFCD
:10492000000050400000E03FF0B583B02C4F79709C
:1049300038700025019500950124210502916E46ED
:104940003146FEF785FD0220307020040190787812
:104950003146FEF77DFD062630462946FEF7B4FDBA
:104960008F2001F01DF9FF2001F01AF905463046AD
:104970002146FEF7A9FD6B246B2D2DD0022004F0FB
:104980000DFA062500212846FEF79EFD8F2001F036
:1049900007F9FF2001F004F9064601212846FEF739
:1049A00093FD6B2E18D0022004F0F8F906250021A3
:1049B0002846FEF789FD8F2001F0F2F8FF2001F074
:1049C000EFF8064601212846FEF77EFD6B2E03D048
:1049D000022004F0E3F93446204603B0F0BDC0469F
:1049E00024002020F0B5B9B0044602F0A9FE6823E7
:1049F000F64D0126EE54F6494A688A616C216A5CDC
:104A00006D21695C11430AD0F2492046FBF7C3FBD4
:104A1000002800D1F0E000F015FF39B0F0BD079399
:104A2000089003F071FC2527C05D002812D0F8A182
:104A300007222046FBF7BDFB00280BD0F649204695
:104A4000FBF7A9FB002805D0F0492046FBF7A3FBA4
:104A5000002818D1F1A109AA2046FBF7B9FB0128CB
:104A600022D102F0E9FA04460998022800D1BDE0FB
:104A7000012800D1C2E0002800D0DFE000F0D0FF24
:104A8000E94804F07BF803F03FFC04462420265C50
:104A9000A069E649FBF7B8FC05460021FBF7DEFEFE
:104AA00000287ED1BF207DE0E1A11CAA1BAB2046DF
:104AB000FBF78EFB022811D11C9864226428089F02
:104AC00026DB10466321CB43984225DD1C901B99C1
:104AD000642926DB1146994225DD25E0D7A11AAAD3
:104AE00019AB2046FBF774FB0228089F00D0AAE010
:104AF0006B2400272F5502F023FE69216A5C002AEF
:104B000000D100E1417F002900D1FCE00321FBE05E
:104B10006321CB439842D9DC18461C901B99642929
:104B2000D8DA994200DC19461B91062242430792CB
:104B30007B7F002B11D06A220124AC546922AC5433
:104B40005A425A41434243410029304613D1184644
:104B50000028304612D0002813D06B24002028559E
:104B600002F0EEFD69216A5C002A7CD0417F0029B9
:104B700079D0032178E000283046ECD11046002897
:104B8000EBD17520285C801E411E88416B21695C39
:104B9000002900D00646002E00D0F8E070352F46E0
:104BA000F6E03F2001062846FBF7D5FBFBF7A0FE09
:104BB00095494B682246243251781279A568E468F9
:104BC00003950494042E01D3042400E0741CE4B281
:104BD00000AD16C505901DAC70219B4A204604F01F
:104BE00031F9204603F0CAFF39B0F0BD03F08CFB69
:104BF000C05D002800D0B3E039B0F0BD03F084FB05
:104C0000C05D002800D0ABE0089E707F002800D176
:104C1000D7E000F005FF6A200121295469202954BA
:104C20007948406806CC736903F076FB874803F047
:104C3000A5FF00F04BFE03F073FC91E0844803F005
:104C40009DFF39B0F0BD16A8009082A118AA17AB3D
:104C50002046FBF7BDFA032800D089E0814803F025
:104C60008DFF39B0F0BD01216A23EB5C002B08D029
:104C70002B5D002B05D0002A03D0407F002800D0F8
:104C8000091D794801F0E6FA686C1B9F089078438B
:104C900040420A242146FBF783FE064673484743F9
:104CA00064213846FBF77CFE0746079908433043EA
:104CB0005BD006967526A85D0228089903D06A483D
:104CC00001F01CFA696C0220A855079828604B2057
:104CD000C000874200DB0746644887424A4A069B79
:104CE00000DC0746AF600920C04348434C43A34261
:104CF000194600DB2146984200DC0846686050688F
:104D0000506139B0F0BD01216A23EB5C002B08D063
:104D10002B5D002B05D0002A03D0407F002800D057
:104D2000091D514801F096FA7524285D19991A9EBB
:104D3000012810D04C48089101F0E0F92F606F6015
:104D4000AF60EF602F616F61AF612F482C304C2155
:104D5000FBF70FFA089901202855304603F07EFA38
:104D600029494868486139B0F0BD00F059FE14E0A7
:104D700016A800903EA118AA17AB2046FBF728FA08
:104D800003280FD1374803F0F9FE39B0F0BD1437CE
:104D9000396807983246FCF783F91B4A506850611E
:104DA00039B0F0BD16A8009035A118AA17AB20465F
:104DB000FBF70EFA03280FD12A4803F0DFFE39B0C3
:104DC000F0BD334803F0DAFE39B0F0BD54022020C4
:104DD00030002020279F00002EA114AA2046FBF7B8
:104DE000F7F901285AD100F01BFE1498002800D1D1
:104DF0008FE0787F411E02468A4169216A5400286B
:104E000000D08CE088E0C04630002020279F0000C2
:104E10005351554152452C00539F00005351554169
:104E200052452C25640000007799000000002041C5
:104E30004452562C25642C25640000004D4F544FDD
:104E4000522C25642C256400D99D00009F990000F8
:104E5000E69900005049444C2C25642C25642C25EF
:104E6000640000004899000068072020A8FDFFFFAB
:104E7000504944522C25642C25642C2564000000E4
:104E80005049442C25642C25642C25640000000026
:104E9000759B00005941572C25640000F9A113AA05
:104EA0002046FBF795F901281BD113980A38FF21FA
:104EB0002E31323188423AD200F0B2FD139C6C643C
:104EC0002046FBF7F5FCF24988601DAD6021F14AF0
:104ED0002846234603F0B6FF284603F04FFE39B0BC
:104EE000F0BDFBA107222046FBF763F9002823D081
:104EF0000FA8019010A80090F7A112AA11AB2046AC
:104F0000FBF766F904284DD1F84803F037FE39B0B5
:104F1000F0BD6920002129546A200021295400F0A5
:104F200045FF69202B5C1DAC6021F14A56E6F14833
:104F300003F024FE39B0F0BD286C159015A801903F
:104F400016A80090EC4918AA17AB2046FBF740F9C9
:104F5000C01E01285AD81899002957D4E748814221
:104F600054DA1799002951D481424FDA1699002951
:104F70004CD481424ADA1599002947D4814245DA56
:104F800000F04EFD159B169A17991898FCF7B0FC87
:104F9000189B17981699159A00AC07C41DAC602190
:104FA000F04A1BE6F5A10EAA2046FBF711F90128ED
:104FB00031D1E121CA000E98821809018A4249D8EC
:104FC0006A21695C002945D06921695C002941D0CA
:104FD000797F00293ED07521695C891E4A1E914166
:104FE0006B22AA5C002A00D00E46FBF761FCE24966
:104FF000FBF747FA0446002E6AD000200122214622
:10500000FCF74EF8D949486848617BE0D64803F080
:10501000B5FD39B0F0BDDCA115AA2046FBF7D8F8E4
:1050200001281CD100F0FCFC00201599002906D0B5
:105030006921695C002902D0787F411E88416A2479
:1050400028557869286700F0B1FE2B5D1DAC602102
:10505000F64AC3E5F84803F091FD39B0F0BDCCA1A4
:105060002046FBF798F8002827D016A80090CA49D8
:1050700018AA17AB2046FBF7ABF8032847D1E7483F
:105080001899814257D21799002954D4814252DA93
:10509000169900294FD481424DDA00F0C1FC169ACE
:1050A00017991898FCF7D6FB189B1798169900903B
:1050B00001911DAC6021DB4A90E56A202B5C2C46F7
:1050C000483417CC00AD17C51DAC6021D64A85E524
:1050D000296F2046FBF790F903F0F4FD0121C90781
:1050E0008843D349FBF7BAFB0546401E2A46824156
:1050F00000202146FBF7D4FF9C4948684861002DF9
:1051000000D179E50E9B1DAC6021CA4A66E5A3A1DA
:105110000CAA2046FBF75CF8012811D17D20C000C5
:105120000C99814233D800F07BFC0C9B6B661DAC64
:105130006021B94A52E5BA4803F020FD39B0F0BD0C
:1051400099A12046FBF727F8002825D098490BAAFB
:105150000AAB2046FBF73CF8022827D10B98002821
:1051600000D181E0012800D085E00A98322800DAD9
:1051700081E0FF212E3188427DDAFCF74BF80028D0
:1051800000D0EDE5A04803F0F9FC39B0F0BDA1482E
:1051900003F0F4FC39B0F0BDAB6D2A465C3207CAAF
:1051A00000AC07C41DAC6021994A17E581490DAADE
:1051B0002046FBF70DF801280AD18E490D984218B8
:1051C0000A3A8A4268D28E4803F0D8FC39B0F0BD62
:1051D00079492046FAF7DFFF002869D06449204664
:1051E000FAF7D9FF002868D062492046FAF7D3FFC2
:1051F000002800D100E571492046FAF7CCFF0028CD
:1052000000D182E06E492046FAF7C5FF00287CD025
:105210006C492046FAF7BFFF002800D180E06A49B8
:105220002046FAF7B8FF002800D182E067492046FF
:10523000FAF7B1FF002800D184E065492046FAF76B
:10524000AAFF00287AD063492046FAF7A4FF002875
:1052500074D061492046FAF79EFF00287CD05F4851
:1052600003F08CFC39B0F0BD00F0DAFB674803F0C6
:1052700085FC39B0F0BD00F0D3FB624803F07EFC42
:1052800039B0F0BD594157524154452C25640000B6
:1052900068072020B29B000080B200210122FCF7A9
:1052A0003FF800282CD00D9B1DAC6021524A95E49C
:1052B000002000F0C9F939B0F0BD00F0B1FB0020CA
:1052C000079968544A4803F059FC39B0F0BDC0460C
:1052D0005941575049442C00484541445049442CB9
:1052E00025642C25642C25642C256400BC990000C1
:1052F000529E0000379A0000869F0000A1860100A0
:105300003E4803F03BFC39B0F0BD00F089FB01F0F2
:10531000BFFE02F0D7FA354803F030FC39B0F0BDDB
:10532000FCF780FA002812D02E4803F027FC39B091
:10533000F0BD0120FCF73AFA39B0F0BD00F0DCF81E
:1053400039B0F0BD0020FCF731FA39B0F0BD264885
:1053500003F014FC39B0F0BD214803F00FFC39B064
:10536000F0BDC0460B9C0000139A000030002020C6
:10537000539F0000279F0000000020414845414402
:105380005345542C25640000484541442C256400B5
:105390004845414443464700759F00004C494E45EF
:1053A000444946462C2564004C494E454346470037
:1053B0006A9F0000629F0000589F0000499F000004
:1053C0003E9F0000469F00001D9F00002C9F000094
:1053D000369F00005D9F00004E9F0000199B00005B
:1053E000609A0000329B00008C9B0000279B00000D
:1053F000409B000081ECFFFFD59B0000A09B0000BC
:1054000086990000269A0000609B00006A990000BF
:10541000249C00004B9A0000C39B000041420F00F7
:10542000FF990000F49B0000429C0000449E000095
:10543000CDCC4C3DE39B00004B9B0000F0B589B008
:10544000062008900021FEF73FF8A22000F0A8FBFC
:10545000FF25284600F0A4FB0790284600F0A0FB9B
:105460000690284600F09CFB0590284600F098FB2B
:105470000490284600F094FB0290284600F090FB30
:105480000090284600F08CFB0390284600F088FB33
:105490000190284600F084FB0746284600F080FB78
:1054A0000446284600F07CFB0646284600F078FBC0
:1054B000054601210898FEF707F8009800020299B6
:1054C00040180C49488404980002059A8018088402
:1054D00006980002079A8018C883280280198883DA
:1054E0002002C019488301980002039A801808839B
:1054F00009B0F0BDE0012020F0B5C3B001F0DEFE40
:10550000044674201A903549085C1890208A199036
:10551000608A1790A08A1690E08A1590208B1490CC
:10552000608B1390A08B1290E08B1190208C1090C8
:10553000608CA18CE28C238D658DA68DE78D089003
:1055400009910A920B930C950D960E9718980F904F
:10555000179800901698019015980290149803904F
:10556000139804901298059011980690109807903F
:105570001BADA02118911AA22846199B03F062FCCA
:10558000284603F0FBFA4220205C199013481A9930
:10559000405C1790214A50681A90228E678EA08E28
:1055A0001590E18E238F668FA08F1690E48F08945C
:1055B000179C0994199C009401920297159803AACC
:1055C0004BC21698079016A2284618991A9B03F00A
:1055D00039FC284603F0D2FA43B0F0BD5402202033
:1055E00043414C2C25752C25752C25752C25752CA7
:1055F00025752C25752C25752C25752C25752C25A8
:10560000752C25752C25752C25752C25752C257547
:105610002C25752C25750D0A000000003000202077
:105620004E524D2C256C752C25752C25752C257509
:105630002C25752C25752C25752C25752C25752C60
:1056400025752C25750D0A00B0B59EB00546BC48E1
:105650004468FBF7A5FE290E2A0CD2B22B0ADBB256
:10566000EDB20095019302920391049006AD602182
:10567000044A2846234603F0E5FB284603F07EFA59
:105680001EB0B0BD5F9E0000F0B5D1B002F0E8FAE8
:10569000054601F013FE199002F052F817902E20E3
:1056A0001D90285CFE210140A54842682B46022936
:1056B0001E9202D1986A101A00E000201C902093DC
:1056C00018689E49FAF7A0FE064600273946FBF700
:1056D000C5F83F210C06BF2109061F91002821466D
:1056E00000D11F993046FAF736FEFBF701F91B90FF
:1056F000209840689149FAF787FE06463946FBF73D
:10570000ADF80028214600D11F993046FAF723FE54
:10571000FBF7EEF81A90209840698849FAF774FE72
:1057200006463946FBF79AF80028214600D11F9912
:105730003046FAF710FEFBF7DBF8189017988069EF
:105740007E49FAF761FE06463946FBF787F80028DE
:10575000214600D11F993046FAF7FDFDFBF7C8F846
:1057600017907520D749085C169042201999085C5B
:1057700019902098066930463946FBF76FF80028E3
:10578000214600D11F992E353046FAF7E4FDFBF78C
:10579000AFF81590CF48066D30463946FBF75EF8F6
:1057A000002800D11F9C30462146FAF7D4FDFBF7B4
:1057B0009FF81490E8781F9028791390C14EF068F4
:1057C00012903769346802F04BFA1D99415C706E93
:1057D000209A126A2B786D780E920F931C9A109271
:1057E0001195032901D01E9B02E07D20C0001E9B65
:1057F0000D900C940B9712980A9014980990159894
:105800000690139803901F9802901998019016988B
:10581000C01E414241410091179808901898079086
:105820001A9805901B98049021ACC021044A204688
:1058300003F008FB204603F0A1F951B0F0BDC046CB
:10584000789E0000F0B59FB001F038FD054600F0ED
:10585000A1FB0446FBF7B4FD6C21124A515C742392
:10586000D65C4022AA5C104B5B6840356D78277A85
:10587000002F01D0646800E0002401270740800762
:10588000C00F0096019702AE27C6069407AC6021B0
:1058900006A2204603F0D6FA204603F06FF91FB0A7
:1058A000F0BDC04654022020300020204D4F442C33
:1058B000256C752C25752C25752C25752C25752C9E
:1058C00025752C25752C256C750D0A0070B5A2B0B8
:1058D00002F01AFD04462420265CA0691749FAF755
:1058E00093FD05460021FAF7B9FF002801D1BF203A
:1058F00000E03F2001062846FAF72DFDFAF7F8FFF1
:1059000074494B682246243251781279A568E468BC
:1059100003950494042E01D3042400E0741CE4B223
:1059200000AD16C5059006AC7021064A204603F06E
:1059300089FA204603F022F922B070BD0000204110
:1059400030002020D99D0000F0B585B01E4604929D
:1059500003916421642B00DB0E466322D2439642FE
:1059600000DC1646F217334653409A1A80002A4B41
:1059700018582A4BC7587A431046FAF7F1FF0446E5
:105980000025002E2AD130460A99002E2AD0002E5A
:10599000019000DD01200291097800290ED0C0B2EB
:1059A00088420BD0002503982946FEF7ADFE0498E7
:1059B0002946FEF7A9FE022003F014FA3C1B012E33
:1059C0001DDB03983946FEF79FFE04982146FEF73B
:1059D0009BFE01250298057005B0F0BDE8430A99C9
:1059E000002ED4D103980C462946FEF78DFE04986C
:1059F0002946FEF789FE2046057005B0F0BD0498E3
:105A00003946FEF781FE03982146FEF77DFE019D93
:105A10000298057005B0F0BDF4970000081800006A
:105A200070B502F071FC2521405C002802D00020F6
:105A300002F06AFD6B25F14E0024745501F080FEE2
:105A40006E2174546C217452406930672046FBF714
:105A500083FC7520345434607460B460F460346145
:105A60007461B4611B482C304C21FAF782FBE44886
:105A700000F044FB02F024FC01F062FE6921725C3C
:105A8000002A08D0417F002905D003216A23F35C56
:105A9000002B05D111E001216A23F35C002B0CD00F
:105AA000735D002B09D0002A07D0407F002804D066
:105AB000091DD34800F0CEFB70BDD14800F0CAFBF1
:105AC00070BDC0465402202002480168491C016094
:105AD0007047C0463000202080B505480068C0B23D
