:020000040000FA
:1000000070582020D5000000D9000000DB0000005F
:1000100000000000000000000000000000000000E0
:10002000000000000000000000000000DD000000F3
:100030000000000000000000DF0000001D52000072
:10004000E300000081280000D5520000E1540000C8
:10005000B1100000BD100000E3000000E30000004C
:1000600000000000E3000000E300000000000000CA
:1000700000000000A9540000C55400008D54000089
:10008000655200009D5200002D52000049520000B0
:10009000B952000081520000000000000000000082
:1000A000E3000000E300000000000000000000008A
:1000B000E300000000000000E3000000211D00003C
:1000C0000348854600F020FE00480047799500006F
:1000D0007058202003480047FEE7FEE7FEE7FEE7F2
:1000E000FEE7FEE7C1000000F8B500242546002920
:1000F00004DA0E46012400214042B141002B04DA0B
:100100001E46002352420125B34100F083FC8C4679
:1001100017461E46AC4203D0002540428D41AC46F6
:10012000002C02D0002657429E4161463A46334693
:1001300001B0F0BD30B5434351435C18010C130CC2
:100140000D465D432C1980B292B20546554351438A
:100150000A0C09044D1962415843010C000440196E
:10016000514130BD03460B439B0703D009E008C94A
:10017000121F08C0042AFAD203E00B780370401C57
:10018000491C521EF9D27047D2B201E00270401CE5
:10019000491EFBD270470022F6E710B513460A4607
:1001A00004461946FFF7F0FF204610BD421C0178B7
:1001B000401C0029FBD1801A704710B5002200E0D6
:1001C000521C835C8C5CA34201D1002BF8D1D8B2C5
:1001D000E1B2401A10BD30B505460020034600E0EC
:1001E0005B1C934205D2EC5CC85C201A01D1002C48
:1001F000F6D130BD0FB400B58DB009900B9010A9A9
:1002000000200091C0430A9000200C900648069000
:10021000064807906A4609A80F9900F075FC0DB0D2
:1002200008BC04B018470000290B0000490B00006F
:10023000FFB50027FF4383B000205C6801909E68F3
:100240001D46A9697F1C049888470090296A884741
:100250000028F6D10098401C0CD0032040028443B3
:10026000002E19DD600614D500982B2809D02D2802
:100270000FD103E00020C04307B0F0BD0120800291
:100280000443A9697F1C04988847761E0090002EBD
:1002900002DD0098302803D00598002825D035E0ED
:1002A000012040020443A969761E7F1C04988847F8
:1002B0000090002E03DD782805D0582803D005983B
:1002C000002810D022E00598002801D010281DD168
:1002D000012040028443A969761E7F1C0498884748
:1002E0000090102002E0082000E00A2005900DE0B8
:1002F000012149020C43059A0199761E51430818C1
:100300000190A9697F1C049888470090002E05DDA4
:100310000599009800F0E2FB0028E9DAE969049801
:100320008847A00502D40120C043A5E7E00722D1F9
:10033000600611D56005019800D5404229680A1D64
:100340002A600968220501D5087014E0220701D54A
:10035000088010E008600EE02868011D2960006830
:10036000210502D50199017005E02107019901D508
:10037000018000E0016038467EE7F8B502464A4059
:10038000D40F42004B0052085B089A4202D2024648
:10039000084611464A0023D0C30D4A00DDB2120EB2
:1003A000AD1A202D35DA49020126490AF6058A19C7
:1003B000002C00D0524220214F1B1146B9402A4147
:1003C0001018C20D9A4221D0002C17D0012D08DC44
:1003D000DA05801AD20F8019D207DBB200F0CEFB0B
:1003E000F8BDDA05801A012340001B06C0188018EA
:1003F0005A428018CA0F1043490007E04908C20753
:100400001143DA05801A80194008801800F0AEFB0D
:10041000F8BD61000122511A001BF7E70122D20743
:100420005140AAE70122D2075040A6E7024670B524
:100430004A40D30FDB0740002DD04A002AD0010EDE
:10044000140E000212020919400A520A8418E5012A
:1004500004465443000A120A2E045043A4194219B8
:10046000200CC543AA18120C0125AD03521C5219C9
:1004700012047F39240400D0521C104301D44000E0
:10048000491EC2B20C06C0092018401C4008802A30
:1004900002D003E0002070BD40084000002900DACF
:1004A0000020184370BD70B502464A40D50F400089
:1004B0004A00ED0740085208002814D0002A12D044
:1004C000C40DD30D41020120C0055202490A520A4F
:1004D000E41A091812187D34914201D3641C00E01B
:1004E0004900002C01DA002070BD0023914201D3A5
:1004F000891A0343400849000028F7D100290AD08F
:10050000914202D10121C90705E0914201D20121A6
:1005100001E00121C943E005C018401900F026FBA5
:1005200070BD0000F0B507460846584087B0C00FC0
:10053000049048000E46590040084908BC1A8841FA
:1005400005D2384631461E4617460B46024658002D
:10055000400810434CD0300D039040055900400D29
:10056000490D0590401A0290402872DA18030121C3
:10057000000B09050843019004980092002805D05B
:100580000199524200208841009201900298402136
:100590000A1A0199009800F06DFA05460C466B4660
:1005A00007CB00F088FAC0197141039A0E0D0023A1
:1005B000D71756401A467A40164344D0049A002A68
:1005C0002DD0029A012A039A15DC1205C01A914116
:1005D00001263605001C7141D20F059ED2070093FB
:1005E000019202962A46234600F03AFB07B0F0BD7E
:1005F00038463146FAE71605224A0F46B218C01AA5
:10060000B74101210905001C4F4100187F411146E7
:1006100018187941E20F10436D19644113E0E207A5
:100620006D0815436408C2071443039A0126120596
:10063000C01A91413605001C7141CE074008304375
:100640004908C01851412A46234600F0FCFACDE77C
:10065000FFE7049801224000C117121A00238B41C2
:1006600004983146C417381AA141EEE730B401248A
:10067000E407634030BC55E730B40124E40761402F
:1006800030BC4FE70000E0FFF0B51FB488B00B9915
:100690000998002448400999C00F49004908099168
:1006A000C0070B990090490049080B9109990898D7
:1006B000A64608431CD00B990A98084318D00998FD
:1006C00001244000420D4800410D09982405000313
:1006D000000B204309900B980003000B20430B9064
:1006E00050181C494018002201901446104605E09D
:1006F000002001460DB0F0BD032801DA034600E0FA
:1007000003239C46C11A0AAE0AE05F0008ADED5B08
:100710004F00F75B7D430027AA187C41491C5B1EF4
:100720006145F2DD410004AB5A522104120C0A4328
:10073000240C401C0828DFDB0198029000997046C9
:1007400001910090059B049A0799069800F088FA99
:10075000D0E700000DFCFFFFF0B50C465C4085B013
:10076000E40FE40703944C00002664085900944603
:10077000490802460296224321D062460A431ED00F
:100780006200570D4A000E032303550D0124024653
:100790002C492405781B1B0B360B4018234326439A
:1007A000614600901C46501AB44103D30098401C87
:1007B000009002E0921800985B41002803DA0020C4
:1007C000014605B0F0BD0020012109050746864617
:1007D00011E064461D46141BB54106D36546521B05
:1007E000B341744607430C43A646CD074008490869
:1007F000284392185B4105460D43EAD11046184341
:1008000013D06046194650407140084306D06046F8
:10081000101AB34106D20122002306E00022012370
:10082000DB0702E00122D243531000987446010511
:10083000381C6141029C039D0019694100F003FAD4
:10084000BFE70000FD0300000122D207002800DB03
:10085000101A002900DB511A814201D8012070478B
:10086000002070470122D207002800DB101A00295F
:1008700000DB511A814201D20120704700207047ED
:100880000122D207002800DB101A002900DB511AD0
:10089000814201D301207047002070470122D20716
:1008A000002800DB101A002900DB511A814201D90F
:1008B00001207047002070470122D207002800DB8A
:1008C000101A002900DB511A814201D10120704722
:1008D00000207047C217C10F504010B54018CA071A
:1008E0009623002100F04AF910BD10B5002296238E
:1008F000114600F043F910BD0EB5054902910021E3
:1009000000910A460B46019100F0AAF903B000BD20
:1009100033040000C20F410040020123400ADB05FE
:10092000D207090EC0187F2901DA002070479629E6
:1009300003DC9623591AC84001E096398840002A02
:10094000F4D04042704700004A0009030123090B1C
:100950001B051943094B10B5520D9A4201DA0020CC
:1009600010BD064B34339A4203DC9A1A00F092F819
:1009700010BD03495118884010BD0000FF0300005E
:10098000CDFBFFFF70B50446002903D000202022D4
:10099000012310E0002801D00020C043C046C0461B
:1009A0000DE02546D5408D4205D30D469540641B8C
:1009B0001D46954040191546521E002DF1DC21467A
:1009C00070BD000070B5002504462E46002911D0E8
:1009D000002C01DA01254442002901DA01264942AE
:1009E0002046FFF7CFFFB54200D04042002D00D097
:1009F000494270BD002C02DA0121C90702E0002C37
:100A000000DD03490846C046C046214670BD0000CF
:100A1000FFFFFF7FF0B51FB40646002082B00546F9
:100A20004024019100901BE0019922460F46304678
:100A300000F030F8049A059B801A994110D31046B3
:100A40001946224600F016F8361A8F4101972246C1
:100A500001200021009F00F00DF838184D41009052
:100A60002046641E0028DFDC019B009829463246A0
:100A700007B0F0BD10B5202A04DB0146203A9140B2
:100A8000002010BD914020239C1A0346E3401943E7
:100A9000904010BD10B5202A04DB0846203AD04013
:100AA000002110BD0B46D340D0402024A21A914013
:100AB0000843194610BD10B5202A06DBCB1708469F
:100AC000203A1041C1170B4306E00B461341D040BA
:100AD0002024A21A91400843194610BD3A2800D29A
:100AE0003038202302469A43412A01D31046373832
:100AF000884201D30020C043704700000268137889
:100B0000511801601846704710B5D1600449516111
:100B10000449116200211161114600F00FF910BD66
:100B2000FD0A00002D0D00004268002A08D001686F
:100B30000B78491C002B03D0521E06C01846704784
:100B40000121C160881E70474268002A0BD0C3682B
:100B50000168002B07D183688B4204D0491E521CC8
:100B600006C0002070470020C0437047002904DA07
:100B7000401C490001D140084000704770B4002477
:100B8000050C05D11024000402D1002921D0112424
:100B9000050E01D100020834050F01D10001241D0A
:100BA000850F01D18000A41C002801DB4000641CDB
:100BB000002908D020252E1B0D46F540A14000D06D
:100BC00001212943084301061B1B000ADB1D02D536
:100BD000002070BC7047DB05181880180029F8DA6F
:100BE000401C4900F5D170BC40084000704770B50A
:100BF000002801DC002070BD410040020126400AAF
:100C0000F605090E8019CA0701D14000491E4D1092
:100C1000002211463F353346CB409B18D4188442FE
:100C200001D8001B1A464000491C1729F3DD51006A
:100C3000814202D20021C94300E00021E80580186A
:100C4000FFF794FF70BD10B5002B08DA0024401C9C
:100C5000614192185B411A4301D14008400010BD28
:100C6000F0B51FB482B005460C0003D0084608F06A
:100C7000ABFC02E008F0A8FC2030024600902146C0
:100C80002846FFF7F7FE049B059A04460F461843D3
:100C90001143084314D0184610431BD0009840213C
:100CA0000A1A18460599FFF7F5FE05460E46009A02
:100CB00005990498FFF7DEFE084305D0012004E003
:100CC0002046394607B0F0BD0020C11705430E434A
:100CD0002C43374300990E986305401A7905E40ABE
:100CE00000220C43FD0A0A3002D500200146E9E744
:100CF0000105101969410C9C0D9D00196941FFF710
:100D0000A2FFDFE700000000064C0125064E05E0CB
:100D1000E36807CC2B430C3C98471034B442F7D31C
:100D2000FFF7D2F92CA600004CA6000010B50F2149
:100D3000C0B2490200F0AAF910BD0000F3B58DB0B1
:100D400000200A9001200B90002608460C300C462B
:100D500009906269012109989047051E2ED0252D22
:100D60002DD0216A8847002818D06269012109988E
:100D70009047216A88470028F7D1411E6269099887
:100D8000904700E0761CA1690D988847216A884742
:100D90000028F7D1E1690D988847DAE7A1690D9835
:100DA00088470746A84201D1761CD2E7E1690D9831
:100DB00088477F1C02D10A98002877D049E1002794
:100DC00062693D463946099890472A280CD16269E4
:100DD000012109989047012506E00A214F433F1859
:100DE000303FEBD4102005436269012109989047F8
:100DF000014630390A2903D29B498F42DEDCECE7F9
:100E0000E90600D4994F6C280AD04C2810D06828E5
:100E100024D06A282ED074280CD07A280AD00DE06D
:100E200062690121099890476C2823D004211CE0B5
:100E3000202005436269012109989047A7606560F9
:100E400065284FD026DC582839D01ADC452849D0EF
:100E500012DC252834D04128B0D143E06269012159
:100E600009989047682802D008210D43E6E7012041
:100E7000C002DEE70220DCE7462833D047282CD129
:100E800030E05B2870D061282CD063286CD06428B7
:100E900023D161E06F284FD009DC662822D0672873
:100EA00020D0692826D06E2817D12EE0CDE07028FA
:100EB0004DD073286FD075284ED078280DD154E0CE
:100EC000A1690D9888470546252800D16CE7E1699E
:100ED0000D9888476D1C00D16DE7BAE00A224CE0FE
:100EE0000A2252E0012023466A46C0430D99C046BB
:100EF000C046A3E02846402108436060A807234677
:100F000001D5002239E000223FE0E80700D020E7C9
:100F10002068011D21600068290501D5067018E7C9
:100F2000290701D5068014E7A90703D5F117066044
:100F300041600EE706600CE72846402108436060E8
:100F4000A807234601D5082217E008221DE04849DA
:100F500028460840606016E028464021084360604B
:100F6000A8072346BCD5B9E715E028464021084329
:100F70006060A80707D5234610220120C0430D99C1
:100F8000C046C0465AE0234610220120C0430D99B6
:100F9000FFF74EF952E000210C910B4600916328B7
:100FA00002D05B2807D043E0E80601D40120A0600E
:100FB000012000903CE062690121099890475E2879
:100FC00005D101200C90014662690998904721697A
:100FD000002906D10B4601AA8F00491CD3510829CC
:100FE000FADB002835D0216900290ED1C117C90EBE
:100FF00009184A11930001AA9A1849094901411A8E
:101000000120136888400343136062690121099835
:1010100090475D28E5D10C98002808D0002001AB4E
:1010200081005A58401CD2435A500828F8DB01ABC3
:1010300001202246C0430D99C046C04600280ADA66
:10104000401C06D10B98002803D00020C0430FB0ED
:10105000F0BD0A98FBE7E90702D10A99491C0A91F9
:10106000361800200B9074E6CCCCCC0CFFFFFF7F31
:10107000F1F7FFFF420005D04200120E52428A42B1
:1010800001DB00207047C905081870477F2801D987
:10109000002207E0054B42089A5CC00700D1120904
:1010A0001207120F0120904008407047949C0000E6
:1010B000014800687047C0462010004001480068A1
:1010C0007047C04620300040F0B583B002920E4613
:1010D000054606F0D9F801907527CD4CE05D022851
:1010E00002D0CC4804F0B4FB0220E0550020606040
:1010F000A0604B20C000854200DB0546C648854203
:1011000000DC0546256048493046FFF79DFB002876
:1011100029D1464F444D30463946FFF72EF9064651
:101120002946FFF791FB00281DD130463946FFF7CD
:1011300024F906462946FFF787FB002813D13046DD
:101140003946FFF71AF906462946FFF77DFB0028C6
:1011500009D130463946FFF710F906462946FFF710
:101160009DFB0028D7D132493046FFF789FB002884
:1011700029D1304F2E4D30463946FFF7FEF806464E
:101180002946FFF77DFB00281DD130463946FFF781
:10119000F4F806462946FFF773FB002813D13046C2
:1011A0003946FFF7EAF806462946FFF769FB0028AB
:1011B00009D130463946FFF7E0F806462946FFF7E1
:1011C00051FB0028D7D16B270125E555266706F08E
:1011D0005BF86921615C002903D0427F002A05D0B9
:1011E00003256A22A25C002A05D10FE001256A22AC
:1011F000A25C002A0AD0E25D002A07D00029029CE6
:1012000005D0407F002802D02D1D00E0029C8148BF
:10121000294604F0C9FB002C04D0019841697D489F
:1012200004F040FB03B0F0BD000034430000B4C341
:10123000000034C30000B443F0B585B0044605F0A7
:10124000E1FD064606F020F8054675227049885CE7
:10125000032806D0174603F08DFF06F0B5FA3A468C
:101260006B49687F0027002861D0692501234B5511
:101270004220305C00285AD04B208000844200DBA2
:1012800004460493322C00DC322403940292885CDE
:10129000032806D039484168304606F09FFA0028F6
:1012A00045D006F081FA01906B270021584E0C467C
:1012B000F15505F0E9FF715D002906D0427F002A53
:1012C00001D0032200E0012204926A22B25C002ACB
:1012D0000AD0F25D002A07D00029049905D0407F8A
:1012E000002802D0091D00E004994A4804F05CFB84
:1012F00003204749029A88540398086025468C6069
:10130000019840690B49FFF791F804462946FFF719
:10131000B7FA002801D1BF2000E03F200106204697
:10132000FFF72BF8FFF7F6FA3949486001273846EE
:1013300005B0F0BD00002041F0B581B00C46054677
:101340007526334FB85D01280FD0324804F080FA7B
:10135000002038607860B860F86038617861B86102
:1013600006482C304C21FEF716FF0120B8552846C0
:10137000214606F017FD01B0F0BDC0463000202028
:10138000F0B581B0064608463043104328D01546D4
:101390000C4675271E4BD85D022803D01D4804F06B
:1013A00057FA1B4B0220D8554B20C00086421BDA4F
:1013B00019498E421CDD1E6085421DDA8D4200DC1B
:1013C0000D469D600920C043596C48430A224A4398
:1013D0009442214614DAA04215DD586001B0F0BDF8
:1013E00003F0C8FE01B0F0BD06460B498E42E2DCB8
:1013F0000E461E608542E1DB05468D42E0DDE0E7FA
:101400001146A042E9DC0846586001B0F0BDC04674
:101410005402202068072020A8FDFFFFF0B50346F6
:101420000020002B15D0002A13D0704C6579002DB8
:101430000FD125786F1C03263E406778BE4208D046
:1014400026700620684320184185038528300271E4
:101450000120F0BD10B50446002808D063480021E3
:1014600081800160022001F025FD012104E05F4838
:101470004079012807D10021601E84415B484471F6
:10148000022001F017FD10BD80B558480021818071
:101490000160022001F00EFD80BDC046534840307F
:1014A00041784A1E9141427B531E9A415200511885
:1014B000407E421E90418000401870472120F9492B
:1014C000085C421E90414000497E4A1E91414018EE
:1014D0007047C046F0B587B00746039000240694D5
:1014E000022001900490012040040590ED4D2E460D
:1014F000403624213046FEF74EFE28461830009034
:101500008460AC61EC616C62AC62EC622C636C6315
:10151000AC63EC63AC60EF60AC71AC802C601F27F7
:1015200004A90291384601F089FC384601F0B2FC6A
:10153000414241414020295403986864A864717075
:101540001E273846029901F079FC384601F0A2FCCA
:1015500003992965696541424141717331732027BF
:101560003846029901F06AFC384601F093FC039971
:10157000E965296641424141717631761626304649
:10158000029F394601F05AFC304601F083FC039972
:10159000E96141424141697629761826304639464B
:1015A00001F04CFC304601F075FC039969623C7017
:1015B000414241410098417201720594019D2846C3
:1015C000394601F03BFC2846214601F073FC07B088
:1015D000F0BDC046B349886800228A607047C046A3
:1015E000B049887900228A717047C046580120208E
:1015F000F0B583B004461F2001F04CFC414241414C
:101600004022A84EB35CFF273D46F43502958B423D
:1016100005D14123F25C8A4207D10A4619E0B15450
:10162000746430464030427813E0756C651B1E2DA3
:101630000FD3F154002800D108E1717A0120014351
:1016400071724221715C002914D1B17A0143B172E7
:1016500010E0002A0ED04220305C00280AD1B06C85
:10166000201A0299884205D9422001213154F07A8A
:101670000843F0721E2001F00DFC414241414C2212
:10168000B25C8A4205D14D23F25C8A4207D10A46F8
:1016900019E03465304640300173427B13E0356D0C
:1016A000651B1E2D0FD3F154002800D1D7E0717AAD
:1016B0000220014371724E21715C002915D1B17A6B
:1016C0000143B17211E0002A0FD04E20305C002897
:1016D0000BD1706D201A0299884206D94E20012143
:1016E0003154F07A02210143F1722025284601F09D
:1016F000D1FB414241415822B25C8A4205D1592373
:10170000F25C8A4207D10A461DE0F465304640305B
:101710000176427E17E001972746F46D3C1B1E2C94
:101720003C46019F0FD3F154002800D1A0E0717A0C
:101730000420014371725A21715C002915D1B17ADC
:101740000143B17211E0002A0FD05A20305C00280A
:101750000BD1306E201A0299884206D95A200121F5
:101760003154F07A04210143F172162001F092FB0A
:1017700041424141307E88420CD1707E88420BD07C
:10178000F069201A1E2807D37176B0790121014330
:10179000B17101E0F4613176182001F07BFB414228
:1017A0004141705D88420DD12120325C8A420BD0CC
:1017B000726AA21A1E2A07D33154B079022101435A
:1017C000B17101E0715574627079002867D1B07809
:1017D000002814D0F068201A61D4F07801282ED1A6
:1017E00002200025294601F065FBF079002848D049
:1017F000401EF071000644D0F570708A4DE070789C
:10180000317881424BD03179002904D0F168611AD6
:1018100045D4002131710621414371188A8DB2826D
:1018200002377780401C032202407270488D70821C
:10183000088D3082307DF0710220012102E001210B
:10184000F170022001F036FB308A26E042200021B0
:101850003154B464307A012101433172FFE64E20E5
:10186000002131547465307A02210143317230E72E
:101870005A20002131543466307A042101433172F8
:1018800067E7758070783178091A481E8141708A3F
:10189000421E034693410B4033710019F06003B0C0
:1018A000F0BDC04658012020B0B5044603F062FCEC
:1018B000FFF7EAFD002C02D005F048FA01E005F040
:1018C00053FA044605F09EFA054603F06FF95020DE
:1018D00001220146FFF7A2FD002C05D05020032273
:1018E0000146FFF79BFDB0BD40352878002805D0A4
:1018F0006878002802D002A007F0E6FCB0BDC04620
:101900004552522C475241595F4E4F524D414C491E
:101910005A4154494F4E5F52414E47450D0A00000F
:1019200080B503F027FCFFF7AFFD05F0C1FB0028F1
:1019300006D0502064210222FFF770FD012080BDF7
:10194000FA2078210322FFF769FD002080BD000006
:10195000F0B58DB00E46054643488565C165026603
:101960008120800001ACE085AF204000C830A08518
:1019700015480B9015480A9015480990154808908D
:10198000154807901548069015480590154804908D
:101990001046FEF79FFF144F3946FEF784FD039073
:1019A0003046FEF797FF3946FEF77DFD0290284648
:1019B000FEF790FF3946FEF776FD0190204605F0D0
:1019C000ADFE0DB0F0BDC046B0045E01C80096008B
:1019D00000000C423333B33E0000B44200007042BA
:1019E0000000FA450000A04200007A44F0B587B03C
:1019F000009315460E46074617480690059017486F
:101A000004901046FEF766FF154C2146FEF70EFDCA
:101A100003903046FEF75EFF2146FEF707FD029079
:101A20003846FEF757FF2146FEF700FD01900D4CAA
:101A3000012101AA204603F0B9FE0B494F638E63D2
:101A4000CD6300980864FEF745FF0549FEF7EEFCFC
:101A5000206107B0F0BDC046000016440000964368
:101A60006F12833A6807202054022020B0B50A780C
:101A7000032313400B4A84580B4D2540EB18A9242F
:101A800024061B198350072212064B6813401124A9
:101A9000240205599543EA18025100194978016159
:101AA000B0BDC04608080000FCFFFF00811E091FF2
:101AB00000BFFCD270470000B0B53F231B04044CAC
:101AC00025689D4308431043184028182060B0BD86
:101AD00038010B40F0B585B001221402344B19686F
:101AE0000494A1431960950362490E682E4208D1FF
:101AF0000E682E4205D10E682E4202D10E682E428B
:101B0000F3D0457E15409E69964375199D61202549
:101B1000455D03263540DF69B7437D19DD61254DFD
:101B20002E6805272F60476A3C681C627C685C62EF
:101B3000072434402C60C4697F252D02DE69AE4342
:101B40006406640C3419DC6150C805680095476868
:101B500085680195C568029503929A69164D1540EE
:101B60002207120B3403A4B2A2183A43009C2407A4
:101B7000240D1443019A1443029A1443007C204319
:101B80000E4A0240501998611868049A1043186070
:101B9000039840020A68024208D10A68024205D14D
:101BA0000A68024202D10A680242F3D005B0F0BDD1
:101BB00008010B40001340408D00F0FF72FF0F0042
:101BC000F0B5184B1D46083D2E680124A6432E6033
:101BD0000326360330401F68B7433818186018686A
:101BE000FF26B043C9B24018186028682043286017
:101BF0001868002A11D021070843186020021D49E7
:101C00000A68024208D10A68024205D10A68024203
:101C100002D10A680242F3D0F0BD21078843186060
:101C2000F0BDC04610010B4010B51149886001227B
:101C30005305104804681C4208D104681C4205D1B1
:101C400004681C4202D104681C42F3D012040B68E1
:101C500013430B600168C90608D40168C90605D49E
:101C60000168C90602D40168C906F3D510BDC04693
:101C700004010B4004020B4010B507239B041940DC
:101C800092008018134A84589C436118815010BDFB
:101C900010B5054B0B409100401804494258044CC4
:101CA0001440E218425010BDDBB6C1FF70180000AE
:101CB00024493E0010B51143054A0A4099004018D6
:101CC00004494358044C1C40A218425010BDC04661
:101CD00077770200301800008888FDFF10B51143A7
:101CE0008F2211409B00C0183123DB01C45894435C
:101CF0006118C15010BD000010B5029CA40000196D
:101D000011431943014A815010BDC04650180000CC
:101D100092008018014A81507047C0461018000098
:101D200070470000F0B599B0B348016801229143B3
:101D300017460492016004210160B049416000240B
:101D400084600168022529430160016805220A4375
:101D50000260EFF3108072B6A94E346062B6A948F3
:101D60007821FEF718FA30462C304C21FEF713FA92
:101D70007460B46007F00AFA7068FFF7ABFBFFF716
:101D80009DFB3946814374209E4E315405F096FFE9
:101D900004F0F8FE06F05EF805F036F805F008FDF0
:101DA00003F0A4FC03F0B6FC0C940B940A94099481
:101DB0000894079406940594934F384603F01EFD4B
:101DC00092499620706492487960B860F96009A9D8
:101DD00005AA384603F023FE8E4812901190109405
:101DE0000F948D480E908D480D900DAA38462946C7
:101DF00003F0DCFC192040017D256F013146F761BD
:101E000002973062064603904C628248129011900D
:101E100010940F9480480E9080480D9003210DAAD5
:101E20007948009103F0C2FC76488762C662046379
:101E30007648129011907A4810900F940499880770
:101E40000E907F20C00501900D900DAA6E4F384670
:101E500003F0ACFCEE003046CD302901694A5663F0
:101E60009163D46310646F4939616F491291119184
:101E700010946E490F910E948125E9050D910DAADC
:101E80003846214603F092FC6948412109063F2269
:101E90001206BA62F9623863664801997961B861DD
:101EA0005020584A506516654B218B00D364029828
:101EB00090641046AA0005460DA8C2851A46FA325B
:101EC000828501931A4632324285090101855A49B9
:101ED0002966EC655949A9655949169159491591E1
:101EE00059491491594913915949129159491191DC
:101EF0004D49109158490F910E9458490D9105F094
:101F00000DFC03989638686605F0BEF96927E95D0F
:101F1000002906D0427F002A01D0009A00E0012269
:101F200004926B236A220392AA5C002A02930AD0CD
:101F3000EA5C002A07D0002905D0407F00280499D8
:101F400002D0091D00E004992F4803F02DFD03F095
:101F500011F905F09DF905F097F90646407F0399C0
:101F60006854E8557069286705F08EF9EA5D002A23
:101F700008D0417F002905D00321039BEB5C002B97
:101F800005D10EE00121039BEB5C002B09D0029BE5
:101F9000EB5C002B05D0002A03D0407F002800D046
:101FA000091D194803F000FD707F002809D005F0D5
:101FB0007FF8002805D0502064210222FFF72EFA76
:101FC00004E0962103220198FFF728FA0C494C629D
:101FD0008C62086848608860C860086148618861F0
:101FE000CC610C621EA007F06FF92A4807F06CF96B
:101FF00002F050FF19B0F0BD10E000E07F380100A2
:1020000030002020540220206807202000001644C1
:10201000000016430000C842210C9C3B290FC33C22
:1020200000009643713D9A3F0000A0429A99993E64
:102030000000A0408FC2F53C30570500400D030062
:10204000C800960000000C423333B33E0000B44297
:10205000000070420000FA450000AF430000484312
:10206000424F4F542C4D53504D3047333530375F2E
:102070004449414E5341495F544553542C563234E0
:102080002C574845454C5445432C393630300D0AC1
:102090000000000029A30000F0B5BFB007F076F9FA
:1020A000AE4807F0C7F8AE4A91681068461A0A2E83
:1020B00000D2B2E350609060FFF79AFAFFF78AFA15
:1020C0000546000A0A902843290C09910843C4B226
:1020D000280E0B900443FFF783FA012721460143A2
:1020E00000D1B9E0C10704D1002819D002F0D2FE16
:1020F00016E0FFF7E3F9079737460126864303F01A
:1021000039F8FFF7C1F905F05FFB04F085FE742094
:1021100094490E543E46079F02F0BCFE02F046FD75
:10212000002C00D198E0284602F0BCFD0320079067
:1021300005406C238B49C85C6F240A5D00280DD0D4
:10214000002D0BD02A430A5503F014F8FFF79CF931
:1021500085A007F0B9F802F09DFE7DE000287BD154
:102160000493069204F04EFE002D14D04221405CF0
:10217000002810D075207B4B185C002802D002F09C
:10218000F9FF784B6D21012058546E215A5C2A4387
:102190005A54FFF75FF905946D24724B185D0028BF
:1021A0002CD00A98079901406E25585D01423946A6
:1021B00009D0002058551855FFF74CF9694B195DA7
:1021C000481E8141585D0795FF22069D5540002914
:1021D00017D00B990840284014D000200799585474
:1021E00018551C46FFF736F9C820FFF725F80028D8
:1021F00026D001200499605460A0AAE7FF20069D24
:1022000045400B99294209D002F0B4FFFFF73CF991
:10221000FA2078210322FFF701F91DE0059C185DE3
:102220000A998843185509992940C80706D1880793
:102230000FD4480710D5FFF773FB0DE0012009E02C
:10224000FFF722F9FA2078210322FFF7E7F850A0E0
:102250007FE70020FFF728FB304604F0D1FC05F0B3
:1022600029FD054604F08CFC2A780021002A0896F6
:1022700002D16A78002A25D0394D686805F0CEF879
:10228000E9686868411A14293BD3E86004F0CCFD82
:102290007520344E305C032833D104F0B3FD6968F7
:1022A00005F09CFA002815D005F07EFA40693F49F8
:1022B000FEF7BCF805460021FEF7E2FA002817D128
:1022C000BF2016E00269002A254DD6D1406941425F
:1022D0004141D2E76C20345C02F060FD02F04AFF1D
:1022E00033A006F0F1FF002C0BD002F0D3FD08E084
:1022F0003F2001062846FEF740F8FEF70BFB706012
:10230000174D29696868411A642902D3286103F0CE
:1023100001FA6C20134E0790305C411E88417521F4
:102320000B91715C002900D007467D200990840044
:10233000002F0A9444D168696968081AA0423FD9FD
:1023400005F086FD2521405C002804D0042005F01E
:102350007FFE02F021FE02F00DFF1EE1D1430000DE
:10236000300020205402202041434B2C4C4F43414D
:102370004C5F4C494E452C300D0A000041434B2C1C
:102380004C4F43414C5F4C494E452C310D0A0000E7
:102390004552522C4C4F43414C5F4C494E455F4E89
:1023A0004F545F52454144590D0A0000000020413E
:1023B0004552522C4C494E455F4C4F53540D0A0028
:1023C00004F0DEFB054604F05FFF064605F040FD25
:1023D0002524005D002820D0AB69EF6906CD774841
:1023E00040687569B66900970195029605F04AFE46
:1023F00005F040FE064605F037FE054605F028FDCF
:10240000015D002900D126E2816900693246FEF7AC
:102410005BFE002D01D002F0BFFD0898FEF765FAC3
:102420006749FEF740F8089004F0AAFB074604F05D
:102430002BFF064663480B99455C281F0122D143B8
:10244000884200D2A6E00592002015901490B86949
:1024500012900697F86913905A4F386F0C903868AD
:10246000FEF738FA04460E90B868FEF733FA0F907C
:102470007868FEF72FFAFD49FEF715F80D907069A0
:10248000B16911911090032D089E1AD105F08CF9B5
:1024900024210CAA059B53542E21455CF248406E22
:1024A000FEF718FA032DF24D294600D00146059893
:1024B000C20794432046FDF7B9FF2946FDF7F3FF15
:1024C0001490E84C23462C33EA480CA9324603F01A
:1024D000C3FA676D002638463146FEF7D1F93F2131
:1024E00008910D06BF2105910A060028294600D152
:1024F000114604923846FDF740FFFEF70BFA0746F7
:10250000D948C760D748846D20463146FEF7B8F9F0
:10251000002800D1049D20462946FDF72EFFFEF736
:10252000F9F9D14A1061069B1969791A5161596903
:10253000401A9061CB480B99405C00282AD0C94CC6
:10254000E66E002530462946FEF79AF90746246FC5
:1025500020462946FEF794F9069008980506059846
:102560000006002F294600D1014607463046FDF7F8
:1025700004FFFEF7CFF906460698002800D13D4635
:1025800020462946FDF7F9FEFEF7C4F9014630461C
:1025900005F008FCB34DB44E0A9C6827F15D09981C
:1025A000C300002909930FD0A8696A68101A1A4657
:1025B000C832904209D90021F15506E030002020B0
:1025C00000007A4454022020002108970B98305CC8
:1025D000FE2702463A40022A00D020E10328099B48
:1025E00001D02346C83B2C6A6A68141B9C4200D267
:1025F0008CE02A620CAC0123A3729F4B23817423CD
:10260000F35C2373A1730799715C61736921715C39
:10261000E173C01E41424141E172002010906A20E6
:10262000305A20824B20C0000D900C9203CE1190A6
:10263000129170680690083E354610352ECD8A4EB0
:10264000366A8948406A05908748806A04900698EF
:102650001390149115921693179518960598199042
:1026600004981A908048C06A06907F49096B7E4A98
:10267000526B7D4B9B6B7C4DED6B7B4E366C7A4881
:10268000406C05907848806C049006981B901C91D3
:102690001D921E931F9520960598219004982290D4
:1026A0007148C06C7049096D6F4A526D6E4B9B6DDD
:1026B00006936D4DED6D6C4E366E6B4B5B6E2390DD
:1026C000249125926848006F2690069827A961C139
:1026D000654E2A9305F068F82E21405C032809987E
:1026E00000D0706E2B90204680305E4D29462C31F4
:1026F0004C22FDF737FD204606F068F905F0A8FBEF
:102700002821405C002801D002F046FC0B98305C88
:102710000A9C032800D185E00740584B022F00D1C6
:102720005C1CEA6969688A1AA2426DD3E9610CAC43
:10273000514A22817422B25C2273079AB25C62739E
:10274000089AB25AE281C01E42424241E272B81E69
:1027500042424241A272002010906A20305A2082E8
:102760004B20C0000D900C9103CE11901291706817
:102770000890083E37461037AECF0B97776AB06A9D
:102780000A900898139014911592169317950B9828
:10279000189019970A981A90F06A089037463037BF
:1027A000AECF0B97776CB06C0A9008981B901C9179
:1027B0001D921E931F950B98209021970A982290A6
:1027C00037464C37AFCF0B97776E239024912592E5
:1027D000306F26A929C10B9829902A9704F0E4FFAD
:1027E0002E21405C0328099800D0706E2B90204663
:1027F00080301C4D29462C314C22FDF7B3FC20467D
:1028000006F0EEFA69681D4BA86A081A984202D9C8
:10281000A96205F0B9FE06F0B9FD3FB0F0BD03288E
:1028200000D079E7696A6868411A2246653A9142A0
:102830000AD9686202F0B2FA0B98305C07400F4B7D
:10284000022F00D16CE76CE7032007400B4B022FEF
:1028500000D165E765E702F08DFC002D00D0DAE5D8
:10286000DBE5C0463000202054022020000020413B
:1028700000007A4468072020260200009F0F000015
:1028800080B500F009FA80BDF0B589B0089315460F
:102890000F46079070491046FEF700F804466F494E
:1028A0002846FDF7DFFF0023002806D1002C07D1C2
:1028B000397C0F9C002908D113E0D843002CF7D0B5
:1028C0000120397C0F9C00290BD0C2B28A4208D06B
:1028D0003B823B607B60BB60FB600293039306938B
:1028E00005E079680691B9680291F9680391059746
:1028F000387400212046FDF7D1FF0746564920468F
:10290000FDF7D1FD0546002F01D17F20C505544CB0
:1029100028462146FDF7C2FF002800D12C463F2063
:10292000050620462946FDF7B9FF002800D12C46B0
:10293000079D69682046FDF779FD089F3946FDF738
:1029400075FD04903846069E3146FDF767FD014649
:102950002868FDF76BFD0499FDF70FFD0490A8684A
:102960002146FDF7A0FD044630463146FDF705FD42
:1029700001463846FDF752FD0299FDF7FEFC01467F
:102980002046FDF753FD0499FDF7F7FC0146039837
:10299000FDF7F3FC04462E693248064020463146D6
:1029A000FDF77CFF0028304600D1204601900E9FA5
:1029B00001200490C0070390351820462946FDF7F2
:1029C00051FF0028029500D1019D28460197394604
:1029D000FDF7D3FC04460798476922480740204684
:1029E0003946FDF75BFF0028384600D120460790A6
:1029F00003983F1820463946FDF734FF002800D1E0
:102A0000079F1098079038462146FDF755FF00288C
:102A100012D138460199FDF701FD04463146FDF714
:102A20003DFF002800D126462046029D2946FDF79D
:102A300019FF002800D1354605980499417408997A
:102A4000416006998160C5600798002800D0056044
:102A5000384609B0F0BDC0460AD7233C0AD723BC8C
:102A60000000A040FFFFFF7F80003D490858112172
:102A700009024258012313434350704770B5C10700
:102A8000490F374A525811210B02D1580124A14352
:102A9000D150D1188D681F263604B5438D6023258B
:102AA000ED0140085051D0582043D0504B682002CF
:102AB00003434B600B4BD3180B4C12191C68044298
:102AC00008D11C68044205D11C68044202D11C686C
:102AD0000442F3D0126898614B6883434B6090B214
:102AE00070BDC0463010000080625500F0B581B066
:102AF0000C46C1002288144B5A528000184A1558BF
:102B000011200602A8590127B843A8515918606836
:102B100048602846FEF7AAFFA81981680622D34319
:102B200019408160A17A114082681A405118816071
:102B3000A9593A040A43AA5121894161A859384345
:102B4000A85101B0F0BDC0464402202080000449D5
:102B500008580449425801231B021343435070474D
:102B6000D49C00000411000070B503010C4A9B18AE
:102B70004C68CD680E69360126432E434C892401EA
:102B800034430D892543F0241D510B7849781943AE
:102B9000BF231940800084589C436118815070BD48
:102BA00010B142400001014A8150704708B24240D2
:102BB0000001014A8150704704B242400001014ABD
:102BC000815070470CB2424011A2125601280DD814
:102BD000D2B21F201040012383400F480360042914
:102BE00015D00E4810180323984305E004290ED091
:102BF0000C201040074BC0189207D20E8901C9B2B1
:102C00009140FF23934002689A430A430260704751
:102C10000101000014ED00E000E100E000E400E04C
:102C200010B5164B0B438100154C0B510B590B5132
:102C3000910014A251584000A94B1A5C1818407812
:102C400043009200A74C0F2803D8A258104C141927
:102C500004E0A2589D2464011419203B9940236884
:102C60000B432360012181400A4813181C6A0C435E
:102C70001C6213580B43135010BDC04681000C005A
:102C80000480424001000000020000000300000038
:102C90009013000028100000F0B581B0664800785D
:102CA0000090002839D0002504260AE06068381812
:102CB0006060614800780090361D6D1C0098854268
:102CC0002BD25D498C5921784900854842185278A9
:102CD00001273B469340415C890082484158104897
:102CE00009581940E160E7D0607800F0D3F800900F
:102CF000217849007A48421852783B469340415C1B
:102D00008900784A515807480A581A430A500098CF
:102D10000028CBD00020C743C8E701B0F0BDC046B3
:102D20003810000048100000F0B587B00C46064689
:102D30000878012779043A46FFF772FF20784000AF
:102D40006749085C411E884100252946FFF73CFF82
:102D5000380506903804059002270497607804A986
:102D600000F06CF801A92220088110480880642036
:102D70007043401E0290284601F01CF804222846A9
:102D8000394601F0A7F8284601F0CCF8284601F0B2
:102D9000D3F9294801784A1C027089004018446020
:102DA0000349284601F0C2F907B0F0BD07630000EF
:102DB000B52D0000F0B520490A78002A3AD003204A
:102DC0001040531E032B01D200231EE0FC231A40A7
:102DD0000C46103400252B4626460C3E3668776894
:102DE0007560B7602646083E366877687560B760DC
:102DF000261F366877687560B760266877687560E3
:102E0000B76010341B1D9A42E6D1002812D09A00F8
:102E100089184B685C6800225A609C60012809D0C0
:102E20008B685C685A609C60022803D0C86841685F
:102E300042608160F0BDC046BC0120204B688A68BA
:102E40001A430978022903D0012907D1104906E065
:102E50000D490A4380000D494250704781210A43C1
:102E600081000A4BCA5040001D490A5C92001D4B6C
:102E70009A5808184078012181409520400111504E
:102E8000101801637047C04681000400048042406E
:102E900081000402400012490A5C9200114B9A58CA
:102EA0002723DB01D25808184078C2400120104087
:102EB0007047C04610B54000094A135C9B00094C9E
:102EC000E358002902D00849591802E09521490128
:102ED000591810184078012282400A6010BDC0467F
:102EE000DC9C00002800202090120000F0B599B072
:102EF000019200220260179016924260FE20084064
:102F0000022801D0D44D00E0D44D0727394601985E
:102F10004143119103210E914143079105210F91E6
:102F200041430A91062110914143139141000991B7
:102F300081000C91C00014900120129000041890A0
:102F4000FF20C0431590169C05E0083715983818E7
:102F5000072800D1ABE0019816994618284631465B
:102F6000FDF710FDAE420BD81899884208D2A04256
:102F700006D9F91F179A50605170129911700446C2
:102F800009981699461828463146FDF7FBFCAE42D3
:102F90000BD81899884208D2A04206D9B91F179AAF
:102FA000506051701299117004460798169946188E
:102FB00028463146FDF7E6FCAE420BD81899884208
:102FC00008D2A04206D9791F179A50605170129901
:102FD000117004460C981699461828463146FDF79C
:102FE000D1FCAE420BD81899884208D2A04206D92B
:102FF000391F179A506051701299117004460A983F
:103000001699461828463146FDF7BCFCAE420BD84F
:103010001899884208D2A04206D9F91E179A506022
:103020005170129911700446139816994618284643
:103030003146FDF7A7FCAE420BD81899884208D25A
:10304000A04206D9B91E179A50605170129911709A
:103050000446169811990E1828463146FDF792FC41
:10306000AE420BD81899884208D2A04206D9791EE0
:10307000179A506051701299117004461498169E58
:10308000861928463146FDF77DFC1696AE4200D9DA
:103090005BE71899884200D357E7A04200D854E76D
:1030A000179948604F70129A0A7004464DE70E2136
:1030B000019841430B910A21414308910C2141435E
:1030C000119100010D900027072605E0083615989C
:1030D0003018072800D1ACE016960998C619284682
:1030E0003146FDF74FFCAE420CD81899884209D200
:1030F000A04207D91699C91F179A50605170022132
:10310000117004460C98C61928463146FDF73AFC62
:10311000AE420CD81899884209D2A04207D9169914
:10312000891F179A5060517002211170044613983C
:10313000C61928463146FDF725FCAE420CD8189931
:10314000884209D2A04207D91699491F179A5060A0
:1031500051700221117004461498C6192846314650
:10316000FDF710FCAE420CD81899884209D2A04253
:1031700007D91699091F179A5060517002211170D2
:1031800004460898C61928463146FDF7FBFBAE42B7
:103190000CD81899884209D2A04207D91699C91E9D
:1031A000179A506051700221117004461198C61987
:1031B00028463146FDF7E6FBAE420CD81899884206
:1031C00009D2A04207D91699891E179A50605170EA
:1031D0000221117004460B98C61928463146FDF7A6
:1031E000D1FBAE420DD8189988420AD2A042169E51
:1031F00008D9711E179A506051700221117004464F
:1032000000E0169E0D98C71928463946FDF7BAFB0F
:10321000AF4200D95AE71899884200D356E7A04236
:1032200000D853E7179A5060567002211170044677
:103230004CE715210198414309910921414305912A
:103240000F2141430491182141431291122141431E
:1032500006910027072609E000B4C404005A620260
:10326000083615983018072800D1ACE01696079854
:10327000C61928463146FDF785FBAE420CD8189991
:10328000884209D2A04207D91699C91F179A5060DF
:1032900051700E99117004461398C619284631468C
:1032A000FDF770FBAE420CD81899884209D2A042B3
:1032B00007D91699891F179A506051700E9911708D
:1032C00004460598C61928463146FDF75BFBAE4219
:1032D0000CD81899884209D2A04207D91699491FDB
:1032E000179A506051700E99117004461198C619C2
:1032F00028463146FDF746FBAE420CD81899884265
:1033000009D2A04207D91699091F179A5060517027
:103310000E99117004460498C61928463146FDF7E7
:1033200031FBAE420CD81899884209D2A04207D985
:103330001699C91E179A506051700E991170044663
:103340000698C61928463146FDF71CFBAE420CD83C
:103350001899884209D2A04207D91699891E179A4E
:10336000506051700E99117004460998C61928468C
:103370003146FDF707FBAE420DD8189988420AD2B4
:10338000A042169E08D9711E179A506051700E996E
:103390001170044600E0169E1298C7192846394657
:1033A000FDF7F0FAAF4200D95AE71899884200D3E6
:1033B00056E7A04200D853E7179948604E700E9A1E
:1033C0000A7004464CE71C210198414307911421DF
:1033D0004143039140010E900027072605E008367F
:1033E00015983018072800D1ACE016960C98C6192D
:1033F00028463146FDF7C6FAAE420CD818998842E5
:1034000009D2A04207D91699C91F179A5060517066
:103410000421117004461498C61928463146FDF758
:10342000B1FAAE420CD81899884209D2A04207D905
:103430001699891F179A5060517004211170044623
:103440001198C61928463146FDF79CFAAE420CD8B1
:103450001899884209D2A04207D91699491F179A8C
:10346000506051700421117004460D98C619284609
:103470003146FDF787FAAE420CD81899884209D236
:10348000A04207D91699091F179A5060517004215C
:10349000117004460398C61928463146FDF772FAA2
:1034A000AE420CD81899884209D2A04207D9169981
:1034B000C91E179A50605170042111700446129869
:1034C000C61928463146FDF75DFAAE420CD8189968
:1034D000884209D2A04207D91699891E179A5060CE
:1034E00051700421117004460798C61928463146C8
:1034F000FDF748FAAE420DD8189988420AD2A04288
:10350000169E08D9711E179A5060517004211170CF
:10351000044600E0169E0E98C71928463946FDF766
:1035200031FAAF4200D95AE71899884200D356E7DA
:10353000A04200D853E7179A5060567004211170CA
:1035400004464CE723210198414305911921414349
:103550000091282141430C911E21414302910027F3
:10356000072605E0083615983018072800D1ACE08A
:1035700016960A98C61928463146FDF703FAAE4258
:103580000CD81899884209D2A04207D91699C91FA8
:10359000179A506051700F99117004460898C61917
:1035A00028463146FDF7EEF9AE420CD8189988420C
:1035B00009D2A04207D91699891F179A50605170F5
:1035C0000F99117004460498C61928463146FDF734
:1035D000D9F9AE420CD81899884209D2A04207D92D
:1035E0001699491F179A506051700F99117004462F
:1035F0000398C61928463146FDF7C4F9AE420CD8E7
:103600001899884209D2A04207D91699091F179A1A
:10361000506051700F99117004460098C6192846E1
:103620003146FDF7AFF9AE420CD81899884209D25D
:10363000A04207D91699C91E179A506051700F9968
:10364000117004460298C61928463146FDF79AF9CA
:10365000AE420CD81899884209D2A04207D91699CF
:10366000891E179A506051700F9911700446059881
:10367000C61928463146FDF785F9AE420DD818998E
:1036800088420AD2A042169E08D9711E179A50602D
:1036900051700F991170044600E0169E0C98C719DE
:1036A00028463946FDF76EF9AF4200D95AE7189916
:1036B000884200D356E7A04200D853E717994860E4
:1036C0004E700F9A0A7004464CE72A210198414334
:1036D0000A91302141430F91242141430891002751
:1036E000072605E0083615983018072800D1ACE009
:1036F00016961398C61928463146FDF743F9AE428F
:103700000CD81899884209D2A04207D91699C91F26
:10371000179A506051701099117004461198C6198B
:1037200028463146FDF72EF9AE420CD8189988424A
:1037300009D2A04207D91699891F179A5060517073
:103740001099117004460698C61928463146FDF7AF
:1037500019F9AE420CD81899884209D2A04207D96B
:103760001699491F179A50605170109911700446AC
:103770001298C61928463146FDF704F9AE420CD816
:103780001899884209D2A04207D91699091F179A99
:10379000506051701099117004460298C61928465D
:1037A0003146FDF7EFF8AE420CD81899884209D29D
:1037B000A04207D91699C91E179A506051701099E6
:1037C000117004460898C61928463146FDF7DAF804
:1037D000AE420CD81899884209D2A04207D916994E
:1037E000891E179A506051701099117004460A98FA
:1037F000C61928463146FDF7C5F8AE420DD81899CE
:1038000088420AD2A042169E08D9711E179A5060AB
:10381000517010991170044600E0169E0F98C71958
:1038200028463946FDF7AEF8AF4200D95AE7189955
:10383000884200D356E7A04200D853E71799486062
:103840004E70109A0A7004464CE7312101984143AA
:10385000119107263146414310913821414313917C
:10386000002705E0083615983018072800D1ACE08D
:1038700016961098C61928463146FDF783F8AE42D1
:103880000CD81899884209D2A04207D91699C91FA5
:10389000179A506051700721117004460B98C61991
:1038A00028463146FDF76EF8AE420CD8189988428A
:1038B00009D2A04207D91699891F179A50605170F2
:1038C0000721117004460998C61928463146FDF7AC
:1038D00059F8AE420CD81899884209D2A04207D9AB
:1038E0001699491F179A50605170072111700446AC
:1038F0000798C61928463146FDF744F8AE420CD861
:103900001899884209D2A04207D91699091F179A17
:10391000506051700721117004460598C619284659
:103920003146FDF72FF8AE420CD81899884209D2DB
:10393000A04207D91699C91E179A506051700721E5
:10394000117004460A98C61928463146FDF71AF840
:10395000AE420CD81899884209D2A04207D91699CC
:10396000891E179A506051700721117004461198F2
:10397000C61928463146FDF705F8AE420DD818990C
:1039800088420AD2A042169E08D9711E179A50602A
:10399000517007211170044600E0169E1398C71954
:1039A00028463946FCF7EEFFAF4200D95AE718998E
:1039B000884200D356E7A04200D853E7179A5060D8
:1039C00056700721117004464CE701988001119050
:1039D0000026072705E0083715983818072800D172
:1039E000ACE016971498871928463946FCF7CAFFA9
:1039F000AF420CD81899884209D2A04207D916992B
:103A0000C91F179A506051700821117004460D9813
:103A1000871928463946FCF7B5FFAF420CD81899EC
:103A2000884209D2A04207D91699891F179A506077
:103A3000517008211170044612988719284639469A
:103A4000FCF7A0FFAF420CD81899884209D2A042D7
:103A500007D91699491F179A5060517008211170A3
:103A600004460E98871928463946FCF78BFFAF426B
:103A70000CD81899884209D2A04207D91699091F73
:103A8000179A506051700821117004460C988719DC
:103A900028463946FCF776FFAF420CD81899884281
:103AA00009D2A04207D91699C91E179A50605170C1
:103AB0000821117004460F98871928463946FCF7EB
:103AC00061FFAF420CD81899884209D2A04207D9A9
:103AD0001699891E179A506051700821117004467A
:103AE0001398871928463946FCF74CFFAF420DD88A
:103AF000189988420AD2A042169F08D9791E179AAF
:103B00005060517008211170044600E0169F119812
:103B1000861928463146FCF735FFAE4200D95AE7F0
:103B20001899884200D356E7A04200D853E7179A65
:103B3000506057700821117004464CE719B0F0BD71
:103B4000F0B58DB079487A4A42607A4842607A4846
:103B500042607A4842607A4842607A4842607A48D5
:103B600042607A4842607A4842607A4842607A48C5
:103B700042607A4E72607A4D6A607A4C62607A4B2B
:103B80005A607A494A607A4842607A4A674F3A6096
:103B9000684F3A60684F3A60684F3A60684F3A60E1
:103BA000684F3A60684F3A60684F3A60684F3A60D1
:103BB000684F3A60684F3A6032602A6022601A604B
:103BC0000A60026010200390FDF770FF6A4804212C
:103BD00001604F2141600021816002680523049348
:103BE0001A430260654801604160654824380160FD
:103BF0000F210802634F3A1F1368834301246602B2
:103C00009819029210600320C0433B46083B1A6893
:103C100002401A603868A043386038685A4A104039
:103C200038602003009001912246FDF7C9FF5748F4
:103C3000FDF750FF2005079006946406564D1F209F
:103C40000006396B81433963049802040020079908
:103C5000FDF732FF4A484F49016042272868204259
:103C600004D14B48FDF722FF7F1EF7D14548806CF9
:103C700005900698420400200799FDF71DFF404873
:103C80004449016042272868204204D14048FDF79A
:103C90000DFF7F1EF7D13E48173005994843394F35
:103CA000B96CFCF76FFE3D4940180F2815D33868F2
:103CB0003549084038600698000239680143396088
:103CC00028683042BBD128683042B8D128683042D9
:103CD000B5D128683042F3D0B1E7029B1868039A47
:103CE000104320218843186001980003396B8143F9
:103CF0000920000308183863186800990843186001
:103D0000786B10437863386BB043386300242046E7
:103D1000FDF78AFF22A008A90A4628C828C268C859
:103D200068C2204600F052FA0DB0F0BD00080A400B
:103D3000030000B100280A4000881040000810402D
:103D400000281040000850400008864000288640A7
:103D5000004808400088864000A8864000080940C6
:103D6000000887400088464000A846400008004000
:103D7000002800400100002610E000E028804240BA
:103D80002C030B4008010B40FFFEFFFF68A0000062
:103D9000D10300000100000E04020B4043F6FFFFB8
:103DA0000405000000C201000000180000000030FF
:103DB00000000000F0B583B08000E44A15580123EC
:103DC00018032C180822A2600A782A5027482A18BB
:103DD000487802925060DE482F1848687860019158
:103DE000087A222823D8C0467844007940008744C6
:103DF000191E191E1E1E1E1E1E1E1E1E1E1E1E1EED
:103E0000111E111E1E1E1E1E1E1E1E1E1E1E1E1EEC
:103E1000111E110003200007396881435807081854
:103E2000386004E0032000073968814339600026C8
:103E30002846314632461C46FDF76AFF6104284693
:103E400032463346FDF736FF3868A94901403960EC
:103E5000019A107A3F210840527A02433868884319
:103E6000104338600298046003B0F0BD08110000F0
:103E700070B582B08100A64A5018437880241C4354
:103E8000515C8A000F4BD45049000F4A535C9B0091
:103E90000E4CE358511849780D4A99508478009493
:103EA000C0788000A9490D58002628463146324680
:103EB0003346FDF721FF284631462246FDF7DCFE5A
:103EC00002B070BD04804240DC9C0000280020202D
:103ED000D0120000B0B583009C4CE3580E4C1D5925
:103EE0000D431D511449085C1F21014001238B40E3
:103EF0000A490B60042A0ED08107C90EFF238B40AC
:103F0000074C00190324A04304689C439201D2B2D9
:103F10008A4022430260B0BD2810000080E200E029
:103F200000E400E00449085C1F21014001208840B2
:103F3000024908607047C046349F000000E100E07D
:103F4000F0B585B08200814B9F5801220392130384
:103F5000FC180822A2600A78FA5011221202BA183C
:103F60004B780192D3607A4A0290002804910AD0DB
:103F7000BD18087A20285BD000280CD14868401E64
:103F8000686088240CE0087A202814D00521CC0130
:103F9000002813D013E04868400868600520C40179
:103FA000002238462146FDF773FE0122384621469D
:103FB000FDF76EFE52E04C4C002800D1882402260A
:103FC000384621463246FDF763FE03253846214632
:103FD0002A46FDF75DFE0024384621462246334638
:103FE000FDF768FE3846214622462B46FDF762FE65
:103FF00000963846214622462346FDF77DFE009571
:104000003846214622462346FDF776FE38462146AD
:1040100022463346FDF762FE3846214622462B46AD
:10402000FDF75CFE04994A4ABD18087A2028A3D1FE
:104030004868401E68602C4C002238462146FDF737
:1040400027FE38462146039C2246FDF721FE032029
:104050000007296881436007081828600024384653
:10406000214622462346FDF725FE384621462246B4
:10407000039E3346FDF71EFE009438462146224635
:104080002346FDF739FE0096384621462246234650
:10409000FDF732FE3846214622462346FDF71EFE36
:1040A0003846214622463346FDF718FE28680F4958
:1040B0000140049B187ABD220240587A10430843FD
:1040C00002210143296028680949014029600199BA
:1040D0008E600298002803D00320086005B0F0BD70
:1040E0000F20086005B0F0BD010400004000FFCFC4
:1040F0007F00FFFF8000064A1018C2789200134B21
:104100009A58807880001018024A81507047C04643
:10411000549D00001018000080000C4908580C49FC
:1041200042580123134343507047C0468000014A60
:104130001150704718022020800004490858044993
:1041400042580123134343507047C0463C9F000030
:104150000418000010B586B0642005900024049473
:104160001048039003A92046FEF7C0FC2046FEF746
:104170007BFC2046FEF7EAFC0120010502910004C9
:10418000019000943A206C462146FEF757FE3620F7
:104190002146FEF753FE35202146FEF74FFE06B0BE
:1041A00010BDC0460105000080005149085801219A
:1041B000C902014A815070478810000080004C49B4
:1041C00008588921490140187047C046F0B585B0AC
:1041D00001900A78D200434DAB185B6880241C43E1
:1041E000AA589200404BD4504A78D200AC18646868
:1041F0003E4E2643AA589200D65083003C4AD758D8
:10420000012420033A180823936000253D50112013
:104210000602B8590494E24302921040B851887AD9
:104220000A89024388891043324A0240B859324B06
:1042300003409818B851887BCA7B0243087C10431E
:104240007E221040BC196368934318186060B85907
:104250000322D20390430396B8514868FCF74CFB05
:10426000264B2E462A46FCF70FFA02460B460198CB
:10427000032801D0234900E0214930460096FCF78D
:104280006BFA05460E46FCF75FFB81B222691E4BB6
:104290001340C9182161FCF72FFB02460B46284644
:1042A0003146FCF7E3F9194B009D2A46FCF7ECF97F
:1042B000174B2A46FCF736F9FCF746FB3F2108402E
:1042C00062698A43801860616068049A104061687E
:1042D000029B194008186060039978581043785081
:1042E00005B0F0BD589F00000480424080000400EB
:1042F00058A0000018670000E798FDFF000030405C
:10430000D0129341D01283410000FFFF00005040C3
:104310000000E03FF0B583B02C4F79703870002575
:10432000019500950124210502916E463146FEF764
:1043300085FD022030702004019078783146FEF728
:104340007DFD062630462946FEF7B4FD8F2000F09D
:10435000D1FFFF2000F0CEFF054630462146FEF794
:10436000A9FD6B246B2D2DD0022005F0BDF806258C
:1043700000212846FEF79EFD8F2000F0BBFFFF20A6
:1043800000F0B8FF064601212846FEF793FD6B2E8C
:1043900018D0022005F0A8F8062500212846FEF7CF
:1043A00089FD8F2000F0A6FFFF2000F0A3FF064646
:1043B00001212846FEF77EFD6B2E03D0022005F07A
:1043C00093F83446204603B0F0BDC04624002020B8
:1043D000F0B5A5B0064602F057FF05461FA93046C6
:1043E00002F0D4F968272D4C0122E2552C49486887
:1043F00088616C20205C6D21615C01430AD02949F1
:104400003046FBF7DAFE002800D16EE000F042FDF6
:1044100025B0F0BD0592069503F01AFD2525405DF7
:10442000002816D020A107223046FBF7D4FE002832
:104430000FD01FA13046FBF7C0FE002809D0194954
:104440003046FBF7BAFE002803D000F0A5FD25B0EA
:10445000F0BD1FA80078401E182843D84000C04671
:1044600078448088400087442700420084009400FC
:104470009900AA00BF00C700CC0001011B01250163
:10448000450154016E0178018401890140009201C7
:104490009D01A701AC01B101B501C0465402202025
:1044A0003000202090A300005351554152452C006C
:1044B00053544F500000000002F062FB0646209863
:1044C000022800D13BE2012800D13FE2002800D0C1
:1044D0005DE200F04FFEFC4804F0F6FE00F05CFDEB
:1044E00025B0F0BDF94804F0EFFE25B0F0BD219EE7
:1044F0006421642E00DB0E466320C2439642F44DD5
:1045000000DD6CE116462098642800DB6BE19042E8
:1045100000DC10460627474306994A7F002A15D03B
:104520006A2101236354692163545142514142423B
:104530004241002E059B184600D05EE1104600283F
:10454000184600D15DE1002800D15EE16B2000211A
:10455000215400F0D5FF606C704340420A21FCF703
:1045600031FA01460520C24372433846FCF708FF82
:104570003DE26B2000212154219C209D00F0C0FFD2
:1045800028462146FCF7D8FEE3494868486125B033
:10459000F0BDE24804F098FE25B0F0BD209D00F08B
:1045A000E9FD002D00D195E10698407F411E0246AD
:1045B0008A4169216254002800D091E18DE1209E5A
:1045C00030460A38FF212E313231884200D32CE1A7
:1045D00000F0D0FD3046FCF77DF9D1498860666473
:1045E00007AD6021CF4A91E01FA8017D042900D1C9
:1045F00020E1403420461EE1CB4804F065FE25B0A2
:10460000F0BDE120C100209E711800018142069991
:1046100000D9EDE06A20205C002800D1E8E06920A4
:10462000205C002800D1E3E0487F002800D1DFE0D3
:104630007520205C801E411E88416B21615C002931
:1046400000D005903046FCF745F9B849FBF72BFF41
:1046500007460598002800D1A3E100200122394631
:10466000FCF732FDE94948684861B4E1209D00F05B
:1046700081FD0020002D07D06921615C002903D055
:104680000698407F411E88416A256055069840691A
:10469000206700F035FF635D07AC6021D84A26E152
:1046A0006A20235C483417CC00AD17C507AC6021E5
:1046B000D44A1CE1D448209C844200D3E1E0219DEF
:1046C000002D00D5DDE0854200DBDAE0229E002EE1
:1046D00000D5D6E0864200DBD3E000F04BFD20465B
:1046E00029463246FDF734F90095019607AD602161
:1046F000F34ADAE07D20C000209E864200D9C5E062
:1047000000F038FD666607AD6021EB4A2846334667
:10471000CDE02098002800D1F1E0012800D007E189
:104720002198322800DA03E1FF212E31884200DB94
:10473000FEE0FCF781FD002800D025E7DA4804F010
:10474000C3FD25B0F0BDA36D22465C3207CA00ACA4
:1047500007C407AC6021D64AC9E0BD48209C211897
:104760000A39814200D396E0C3A004F0ADFD25B024
:10477000F0BD002000F096FA25B0F0BD00F0FAFC84
:104780000020E055AFA004F09FFD25B0F0BD00F083
:10479000F1FC02F021FA02F039FEA7A004F094FD2A
:1047A00025B0F0BDFDF7BCF8002800D1AEE099A01F
:1047B00004F08AFD25B0F0BD0120FDF775F825B0A5
:1047C000F0BD0020FDF770F825B0F0BD00F0EEF967
:1047D00025B0F0BD8E4804F077FD25B0F0BD2098DF
:1047E000642800DA93E60846904200DC91E691E600
:1047F000B64804F069FD25B0F0BD0028184600D089
:10480000A1E60846002800D0A0E67520205C801EA6
:10481000411E88416B21615C0029059A00D0024647
:10482000002A00D0DDE07034DDE0AC4804F04CFD3F
:1048300025B0F0BD1030C91E01293FD8209C002CA6
:104840003CD4A3498C4239DA219D002D36D48D42C7
:1048500034DA229E002E31D48E422FDA0768002FE0
:104860002CD48F422ADA00F085FC204629463246B5
:104870003B46FDF7BBF800A8E0C007AD6021964AB3
:1048800013E08E4804F020FD25B0F0BD894804F007
:104890001BFD25B0F0BDA0B200210122FCF7BEFD3A
:1048A000002879D007AD60216AA22846234604F08B
:1048B0006FFE284604F008FD25B0F0BD854804F0E1
:1048C00003FD25B0F0BDC046BFA0000037A2000028
:1048D000300020206920002121546A200021215429
:1048E00000F00EFE6920235C07AC60217C4A204664
:1048F00004F04EFE204604F0E7FC25B0F0BD00F0C9
:1049000039FC6A4804F0E0FC25B0F0BD45A004F095
:10491000DBFC25B0F0BDC0463000202090A0000098
:104920006807202086A20000EBA0000000002041C4
:1049300000F020FC57A004F0C7FC25B0F0BD03F048
:1049400087FA405D002800D01EE6CEE503F080FA2D
:10495000405D00282D4D16D1069F787F00284AD053
:1049600000F008FC6A200121215469202154686864
:1049700006CE7B6903F074FA5A4804F0A5FC00F0F7
:104980000BFB03F071FB6868686125B0F0BD574808
:1049900004F09AFC25B0F0BD32A004F095FC25B0DF
:1049A000F0BD216F3846FBF739FD04F031FD0121E0
:1049B000C90788434349FBF763FF0546401E2A4663
:1049C000824100203946FCF77FFB10494868486166
:1049D000002D00D189E507AC60213B4A20463346D3
:1049E00086E7069C143421683846FCF76DFB68683E
:1049F000686125B0F0BD3C4804F066FC25B0F0BD10
:104A000075A3000008A3000041420F0030002020E1
:104A10007EA1000041434B2C494D555A45524F0D44
:104A20000A0000004552522C494D555F4E4F545FCD
:104A300052454144590D0A0041434B2C5A45524FAF
:104A40000D0A000041434B2C53544F500D0A0000F7
:104A500081ECFFFF41434B2C424545502C25640D12
:104A60000A0000004552522C42555A5A45525F42A4
:104A70005553590D0A0000004552522C42454550ED
:104A80005F52414E47452C31302C353030300D0AC5
:104A9000000000004552522C4C494E455F52414E99
:104AA00047450D0A000000005AA20000B2A0000015
:104AB000EAA2000069A1000097A200002EA1000058
:104AC000BAA20000CDCC4C3DA9A2000045A2000036
:104AD000A186010042A10000D1A2000055A1000062
:104AE00083A30000CEA000006FA2000015A100006B
:104AF000F0B589B0062008900021FEF7DBF9A2206E
:104B000000F0F8FBFF25284600F0F4FB079028464C
:104B100000F0F0FB0690284600F0ECFB05902846DC
:104B200000F0E8FB0490284600F0E4FB02902846E1
:104B300000F0E0FB0090284600F0DCFB03902846E4
:104B400000F0D8FB0190284600F0D4FB0746284629
:104B500000F0D0FB0446284600F0CCFB0646284671
:104B600000F0C8FB054601210898FEF7A3F900985C
:104B70000002029940180C49488404980002059AE2
:104B80008018088406980002079A8018C8832802B3
:104B9000801988832002C019488301980002039A73
:104BA0008018088309B0F0BDE0012020F0B5B7B04F
:104BB00004ACF64820817420F54E305C20736C20E4
:104BC000305C60736820305AE081002008906A20D1
:104BD000305A20827520305CC11E4A424A41E2723E
:104BE000FE210140881E41424141A1724B20C0007C
:104BF0000590E8484068049003CE09900A917068D7
:104C00000290083E374610378ECF356A706A03909F
:104C1000B06A019002980B900C910D920E930F9731
:104C200010950398119001981290F06A02903746FF
:104C30003037AECF706C0390B06C01900298139037
:104C40001491159216931795189703981990019837
:104C50001A9033464C330FCB0293F56D376E736E5B
:104C600003931BAB07C3306F1E9002981FA9A1C10D
:104C70000398229002F098FD2E21405C032801D079
:104C8000706E01E07D20C000239020468030C14935
:104C90002C314C22FBF766FA204603F0B1FC37B00A
:104CA000F0BDC046F0B5B7B0039004ADF848288118
:104CB0007420F84F385C28736C20385C6873682067
:104CC000385AE881002008906A20385A28827520D6
:104CD000385CC11E4A424A41EA72FE210140881EE8
:104CE00041424141A9724B20C0000590EA4840680A
:104CF000049003CF09900A9178680190083F3E46DE
:104D000010365ECE786A0290B86A009001980B90D7
:104D10000C910D920E930F9410960298119000989A
:104D20001290F86A01903E4630365ECE786C029062
:104D3000B86C0090019813901491159216931794E3
:104D400018960298199000981A903B464C330FCB56
:104D50000193FC6D3E6E7B6E02931BAB07C3386FF5
:104D60001E9001981FA951C10298229002F01CFDCB
:104D70002E21405C032801D0786E01E07D20C00028
:104D8000239028468030C4492C314C22FBF7EAF9A5
:104D90002846039903F0DAFC37B0F0BDF0B5B7B0A0
:104DA00004ACBB4820817420BA4E305C20736C2068
:104DB000305C60736820305AE081002008906A20DF
:104DC000305A20827520305CC11E4A424A41E2724C
:104DD000FE210140881E41424141A1724B20C0008A
:104DE0000590AD484068049003CE09900A91706820
:104DF0000290083E374610378ECF356A706A0390AE
:104E0000B06A019002980B900C910D920E930F973F
:104E100010950398119001981290F06A029037460D
:104E20003037AECF706C0390B06C01900298139045
:104E30001491159216931795189703981990019845
:104E40001A9033464C330FCB0293F56D376E736E69
:104E500003931BAB07C3306F1E9002981FA9A1C11B
:104E60000398229002F0A0FC2E21405C032801D080
:104E7000706E01E07D20C000239020468030EA491A
:104E80002C314C22FBF76EF9204603F08DFC37B035
:104E9000F0BDC046F0B5B7B004AC7D4820817420A9
:104EA000DD4E305C20736C20305C60736820305ABB
:104EB000E081002008906A20305A20827520305C02
:104EC000C11E4A424A41E272FE210140881E41420F
:104ED0004141A1724B20C0000590D3484068049026
:104EE00003CE09900A9170680290083E3746103749
:104EF0008ECF356A706A0390B06A019002980B9069
:104F00000C910D920E930F971095039811900198A4
:104F10001290F06A029037463037AECF706C039033
:104F2000B06C0190029813901491159216931795F6
:104F300018970398199001981A9033464C330FCB69
:104F40000293F56D376E736E03931BAB07C3306F1F
:104F50001E9002981FA9A1C10398229002F024FC80
:104F60002E21405C032801D0706E01E07D20C0003E
:104F7000239020468030AC492C314C22FBF7F2F8CC
:104F8000204603F0E1FC37B0F0BDC0462602000029
:104F90005402202030002020F0B5B7B004AC3C48CB
:104FA000208174209C4E305C20736C20305C6073D8
:104FB0006820305AE081002008906A20305A208210
:104FC0007520305CC11E4A424A41E272FE21014016
:104FD000881E41424141A1724B20C0000590924879
:104FE0004068049003CE09900A9170680290083ED0
:104FF000374610378ECF356A706A0390B06A0190D9
:1050000002980B900C910D920E930F9710950398A8
:10501000119001981290F06A029037463037AECF67
:10502000706C0390B06C01900298139014911592DB
:105030001693179518970398199001981A9033466C
:105040004C330FCB0293F56D376E736E03931BAB2E
:1050500007C3306F1E9002981FA9A1C10398229028
:1050600002F0A2FB2E21405C032801D0706E01E00B
:105070007D20C0002390204680306B492C314C228B
:10508000FBF770F8204603F05FFE37B0F0BDC04676
:10509000260200005402202030002020F0B585B008
:1050A0001E46049203916421642B00DB0E466322AA
:1050B000D243964200DC1646F217334653409A1A02
:1050C00080002A4B18582A4BC7587A431046FBF7E2
:1050D00059FC04460025002E2AD130460A99002E9C
:1050E0002AD0002E019000DD0120029109780029CC
:1050F0000ED0C0B288420BD0002503982946FEF797
:10510000F9FF04982946FEF7F5FF022004F010FA93
:105110003C1B012E1DDB03983946FEF7EBFF04987C
:105120002146FEF7E7FF01250298057005B0F0BDA6
:10513000E8430A99002ED4D103980C462946FEF77D
:10514000D9FF04982946FEF7D5FF2046057005B023
:10515000F0BD04983946FEF7CDFF03982146FEF7CF
:10516000C9FF019D0298057005B0F0BD3C9F00008D
:105170000818000070B502F06BFE2521405C002885
:1051800002D0002002F064FF6B25F14E002474551C
:1051900002F07AF86E2174546C21745240693067C1
:1051A0002046FCF757F97520345434607460B460BD
:1051B000F46034617461B4611B482C304C21FAF7FF
:1051C000EAFFE44800F044FB02F01EFE02F05CF847
:1051D0006921725C002A08D0417F002905D0032193
:1051E0006A23F35C002B05D111E001216A23F35CF3
:1051F000002B0CD0735D002B09D0002A07D0407F14
:10520000002804D0091DD34800F0CEFB70BDD14862
:1052100000F0CAFB70BDC04654022020024801685D
:10522000491C01607047C0463000202080B5054809
:105230000068C0B2022804D12D480068002800D0C0
:10524000804780BD2010864080B505480068C0B208
:10525000022804D126484068002800D0804780BD3D
:105260002030864080B505480068C0B2022804D1CD
:105270001F488068002800D0804780BD205008402B
:1052800080B505480068C0B2022804D1184880697A
:10529000002800D0804780BD2010874080B5054899
:1052A0000068C0B2022804D11148C068002800D0AC
:1052B000804780BD2090864080B505480068C0B218
:1052C000022804D10A480069002800D0804780BD28
:1052D00020B0864080B505480068C0B2022804D1DD
:1052E00003484069002800D0804780BD2010094055
:1052F00018022020F0B589B00446634908780F46AB
:10530000E109FDF7D7FD2125002628463146FDF7A6
:10531000D1FD012101912846FDF7CCFD7878FDF7FC
:10532000B9FD079038786106C90FFDF7C3FD28461F
:10533000314637460896FDF7BDFD2846019E3146A9
:10534000FDF7B8FD50484078FDF7A4FD06904E48A3
:105350000078A106C90FFDF7ADFD28463946FDF7D7
:10536000A9FD284631463746FDF7A4FD464E707824
:10537000FDF790FD05903078E106C90FFDF79AFD25
:105380002846089E3146FDF795FD28463946FDF72B
:1053900091FD3D484078FDF77DFD04903A48007846
:1053A0002107C90FFDF786FD28463146FDF782FD2E
:1053B00028463E463946FDF77DFD33484078FDF7E7
:1053C00069FD0390304800786107C90FFDF772FD51
:1053D0002846089F3946FDF76DFD28463146FDF702
:1053E00069FD29484078FDF755FD02902648007870
:1053F000A107C90FFDF75EFD28463946FDF75AFDA6
:1054000028463146FDF756FD1F484078FDF742FD1E
:10541000074634401C4800782146FDF74BFD2846DE
:105420000899FDF747FD28463146FDF743FD0699EB
:10543000481E81410A460799481E8141480080184C
:105440008000059A511E8A4151004018049A511E4D
:105450008A4180188000039A511E8A4151004018E9
:10546000029A511E8A4180188000791E8F4179006E
:10547000441805484078FDF70DFD411E884120186D
:10548000C0B209B0F0BDC0462400202080B5054858
:105490000068C0B20B2804D118480068002800D06A
:1054A000804780BD2090104080B505480068C0B29C
:1054B0000B2804D111484068002800D0804780BDE7
:1054C0002010104080B505480068C0B20B2804D1F8
:1054D0000A488068002800D0804780BD20301040F6
:1054E00080B505480068C0B20B2804D10348C068E5
:1054F000002800D0804780BD20105040340220207A
:1055000010B501F0C1FE6921114B5A5C002A08D088
:10551000417F002905D003216A241C5D002C05D1A0
:1055200012E001216A241C5D002C0DD06B241B5D50
:10553000002B09D0002A07D0407F002804D0091D85
:10554000044800F031FA10BD024800F02DFA10BDF9
:105550005402202068072020F0B581B0614D402022
:10556000285C002800D1B4E04120285C002800D14C
:10557000AFE02A8A288C811A08461F307D23DE007E
:1055800000243F28204623460AD32888801A7043E7
:10559000FBF718FAC1178843B04200D33046012305
:1055A00028866A8A688C811A08461F303F28204660
:1055B00027460AD31F466888801A7043FBF702FA11
:1055C000C1178843B04200D330466886AA8AA88CA7
:1055D000811A08461F303F28204623460AD3A88850
:1055E000801A7043FBF7EEF9C1178843B04200D32D
:1055F00030463B46A886EA8AE88C811A08461F3066
:105600003F28204627460AD31F46E888801A704361
:10561000FBF7D8F9C1178843B04200D33046E8867B
:105620002A8B288D811A08461F303F2820462346A2
:105630000AD32889801A7043FBF7C4F9C11788433D
:10564000B04200D330463B4628876A8B688D811A6A
:1056500008461F303F28204627460AD31F46688940
:10566000801A7043FBF7AEF9C1178843B04200D3EC
:1056700030466887AA8BA88D811A08461F303F28BC
:10568000204623460AD3A889801A7043FBF79AF96B
:10569000C1178843B04200D330463B46A887EA8B07
:1056A000E88D811A08461F303F2820460CD31F463C
:1056B000E889801A7043FBF785F90446C0178443D4
:1056C000B44200D334463846EC874221685401B0D6
:1056D000F0BD002028636863A863E8634221685432
:1056E00001B0F0BDF80220202C48704780B584B08E
:1056F0002A4800210160416081606420039002918A
:1057000003480190012001A9FDF7F0F904B080BD24
:1057100001050000B0B50D242046FDF7AFF9204685
:10572000FDF7ACF905462046FDF7A8F92D182046EF
:10573000FDF7A4F92D182046FDF7A0F92D182046F5
:10574000FDF79CF92D182046FDF798F92D182046F5
:10575000FDF794F92D182046FDF790F92818C00898
:105760000E4D28800E4941430E4808180E49FBF79C
:1057700009F917214143481C03242146FBF702F98C
:10578000297A002906D069684C430019801C8008DA
:105790006860B0BD012129726860B0BDCC022020D4
:1057A000E40C0000FF070000FF0F0000B0B5002868
:1057B00020D0002A1ED003291CD8C046794409797C
:1057C00049008F4401030507343004E04C3002E007
:1057D000643000E07C30014638CA38C138CA38C16C
:1057E000C168054A1140C160016911400161416908
:1057F00011404161B0BDC046FFFFFF7FB0B500283A
:105800001AD004462120C1002046FAF7C4FC90209B
:105810000A492150A1670A4820660A49A1640A4A38
:1058200041231B063F252D06A562E3622263074A3A
:10583000A2616060A160E060B0BDC0460000C842E7
:1058400000001644000016430000A0408FC2F53C43
:10585000002825D0B42200218150C8228150DC22AA
:105860008150F02281500246B43211825160916021
:10587000D1600246C83251609160D1601182024607
:10588000DC3251609160D16011820246F032516089
:105890009160D16011824122920081544162C161C4
:1058A00070470000F0B581B0002873D00D46044663
:1058B000B420002626502046B4300682466086601A
:1058C000C66035492846FAF7BFFF0028009629D15F
:1058D000324E314F28463146FAF74FFD05463946DC
:1058E000FAF7B2FF00281DD128463146FAF745FDE8
:1058F00005463946FAF7A8FF002813D12846314655
:10590000FAF73BFD05463946FAF79EFF002809D114
:1059100028463146FAF731FD05463946FAF7BEFF0B
:105920000028D7D11E492846FAF7AAFF002829D116
:105930001C4E1B4F28463146FAF71FFD05463946D7
:10594000FAF79EFF00281DD128463146FAF715FDCB
:1059500005463946FAF794FF002813D12846314608
:10596000FAF70BFD05463946FAF78AFF002809D1F8
:1059700028463146FAF701FD05463946FAF772FF27
:105980000028D7D141208000012121540098E061F6
:105990002562606201B0F0BD000034430000B4C372
:1059A000000034C30000B44300281BD0072211407C
:1059B000027801708A43D1B2520714D48A0722D4E4
:1059C000C9070FD0DC2100224250F021425001468D
:1059D000DC310A824A608A60CA60F03042608260CC
:1059E000C26002827047B422002383504122920099
:1059F00083544362C3610246B4321382536093609E
:105A0000D3608A07DCD5C822002383500246C832FF
:105A1000138253609360D360C907E3D0D2E710B517
:105A2000002818D0002916D0002A14D00B6894241E
:105A3000035103469433CC68DC608C689C604968F1
:105A400059601168A423C150A43051684160916825
:105A50008160D168C16010BDF0B597B01092002888
:105A600001D100F087FE0E46002901D100F082FE30
:105A70001D46002B01D100F07DFE41218900044626
:105A8000471894300F90284648300C904C212846F7
:105A9000FAF781FB20780E90400716941595119621
:105AA00013D47268B420002323502046B4300382FC
:105AB00043608360C3606362E3610D933B700120C8
:105AC000C007A56885433768BDE3A06C0549084059
:105AD000A4680C4014902146FAF7C4FE002804D1B3
