:020000040800F2
:10000000580C002089010008331C000869180008FA
:10001000311C0008E702000835230008000000003A
:10002000000000000000000000000000EF1E0008BB
:10003000E902000800000000ED1E0008F11E0008A3
:10004000A3010008A3010008A3010008A301000800
:10005000A3010008A3010008A3010008A3010008F0
:10006000A3010008A3010008A3010008A3010008E0
:10007000A3010008A3010008A3010008A3010008D0
:10008000A3010008A3010008A3010008A3010008C0
:10009000A3010008A3010008A3010008A3010008B0
:1000A000A3010008A3010008A3010008A3010008A0
:1000B000A3010008711F00087D1F0008A3010008AC
:1000C000A3010008A3010008A3010008A301000880
:1000D000A30100081D230008A3010008292300082C
:1000E000EB020008A3010008A301000800F002F8D9
:1000F00000F03AF80AA090E8000C82448344AAF188
:100100000107DA4501D100F02FF8AFF2090EBAE885
:100110000F0013F0010F18BFFB1A43F0010318473B
:100120007C2D00009C2D0000103A24BF78C878C1B7
:10013000FAD8520724BF30C830C144BF04680C60ED
:10014000704700000023002400250026103A28BF35
:1001500078C1FBD8520728BF30C148BF0B60704739
:100160001FB51FBD10B510BD00F058F81146FFF7C0
:10017000F7FF02F01BF900F076F803B4FFF7F2FF87
:1001800003BC00F07DF8000009488047094800479B
:10019000FEE7FEE7FEE7FEE7FEE7FEE7FEE7FEE737
:1001A000FEE7FEE704480549054A064B7047000094
:1001B0006D1F0008ED00000858060020580C0020B4
:1001C00058080020580800204FF0000200B51346E0
:1001D00094469646203922BFA0E80C50A0E80C5067
:1001E000B1F12001BFF4F7AF090728BFA0E80C5018
:1001F00048BF0CC05DF804EB890028BF40F8042B11
:1002000008BF704748BF20F8022B11F0804F18BF7D
:1002100000F8012B7047704770477047754600F033
:100220002BF8AE4605006946534620F00700854688
:1002300018B020B5FFF7B6FFBDE820404FF000062C
:100240004FF000074FF000084FF0000B21F00701BE
:10025000AC46ACE8C009ACE8C009ACE8C009ACE801
:10026000C0098D46704710B50446AFF300802046A4
:10027000BDE81040FFF781BF00487047F40500203B
:1002800001491820ABBEFEE72600020070470000BF
:1002900070B5044600688168C943C90717D18168F1
:1002A00021F00101816000F0D3FA05460AE000BFA9
:1002B00000F0CEFA401B022804D920688068C043B1
:1002C000C00706D020688068C043C007F0D0002077
:1002D00070BDA06A40F01000A062E06A40F001002A
:1002E000E062012070BDFEE770474FF4805000F0DF
:1002F000ADB972B6FEE70000F8B50024009490F89E
:1003000024202546012A12D0012280F824204A68A0
:100310001F23072A0DD20668776B521E02EB82025A
:1003200093409F430B6893401F43776319E002207B
:10033000F8BD06680D2A0AD2376BD21F02EB820283
:1003400093409F430B6893401F43376309E0F76A6C
:100350000D3A02EB820293409F430B6893401F4388
:10036000F7620A68072306680A2A0AD3F7680A3A76
:1003700002EB420293409F438B6893401F43F76018
:1003800008E0376902EB420293409F438B68934039
:100390001F4337610A68102A01D0112A20D1124B5D
:1003A00002689A4217D193681B0219D4936843F4E8
:1003B000000393600968102912D10C490C4A09689E
:1003C000B1FBF2F101EB8101490000E0491E00910F
:1003D0000029FBD104E0816A41F0200181620124FF
:1003E00080F824502046F8BD002401400C00002075
:1003F00040420F002DE9F0414FF0000704003D4658
:100400007ED0A06A002628B9E66284F824602046DF
:1004100000F07EF82046FFF73BFFA16AC90600D432
:1004200020B1A06A40F01000A06269E0A16A21F446
:10043000885141F00201A1626268E169237B0A43AD
:1004400047EA43010A43A1684FF48077B94209D0D3
:10045000012907D05FF0000194F814C0BCF1010F2E
:1004600002D00AE03946F7E7F3B1A36A43F020036C
:10047000A362E36A43F00103E3622368D3F804C094
:100480002CF4694C4CEA010CC3F804C021688B6859
:10049000DFF870C003EA0C0313438B60A168B94214
:1004A0000BD0012909D00CE0DFF85CC0A3690CEB8C
:1004B00043330B4343F40061DFE7218A0D05A5F5C3
:1004C00080152168CB6A23F470032B43CB6221682B
:1004D00089680E4B1940914208D1E662A16A21F069
:1004E000020141F00101A162BDE8F081A06A20F0A3
:1004F000020040F01000A062E06A40F00100E062FB
:100500000120F1E7FDF7E1FF00E0FFFFFE0E1FFF16
:1005100000B585B00021009101910291039100681E
:100520000E49884218D10E48816941F48061816189
:10053000816901F480610491816941F00801816160
:100540008069694600F008000490012000900320B3
:100550000190044800F086F805B000BD0028014075
:1005600000100240000C014010B590F8211000224C
:10057000022905D00421816380F82020012010BDCC
:1005800001680B6823F00E030B6001680B6823F011
:1005900001030B6090F84030C46B012101FA03F3B2
:1005A000636080F8211080F82020104610BD000004
:1005B00010B590F821100024022903D00421816392
:1005C00001243DE001680A6822F00E020A60016819
:1005D0000A6822F001020A601A4A0168914201D1B8
:1005E000012121E0174A1432914201D110211BE070
:1005F000144A2832914201D1891515E0114A3C3242
:10060000914201D189140FE00E4A5032914202D139
:100610004FF4803108E00B4A6432914202D14FF42A
:10062000801101E04FF08071064A083A51600121C3
:1006300080F82110002180F82010416B01B188471B
:10064000204610BD0800024070470000044910B564
:100650000A68024202D00860FFF7F6FF10BD0000F2
:10066000140401402DE9F84FDFF8B8910024A9F1F6
:10067000040B23460F2709F1040AABF1040EC9E06D
:100680000125A5402A40AA427DD1674ED1F804C079
:10069000ACEB0608B44532D014DCBCF1030F3AD001
:1006A00009DCBCF1000F2AD0BCF1010F1CD0BCF159
:1006B000020F31D11DE0BCF1110F17D0BCF1120FA8
:1006C0002AD119E0B8F5881F19D006DCB8F5803FAB
:1006D00015D0B8F5801F1FD111E0B8F5001F0ED05E
:1006E000B8F5041F18D10AE0CB6815E0CB681B1DD4
:1006F00012E0CB6808330FE0CB680C330CE08B685A
:100700002BB1012B4FF0080303D0456104E0042313
:1007100002E0056100E00023FF2A01D8064601E05F
:1007200000F104064FEA840501D9A5F12005D6F8A9
:10073000008007FA05FC28EA0C0803FA05F548EAE8
:100740000508C6F800804D68ED0062D5374DAE69EA
:1007500046F00106AE61AD6924F0030605F001051F
:100760000095334D06EB050CDCF80850A607360F54
:1007700007FA06F825EA0805DFF8B880404503D1F6
:100780004FF0000817E044E0DFF8AC80404502D1AC
:100790004FF001080FE0DFF8A480404502D14FF090
:1007A000020808E0DFF89880404502D14FF00308C6
:1007B00001E04FF0040808FA06F848EA0508CCF80A
:1007C00008804D68D9F80060ED024D4601D516430A
:1007D00000E096432E604D68DAF80060AD025546A1
:1007E00001D5164300E096432E604D68DBF80060AB
:1007F000AD035D4601D5164300E096432E604D687B
:10080000DEF80060ED03754601D5164300E096431F
:100810002E60641C0D682A46E5407FF431AFBDE8C8
:10082000F88F000008040140000011100010024081
:100830000000014000080140000C01400010014090
:10084000001401400AB1016170470904FBE7000090
:10085000014880687047000000000020024881685D
:10086000027811448160704700000020074810B5ED
:10087000016841F010010160032000F079F80020C8
:1008800000F006F800F024F8002010BD002002401F
:1008900070B50D4D04464FF47A712878B1FBF0F035
:1008A0000A490968B1FBF0F000F056FB48B9102C7A
:1008B00007D200222146501E00F03AF800206C605A
:1008C00070BD012070BD0000000000200C00002061
:1008D0000E4808B5816941F001018161816901F02B
:1008E00001010091C16941F08051C161C06900F00E
:1008F00080500090052000F03BF80548416821F049
:10090000E06141F08061416008BD000000100240DC
:1009100000000140002809DB00F01F020121914086
:100920004009800000F1E020C0F80011704700008D
:10093000F0B40E4B1B680C46C3F30223C3F107054A
:10094000042D00D90425191D072901D2002300E038
:10095000DB1E012606FA05F1491E214099409E4002
:10096000761E16403143F0BC01F0E5BC0CED00E012
:10097000064900F0070208684FF6FF03184040EAF6
:100980000220034A10430860704700000CED00E0AD
:100990000000FA052DE9F84305460078354CC007FC
:1009A00054D0E0690026C00008D4E06940F08050CF
:1009B000E061E069012600F0805000902E48016857
:1009C000C90512D40168804641F480710160FFF7C7
:1009D0003FFF074605E000BFFFF73AFFC01B642852
:1009E00023D8D8F80000C005F6D5206A10F440706E
:1009F00021D0A98801F4407181421CD0206A1F498E
:100A0000012220F440700A6000220A602062C007C0
:100A100011D0FFF71DFF074641F2883808E000BFFC
:100A2000FFF716FFC11B414502D90320BDE8F8833B
:100A3000206A8007F4D5206A696820F44070084372
:100A400020621EB1E06920F08050E06128788007C4
:100A500005D56068A96820F44040084360602878A4
:100A6000C00605D56068E96820F48000084360602E
:100A70000020DBE7001002400070004040044242CA
:100A80002DE9F0470F46050061D0434E306800F075
:100A90000700B84209D2306820F0070038433060C0
:100AA000306800F00700B84251D128683B4C8107FC
:100AB00012D5400703D5606840F4E0606060287894
:100AC000000703D5606840F4605060606068A96802
:100AD00020F0F000084360602878C00728D06868DC
:100AE000012810D02168022810D0890700292EDAA9
:100AF000616821F0030101436160FFF7A9FE8046B0
:100B000041F288390DE021688903EFE78901EDE7BB
:100B1000FFF79EFEA0EB0801494502D90320BDE87E
:100B2000F0876068696800F00C00B0EB810FEFD1CE
:100B3000306800F00700B8420BD9306820F0070099
:100B400038433060306800F00700B84201D001201F
:100B5000E5E72878400705D56068E96820F4E0609B
:100B6000084360602878000706D56068296920F48A
:100B7000605040EAC100606000F038F86168084ADF
:100B8000C1F30311515CC84006490860064800687B
:100B9000FFF77EFE0020C2E7002002400010024066
:100BA0001E2400080C000020040000200448054911
:100BB00000684968044AC1F30221515CC84070478B
:100BC0000C000020001002402E24000804480549B3
:100BD00000684968044AC1F3C221515CC8407047AB
:100BE0000C000020001002402E2400080E4A51681C
:100BF0000E4801F00C03042B11D0082B0FD10C4828
:100C0000C1F38343C903C05C0AD55168084AC1F3E4
:100C10004041921E515C054A5043B0FBF1F07047D1
:100C200004494843704700000010024000127A0057
:100C30000E24000800093D002DE9F84F040070D093
:100C40002078C04DC00749D06868C0F381000128F2
:100C500007D06868C0F38100022809D16868C00322
:100C600006D52868800339D560680028E7D035E0CC
:100C70006068B0F5803F0BD010B1B0F5A02F11D057
:100C8000286820F480302860286820F4802002E062
:100C9000286840F480302860606890B1FFF7D8FD84
:100CA00006460AE0286840F480202860F0E700BF8C
:100CB000FFF7CEFD801B642873D828688003F7D522
:100CC0000CE0FFF7C5FD064605E000BFFFF7C0FDDD
:100CD000801B6428F0D828688003F7D420789A4EC7
:100CE00080074FF001094FF0000839D5686810F00F
:100CF0000C0F07D06868C0F38100022809D168682A
:100D0000C00306D42868800714D52069012808D1BB
:100D100010E02069B0B1C6F80090FFF799FD0746D2
:100D200005E00AE1FFF794FDC01B0228C4D828683B
:100D30008007F7D52868616920F0F80040EAC10013
:100D400028600DE0C6F80080FFF782FD074604E04A
:100D5000FFF77EFDC01B022823D828688007F7D440
:100D6000207800072CD57948A169D9B1C0F8009046
:100D7000FFF76EFD074604E0FFF76AFDC01B02287F
:100D80000FD8686A8007F7D571484FF4FA510068A8
:100D9000B0FBF1F0009000BF0098411E0091FAD224
:100DA0000EE080E0C0F80080FFF752FD074604E047
:100DB000FFF74EFDC01B022875D8686A8007F7D47C
:100DC0002078400760D5E8690027C00008D4E869AA
:100DD00040F08050E861E869012700F08050009001
:100DE0005C480168C90513D40168834641F48071E9
:100DF0000160FFF72DFD824606E000BFFFF728FDEA
:100E0000A0EB0A0064284ED8DBF80000C005F5D539
:100E1000E06801280AD008B1052813D0286A20F01C
:100E200001002862286A20F0040002E0286A40F0ED
:100E300001002862E06841F2883B98B1FFF708FDA5
:100E400082460BE0286A40F004002862EEE700BF0B
:100E5000FFF7FEFCA0EB0A0159455AD8286A800723
:100E6000F6D50CE0FFF7F4FC824605E0FFF7F0FC56
:100E7000A0EB0A0159454CD8286A8007F6D41FB167
:100E8000E86920F08050E861E06988B36968C1F3DF
:100E90008101022944D00228C6F8608004D0FFF7FF
:100EA000D7FC044638E034E0FFF7D2FC074604E004
:100EB000FFF7CEFCC01B02282BD828688001F7D48E
:100EC000206AB0F5803F05D16868A16820F4003041
:100ED00008436860D4E908010843696821F4741183
:100EE00008436860C6F86090FFF7B2FC044606E06D
:100EF00025E000BFFFF7ACFC001B022809D82868DA
:100F00008001F7D51BE000BFFFF7A2FC001B022801
:100F100002D90320BDE8F88F28688001F4D40EE0E0
:100F20000128F7D06868226A00F48031914204D128
:100F3000616A00F47010884201D00120EAE70020C5
:100F4000E8E70000001002400000424280044242F4
:100F50000C0000200070004010B5401EB0F1807FF2
:100F600001D3012010BD4FF0E02460610F21601714
:100F700001F0E1F90020A06107202061002010BDF0
:100F80007047704710B590F83C20012A22D001220A
:100F900080F83C20CA688C6822F4407222434C6876
:100FA00022F4806222430C6822F4006222430C691E
:100FB00022F4805222434C6922F400522243C96930
:100FC000002322F480420A4301684A6480F83C30DE
:100FD000002010BD022010BD70B590F83C20012A01
:100FE00026D0012480F83C40022280F83D2003688E
:100FF0005A689D6822F070060A6832435A600D4BA9
:1010000002689A4208D0B2F1804F05D00A4B9A424A
:1010100002D00A4B9A4204D1496825F08003194353
:10102000916080F83D40002180F83C10084670BD7A
:10103000022070BD002C0140000400400008004068
:101040002DE9F0410D46040003D094F83D0018B19D
:1010500008E00120BDE8F081002084F83C00204633
:1010600000F040F8022084F83D002068816844F2D6
:10107000070291438160211D206800F085FF2268EE
:1010800090689169166A2B68AF69034340F2033098
:10109000814341EA0721A868EF6908434FF6FC4104
:1010A0008843E96840EA0720014328692F6A000164
:1010B00040EA0730084369686D6926F0220646EA6F
:1010C0000515294393602268906154F8460B01622C
:1010D000012004F81F09E0752076E0762077A075DE
:1010E0000020B7E700B585B0002100910191029181
:1010F0000391224B02682248C0219A421BD1C26947
:1011000042F00202C261C26902F0020204928269E4
:1011100042F0040282618069009100F004000490B2
:1011200069461848FFF79EFA002201211D20FFF7AB
:10113000FFFB1D201DE0144B9A421CD1C26942F0F6
:101140000402C261C26902F004020492826942F0A0
:10115000080282618069009100F0080004906946ED
:101160000A48FFF77FFA002201211E20FFF7E0FB6B
:101170001E20FFF7CFFB05B000BD000000040040BB
:10118000001002400008014000080040000C01402F
:1011900070472DE9F04104460068C66805694FF0C4
:1011A0000007A90713D5B10711D5F91E0161012068
:1011B0002077206880698007204602D0FFF7E8FF8B
:1011C00004E000F0A5F8204600F04AF92777680708
:1011D00016D5700714D521686FF00400086102204D
:1011E00020772068806910F4407F204602D0FFF706
:1011F000CFFF04E000F08CF8204600F031F92777AB
:10120000280715D5300713D521686FF0080008614D
:10121000042020772068C0698007204602D0FFF7AD
:10122000B7FF04E000F074F8204600F019F92777C2
:10123000E80616D5F00614D521686FF01000086195
:10124000082020772068C06910F4407F204602D033
:10125000FFF79EFF04E000F05BF8204600F000F985
:101260002777E80708D0F00706D021686FF0010063
:101270000861204600F0F5F8280608D5300606D5A6
:1012800021686FF0800008612046FFF779FE68064C
:1012900008D5700606D521686FF040000861204629
:1012A00000F0E0F8A8060AD5B00608D521686FF06E
:1012B000200008612046BDE8F041FFF762BEBDE8AE
:1012C000F081000000B585B00021009101910291EC
:1012D000039100680B49884212D10B48816941F0A3
:1012E000040181618069694600F0040004904FF4B4
:1012F000106000900220019003900448FFF7B2F9BB
:1013000005B000BD002C0140001002400008014063
:10131000704770B5044690F83C0000260D46012841
:101320000FD0012084F83C006AB1042A1DD0082A9D
:101330002FD00C2A3FD00126002084F83C003046F4
:1013400070BD022070BD206800F05AFE20688169DF
:1013500041F0080181612068816921F00401816107
:10136000206881692A69114311E0206800F070FE4D
:101370002068816941F4006181612068816921F4FC
:1013800080618161206881692A6941EA0221816165
:10139000D2E7206800F088FE2068C16941F00801AA
:1013A000C1612068C16921F00401C1612068C1697F
:1013B0002A69114311E0206800F0A2FE2068C1698B
:1013C00041F40061C1612068C16921F48061C1619B
:1013D0002068C1692A6941EA0221C161ACE710B500
:1013E000040003D094F83D0010B107E0012010BDC7
:1013F000002084F83C00204600F01EF8022084F80B
:101400003D00211D206800F0BFFD012084F846004A
:1014100084F83E0084F83F0084F8400084F84100DE
:1014200084F8420084F8430084F8440084F84500BE
:1014300084F83D00002010BD08B5006806498842C8
:1014400008D10648816941F400618161806900F436
:101450000060009008BD0000002C01400010024018
:10146000704770477047704770470000F8B50168D3
:1014700004460868CA684B6910F00F0F4FF000056A
:1014800059D003F0010602F49077374365D0C107C5
:1014900005D0D10503D5616C41F0010161644107BC
:1014A00005D5D90703D0616C41F002016164810761
:1014B00005D5D90703D0616C41F0040161640107CF
:1014C00007D502F02001314303D0616C41F00801DF
:1014D0006164616C00293AD0800604D5900602D57B
:1014E000204600F05EFE20684069616CC0F3801009
:1014F000090700D460B3204600F02CFE2068406944
:10150000400621D52068143050E8001F21F040012A
:1015100040E80012002AF5D1E06BA8B16D494163A3
:10152000E06BFFF745F8002811D0E06B416B01B08C
:10153000BDE8F040084783060FD593060DD5204639
:10154000BDE8F84000F02DBE2046FFF78DFFF8BD46
:101550002046FFF789FF6564F8BD266B2023012E26
:101560007CD1C6067AD5D60678D50868486800903A
:1015700048694FF00206400640D5E16B08684068B4
:101580000004000CE8D0A28D8242E5D9E08588698C
:1015900020282DD020680C3050E8001F21F48071E5
:1015A00040E80012002AF5D12068143050E8001FEE
:1015B00021F0010140E80012002AF5D12068143022
:1015C00050E8001F21F0400140E80012002AF5D148
:1015D00084F84230256320680C3050E8001F21F069
:1015E000100140E80012002AF5D1E06BFEF7BCFFC5
:1015F0006663A08DE18D401A81B22AE0A08DE18D55
:10160000401A81B2E08D0028A6D00029A4D022681B
:101610000C3252E8000F20F4907042E80007002FCF
:10162000F5D12068143050E8002F22F0010240E884
:101630000027002FF5D184F84230256320680C3054
:1016400050E8002F22F0100240E80023002BF5D1D3
:1016500066632046FFF707FFF8BDFFE705062BD5B9
:10166000150629D594F841002128F5D1A068B0F5D8
:10167000805F01D12069B0B1206A411C21622168DC
:1016800000784860E08C401E0004000CE084E3D148
:101690002068C16821F08001C1602068C16841F004
:1016A0004001C160D8E7206A0088C0F308004860A4
:1016B000206A801C2062E5E74006CDD55006CBD5D8
:1016C000CA68204622F04002CA6084F8413000F027
:1016D000CAF8C1E74521000870B5040004D094F8A9
:1016E0004100002510B106E0012070BD84F8405093
:1016F000204600F023F8242084F841002068C168C7
:1017000021F40051C160204600F0ACFD2068016961
:1017100021F4904101612068416921F02A01416171
:101720002068C16841F40051C1606564202084F8DC
:10173000410084F842006563002070BDF0B585B0BB
:101740000024009401940294039403683F4F022004
:101750003F4903223F4D4602BB4225D18B6943F4EA
:1017600080438B618B6903F4804304938B6943F05E
:1017700004038B618969039201F004010491010261
:10178000CDE9001069462846FEF76CFFCDE90064FC
:10179000694628460294FEF765FF002201212520B4
:1017A000FFF7C6F825204DE02B4FBB4221D1CB6976
:1017B00043F40033CB61CB6903F4003304938B69AA
:1017C00043F004038B618969039201F004010491E1
:1017D0000421CDE9001069462846FEF743FF0820A2
:1017E000CDE90004694628460294FEF73BFF05B0A8
:1017F000F0BD1A4DAB42FAD1CB6943F48023CB61E3
:10180000CB6903F4802304938B6943F008038B6155
:101810008969134D01F00801CDE90321CDE900608C
:1018200069462846FEF71EFFE814CDE90004694624
:1018300028460294FEF716FF002201212720FFF719
:1018400077F82720FFF766F8D1E70000003801405D
:1018500000100240000801400044004000480040E1
:10186000000C014070477047FEE700004106074842
:10187000826942F0010282610548426822F0E0621A
:10188000426042680A434260704700000010024014
:10189000000001403EB500241148009401940294D8
:1018A0000E498460016004730475012505614FF4DD
:1018B00060214460C161FEF79DFD08B1FEF719FD8E
:1018C0000820CDE90005694602940548FEF714FD9D
:1018D000002801D0FEF70DFD3EBD000000280140AC
:1018E000140000202DE9F04F85B000243F480094FB
:1018F000019402940394816941F01001816181692E
:1019000001F010010491816941F020018161816938
:1019100001F020010491816941F004018161816934
:1019200001F004010491816941F00801816180693D
:10193000DFF8BC9000F008004FF4604504900022EE
:1019400029464846FEF77EFFDFF8A8A04FF400477F
:10195000002239465046FEF775FFDFF89CB04FF481
:101960004E78002241465846FEF76CFF009502264D
:1019700001250396CDE9015469464846FEF772FEFB
:101980003020CDE90004694650460294FEF76AFE15
:101990004FF47040CDE90004694658460294FEF7C2
:1019A00061FE280300901548CDE9010469465046C0
:1019B000FEF758FE00970396CDE90154694650465C
:1019C000FEF750FECDF800800396CDE9015469463C
:1019D0005846FEF747FE002202212820FEF7A8FF06
:1019E0002820FEF797FF05B0BDE8F08F00100240F9
:1019F0000010014000080140000C014000001110DF
:101A000010B592B000240F941C2168461094FEF784
:101A1000DBFB202107A8FEF7D7FB24482249C0E9B9
:101A2000001441F61F41C0E9024180210461C0E970
:101A30000541FFF7D4FC08B1FEF75BFC0F940FA93A
:101A40001A481094FFF7C8FA08B1FEF752FC60205C
:101A5000CDE900040294039404940594002269469D
:101A600012480694FFF755FC08B1FEF742FC0C2221
:101A700069460E48FFF74DFC08B1FEF73AFC0794A3
:101A8000089409944FF400500A94CDE90B4007A93B
:101A900006480E94FFF776FA08B1FEF72AFC0348D1
:101AA000FFF710FC12B010BD002C014044000020D4
:101AB00010B58CB024216846FEF786FB002416483A
:101AC000099414490A94C0E900144FF6FF71C0E963
:101AD0000241046184610320CDE900040120CDE9C5
:101AE00002040494CDE90540079469460A48089425
:101AF000FFF7A6FA08B1FEF7FCFB099409A906480E
:101B00000A94FFF769FA002801D0FEF7F2FB0CB047
:101B100010BD0000000400408C00002010B58CB007
:101B200024216846FEF750FB002416480994144906
:101B30000A94C0E900144FF6FF71C0E90241046144
:101B400084610320CDE900040120CDE9020404945E
:101B5000CDE90540079469460A480894FFF770FAF2
:101B600008B1FEF7C6FB099409A906480A94FFF7D5
:101B700033FA002801D0FEF7BCFB0CB010BD00000A
:101B800000080040D40000200C4810B50A4901604C
:101B90004FF4E1314160002181600C22C160C0E955
:101BA00004128161C161FFF797FD002803D0BDE8F1
:101BB0001040FEF79EBB10BD003801401C01002004
:101BC0000C4810B50A4901604FF4E1314160002131
:101BD00081600C22C160C0E904128161C161FFF71C
:101BE0007BFD002803D0BDE81040FEF782BB10BD8E
:101BF00000440040640100200C4810B50A4901600F
:101C00004FF416514160002181600C22C160C0E98F
:101C100004128161C161FFF75FFD002803D0BDE8B8
:101C20001040FEF766BB10BD00480040AC0100202C
:101C3000FEE7FEE710B40021084B0A465FF0000003
:101C400003EBC004401CC0B262548028F8D3491C86
:101C5000C9B20829F2D310BC00F096B8F4010020F4
:101C600010B57F2816D83F2914D80723A3EBD1033A
:101C700001F00701C1F107040121A140064CDBB2CC
:101C800004EBC000002AC25CC9B201D00A4300E0E4
:101C90008A43C25410BD0000F401002010B5394C35
:101CA0000020C4F88C01642004F5C67400F064FBC5
:101CB000012020600021AE2000F0F4F80021D520A2
:101CC00000F0F0F80021502000F0ECF80021A820EE
:101CD00000F0E8F800213F2000F0E4F80021D320D4
:101CE00000F0E0F80021084600F0DCF80021402078
:101CF00000F0D8F800218D2000F0D4F80021142045
:101D000000F0D0F80021202000F0CCF800210220C3
:101D100000F0C8F80021A12000F0C4F80021C02084
:101D200000F0C0F80021DA2000F0BCF800211220F9
:101D300000F0B8F80021812000F0B4F80021EF2075
:101D400000F0B0F80021D92000F0ACF80021F1201B
:101D500000F0A8F80021DB2000F0A4F800213020DA
:101D600000F0A0F80021A42000F09CF80021A6209B
:101D700000F098F80021AF2000F094F8BDE8104082
:101D8000FFF758BF0080214270B5114E002400BFFC
:101D900004F1B000C0B2002100F084F80021084630
:101DA00000F080F80021102000F07CF85FF00005C2
:101DB00006EBC5000121005D00F074F86D1CEDB26A
:101DC000802DF5D3641CE4B2082CE1D370BD000073
:101DD000F40100202DE9FF4F203A1F460C468946AA
:101DE00002F0FF0A0025DDF834B032E00C2F09D0F4
:101DF0001A4901EB0A104FF00008465D300607D57E
:101E00005A4609E016490AEB4A0001EB8000F2E766
:101E1000BBF1000F12D0002221460098FFF720FFEF
:101E20007006641C060EE4B2A4EB0900B84207D1A8
:101E300000984C46401CC0B2009008E00122EBE73D
:101E400008F1010000F0FF08B8F1080FD6D36D1CAF
:101E5000EDB2BD42CAD3BDE8FF8F0000AA2800083A
:101E600036240008F8B516460D460446012714E04E
:101E70007A2C02D900241035EDB23A2D03D9002472
:101E80002546FFF7D7FE009732780C2329462046D7
:101E9000FFF7A0FF0834E4B2761C30780028E7D1C1
:101EA000F8BD000070B50F4C0025012211B1C4F837
:101EB000BC2101E0C4F8BC510B4B0021C3F8945184
:101EC000060602D5C3F8902101E0C3F89051C3F88B
:101ED00094214006491C000EC9B20829EED3C4F86B
:101EE000BC2170BD00002142008021427047704734
:101EF000FEF7B4BC30B593B028216846FEF764F90C
:101F000014210AA8FEF760F9002501200F9510950D
:101F10001195010412958DE8230004904FF4E01010
:101F2000CDE90810022407946846FEF785FE08B143
:101F300072B6FEE70AA90F2081E831004FF48060F5
:101F4000CDE90D0502210AA8FEF79AFD08B172B687
:101F5000FEE74FF4004011900F940FA8FEF71AFD12
:101F6000002801D072B6FEE713B030BD7047000004
:101F70000148FFF70EB900008C0000200148FFF770
:101F800008B90000D4000020F0B50268194B1A4CC3
:101F90001A4D4FF08047984205D0B84203D0A04276
:101FA00001D0A84203D122F070064A683243984219
:101FB00005D0B84203D0A04201D0A84203D122F4F8
:101FC0004074CA6822434C6922F0800222430260B6
:101FD0008A68C2620A688262984201D10969016313
:101FE000012141610169C90703D0016921F00101A3
:101FF0000161F0BD002C01400004004000080040D9
:1020000030B5036A026A22F0010202624268846902
:1020100024F073050C682C4323F002058B682B43D6
:102020000A4DA8420BD123F00805CB6822F4407278
:102030002B434D6923F0040315438A692A43426008
:10204000846149684163036230BD0000002C014097
:1020500030B5026A036A23F010030362436884699F
:102060000D6824F4E64444EA05248D6822F0200239
:1020700042EA05120B4DA8420ED1CD6822F0800233
:1020800042EA05124D6923F4406343EA85038D69F2
:1020900022F0400243EA850343608461496881631A
:1020A000026230BD002C014030B5036A026A22F49E
:1020B000807202624268C46923F4007324F07305DD
:1020C0000C682C438D6843EA05230C4DA8420ED1C1
:1020D000CD6823F4006343EA05234D6922F440529E
:1020E00042EA05128D6923F4806342EA05124260D8
:1020F000C4614968C163036230BD0000002C014027
:1021000030B5046A026A22F4805202624268C369EE
:102110000D6823F4E64343EA05238D6824F4005454
:1021200044EA0534064DA84204D14D6922F48042A8
:1021300042EA85124260C36149680164046230BDAD
:10214000002C014010B5406A0021C185C184FFF711
:102150008BF910BD01680C3151E8002F22F4907208
:1021600041E80023002BF5D10168143151E8002F1C
:1021700022F0010241E80023002BF5D1016B012977
:1021800009D101680C3151E8002F22F0100241E81A
:102190000023002BF5D1202180F84210002101639B
:1021A000704708B590F84210222901D0022008BDDE
:1021B00082684FF480539A4201D1016921B1816A4A
:1021C0009A421BD04AB10AE00268816A5268C2F39F
:1021D00008020A80816A891C08E0026972B10268FB
:1021E000526802F07F020A70816A491C8162C18DC7
:1021F000491E0904090CC18503D01BE0026852681E
:10220000F1E70168CA6822F02002CA600168CA6862
:1022100022F48072CA6001684A6922F001024A61B0
:10222000202180F8421000214163026B012A03D073
:10223000FFF718FB002008BD016301680C3151E86D
:10224000002F22F0100241E80023002BF5D1016895
:102250000A68D20602D50A6849680091818DFFF7A5
:1022600002F9E7E770B5044600680169E26821F405
:102270004051114301612169A06808436169084325
:102280002168CA6841F20C639A430243CA6020681D
:102290004169A26921F44071114341611E492068DE
:1022A000884202D1FEF792FC01E0FEF77FFC00EBD2
:1022B000C00101EB0012606864218000B2FBF0F302
:1022C000B3FBF1F36FF018067343B2FBF0F5B2FB0A
:1022D000F0F605EB8305322303EB0515B5FBF1F5AD
:1022E000B6FBF1F605F0F00505EB0615B2FBF0F6CE
:1022F000B2FBF0F0B0FBF1F06FF01802504306EBC8
:10230000800003EB0010B0FBF1F0216800F00F003B
:102310002844886070BD0000003801400148FFF784
:10232000A5B800001C0100200148FFF79FB800007D
:10233000AC010020FEE70907090E002804DB00F1CC
:10234000E02080F80014704700F00F0000F1E0205A
:1023500080F8141D704700004FF0E020016921F063
:102360000401016103480921017042F228314180D2
:1023700070470000100000200B49498848434FF087
:10238000E021486100228A61086940F0010008618B
:102390000869C30701D0C003FAD5086920F001001D
:1023A00008618A617047000010000020FEF75EFAA5
:1023B000FFF7A0FDFFF796FAFFF7E6FBFFF700FC3B
:1023C000FFF71AFCFFF766FAFFF71AFBFFF770FB3F
:1023D000FFF7A4FB0220FFF749FA0120FFF746FAB6
:1023E000FFF7BAFFFFF75AFC2820FEF793FA04A282
:1023F0000A210020FFF736FDFFF7C6FCF7E70000D3
:1024000068656C6C6F20776F726C64000102020368
:102410000405060708090A0B0C0D0E0F101000002A
:102420000000000000000102030406070809000084
:102430000000010203040000000000000000000092
:102440000000000000003F4000000000000000000D
:102450003000400030004000000009000BC03D008B
:102460000BC03D00090018C024407FE022403180AD
:102470000000180024C01B000D8032400180038042
:102480001C4027401C8007400040100060000000F6
:102490000000000000000000000000001F8020403D
:1024A00040200000402020401F8000000000090064
:1024B00006001F80060009000000040004003F80A1
:1024C0000400040000000010006000000000000094
:1024D00000000400040004000400040000000000E8
:1024E00000400000000000000000002001C00600C5
:1024F0003800400000001F802040204020401F8006
:102500000000000010403FC000400000000018C064
:1025100021402240244018400000108020402440E8
:1025200024401B80000002000D0011003FC001404C
:1025300000003C80244024402440238000001F8071
:10254000244024403440038000003000200027C095
:102550003800200000001B802440244024401B80C1
:1025600000001C0022C0224022401F80000000000A
:1025700000000840000000000000000000000460AF
:10258000000000000000000004000A00110020808C
:10259000404009000900090009000900000000008E
:1025A0004040208011000A00040018002000234051
:1025B0002400180000001F802040274029401F40B1
:1025C0000000004007C039000F0001C0004020405B
:1025D0003FC0244024401B8000001F80204020403A
:1025E00020403080000020403FC0204020401F801D
:1025F000000020403FC024402E4030C0000020405A
:102600003FC024402E00300000000F00108020400A
:1026100022403380020020403FC0040004003FC03D
:102620002040204020403FC020402040000000606B
:10263000202020203FC02000200020403FC0244018
:102640000B0030C0204020403FC0204000400040F0
:1026500000C03FC03C0003C03C003FC00000204021
:102660003FC00C4023003FC020001F80204020407E
:1026700020401F80000020403FC02440240018005C
:1026800000001F802140214020E01FA000002040CA
:102690003FC02440260019C0004018C024402440F8
:1026A000224031800000300020403FC020403000F8
:1026B000000020003F80004000403F8020002000BC
:1026C0003E0001C0070038002000380007C03C0071
:1026D00007C038000000204039C0060039C0204043
:1026E00000002000384007C0384020000000304083
:1026F00021C02640384020C00000000000007FE0DC
:10270000402040200000000070000C0003800040CA
:1027100000000000402040207FE00000000000009A
:1027200020004000200000000000001000100010F9
:102730000010001000100000000040000000000029
:102740000000000002800540054003C0004020005A
:102750003FC00440044003800000000003800440A8
:1027600004400640000000000380044024403FC0B5
:1027700000400000038005400540034000000000C9
:1027800004401FC0244024402000000002E0055007
:1027900005500650042020403FC00440040003C000
:1027A00000400000044027C000400000000000106E
:1027B0000010041027E00000000020403FC001404E
:1027C000070004C00440204020403FC000400040BB
:1027D000000007C0040007C0040003C0000004405C
:1027E00007C00440040003C0004000000380044010
:1027F000044003800000041007F0045004400380EC
:102800000000000003800440045007F00010044062
:1028100007C002400400040000000000064005401C
:10282000054004C00000000004001F800440004078
:102830000000040007800040044007C0004004007E
:10284000070004C0018006000400060001C0070064
:1028500001C006000000044006C0010006C004409C
:1028600000000410071004E00180060004000000CE
:10287000044005C0064004400000000000000400C1
:102880007BE040200000000000000000FFF000009E
:102890000000000040207BE0040000000000400039
:1028A00080004000200020004000000000000000E8
:1028B0000000000000000000000000000000000018
:1028C0001FCC000C000000000000000008003000D9
:1028D00060000800300060000000022003FC1E20A1
:1028E000022003FC1E200220000000000E1811042C
:1028F0003FFF10840C78000000000F0010840F3898
:1029000000C0077818840078000000780F8410C495
:1029100011240E9800E4008400080800680070008C
:1029200000000000000000000000000000000000A7
:1029300007E01818200440020000000040022004B4
:10294000181807E00000000000000240024001806B
:102950000FF00180024002400000008000800080F3
:102960000FF800800080008000000001000D000EC4
:102970000000000000000000000000000080008057
:10298000008000800080008000800000000C000CAF
:102990000000000000000000000000000006001819
:1029A00000600180060018002000000007F0080801
:1029B00010041004080807F00000000008040804D0
:1029C0001FFC000400040000000000000E0C1014A6
:1029D0001024104411840E0C000000000C18100488
:1029E0001104110412880C700000000000E00320A4
:1029F000042408241FFC0024000000001F981084F9
:102A000011041104108810700000000007F00888FD
:102A10001104110418880070000000001C00100050
:102A200010FC13001C001000000000000E381144C0
:102A30001084108411440E38000000000700088C38
:102A400010441044088807F0000000000000000057
:102A5000030C030C00000000000000000000000157
:102A6000010600000000000000000000008001409E
:102A70000220041008081004000002200220022096
:102A8000022002200220022000000000100408089A
:102A90000410022001400080000000000E0012001F
:102AA000100C106C10800F00000003E00C1813E4F1
:102AB000142417C4082807D000000004003C03C4F5
:102AC0001C40074000E4001C000410041FFC11041B
:102AD000110411040E880070000003E00C181004AB
:102AE0001004100410081C10000010041FFC100437
:102AF00010041004080807F0000010041FFC110463
:102B0000110417C410040818000010041FFC11045D
:102B1000110017C010000800000003E00C1810049A
:102B2000100410441C780040000010041FFC1084A6
:102B30000080008010841FFC1004000010041004AA
:102B40001FFC10041004000000000003000110012D
:102B500010011FFE10001000000010041FFC1104E3
:102B600003801464181C1004000010041FFC1004DF
:102B7000000400040004000C000010041FFC1F00EF
:102B800000FC1F001FFC1004000010041FFC0C04BC
:102B9000030000E010181FFC100007F008081004E4
:102BA00010041004080807F0000010041FFC108433
:102BB0001080108010800F00000007F0081810240B
:102BC0001024101C080A07F2000010041FFC110456
:102BD000110011C011300E0C000400000E1C110475
:102BE0001084108410441C380000180010001004D9
:102BF0001FFC100410001800000010001FF8100443
:102C00000004000410041FF8100010001E0011E062
:102C1000001C007013801C0010001FC0103C00E05E
:102C20001F0000E0103C1FC000001004180C1634F8
:102C300001C001C01634180C100410001C0013044D
:102C400000FC13041C00100000000804101C106499
:102C5000108413041C041018000000000000000081
:102C60007FFE4002400240020000000030000C00E5
:102C700003800060001C00030000000040024002CE
:102C800040027FFE00000000000000000000200065
:102C90004000400040002000000000010001000151
:102CA000000100010001000100010000400040009F
:102CB0002000000000000000000000000098012437
:102CC00001440144014400FC000410001FFC008882
:102CD00001040104008800700000000000700088FA
:102CE0000104010401040088000000000070008855
:102CF0000104010411081FFC0004000000F8014455
:102D000001440144014400C8000000000104010422
:102D10000FFC1104110411001800000000D6012955
:102D20000129012901C90106000010041FFC0084CB
:102D300001000100010400FC00040000010419046A
:102D400019FC000400040000000000000003000162
:102D50000101190119FE0000000010041FFC0024ED
:102D6000004001B4010C0104000000001004100434
:102D70001FFC0004000400000000010401FC010429
:102D8000010001FC0104010000FC010401FC0084BD
:102D900001000100010400FC0004000000F801042F
:102DA00001040104010400F80000010101FF008595
:102DB0000104010400880070000000000070008819
:102DC00001040104010501FF00010104010401FCEB
:102DD00000840104010001800000000000CC0124F7
:102DE00001240124012401980000000001000100D9
:102DF00007F80104010400000000010001F80004CC
:102E000000040004010801FC0004010001800170BD
:102E1000000C001001600180010001F0010C003085
:102E200001C00030010C01F0010000000104018C20
:102E300000740170018C0104000001010181017125
:102E4000000E001801600180010000000184010CE7
:102E5000013401440184010C000000000000000066
:102E6000000001003EFC40024002000000000000A3
:102E70000000FFFF000000000000000040024002D0
:102E80003EFC010000000000000000006000800027
:102E9000800040004000200020000000BC2E000800
:102EA000000000201400000028010008D02E0008B7
:102EB00014000020440C0000440100080100000040
:102EC000100000000000000000127A000000000066
:04000005080000ED02
:00000001FF
