:020000040800F2
:10000000001D00209D010008B32100080120000808
:10001000AF21000809030008F731000800000000C4
:10002000000000000000000000000000AF220008F7
:100030001506000800000000B52100081928000876
:10004000B7010008B7010008B7010008B7010008B0
:10005000B7010008B7010008B7010008B7010008A0
:10006000B7010008B7010008B7010008B701000890
:10007000B7010008B7010008B7010008B701000880
:10008000EB040008FB040008B7010008B7010008F2
:10009000B7010008B7010008B7010008B701000860
:1000A000B7010008B7010008B7010008B701000850
:1000B000B7010008B7010008B7010008B701000840
:1000C000B7010008B7010008B7010008B701000830
:1000D000B7010008B7010008BB2F0008B7010008EE
:1000E000B7010008B7010008B7010008B701000810
:1000F000B7010008B7010008B7010008B701000800
:10010000B7010008B7010008B7010008B7010008EF
:10011000B7010008B7010008B7010008B7010008DF
:10012000B7010008B7010008B7010008B7010008CF
:10013000B7010008B7010008B7010008B7010008BF
:10014000B7010008B7010008B7010008B7010008AF
:10015000B7010008B7010008B7010008B70100089F
:10016000B7010008B7010008B7010008B70100088F
:10017000B7010008B7010008B7010008000000003F
:10018000B7010008B7010008DFF80CD000F08CF8C8
:1001900000480047B3320008001D00200648804791
:1001A00006480047FEE7FEE7FEE7FEE7FEE7FEE75C
:1001B000FEE7FEE7FEE7FEE7E32800088901000806
:1001C0002DE9F05F0546002092469B46884606468C
:1001D000814640241BE0284641464746224600F01F
:1001E00053F853465A46C01A914110D31146184647
:1001F000224600F03AF82D1A67EB01084F462246D6
:100200000120002100F031F817EB00094E41201EBB
:10021000A4F10104DFDC484631462A464346BDE8E6
:10022000F09F40EA01039B0703D009E008C9121FB1
:1002300008C0042AFAD203E011F8013B00F8013BA0
:10024000521EF9D27047D2B201E000F8012B491ECC
:10025000FBD270470022F6E710B513460A46044663
:100260001946FFF7F0FF204610BD202A04DB203A94
:1002700000FA02F1002070479140C2F1200320FAF9
:1002800003F3194390407047202A04DB203A21FAF7
:1002900002F00021704721FA02F3D040C2F120029F
:1002A0009140084319467047064C074D06E0E06848
:1002B00040F0010394E8070098471034AC42F6D3AD
:1002C000FFF766FF6033000880330008F0EE400A55
:1002D000F5EEC00AF1EE10FA02D2B1EE600A7047F4
:1002E000B0EE600AFBE700210AE040F6F640C2F2F9
:1002F0000000405C022801D200207047481CC1B2B7
:100300000229F2D30120F8E700BFFEE710B504464A
:1003100040F6A840C2F2000090F8480070B140F6E4
:10032000A840C2F200004FF41672016C204600F0A3
:1003300072F918B12146022000F0FBFA10BD70B529
:100340002DED028B82B0002672B640F20000C2F2A0
:1003500000000078C8B140F20100C2F20000067847
:10036000082E0CD1002408E040F27310C2F2000005
:10037000005D0DF80400601CC4B2082CF4D300200A
:1003800040F20001C2F20001087062B640F6A840D7
:10039000C2F2000090F84800C0B1082E16D19DF8B6
:1003A000000040F6A841C2F2000191F84D1043F25E
:1003B0003832C0F60002515C884207D19DF8010036
:1003C000362803D19DF807006B2805D04FF0FF3089
:1003D00002B0BDEC028B70BD40F6A840C2F2000036
:1003E00090F84D409DF8030000069DF8041040EA87
:1003F00001409DF8051040EA01209DF8061040EAF2
:10040000010500EE105AF8EE400A0020C4F2B430A4
:1004100000EE100A60EE800A4FF08F4000EE100AE6
:1004200080EE801A04EB840140F6AC40C2F200007A
:1004300000EB810080ED011A9DF80200A8B104EBE9
:10044000840140F6AC40C2F2000000EB810090ED68
:10045000010AB1EE400A04EB840140F6AC40C2F25E
:10046000000000EB810080ED010A04EB840140F6FE
:10047000AC40C2F2000000EB810090ED021AF0EEF9
:10048000410A04EB840140F6AC40C2F2000000EBEC
:10049000810090ED011AB0EE410A02F0AEFEB0EE1E
:1004A000408AFFF713FF04EB840140F6AC40C2F230
:1004B000000000EB810080ED030A012104EB8402BF
:1004C00040F6AC40C2F2000000EB82000174002054
:1004D00040F6A841C2F2000181F84800601C00F01B
:1004E000010081F84C0060B272E710B540F2B42010
:1004F000C2F2000000F0B8FA10BD10B540F214309E
:10050000C2F2000000F0B0FA10BD014608781038C1
:100510001823B0FBF3F243F23E30C0F60000805CDB
:10052000C865032A05D908686FF30900001D8865AE
:1005300003E008686FF309008865886D704701461D
:1005400000208A6A8B69CBB932B1012A0DD0022A08
:1005500003D0032A10D10EE000BFCB6A03F08073F2
:10056000B3F1807F00D1012007E0CB6AB3F1C07FF7
:1005700000D1012001E000E000BF34E08B69B3F559
:10058000005F1AD132B1012A07D0022A03D0032A10
:1005900011D10AE000BF01200EE0CB6A03F08073A6
:1005A000B3F1807F00D1012006E0CB6AB3F1C07FB8
:1005B00000D1012000E000BF15E032B1012A05D0D2
:1005C000022A04D0032A0CD103E000BF00BF01209F
:1005D00008E0CB6A03F08073B3F1807F00D1012083
:1005E00000E000BF00BF704730B50468246824F401
:1005F000802405682C60046863608468402C04D102
:100600000468A2600468E16003E00468A160046813
:10061000E26030BD70470346581A904201D3012072
:1006200070470020FCE770B506460C46154640F6BC
:10063000C410C2F200000670F32040F6C411C2F2EA
:1006400000014870AB2088700846C47005716B20AB
:100650004871062240F27420C2F2000001F07EFCD4
:1006600070BD70B505460C4640F63420C2F200005D
:100670000570932040F63421C2F2000148708820B2
:1006800088700846C4706B200871052240F27420FF
:10069000C2F2000001F062FC70BD70B506460C4667
:1006A000154640F64420C2F2000006709A2040F63B
:1006B0004421C2F20001487008468470C5706B2066
:1006C0000871052240F27420C2F2000001F046FCDD
:1006D00070BD2DE9F04706460F4615469846DDE900
:1006E000099A089C40F6E410C2F200000670FD2052
:1006F00040F6E411C2F200014870084687702812E3
:10070000C8700D71084680F80580200E8871200C95
:10071000C871200A08724C72084680F80A9080F866
:100720000BA06B2008730D2240F27420C2F200006F
:1007300001F014FCBDE8F08770B505460E460024B4
:1007400040F6C420C2F200000555641C701F122838
:1007500071D243F28031C0F60001D1E800F02420CC
:1007600040F6C421C2F200010855601CC4B29AE0F0
:10077000262040F6C421C2F200010855601CC4B214
:1007800091E0272040F6C421C2F200010855601C08
:10079000C4B288E0292040F6C421C2F20001085505
:1007A000601CC4B27FE0302040F6C421C2F20001D8
:1007B0000855601CC4B276E0312040F6C421C2F274
:1007C00000010855601CC4B26DE0322040F6C4211F
:1007D000C2F200010855601CC4B264E0332040F648
:1007E000C421C2F200010855601CC4B25BE0342091
:1007F00040F6C421C2F200010855601CC4B252E0A8
:10080000352040F6C421C2F200010855601CC4B274
:1008100049E0362040F6C421C2F200010855601CB0
:10082000C4B240E0372040F6C421C2F200010855AE
:10083000601CC4B237E035E0382040F6C421C2F273
:1008400000010855601CC4B22DE0392040F6C421D7
:10085000C2F200010855601CC4B224E03A2040F600
:10086000C421C2F200010855601CC4B21BE03B2049
:1008700040F6C421C2F200010855601CC4B212E067
:100880003C2040F6C421C2F200010855601CC4B2ED
:1008900009E03D2040F6C421C2F200010855601C69
:1008A000C4B200E000BF00BF6B2040F6C421C2F21A
:1008B00000010855601CC4B2224640F27420C2F206
:1008C000000001F04BFB70BD70B505460C4640F6CC
:1008D0001420C2F200000570FE2040F61421C2F27E
:1008E00000014870982088700846C4706B20087119
:1008F000052240F27420C2F2000001F02FFB70BD0F
:1009000010B5044640F62420C2F200000470FF2017
:1009100040F62421C2F200014870662088706B20E6
:10092000C870042240F27420C2F2000001F016FBED
:1009300010BD70B504460D4640F6A840C2F2000056
:100940000078092803D000210846FFF7BDFF40F6D4
:10095000A840C2F2000044702946092000F001F8C6
:1009600070BD40F6A842C2F200021070052801D006
:10097000082801D1012200E0002240F6A843C2F27B
:10098000000383F831201A465163002283F848207F
:10099000704700BFFEE770B50446A56D00F065FB2B
:1009A000064694F83500022808D08020606500BF14
:1009B000002084F8340000BF012070BD206800686A
:1009C00020F01600216808602068406920F080004F
:1009D00021684861206C08B9A06C28B120680068C3
:1009E00020F00800216808602068006820F00100FD
:1009F000216808600FE000F038FB801B05280AD949
:100A00002020606500BF002084F8340000BF032070
:100A100084F83500D1E72068006800F00100002864
:100A2000E9D194F85C103F208840A86000BF002006
:100A300084F8340000BF012084F835000020BCE7B2
:100A4000014691F83500022803D080204865012036
:100A50007047052081F835000868006820F0010023
:100A60000A6810600020F3E7F8B504460020009003
:100A700040F21000C2F2000000684FF41651B0FBC3
:100A8000F1F7A56D2E6894F85C100820884030407E
:100A900098B12068006800F0040070B12068006818
:100AA00020F004002168086094F85C100820884059
:100AB000A860606D40F00100606594F85C10012052
:100AC0008840304068B12068406900F0800040B143
:100AD00094F85C1001208840A860606D40F002002E
:100AE000606594F85C1004208840304068B120684C
:100AF000006800F0020040B194F85C1004208840C7
:100B0000A860606D40F00400606594F85C101020EF
:100B10008840304078B32068006800F0080050B387
:100B200094F85C1010208840A8602068006800F4E9
:100B3000802080B12068006800F4002028B9206C73
:100B4000C8B12046216C884715E0A06C98B12046BA
:100B5000A16C88470FE02068006800F4807028B915
:100B60002068006820F0080021680860206C10B13F
:100B70002046216C884794F85C1020208840304043
:100B8000002865D02068006800F0100000285FD0C1
:100B900094F85C1020208840A86094F8350005285F
:100BA00028D12068006820F01600216808602068BD
:100BB000406920F0800021684861206C08B9A06C71
:100BC00028B12068006820F008002168086094F8C7
:100BD0005C103F208840A86000BF002084F83400EB
:100BE00000BF012084F83500206D10B12046216D32
:100BF0008847F8BD2068006800F4802080B1206834
:100C0000006800F4002028B9606C10B12046616CC7
:100C100088471DE0E06BD8B12046E16B884717E0BC
:100C20002068006800F4807068B92068006820F0CF
:100C300010002168086000BF002084F8340000BF65
:100C4000012084F83500E06B10B12046E16B884745
:100C5000606D38B3606D00F00100F0B1052084F8DC
:100C600035002068006820F001002168086000BF9E
:100C70000098401C0090B84200D905E02068006848
:100C800000F001000028F3D100BF00BF002084F86D
:100C9000340000BF012084F83500E06C10B120461C
:100CA000E16C884700BFA4E72DE9F0410446002528
:100CB00000F0DBF9074614B90120BDE8F081606A55
:100CC00000B100BF00BF002084F8340000BF022044
:100CD00084F835002068006820F001002168086071
:100CE0000AE000F0C2F9C01B052805D92020606584
:100CF000032084F83500E0E72068006800F0010078
:100D00000028EED12068056848F23F00CFF21000BD
:100D10000540D4E901010843E1680843216908431B
:100D200061690843A1690843E1690843216A0843EE
:100D30000543606A042803D1D4E90B010843054345
:100D4000206805602068456925F00705606A05434D
:100D5000606A04280DD1A06A0543E06A48B12046C4
:100D6000FFF7EDFB28B140206065012084F83500D5
:100D7000A3E7206845612046FFF7C7FB064694F8C5
:100D80005C103F208840B06000206065012084F83E
:100D90003500002091E72DE9F04704460D46164640
:100DA0001F464FF00008D4F8589000BF94F8340064
:100DB000012802D10220BDE8F087012084F8340028
:100DC00000BF94F83500012825D1022084F83500B1
:100DD000002060653B46324629462046FFF704FC6A
:100DE00094F85C103F208840C9F80800206800682B
:100DF00040F0160021680860206C28B12068006867
:100E000040F00800216808602068006840F0010098
:100E10002168086006E000BF002084F8340000BFAD
:100E20004FF002084046C6E7F8B502460B460025DB
:100E30000024002000210CE1012606FA01F51E68BD
:100E400006EA0504AC427DD15E68012E08D05E68DA
:100E5000022E05D05E68112E02D05E68122E13D1CC
:100E600090684F000326BE40B0434F00DE68BE408E
:100E700030439060506801268E40B0431E79C6F31F
:100E800000168E4030435060D0684F000326BE40AD
:100E9000B0434F009E68BE403043D0605E68022E73
:100EA00002D05E68122E13D1CF0802F1200656F848
:100EB00027004E07F70E0F26BE40B0434F07FF0E28
:100EC0001E69BE403043CF0802F1200646F82700D5
:100ED00010684F000326BE40B0431E7906F003069B
:100EE0004F00BE40304310605E6806F08056B6F199
:100EF000805FA8D100BF0026009643F64406C4F2E6
:100F00000206366846F4804643F64407C4F20207F8
:100F10003E603E46366806F48046009600BF00BF3D
:100F200043F60806C4F201068F0856F827008E071C
:100F3000370F0F26BE40B0430026C4F20206B2426D
:100F400003D100E084E0002638E04FF48066C4F26C
:100F50000206B24201D1012630E04FF40066C4F22D
:100F60000206B24201D1022628E04FF44066C4F2E4
:100F70000206B24201D1032620E04FF48056C4F2AB
:100F80000206B24201D1042618E04FF4A056C4F282
:100F90000206B24201D1052610E04FF4C056C4F259
:100FA0000206B24201D1062608E04FF4E056C4F230
:100FB0000206B24201D1072600E008268F073F0F44
:100FC000BE40304343F60806C4F201068F0846F8D7
:100FD00027004FF47056C4F201063068A0435E68E3
:100FE00006F48036B6F5803F00D120434FF47056AA
:100FF000C4F201063060361D3068A0435E6806F416
:101000000036B6F5003F00D1204343F60446C4F253
:1010100001063060361D3068A0435E6806F4801615
:10102000B6F5801F00D1204343F60846C4F20106FE
:101030003060361D3068A0435E6806F40016B6F5D1
:10104000001F00D1204343F60C46C4F20106306075
:10105000491C1029FFF4F0AEF8BD024613690B409D
:101060000BB1012000E00020704740F20400C2F202
:1010700000000068704740F20400C2F200000068FF
:1010800040F20C01C2F200010978084440F2040168
:10109000C2F200010860704710B54FF47050C4F2FE
:1010A0000200006840F400704FF47051C4F2020175
:1010B00008600846006840F48060086008460068E0
:1010C00040F480700860032000F0A6F8002000F0D3
:1010D00004F800F02BF8002010BD70B5044640F273
:1010E0000C00C2F2000000784FF47A71B1FBF0F00E
:1010F00040F21001C2F200010968B1FBF0F5284688
:1011000000F0E3FC08B1012070BD102C0AD20022CF
:101110002146501E00F042F840F20800C2F20000E2
:10112000046001E00120EFE70020EDE708B500BF13
:101130000020009043F64400C4F20200006840F42E
:10114000804043F64401C4F202010860084600688A
:1011500000F48040009000BF00BF00BF002000905E
:10116000081F006840F08050091F086008460068AA
:1011700000F08050009000BF00BF08BD0146084647
:10118000002809DB00F01F0301229A4043099B005D
:1011900003F1E023C3F8002100BF70472DE9F05FA1
:1011A00080460D461646002702F056F80746394697
:1011B0002A46334601F00700C0F1070ABAF1040FCE
:1011C00002D94FF0040A01E0C0F1070AD14600F14C
:1011D000040ABAF1070F02D24FF0000A01E0A0F1B1
:1011E000030AD4464FF0010A0AFA09FAAAF1010AE1
:1011F0000AEA020A0AFA0CFA4FF0010B0BFA0CFB8E
:10120000ABF1010B0BEA030B4AEA0B042146404603
:1012100002F02AF8BDE8F09F00BF00F007024EF68A
:101220000C53CEF2000319684FF6FF03194041F04A
:10123000FD7343F0806343EA02214EF60C53CEF275
:101240000003196000BF704770B504460D460CB925
:10125000012070BD4FF47050C4F20200006800F02D
:101260000F00A8420CD24FF47051C4F202010D706D
:101270000846006800F00F00A84201D00120E8E70E
:10128000207800F0020002282FD1207800F004001E
:1012900004280BD143F60800C4F20200006840F4B1
:1012A000E05043F60801C4F202010860207800F023
:1012B000080008280BD143F60800C4F202000068B9
:1012C00040F4604043F60801C4F20201086043F6AE
:1012D0000800C4F20200006820F0F000A168084392
:1012E00043F60801C4F202010860207800F0010012
:1012F000C0B36068012809D14FF46050C4F2020005
:101300000068C0F34040D8B90120A2E76068022815
:1013100002D06068032809D14FF46050C4F2020083
:101320000068C0F3406058B9012092E74FF4605064
:10133000C4F202000068C0F3400008B9012088E749
:1013400043F60800C4F20200006820F00300616860
:10135000084343F60801C4F202010860FFF785FE66
:10136000064609E013E0FFF780FE801B41F288315A
:10137000884201D903206CE743F60800C4F202005A
:10138000006800F00C006168B0EB810FEBD14FF406
:101390007050C4F20200006800F00F00A8420CD99F
:1013A0004FF47051C4F202010D700846006800F05D
:1013B0000F00A84201D001204BE7207800F0040084
:1013C00004280DD143F60800C4F20200006820F49E
:1013D000E050E168084343F60801C4F202010860E6
:1013E000207800F0080008280ED143F60800C4F267
:1013F0000200006820F46040216940EAC10043F621
:101400000801C4F20201086000F043F843F6080145
:10141000C4F202010968C1F3031143F24632C0F677
:101420000002515CC84040F21001C2F200010860A5
:1014300040F20800C2F200000068FFF74EFE0020F4
:1014400007E740F21000C2F200000068704700B5E4
:10145000FFF7F7FF43F60801C4F202010968C1F380
:10146000822143F25632C0F60002515CC84000BDF2
:1014700000B5FFF7E6FF43F60801C4F20201096870
:10148000C1F3423143F25632C0F60002515CC8400B
:1014900000BD2DE9F047002400250026A14643F6B3
:1014A0000800C4F20200006800F00C0020B104281B
:1014B00007D008284ED109E04FF41059C0F2F409C2
:1014C0004DE04FF49059C0F27A0948E043F6040029
:1014D000C4F20200006800F03F0443F60400C4F2C6
:1014E0000200006800F48000A0B14FF49050C0F2F8
:1014F0007A0043F60401C4F202010968C1F38811BD
:10150000A0FB01700146224600233846FEF758FE34
:10151000054613E04FF41050C0F2F40043F6040106
:10152000C4F202010968C1F38811A0FB01700146F1
:10153000224600233846FEF743FE054643F60400E4
:10154000C4F202000068C0F30140401C4600B5FB35
:10155000F6F904E04FF41059C0F2F40900BF00BFDF
:101560004846BDE8F087F8B504460CB90120F8BD3F
:10157000207800F00100002870D043F60800C4F283
:101580000200006800F00C00042812D043F60800A6
:10159000C4F20200006800F00C00082817D143F6DE
:1015A0000400C4F20200006800F48000B0F5800F6F
:1015B0000DD14FF46050C4F202000068C0F3404007
:1015C00000286AD06068002867D10120CFE700BFFB
:1015D0006068B0F5803F0CD14FF46050C4F2020057
:1015E000006840F480304FF46051C4F2020108609A
:1015F00026E06068B0F5A02F11D14FF46050C4F21E
:101600000200006840F480204FF46051C4F20201EF
:1016100008600846006840F48030086010E04FF42D
:101620006050C4F20200006820F480304FF4605132
:10163000C4F2020108600846006820F480200860B7
:1016400000BF6068A8B1FFF710FD054607E0FFF78F
:101650000CFD401B642802D9032088E71DE04FF4ED
:101660006050C4F202000068C0F340400028EED091
:1016700013E0FFF7FAFC054606E0FFF7F6FC401B17
:10168000642801D9032072E74FF46050C4F20200CD
:101690000068C0F340400028EFD1207800F002003D
:1016A000022879D143F60800C4F20200006800F075
:1016B0000C0080B143F60800C4F20200006800F09C
:1016C0000C00082824D143F60400C4F2020000688C
:1016D00000F48000E0B94FF46050C4F202000068EA
:1016E000C0F3400020B1E068012801D001203EE7AE
:1016F0004FF46050C4F20200006820F0F800216945
:1017000040EAC1004FF46051C4F20201086043E0B6
:10171000E06840B301200021C4F247210860FFF7D0
:10172000A4FC054606E0FFF7A0FC401B022801D9F7
:1017300003201CE74FF46050C4F202000068C0F3BD
:1017400040000028EFD04FF46050C4F2020000685F
:1017500020F0F800216940EAC1004FF46051C4F262
:101760000201086018E000200021C4F2472108604F
:10177000FFF77BFC054606E0FFF777FC401B0228DD
:1017800001D90320F3E64FF46050C4F20200006870
:10179000C0F340000028EFD1207800F008000828AE
:1017A00036D16069D0B101204FF46861C4F247219D
:1017B0000860FFF75AFC054606E0FFF756FC401BA1
:1017C000022801D90320D2E643F67400C4F20200D5
:1017D0000068C0F340000028EFD019E000204FF46B
:1017E0006861C4F247210860FFF73FFC054606E048
:1017F000FFF73BFC401B022801D90320B7E643F664
:101800007400C4F202000068C0F340000028EFD169
:10181000207800F0040004287CD100274FF46150A8
:10182000C4F20200006800F08050B0B900BF002090
:1018300000904FF46150C4F20200006840F0805004
:101840004FF46151C4F2020108600846006800F0DC
:101850008050009000BF00BF01274FF4E040C4F269
:101860000000006800F48070F8B94FF4E040C4F262
:101870000000006840F480704FF4E041C4F20001C1
:101880000860FFF7F2FB054606E0FFF7EEFB401BA2
:10189000022801D903206AE64FF4E040C4F20000B8
:1018A000006800F480700028EFD000BFA068012815
:1018B0000CD143F67000C4F20200006840F0010051
:1018C00043F67001C4F20201086027E0A068052811
:1018D00011D143F67000C4F20200006840F0040029
:1018E00043F67001C4F2020108600846006840F047
:1018F0000100086012E043F67000C4F202000068C4
:1019000020F0010043F67001C4F2020108600846AD
:10191000006800E041E020F00400086000BFA0681B
:10192000B0B1FFF7A2FB054608E0FFF79EFB401BA6
:1019300041F28831884201D9032018E643F670004D
:10194000C4F202000068C0F340000028EDD015E0AA
:10195000FFF78BFB054608E0FFF787FB401B41F2D2
:101960008831884201D9032001E643F67000C4F2B1
:1019700002000068C0F340000028EDD1012F0BD118
:101980004FF46150C4F20200006820F080504FF420
:101990006151C4F20201086000BFA069002852D062
:1019A00043F60800C4F20200006800F00C000828AA
:1019B00064D0A069022847D100200021C4F2472149
:1019C0000866FFF752FB054606E0FFF74EFB401B9B
:1019D000022801D90320CAE54FF46050C4F2020086
:1019E0000068C0F340600028EFD1D4E90701084344
:1019F000616A40EA81110122A06AC2EB500041EA0B
:101A000000412C20005D41EA006043F60401C4F26D
:101A10000201086001200021C4F247210866FFF797
:101A200024FB054606E0FFF720FB401B022801D9F6
:101A300003209CE54FF46050C4F202000068C0F33C
:101A400040600028EFD03EE000200021C4F2472192
:101A50000866FFF70AFB054606E0FFF706FB401B9A
:101A6000022801D9032082E54FF46050C4F202003D
:101A70000068C0F340600028EFD124E0A06901288D
:101A800000D174E543F60800C4F20200066806F4CB
:101A90008001E069814214D106F03F01206A814251
:101AA0000FD147F6C0703040616A884209D106F410
:101AB0004031A06A814204D106F07061E06A81423F
:101AC00001D0012053E5002051E570B504462546BC
:101AD000681EB0F1807F01D301200FE0681E4FF037
:101AE000E02148610F214FF0FF3001F0BDFB0020E5
:101AF0004FF0E021886107200861002070BD70B5BB
:101B00000446002520684069C0F3C01594F83900E8
:101B100021280ED16DB12068406920F08000216835
:101B20004861206B10B1206BFEF735FF204600F0B6
:101B3000A9FF20684069C0F3801594F83A00222874
:101B40000ED16DB12068406920F0400021684861E5
:101B5000606B10B1606BFEF71EFF204600F072FF55
:101B6000002070BD70472DE9F047044620680568E5
:101B70002068C668206847694FF00008C14605F034
:101B80000F08B8F1000F0AD105F0200038B106F0B7
:101B9000200020B1204600F07FFFBDE8F087B8F1BB
:101BA000000F75D007F0010018B906F490700028F6
:101BB0006ED005F0010030B106F4807018B1E06B12
:101BC00040F00100E06305F0040030B107F00100CF
:101BD00018B1E06B40F00200E06305F0020030B1A4
:101BE00007F0010018B1E06B40F00400E06305F07D
:101BF000080048B106F0200010B907F0010018B144
:101C0000E06B40F00800E063E06B88B305F0200073
:101C100028B106F0200010B1204600F03DFF2068FA
:101C20004069C0F38019E06B00F0080010B9B9F109
:101C3000000F26D0204600F005FF2068406900F024
:101C40004000402819D12068406920F040002168F8
:101C50004861606B68B142F64910C0F60000616BE4
:101C60000865606BFEF7ECFE10B1606B016D884794
:101C70000CE02046FFF776FF08E02046FFF772FFF2
:101C800004E02046FFF76EFF0020E06385E7FFE7F2
:101C900005F0800030B106F0800018B1204601F058
:101CA00058F97AE705F0400030B106F0400018B16D
:101CB000204600F0D7FE70E700BF6EE710B504467F
:101CC0000CB9012010BDA06900B100E000BF94F87C
:101CD000390028B9002084F83800204600F027F8A1
:101CE000242084F839002068C06820F4005021685E
:101CF000C860204600F023FF2068006920F490406F
:101D0000216808612068406920F02A002168486144
:101D10002068C06840F400502168C8600020E0637B
:101D2000202084F8390084F83A000020CAE710B572
:101D300086B00446142101A8FEF78CFA4FF48841BE
:101D4000C4F20001206888427DD100BF00200090CD
:101D50004FF46150C4F20200006840F400304FF4C8
:101D60006151C4F2020108600846006800F40030C6
:101D7000009000BF00BF00BF0020009043F630007D
:101D8000C4F20200006840F0080043F63001C4F2DB
:101D9000020108600846006800F00800009000BFDB
:101DA00000BF6020019002200290012003900320D8
:101DB00004900720059001A94FF44060C4F202008E
:101DC000FFF732F846F28800C4F2020040F2B42174
:101DD000C2F2000108604FF000604860002140F24C
:101DE000B420C2F200008160C1604FF480610161E3
:101DF0000021416181614FF48071C161490201623A
:101E000000214162FEF750FF08B1FEF7C2FD00BF9E
:101E100040F2B420C2F200006063846300BF46F267
:101E2000A000C4F2020040F21431C2F200010860C6
:101E30004FF000604860402140F21430C2F20000D0
:101E40008160002100E021E0C1604FF48061016108
:101E5000002141618161C1614FF4003101620021C3
:101E60004162FEF721FF08B1FEF793FD00BF40F28B
:101E70001430C2F200002063846300BF00221146C8
:101E80002620FFF78BF92620FFF778F906B010BD62
:101E900077B581B00446154694F83A00202859D108
:101EA000029800B115B9012004B070BD00BF94F8CC
:101EB0003800012801D10220F6E7012084F838001B
:101EC00000BF0298A062A5850020E063222084F86C
:101ED0003A0042F6AD10C0F60000616BC86342F6EE
:101EE000F310C0F60000616B086442F65D10C0F6A6
:101EF0000000616BC8640020616B086502AE326847
:101F00002368191D2B46606BFEF745FF00BF0020BC
:101F1000009020680068009020684068009000BF32
:101F200000BF00BF002084F8380000BF2068C068F0
:101F300040F480702168C8602068406940F001006A
:101F4000216848612068406940F04000216848618C
:101F50000020A9E70220A7E770477047F7B50446BD
:101F6000154694F83900202846D1019800B10DB9E2
:101F70000120FEBD00BF94F83800012801D10220E5
:101F8000F7E7012084F8380000BF01982062A5849B
:101F9000E5840020E063212084F8390042F6012026
:101FA000C0F60000216BC86342F63720C0F600007F
:101FB000216B086442F65D10C0F60000216BC86416
:101FC0000020216B086501AE23681A1D31682B467D
:101FD000206BFEF7E0FE6FF040002168086000BF54
:101FE000002084F8380000BF2068406940F080007D
:101FF000216848610020BCE70220BAE770477047BB
:1020000000BFFEE708B500BF0020009043F6300097
:10201000C4F20200006840F4001043F63001C4F23C
:10202000020108600846006800F40010009000BF3C
:1020300000BF00BF002000900846006840F4800008
:1020400008600846006800F48000009000BF00BFF0
:1020500046F22840C4F2020040F21401C2F200012C
:10206000086000204860802140F21400C2F20000A5
:1020700081608900C1604900016100214161816185
:10208000C161016204214162032181620021C162B8
:102090000163FEF709FE08B1FEF77BFC0022114642
:1020A0001020FFF77BF81020FFF768F80022114698
:1020B0001120FFF773F81120FFF760F808BD00B595
:1020C00087B0142102A8FEF7C5F800BF00200190D8
:1020D00043F63000C4F20200006840F0100043F6FE
:1020E0003001C4F2020108600846006800F01000E8
:1020F000019000BF00BF00BF0020019008460068AB
:1021000040F0040008600846006800F004000190F8
:1021100000BF00BF00BF002001900846006840F0EB
:10212000800008600846006800F08000019000BF51
:1021300000BF00BF002001900846006840F0010089
:1021400008600846006800F00100019000BF00BF71
:1021500001200290002003900120049002A94FF476
:102160008050C4F20200FEF75FFE07B000BD10B55C
:102170004FF48840C4F2000040F27421C2F2000122
:1021800008604FF4E1304860002140F27420C2F250
:1021900000008160C16001610C2141610021816109
:1021A000C161FFF78BFD08B1FEF7F3FB10BD00BF67
:1021B000FEE77047704710B50446204600F029F846
:1021C0002046FEF7A3F810BD00201FE000EB8002C0
:1021D00040F6AC41C2F2000101EB820191ED010A2F
:1021E00000EB800240F6AC41C2F2000101EB82013B
:1021F00081ED020A002100EB800340F6AC42C2F2FE
:10220000000202EB8302D160411CC8B20228DDD378
:10221000704710B5044640F6A840C2F2000090F89E
:102220004800A0BB40F6A840C2F200006422C16B87
:102230002046FEF7F0F950B372B6002040F20001DC
:10224000C2F20001087062B640F6A840C2F2000077
:1022500090F84C0040F6A841C2F2000181F84D0010
:1022600091F84D1043F23832C0F60002505C0F2155
:10227000FEF762FA40F6A840C2F20000C4630464AC
:10228000012040F6A841C2F2000181F8480010BDCB
:10229000002009E0002240F6F641C2F200010A5493
:1022A000891C0A54411CC8B20228F3D370477047F6
:1022B00010B50446FFF7ECFF002040F6A841C2F23B
:1022C000000181F84B000846846321460320FEF795
:1022D00048FB10BD10B50446FFF7DAFF002040F6BA
:1022E000A841C2F2000181F84B00084684632146F0
:1022F0000620FEF736FB10BD70B5054601214FF4F0
:102300008050C4F20200FEF7A8FE08B9012000E0E8
:1023100000200646002040F6A841C2F200010870E5
:102320004870B3EE0E0A084680ED0B0A80F8306064
:10233000002081F83100084645638563C563056464
:102340004564002081F84800084680F8496080F81C
:102350004A60002081F84B0081F84C0081F84D0064
:10236000FFF796FF002434E043F23830C0F6000057
:10237000015D04EB840240F6AC40C2F2000000F8BC
:102380002210002004EB840240F6AC41C2F20001AE
:1023900001EB8201486004EB840240F6AC41C2F2DA
:1023A000000101EB8201886004EB840240F6AC413D
:1023B000C2F2000101EB8201C860002104EB84023B
:1023C00040F6AC40C2F2000000EB82000174601CD9
:1023D000C4B2022CC8D340F6A840C2F2000090ED6F
:1023E0000B0AB5EEC00AF1EE10FA0BD9D0ED0B0ACC
:1023F0000020C4F2B43000EE100AF4EEC00AF1EE90
:1024000010FA03DB29460120FEF793FA70BD2DE98F
:10241000F0412DED028B84B00446FDF790FF054698
:10242000204600F020FE074640F6A840C2F2000019
:102430000078092804D104B0BDEC028BBDE8F0811E
:1024400040F6A840C2F20000007809287DD243F28D
:102450009231C0F60001D1E800F040F6A840C2F287
:1024600000004FF4FA72416B2046FEF7D4F888B1B1
:10247000002201210846FEF7D6F8012040F6A841C7
:10248000C2F2000181F84B00084684632146012016
:10249000FEF767FABDE140F6A840C2F200006422F0
:1024A000816B2046FEF7B7F800B9B2E140F6A840CC
:1024B000C2F2000090F84B0001280ED10022012149
:1024C0000220FEF7B0F8022040F6A841C2F2000157
:1024D00081F84B00084684630CE0002040F6A841D8
:1024E000C2F2000181F84B000846846321460220B5
:1024F000FEF737FA8DE140F6A840C2F200006422F0
:10250000816B2046FEF787F800B982E10CE040F6C7
:10251000A840C2F2000090F84B00401C40F6A841D1
:10252000C2F2000181F84B0040F6A840C2F2000060
:1025300090F84B0002280ED240F6A840C2F20000EC
:1025400090F84B0043F23C3100E05DE1C0F6000141
:10255000085C0028DBD040F6A840C2F2000090F8EA
:102560004B0002281DD240F6A841C2F2000191F8AA
:102570004B1043F23832C0F60002505C0121FEF7E6
:1025800070F840F6A840C2F2000090F84B00401CE2
:1025900040F6A841C2F2000181F84B00084684636E
:1025A00002E02046FFF784FE33E140F6A840C2F285
:1025B00000006422816B2046FEF72DF800B928E167
:1025C00040F6A840C2F2000090F84B0002281ED24C
:1025D00040F6A841C2F2000191F84B1043F23832A4
:1025E000C0F60002505C00221146FEF756F840F695
:1025F000A840C2F2000090F84B00401C40F6A841F1
:10260000C2F2000181F84B000846846308E040F6FE
:10261000A840C2F20000C46321460420FEF7A1F9DD
:10262000F7E040F6A840C2F2000043F69822416B62
:102630002046FDF7F0FF40B121460320FEF779F96F
:10264000E7E0D6E0ADE060E01AE0002D14DBE8B290
:10265000002100EE101A00F08EFDFDF744FE58B187
:10266000FFF716FE40F6A840C2F20000C463214600
:102670000520FEF776F9CCE02046FFF79CFDC8E088
:102680002FB1FFF7A1FD2046FFF724FEC1E0002D8A
:1026900037DBEEB206EB860140F6AC40C2F200003A
:1026A00000EB8100D0ED010AB0EE600A002000EEE0
:1026B000900A00F0A2FDB0EE408AB0EE480AFDF7A5
:1026C00005FEF7EE000AB4EEE00AF1EE10FA11DDB5
:1026D00040F6F840C2F20000805D401CC1B240F6F6
:1026E000F840C2F200008155032909D32046FFF7C4
:1026F000DFFD8EE0002140F6F840C2F20000815577
:1027000000BF2046FFF757FD83E040F6A840C2F225
:1027100000006422816B2046FDF77DFF00B978E060
:1027200040F6A840C2F2000090F84B0002282BD2DD
:1027300040F6A840C2F2000090F84B6000F0E5F8C7
:1027400080460120022143F23A32C0F60002CDE970
:1027500000810290915D43F23832C0F60002905D34
:102760002823B422FDF7B5FF40F6A840C2F20000CE
:1027700090F84B00401C40F6A841C2F2000181F8DD
:102780004B00084684630BE00020FEF7B9F840F6E2
:10279000A840C2F20000C46321460720FEF7E1F81A
:1027A00037E040F6A840C2F2000043F69822416BA1
:1027B0002046FDF730FF20B121460420FEF7B9F88E
:1027C00027E0002D11DBE8B200F095FCFDF78BFD52
:1027D00058B1FFF75DFD40F6A840C2F20000C463A7
:1027E00021460820FEF7BDF813E02046FFF7E3FC82
:1027F0000FE02FB1FFF7E8FC2046FFF76BFD08E084
:102800002046FFF7D8FC04E021460120FEF791F8AE
:1028100000BF00BF00BF0EE610B5FEF72CFC10BDD8
:1028200000B593B0302107A8FDF714FD142102A8CC
:10283000FDF710FD00BF002001904FF46150C4F27D
:102840000200006840F080504FF46151C4F2020170
:1028500008600846006800F08050019000BF00BF8B
:1028600000BF002001904FF4E040C4F20000006877
:1028700040F480404FF4E041C4F200010860084693
:10288000006800F48040019000BF00BF0120079065
:102890000004089002200D9041050E9104210F9133
:1028A000A8211091022111910421129107A8FEF78D
:1028B0005AFE08B1FEF76DF80F2002900220039037
:1028C000002004904FF4A05005904FF480500690E3
:1028D000052102A8FEF7B8FC08B1FEF75AF813B0BC
:1028E00000BD4EF68850CEF20000006840F4700043
:1028F0004EF68851CEF2000108604FF000604EF6AF
:102900000851CEF200010860704740F6A840C2F2BC
:10291000000090ED0B1A0020C4F2485000EE900A1F
:1029200021EE201A0020C4F2B43000EE900AC1EE6D
:10293000201AB0EE610AF6EE000A70EE200AFCEEF4
:10294000E00A10EE900A704770B50546AC6B0020A7
:10295000E085E0842046FFF705F970BD70B50646B6
:102960000025B46B20684069C0F3C01594F83900A5
:10297000212805D125B10020E084204600F082F80E
:1029800020684069C0F3801594F83A00222805D1E8
:1029900025B10020E085204600F054F8E06B40F0BF
:1029A0001000E0632046FFF7DDF870BD70B5054606
:1029B000AC6B2868006800F48070B0B90020E08536
:1029C0002068C06820F480702168C8602068406971
:1029D00020F00100216848612068406920F0400033
:1029E00021684861202084F83A002046FFF7B4FAB5
:1029F00070BD70B50446A56B2846FFF7AEFA70BDF2
:102A000070B50546AC6B2868006800F4807070B93A
:102A10000020E0842068406920F08000216848613F
:102A20002068C06840F040002168C86002E020468D
:102A3000FFF7E4FA70BD70B50446A56B2846FFF7B2
:102A4000DEFA70BD0168C96821F490710268D16036
:102A50000168496921F0010102685161202180F873
:102A60003A10704710B504462068C06820F0400056
:102A70002168C860202084F839002046FFF7BEFA9C
:102A8000002010BD0168C96821F0C0010268D16052
:102A9000202180F83910704770B5044694F83A0048
:102AA00022284AD1A068B0F5805F13D1A56A2069B9
:102AB00040B920684068C0F308002880A06A801CE4
:102AC000A06219E020684068C0B22880A06A401C5B
:102AD000A06211E0206938B920684068C1B2A26ADA
:102AE000501CA062117007E02068406800F07F0170
:102AF000A26A501CA0621170E08D401E80B2E08579
:102B0000C8B92068C06820F020002168C86020682B
:102B1000C06820F480702168C8602068406920F097
:102B2000010021684861202084F83A002046FFF720
:102B300013FA002070BD0020FCE70220FAE72DE91F
:102B4000F84F04462068006920F44050E1680843CB
:102B5000216808612169A068084361690843E16947
:102B6000084300902068C06820F4037020F41440EB
:102B7000009908432168C8602068406920F44070CB
:102B8000A169084321684861E069B0F5004F7ED132
:102B90004FF48051C4F201012068884206D04FF4FE
:102BA000A051C4F201012068884272D1FEF760FC96
:102BB000814602206168A0FB015003461920A9FB51
:102BC00000712A463846FDF7FBFA6421B0FBF1F0AC
:102BD0004FEA001A02206168A0FB01500346192049
:102BE000A9FB00712A463846FDF7EAFA074602209B
:102BF0006168A0FB01511920A9FB00B084462A4658
:102C00000B4658466146FDF7DBFA6421B0FBF1F054
:102C100000EBC00101EB0010A7EB8000322101EBBB
:102C2000C0006421B0FBF1F000F0F8000AEB400AAC
:102C300002206168A0FB015003461920A9FB007126
:102C40002A463846FDF7BCFA074602206168A0FB19
:102C5000015003461920A9FB00B001462A465846F8
:102C6000FDF7AEFA6421B0FBF1F000EBC00101EB1F
:102C70000010A7EB8000322101EBC0006421B0FB03
:102C8000F1F000F007005044216888605FE171E0D6
:102C9000FFE7FEF7DCFB814602206168A0FB0150E4
:102CA00003461920A9FB00712A463846FDF788FA29
:102CB0006421B0FBF1F04FEA001A02206168A0FB2A
:102CC000015003461920A9FB007001462A463846E8
:102CD000FDF776FA074602206168A0FB0150034623
:102CE0001920A9FB00B12A465846FDF769FA64216C
:102CF000B0FBF1F000EBC00101EB0010A7EB80008E
:102D0000322101EBC0006421B0FBF1F000F0F800CB
:102D10000AEB400A02206168A0FB01511920A9FBBF
:102D2000007080462A460B4638464146FDF748FA71
:102D3000074602206168A0FB015003461920A9FB49
:102D400000B12A465846FDF73BFA6421B0FBF1F08A
:102D500000EBC00101EB0010A7EB8000322101EB7A
:102D6000C0006421B0FBF1F000F00700504421687E
:102D70008860ECE04FF48051C4F201012068884281
:102D800006D04FF4A051C4F201012068884270D1EE
:102D9000FEF76EFB814604206168A0FB01511920FB
:102DA000A9FB007080462A460B4638464146FDF78F
:102DB00007FA824604206168A0FB015003461920EF
:102DC000A9FB00712A463846FDF7FAF96421B0FBE9
:102DD000F1F000EBC00101EB0010AAEB8000322102
:102DE00001EB00106421B0FBF1F000F0F00A0420C8
:102DF0006168A0FB015003461920A9FB0070014641
:102E00002A463846FDF7DCF96421B0FBF1F00AEB05
:102E1000001A04206168A0FB015003461920A9FB99
:102E200000712A463846FDF7CBF907460420616851
:102E3000A0FB015003461920A9FB00B001462A4619
:102E40005846FDF7BDF96421B0FBF1F000EBC0017D
:102E500001EB0010A7EB8000322101EB0010642190
:102E6000B0FBF1F000F00F005044216888606EE084
:102E7000FFE7FEF7ECFA814604206168A0FB0150F1
:102E800003461920A9FB00712A463846FDF798F938
:102E9000824604206168A0FB015003461920A9FB6B
:102EA00000712A463846FDF78BF96421B0FBF1F03A
:102EB00000EBC00101EB0010AAEB8000322101EB16
:102EC00000106421B0FBF1F000F0F00A042061680A
:102ED000A0FB015003461920A9FB007001462A46B9
:102EE0003846FDF76DF96421B0FBF1F00AEB001AEA
:102EF00004206168A0FB017003461920A9FB005063
:102F000001463A462846FDF75BF90746042061680A
:102F1000A0FB015003461920A9FB00B001462A4638
:102F20005846FDF74DF96421B0FBF1F000EBC0010C
:102F300001EB0010A7EB8000322101EB00106421AF
:102F4000B0FBF1F000F00F00504421688860BDE84C
:102F5000F88F014691F8390021282CD18868B0F506
:102F6000805F0FD10A6A1088C0F308000B685860B0
:102F7000086918B9086A801C086209E0086A401CE0
:102F8000086205E00B6A581C086218780B685860E4
:102F9000C88C401E80B2C88458B90868C06820F048
:102FA00080000B68D8600868C06840F040000B687B
:102FB000D860002070470220FCE708B540F274207A
:102FC000C2F2000000680068C0F30010E8B300BF60
:102FD0000020009040F27420C2F2000000680068F7
:102FE000009040F27420C2F2000000684068009037
:102FF00000BF00BF40F27420C2F20000FEF77FFD68
:1030000040F2B420C2F2000000684068C0F1FF0046
:1030100040F20101C2F2000108700846027840F255
:103020007401C2F2000140F27310C2F20000FDF719
:10303000F8F8012040F20001C2F200010870FF22FE
:1030400040F27401C2F2000100E005E040F2742099
:10305000C2F20000FEF71CFF40F27420C2F2000032
:10306000FEF781FD08BD70B5054601214FF4805083
:10307000C4F20200FDF7F1FF08B9012000E00020D2
:10308000044640F6A840C2F2000090F84900A04271
:1030900007D040F6A840C2F2000080F849404564DD
:1030A0001BE040F6A840C2F2000090F84A00A0429F
:1030B00013D040F6A840C2F200001E22416C284600
:1030C000FDF7A9FA48B140F6A840C2F2000080F826
:1030D0004A4080F83040204670BD40F6A840C2F219
:1030E000000090F84A0040F6A841C2F2000181F8C1
:1030F00030000020F0E710B52DED028B044604EB04
:10310000840140F6AC40C2F2000000EB810090ED7B
:10311000030A40F6A840C2F20000D0ED0B0A30EEE0
:10312000600AB0EE408AB0EE480AFDF7CFF8F7EE3D
:10313000000AB4EEE00AF1EE10FA13D840F6F640B9
:10314000C2F20000005DFF2812D240F6F640C2F243
:103150000000005D401CC1B240F6F640C2F2000023
:10316000015505E0002140F6F640C2F2000001558D
:10317000BDEC028B10BD10B52DED028B0446B0EEF8
:10318000408A04EB840140F6AC40C2F2000000EB40
:103190008100D0ED010AB0EE600AF0EE480A00F0BE
:1031A0002CF8F0EE408AB0EE680AFDF78FF8F7EEE3
:1031B000000AB4EEE00AF1EE10FA13D840F6F64039
:1031C000C2F20000005DFF2812D240F6F640C2F2C3
:1031D0000000005D401CC1B240F6F640C2F20000A3
:1031E000015505E0002140F6F640C2F2000001550D
:1031F000BDEC028B10BD00BFFEE7B0EE401A71EED1
:10320000601AB0EE610A08E00020C4F2B43001EEAA
:10321000900A70EE611AB0EE610A0020C4F23430F8
:1032200001EE900AB4EEE10AF1EE10FAECDC08E0EF
:103230000020C4F2B43001EE900A70EE211AB0EE14
:10324000610A0020CCF2343001EE900AB4EEE10ABB
:10325000F1EE10FAECD370474EF60C50CEF20000AF
:103260000068C0F30220704710B5002807DB0A078A
:10327000130E4FF46442CEF20002135409E00A0721
:10328000140E4EF61852CEF2000200F00F031B1F70
:10329000D45410BD02E008C8121F08C1002AFAD198
:1032A00070477047002001E001C1121F002AFBD1C6
:1032B000704708B5FDF7F0FEFFF7B2FAFEF7FFFE24
:1032C000FEF7A0FEFEF753FF00BF0020009040F283
:1032D0007420C2F2000000680068009040F2742080
:1032E000C2F2000000684068009000BF00BF40F2DA
:1032F0007420C2F200000068C06840F0100040F284
:103300007421C2F200010968C860FF2240F2740112
:10331000C2F2000140F27420C2F20000FEF7B8FDD4
:10332000FDF7A3FE0446FEF7E7FF04E0FDF79DFE70
:103330000446FFF76CF8F9E70102000000010006FF
:103340001016000610160000000000000000010228
:10335000030406070809000000000102030400003E
:103360009C33000800000020140000009432000884
:10337000B033000814000020EC1C0000A432000848
:103380000009121B242D363F48515A636D767F8801
:10339000919A001E4EA8E4F7F6F5F4000000000034
:1033A0000000000010000000010000000024F400F4
:040000050800018965
:00000001FF
