:020000040800F2
:10000000501F00209D010008631F0008511D0008BB
:100010005F1F0008A9020008252C0008000000004E
:10002000000000000000000000000000AF240008F5
:10003000D703000800000000BB230008B12400081B
:10004000B7010008B7010008B7010008B7010008B0
:10005000B7010008B7010008B7010008B7010008A0
:10006000B7010008B7010008B7010008B701000890
:10007000B7010008B7010008B7010008B701000880
:10008000AD020008BD020008B7010008B701000872
:10009000B7010008B7010008B7010008B701000860
:1000A000B7010008B7010008B7010008B701000850
:1000B000B7010008B7010008B7010008B701000840
:1000C000B7010008B7010008B7010008B701000830
:1000D000B7010008B7010008152C0008B701000897
:1000E000B7010008B7010008B7010008B701000810
:1000F000B7010008B7010008B7010008B701000800
:10010000B7010008B7010008B7010008B7010008EF
:10011000B7010008B7010008B7010008B7010008DF
:10012000B7010008B7010008B7010008B7010008CF
:10013000B7010008B7010008B7010008B7010008BF
:10014000B7010008B7010008B7010008B7010008AF
:10015000B7010008B7010008B7010008B70100089F
:10016000B7010008B7010008B7010008B70100088F
:10017000B7010008B7010008B7010008000000003F
:10018000B7010008B7010008DFF80CD000F07AF8DA
:1001900000480047832C0008501F00200648804775
:1001A00006480047FEE7FEE7FEE7FEE7FEE7FEE75C
:1001B000FEE7FEE7FEE7FEE77B2500088901000871
:1001C0002DE9F05F0546002092469B46884606468C
:1001D000814640241BE0284641464746224600F01F
:1001E00041F853465A46C01A914110D31146184659
:1001F000224600F028F82D1A67EB01084F462246E8
:100200000120002100F01FF817EB00094E41201ECD
:10021000A4F10104DFDC484631462A464346BDE8E6
:10022000F09FD2B201E000F8012B491EFBD27047CB
:100230000022F6E710B513460A4604461946FFF7B2
:10024000F0FF204610BD202A04DB203A00FA02F11C
:10025000002070479140C2F1200320FA03F31943B4
:1002600090407047202A04DB203A21FA02F0002156
:10027000704721FA02F3D040C2F1200291400843B6
:1002800019467047064C074D06E0E06840F0010350
:1002900094E8070098471034AC42F6D3FFF778FF94
:1002A000384F0008584F000800BFFEE710B540F275
:1002B0005810C2F2000000F04BFA10BD10B540F229
:1002C000B810C2F2000000F043FA10BD01460878F1
:1002D00010381823B0FBF3F244F61870C0F6000093
:1002E000805CC865032A05D908686FF30900001D02
:1002F000886503E008686FF309008865886D7047BA
:10030000014600208A6A8B69CBB932B1012A0DD02F
:10031000022A03D0032A10D10EE000BFCB6A03F0FB
:100320008073B3F1807F00D1012007E0CB6AB3F185
:10033000C07F00D1012001E000E000BF34E08B6904
:10034000B3F5005F1AD132B1012A07D0022A03D0D7
:10035000032A11D10AE000BF01200EE0CB6A03F0AE
:100360008073B3F1807F00D1012006E0CB6AB3F146
:10037000C07F00D1012000E000BF15E032B1012AAA
:1003800005D0022A04D0032A0CD103E000BF00BF2D
:10039000012008E0CB6A03F08073B3F1807F00D1C5
:1003A000012000E000BF00BF704730B5046824683A
:1003B00024F4802405682C60046863608468402C01
:1003C00004D10468A2600468E16003E00468A160ED
:1003D0000468E26030BD704770B506460C461546AD
:1003E00040F66800C2F200000670F32040F6680193
:1003F000C2F200014870AB2088700846C4700571D5
:100400006B204871062240F21810C2F2000001F081
:100410004DFC70BD70B506460C46154640F6E8002A
:10042000C2F2000006709A2040F6E801C2F2000114
:10043000487008468470C5706B200871052240F230
:100440001810C2F2000001F031FC70BD2DE9F04738
:1004500006460F4615469846DDE9099A089C40F67F
:100460008800C2F200000670FD2040F68801C2F24A
:1004700000014870084687702812C8700D71084640
:1004800080F80580200E8871200CC871200A08723F
:100490004C72084680F80A9080F80BA06B20087315
:1004A0000D2240F21810C2F2000001F0FFFBBDE87F
:1004B000F08770B505460E46002440F66810C2F27B
:1004C00000000555641C701F122871D244F6587143
:1004D000C0F60001D1E800F0242040F66811C2F215
:1004E00000010855601CC4B29AE0262040F668114D
:1004F000C2F200010855601CC4B291E0272040F60A
:100500006811C2F200010855601CC4B288E02920BD
:1005100040F66811C2F200010855601CC4B27FE0C9
:10052000302040F66811C2F200010855601CC4B2C8
:1005300076E0312040F66811C2F200010855601CD7
:10054000C4B26DE0322040F66811C2F200010855D5
:10055000601CC4B264E0332040F66811C2F20001AE
:100560000855601CC4B25BE0342040F66811C2F24A
:1005700000010855601CC4B252E0352040F66811F5
:10058000C2F200010855601CC4B249E0362040F6B2
:100590006811C2F200010855601CC4B240E0372067
:1005A00040F66811C2F200010855601CC4B237E081
:1005B00035E0382040F66811C2F200010855601C91
:1005C000C4B22DE0392040F66811C2F2000108558E
:1005D000601CC4B224E03A2040F66811C2F2000167
:1005E0000855601CC4B21BE03B2040F66811C2F203
:1005F00000010855601CC4B212E03C2040F66811AE
:10060000C2F200010855601CC4B209E03D2040F66A
:100610006811C2F200010855601CC4B200E000BFBE
:1006200000BF6B2040F66811C2F200010855601C43
:10063000C4B2224640F21810C2F2000001F036FBAC
:1006400070BD10B5044640F6C800C2F20000047048
:10065000FF2040F6C801C2F2000148706620887091
:100660006B20C870042240F21810C2F2000001F0A2
:100670001DFB10BD00BFFEE770B50446A56D00F080
:1006800083FB064694F83500022808D08020606578
:1006900000BF002084F8340000BF012070BD206836
:1006A000006820F01600216808602068406920F08A
:1006B000800021684861206C08B9A06C28B12068CE
:1006C000006820F00800216808602068006820F0B9
:1006D0000100216808600FE000F056FB801B052830
:1006E0000AD92020606500BF002084F8340000BFD4
:1006F000032084F83500D1E72068006800F001008D
:100700000028E9D194F85C103F208840A86000BF21
:10071000002084F8340000BF012084F83500002058
:10072000BCE7014691F83500022803D080204865D7
:1007300001207047052081F835000868006820F026
:1007400001000A6810600020F3E70146486D704719
:10075000F8B504460020009040F2B400C2F2000058
:1007600000684FF41651B0FBF1F7A56D2E6894F8B0
:100770005C1008208840304098B12068006800F084
:10078000040070B12068006820F00400216808604F
:1007900094F85C1008208840A860606D40F001006B
:1007A000606594F85C1001208840304068B1206892
:1007B000406900F0800040B194F85C10012088404E
:1007C000A860606D40F00200606594F85C10042041
:1007D0008840304068B12068006800F0020040B1F5
:1007E00094F85C1004208840A860606D40F004001C
:1007F000606594F85C1010208840304078B3206821
:10080000006800F0080050B394F85C101020884095
:10081000A8602068006800F4802080B1206800682B
:1008200000F4002028B9206CC8B12046216C88470C
:1008300015E0A06C98B12046A16C88470FE02068B5
:10084000006800F4807028B92068006820F0080073
:1008500021680860206C10B12046216C884794F80C
:100860005C10202088403040002865D02068006857
:1008700000F0100000285FD094F85C102020884021
:10088000A86094F83500052828D12068006820F079
:100890001600216808602068406920F08000216807
:1008A0004861206C08B9A06C28B12068006820F06D
:1008B00008002168086094F85C103F208840A86018
:1008C00000BF002084F8340000BF012084F8350008
:1008D000206D10B12046216D8847F8BD2068006862
:1008E00000F4802080B12068006800F4002028B95E
:1008F000606C10B12046616C88471DE0E06BD8B198
:100900002046E16B884717E02068006800F480709B
:1009100068B92068006820F010002168086000BFF6
:10092000002084F8340000BF012084F83500E06B1B
:1009300010B12046E16B8847606D38B3606D00F000
:100940000100F0B1052084F835002068006820F02F
:1009500001002168086000BF0098401C0090B84268
:1009600000D905E02068006800F001000028F3D1FC
:1009700000BF00BF002084F8340000BF012084F8CD
:100980003500E06C10B12046E16C884700BFA4E759
:100990002DE9F0410446002500F0F6F9074614B9A8
:1009A0000120BDE8F081606A00B100BF00BF0020F7
:1009B00084F8340000BF022084F835002068006805
:1009C00020F00100216808600AE000F0DDF9C01B9A
:1009D000052805D920206065032084F83500E0E76C
:1009E0002068006800F001000028EED1206805684A
:1009F00048F23F00CFF210000540D4E9010108435E
:100A0000E16808432169084361690843A169084313
:100A1000E1690843216A08430543606A042803D159
:100A2000D4E90B0108430543206805602068456947
:100A300025F00705606A0543606A04280DD1A06AA5
:100A40000543E06A48B12046FFF75AFC28B1402030
:100A50006065012084F83500A3E7206845612046E1
:100A6000FFF734FC064694F85C103F208840B060E5
:100A700000206065012084F83500002091E72DE911
:100A8000F04704460D4616461F464FF00008D4F8BE
:100A9000589000BF94F83400012802D10220BDE82C
:100AA000F087012084F8340000BF94F83500012855
:100AB00025D1022084F83500002060653B4632468F
:100AC00029462046FFF771FC94F85C103F208840CF
:100AD000C9F808002068006840F016002168086026
:100AE000206C28B12068006840F008002168086088
:100AF0002068006840F001002168086006E000BF3F
:100B0000002084F8340000BF4FF002084046C6E7DA
:100B100070B5044600F038F906462546681C28B131
:100B200040F2B000C2F200000078054400BF00F0BF
:100B30002BF9801BA842FAD370BDF8B502460B46CC
:100B400000250024002000210CE1012606FA01F511
:100B50001E6806EA0504AC427DD15E68012E08D00D
:100B60005E68022E05D05E68112E02D05E68122EDD
:100B700013D190684F000326BE40B0434F00DE689B
:100B8000BE4030439060506801268E40B0431E79CD
:100B9000C6F300168E4030435060D0684F000326E5
:100BA000BE40B0434F009E68BE403043D0605E6898
:100BB000022E02D05E68122E13D1CF0802F1200659
:100BC00056F827004E07F70E0F26BE40B0434F07DA
:100BD000FF0E1E69BE403043CF0802F1200646F8E2
:100BE000270010684F000326BE40B0431E7906F070
:100BF00003064F00BE40304310605E6806F080562A
:100C0000B6F1805FA8D100BF0026009643F64406E7
:100C1000C4F20206366846F4804643F64407C4F23E
:100C200002073E603E46366806F48046009600BFE6
:100C300000BF43F60806C4F201068F0856F82700E5
:100C40008E07370F0F26BE40B0430026C4F20206BF
:100C5000B24203D100E084E0002638E04FF4806621
:100C6000C4F20206B24201D1012630E04FF4006620
:100C7000C4F20206B24201D1022628E04FF44066D7
:100C8000C4F20206B24201D1032620E04FF480569E
:100C9000C4F20206B24201D1042618E04FF4A05675
:100CA000C4F20206B24201D1052610E04FF4C0564C
:100CB000C4F20206B24201D1062608E04FF4E05623
:100CC000C4F20206B24201D1072600E008268F07CF
:100CD0003F0FBE40304343F60806C4F201068F08BA
:100CE00046F827004FF47056C4F201063068A0435E
:100CF0005E6806F48036B6F5803F00D120434FF49D
:100D00007056C4F201063060361D3068A0435E683C
:100D100006F40036B6F5003F00D1204343F6044602
:100D2000C4F201063060361D3068A0435E6806F4E8
:100D30008016B6F5801F00D1204343F60846C4F262
:100D400001063060361D3068A0435E6806F4001668
:100D5000B6F5001F00D1204343F60C46C4F201064D
:100D60003060491C1029FFF4F0AEF8BD024613694B
:100D70000B400BB1012000E0002070470AB18161F7
:100D800001E00B048361704740F2A800C2F200004A
:100D90000068704740F2A800C2F20000006840F20C
:100DA000B001C2F200010978084440F2A801C2F281
:100DB00000010860704710B54FF47050C4F2020093
:100DC000006840F400704FF47051C4F202010860F2
:100DD0000846006840F4806008600846006840F4F7
:100DE00080700860032000F0A6F8002000F004F8EE
:100DF00000F02BF8002010BD70B5044640F2B000A2
:100E0000C2F2000000784FF47A71B1FBF0F040F2CA
:100E1000B401C2F200010968B1FBF0F5284600F008
:100E2000E3FC08B1012070BD102C0AD2002221463B
:100E3000501E00F042F840F2AC00C2F20000046024
:100E400001E00120EFE70020EDE708B500BF00203A
:100E5000009043F64400C4F20200006840F4804071
:100E600043F64401C4F2020108600846006800F439
:100E70008040009000BF00BF00BF00200090081F0E
:100E8000006840F08050091F08600846006800F0C4
:100E90008050009000BF00BF08BD014608460028F2
:100EA00009DB00F01F0301229A4043099B0003F174
:100EB000E023C3F8002100BF70472DE9F05F8046B2
:100EC0000D461646002701F0AFFE074639462A4672
:100ED000334601F00700C0F1070ABAF1040F02D946
:100EE0004FF0040A01E0C0F1070AD14600F1040AFC
:100EF000BAF1070F02D24FF0000A01E0A0F1030A95
:100F0000D4464FF0010A0AFA09FAAAF1010A0AEADC
:100F1000020A0AFA0CFA4FF0010B0BFA0CFBABF1C8
:100F2000010B0BEA030B4AEA0B042146404601F091
:100F300083FEBDE8F09F00BF00F007024EF60C53A1
:100F4000CEF2000319684FF6FF03194041F0FD731C
:100F500043F0806343EA02214EF60C53CEF20003C5
:100F6000196000BF704770B504460D460CB90120EA
:100F700070BD4FF47050C4F20200006800F00F0022
:100F8000A8420CD24FF47051C4F202010D70084611
:100F9000006800F00F00A84201D00120E8E72078A7
:100FA00000F0020002282FD1207800F0040004286D
:100FB0000BD143F60800C4F20200006840F4E05090
:100FC00043F60801C4F202010860207800F008002E
:100FD00008280BD143F60800C4F20200006840F470
:100FE000604043F60801C4F20201086043F60800BD
:100FF000C4F20200006820F0F000A168084343F644
:101000000801C4F202010860207800F00100C0B3BA
:101010006068012809D14FF46050C4F202000068F2
:10102000C0F34040D8B90120A2E76068022802D08E
:101030006068032809D14FF46050C4F202000068D0
:10104000C0F3406058B9012092E74FF46050C4F2F9
:1010500002000068C0F3400008B9012088E743F6A9
:101060000800C4F20200006820F003006168084331
:1010700043F60801C4F202010860FFF785FE064648
:1010800009E013E0FFF780FE801B41F288318842BF
:1010900001D903206CE743F60800C4F2020000689F
:1010A00000F00C006168B0EB810FEBD14FF4705091
:1010B000C4F20200006800F00F00A8420CD94FF4FF
:1010C0007051C4F202010D700846006800F00F0074
:1010D000A84201D001204BE7207800F0040004284A
:1010E0000DD143F60800C4F20200006820F4E0507D
:1010F000E168084343F60801C4F202010860207861
:1011000000F0080008280ED143F60800C4F20200DF
:10111000006820F46040216940EAC10043F60801FC
:10112000C4F20201086000F043F843F60801C4F27B
:1011300002010968C1F3031144F62072C0F60002EF
:10114000515CC84040F2B401C2F20001086040F2B4
:10115000AC00C2F200000068FFF74EFE002007E777
:1011600040F2B400C2F200000068704700B5FFF71B
:10117000F7FF43F60801C4F202010968C1F38221B6
:1011800044F63072C0F60002515CC84000BD00B5A4
:10119000FFF7E6FF43F60801C4F202010968C1F354
:1011A000423144F63072C0F60002515CC84000BDC6
:1011B0002DE9F047002400250026A14643F608004B
:1011C000C4F20200006800F00C0020B1042807D02F
:1011D00008284ED109E04FF41059C0F2F4094DE04F
:1011E0004FF49059C0F27A0948E043F60400C4F283
:1011F0000200006800F03F0443F60400C4F202005D
:10120000006800F48000A0B14FF49050C0F27A0062
:1012100043F60401C4F202010968C1F38811A0FB7E
:1012200001700146224600233846FEF7C9FF0546F5
:1012300013E04FF41050C0F2F40043F60401C4F27E
:1012400002010968C1F38811A0FB01700146224622
:1012500000233846FEF7B4FF054643F60400C4F207
:1012600002000068C0F30140401C4600B5FBF6F9DF
:1012700004E04FF41059C0F2F40900BF00BF484623
:10128000BDE8F087F8B504460CB90120F8BD207818
:1012900000F00100002870D043F60800C4F20200FC
:1012A000006800F00C00042812D043F60800C4F2D5
:1012B0000200006800F00C00082817D143F6040073
:1012C000C4F20200006800F48000B0F5800F0DD178
:1012D0004FF46050C4F202000068C0F340400028A0
:1012E0006AD06068002867D10120CFE700BF60683E
:1012F000B0F5803F0CD14FF46050C4F2020000689A
:1013000040F480304FF46051C4F20201086026E0DE
:101310006068B0F5A02F11D14FF46050C4F2020004
:10132000006840F480204FF46051C4F2020108606C
:101330000846006840F48030086010E04FF46050C8
:10134000C4F20200006820F480304FF46051C4F20F
:10135000020108600846006820F48020086000BF91
:101360006068A8B1FFF710FD054607E0FFF70CFD28
:10137000401B642802D9032088E71DE04FF4605029
:10138000C4F202000068C0F340400028EED013E031
:10139000FFF7FAFC054606E0FFF7F6FC401B642861
:1013A00001D9032072E74FF46050C4F202000068D4
:1013B000C0F340400028EFD1207800F0020002285E
:1013C00079D143F60800C4F20200006800F00C0076
:1013D00080B143F60800C4F20200006800F00C007F
:1013E000082824D143F60400C4F20200006800F487
:1013F0008000E0B94FF46050C4F202000068C0F30E
:10140000400020B1E068012801D001203EE74FF400
:101410006050C4F20200006820F0F800216940EA40
:10142000C1004FF46051C4F20201086043E0E0687B
:1014300040B301200021C4F247210860FFF7A4FC5B
:10144000054606E0FFF7A0FC401B022801D9032057
:101450001CE74FF46050C4F202000068C0F3400083
:101460000028EFD04FF46050C4F20200006820F072
:10147000F800216940EAC1004FF46051C4F2020152
:10148000086018E000200021C4F247210860FFF73F
:101490007BFC054606E0FFF777FC401B022801D9DC
:1014A0000320F3E64FF46050C4F202000068C0F37A
:1014B00040000028EFD1207800F00800082836D13D
:1014C0006069D0B101204FF46861C4F2472108601F
:1014D000FFF75AFC054606E0FFF756FC401B0228C2
:1014E00001D90320D2E643F67400C4F2020000687A
:1014F000C0F340000028EFD019E000204FF46861ED
:10150000C4F247210860FFF73FFC054606E0FFF7FD
:101510003BFC401B022801D90320B7E643F67400C8
:10152000C4F202000068C0F340000028EFD1207828
:1015300000F0040004287CD100274FF46150C4F26D
:101540000200006800F08050B0B900BF0020009099
:101550004FF46150C4F20200006840F080504FF434
:101560006151C4F2020108600846006800F0805032
:10157000009000BF00BF01274FF4E040C4F200001C
:10158000006800F48070F8B94FF4E040C4F2000045
:10159000006840F480704FF4E041C4F2000108603C
:1015A000FFF7F2FB054606E0FFF7EEFB401B0228C3
:1015B00001D903206AE64FF4E040C4F2000000685D
:1015C00000F480700028EFD000BFA06801280CD183
:1015D00043F67000C4F20200006840F0010043F6D8
:1015E0007001C4F20201086027E0A068052811D14B
:1015F00043F67000C4F20200006840F0040043F6B5
:101600007001C4F2020108600846006840F0010061
:10161000086012E043F67000C4F20200006820F097
:10162000010043F67001C4F2020108600846006838
:1016300000E041E020F00400086000BFA068B0B105
:10164000FFF7A2FB054608E0FFF79EFB401B41F2B7
:101650008831884201D9032018E643F67000C4F2AD
:1016600002000068C0F340000028EDD015E0FFF74D
:101670008BFB054608E0FFF787FB401B41F28831F2
:10168000884201D9032001E643F67000C4F202004B
:101690000068C0F340000028EDD1012F0BD14FF4BA
:1016A0006150C4F20200006820F080504FF4615194
:1016B000C4F20201086000BFA069002852D043F6BE
:1016C0000800C4F20200006800F00C00082864D092
:1016D000A069022847D100200021C4F247210866F2
:1016E000FFF752FB054606E0FFF74EFB401B0228C2
:1016F00001D90320CAE54FF46050C4F2020000682B
:10170000C0F340600028EFD1D4E907010843616AC3
:1017100040EA81110122A06AC2EB500041EA004177
:101720002C20005D41EA006043F60401C4F202018E
:10173000086001200021C4F247210866FFF724FB5E
:10174000054606E0FFF720FB401B022801D90320D5
:101750009CE54FF46050C4F202000068C0F34060A2
:101760000028EFD03EE000200021C4F247210866A7
:10177000FFF70AFB054606E0FFF706FB401B0228C1
:1017800001D9032082E54FF46050C4F202000068E2
:10179000C0F340600028EFD124E0A069012800D107
:1017A00074E543F60800C4F20200066806F48001FE
:1017B000E069814214D106F03F01206A81420FD1D5
:1017C00047F6C0703040616A884209D106F4403162
:1017D000A06A814204D106F07061E06A814201D0C2
:1017E000012053E5002051E570B504462546681EEA
:1017F000B0F1807F01D301200FE0681E4FF0E0219F
:1018000048610F214FF0FF3001F016FA00204FF031
:10181000E021886107200861002070BD10B50446F2
:101820002068C06820F490702168C8602068406912
:1018300020F00100216848612068406900F0400004
:10184000402817D12068406920F040002168486195
:10185000606B78B10020616B0865606BFEF70CFF70
:1018600040B1606BFEF771FF202803D11020E063C8
:10187000032010BD0020E085202084F83A000020DD
:10188000F7E74FF48842C4F200020168914205D1A3
:10189000012140F2A302C2F20002117070472DE94B
:1018A000F0470446206805682068C66820684769D4
:1018B0004FF00008C14605F00F08B8F1000F0AD13B
:1018C00005F0200038B106F0200020B1204600F0DD
:1018D00010FFBDE8F087B8F1000F75D007F00100E8
:1018E00018B906F4907000286ED005F0010030B1F0
:1018F00006F4807018B1E06B40F00100E06305F081
:10190000040030B107F0010018B1E06B40F00200B4
:10191000E06305F0020030B107F0010018B1E06BA0
:1019200040F00400E06305F0080048B106F0200034
:1019300010B907F0010018B1E06B40F00800E06357
:10194000E06B88B305F0200028B106F0200010B14C
:10195000204600F0CEFE20684069C0F38019E06B9D
:1019600000F0080010B9B9F1000F26D0204600F0B1
:1019700096FE2068406900F04000402819D1206898
:10198000406920F0400021684861606B68B142F214
:10199000A350C0F60000616B0865606BFEF7C1FEE6
:1019A00010B1606B016D88470CE02046FFF769FFBE
:1019B00008E02046FFF765FF04E02046FFF761FFDF
:1019C0000020E06385E7FFE705F0800030B106F016
:1019D000800018B1204601F0E9F87AE705F04000F0
:1019E00030B106F0400018B1204600F068FE70E704
:1019F00000BF6EE710B504460CB9012010BDA06908
:101A000000B100E000BF94F8390028B9002084F844
:101A10003800204600F027F8242084F83900206898
:101A2000C06820F400502168C860204600F0B4FE71
:101A30002068006920F490402168086120684069AE
:101A400020F02A00216848612068C06840F40050F6
:101A50002168C8600020E063202084F8390084F801
:101A60003A000020CAE710B586B00446142101A848
:101A7000FEF7DEFB4FF48841C4F200012068884283
:101A80007DD100BF002000904FF46150C4F20200ED
:101A9000006840F400304FF46151C4F20201086064
:101AA0000846006800F40030009000BF00BF00BF8F
:101AB0000020009043F63000C4F20200006840F0BD
:101AC000080043F63001C4F20201086008460068CD
:101AD00000F00800009000BF00BF602001900220CD
:101AE000029001200390032004900720059001A993
:101AF0004FF44060C4F20200FFF71FF846F288007E
:101B0000C4F2020040F25811C2F2000108604FF026
:101B100000604860002140F25810C2F2000081606D
:101B2000C1604FF480610161002141618161C16147
:101B30004FF40031016200214162FEF729FF08B134
:101B4000FEF798FD00BF40F25810C2F2000060633B
:101B5000846300BF46F2A000C4F2020040F2B81154
:101B6000C2F2000108604FF000604860402140F27E
:101B7000B810C2F2000081600021C16000E020E0E6
:101B80004FF480610161002141618161C1614FF4C5
:101B90000031016200214162FEF7FAFE08B1FEF752
:101BA00069FD00BF40F2B810C2F2000020638463F8
:101BB00000BF002211462620FFF77FF92620FFF7FD
:101BC0006CF906B010BD77B581B00446154694F89F
:101BD0003A00202859D1029800B115B9012004B06B
:101BE00070BD00BF94F83800012801D10220F6E74B
:101BF000012084F8380000BF0298A062A58500206B
:101C0000E063222084F83A0042F20760C0F6000048
:101C1000616BC86342F24D60C0F60000616B0864FE
:101C200042F2B750C0F60000616BC8640020616BDF
:101C3000086502AE32682368191D2B46606BFEF7FB
:101C40001EFF00BF00200090206800680090206800
:101C50004068009000BF00BF00BF002084F838003B
:101C600000BF2068C06840F480702168C8602068A8
:101C7000406940F00100216848612068406940F0F7
:101C80004000216848610020A9E70220A7E74FF43F
:101C90008842C4F200020168914205D1012140F25C
:101CA000A202C2F20002117070477047F7B50446F5
:101CB000154694F83900202846D1019800B10DB995
:101CC0000120FEBD00BF94F83800012801D1022098
:101CD000F7E7012084F8380000BF01982062A5844E
:101CE000E5840020E063212084F8390042F25B6043
:101CF000C0F60000216BC86342F29160C0F600009C
:101D0000216B086442F2B750C0F60000216BC86432
:101D10000020216B086501AE23681A1D31682B462F
:101D2000206BFEF7ACFE6FF040002168086000BF3A
:101D3000002084F8380000BF2068406940F080002F
:101D4000216848610020BCE70220BAE7704770476D
:101D500000BFFEE708B500BF0020009043F630004A
:101D6000C4F20200006840F4001043F63001C4F2EF
:101D7000020108600846006800F40010009000BFEF
:101D800000BF00BF002000900846006840F48000BB
:101D900008600846006800F48000009000BF00BFA3
:101DA00046F22840C4F2020040F2B801C2F200013B
:101DB000086000204860802140F2B800C2F20000B4
:101DC00081608900C1604900016100214161816138
:101DD000C161016204214162032181620021C1626B
:101DE0000163FEF7D5FD08B1FEF744FC0022114661
:101DF0001020FFF762F81020FFF74FF8002211467D
:101E00001120FFF75AF81120FFF747F808BD00B579
:101E100087B0142102A8FEF70BFA00BF0020019042
:101E200043F63000C4F20200006840F0100043F6B0
:101E30003001C4F2020108600846006800F010009A
:101E4000019000BF00BF00BF00200190084600685D
:101E500040F0040008600846006800F004000190AB
:101E600000BF00BF00BF002001900846006840F09E
:101E7000800008600846006800F08000019000BF04
:101E800000BF00BF002001900846006840F001003C
:101E900008600846006800F00100019000BF00BF24
:101EA00000BF002001900846006840F0080008606C
:101EB0000846006800F00800019000BF00BF002243
:101EC000C9144FF44060C4F20200FEF757FF01222C
:101ED0004FF4E0414FF44060C4F20200FEF74EFFC1
:101EE0004FF4F04002900120039000200490022063
:101EF000059002A94FF44060C4F20200FEF71DFEF7
:101F000001200290002003900120049002A94FF4C8
:101F10008050C4F20200FEF710FE07B000BD10B5FD
:101F20004FF48840C4F2000040F21811C2F20001E0
:101F300008604FF4E1304860002140F21810C2F20E
:101F400000008160C16001610C214161002181615B
:101F5000C161FFF74FFD08B1FEF78CFB10BD00BF5C
:101F6000FEE7704710B500224FF480514FF44060F7
:101F7000C4F20200FEF702FF1420FEF7C9FD0122A1
:101F800011034FF44060C4F20200FEF7F7FE142084
:101F9000FEF7BEFDAE2000F09CF8202000F099F87E
:101FA000102000F096F8B02000F093F8C82000F060
:101FB00090F8002000F08DF8102000F08AF8402002
:101FC00000F087F8812000F084F8DF2000F081F82D
:101FD000A12000F07EF8A62000F07BF8A82000F0F9
:101FE00078F83F2000F075F8A42000F072F8D320B4
:101FF00000F06FF8002000F06CF8D52000F069F8D0
:10200000F02000F066F8D92000F063F8222000F0FC
:1020100060F8DA2000F05DF8122000F05AF8DB20BA
:1020200000F057F8202000F054F88D2000F051F80F
:10203000142000F04EF800F006F800F07CF9AF2014
:1020400000F047F810BD10B54FF4806140F64C30F9
:10205000C2F20000FEF7ECF810BD2DE9FC43074684
:10206000884615461C46DDF824902078CDE9000905
:102070002078C61DF01706EB5070C010617810FB79
:1020800001F1A5F12000D4F804C000FB01C263787F
:102090004146384600F0B6F8BDE8FC832DE9F84328
:1020A0000546884614461E46DDF820902F460BE074
:1020B000CDF800902278334641463846FFF7CDFFF1
:1020C00070783844C7B2641C20780028F0D1BDE88D
:1020D000F88310B5044600224FF400614FF44060CD
:1020E000C4F20200FEF74AFE204600F040F910BD9F
:1020F00070B504460D460122D1024FF44060C4F28F
:102100000200FEF73BFE05E0207800F030F9641C89
:10211000681E85B2002DF7D170BD2DE9FC438046C5
:102120000C4616461F462046E11704EB5171C1F3D9
:10213000C7092046E11704EB5171C910A4EBC10196
:10214000CDB20720CDE9000706FA05F0C2B22B4652
:102150004146484600F0A3F875B1681EC0B2C5F10B
:10216000080146FA01F209F10101CDE90007C8B200
:102170000023414600F093F8BDE8FC832DE9FC47BD
:1021800081460C4616461F46DDF828802046E1179A
:1021900004EB5171C1F3C70A2046E11704EB5171FA
:1021A000C910A4EBC101CDB2E81908281BDD072036
:1021B000CDE9000806FA05F0C2B22B464946504662
:1021C00000F06DF878190938C0B2C5F1080146FA77
:1021D00001F20AF10101CDE90008C8B20023494625
:1021E00000F05DF80CE0E819401EC0B2CDE900082F
:1021F00006FA05F0C2B22B464946504600F04FF8A9
:10220000BDE8FC872DE9FC4F81468A4693461D4672
:102210000B9C2046E11704EB5171C1F3C707E1178E
:1022200004EB5171C910A4EBC101C9B201914FF087
:10223000000816E000260EE006FB05831BF80320CD
:102240000AEBC603D9B209EB0803D8B20C9BFFF71F
:1022500064FF701CC6B2BE42EEDB08F1010000F064
:10226000FF08A845E6DB0198B8B105FB07F8002692
:1022700010E00C9808EB060300901BF803200AEB13
:10228000C703D9B209EB0603D8B2019BFFF776FF6B
:10229000701CC6B2AE42ECDB00BFBDE8FC8FF0B5EF
:1022A000DDE90545082801DA802900DBF0BD0DB124
:1022B000D643F2B2661CFF2707FA06F61643C3F1AF
:1022C000080C47FA0CF73E4340F2A407C2F200079D
:1022D0003E7040F64C36C2F2000606EBC016765C45
:1022E0003F783E4040F64C37C2F2000707EBC0177C
:1022F0007E54661CFF27B74022EA0706C3F1080C8C
:10230000FF2747FA0CF7BE4340F2A407C2F20007CA
:102310003E7040F64C36C2F2000606EBC016765C04
:102320003F783E4340F64C37C2F2000707EBC01738
:102330007E5400BFBAE710B5002415E004F1B001E7
:10234000C8B2FFF7C6FE0020FFF7C3FE1020FFF75C
:10235000C0FE40F64C31C2F2000101EBC4108021F6
:10236000FFF7C6FE601CC4B2082CE7DB10BD70B5D9
:10237000044600251EE000224FF480414FF44060E7
:10238000C4F20200FEF7FAFCC4F3C0124FF400518D
:102390004FF44060C4F20200FEF7F0FC012291030A
:1023A0004FF44060C4F20200FEF7E8FC6006040E41
:1023B000681CC5B2082DDED370BD70472DE9F0470B
:1023C0002DED028B06460C46B0EE408A9046B8F1E1
:1023D000000F0CD1002704E02D20E1197054781C67
:1023E000C7B2062FF8D3BDEC028BBDE8F087B5EE7F
:1023F000C08AF1EE10FA02D2BEEE000A01E0B6EE9B
:10240000000AF2EE040A08EE200ABDEEC00A10EE41
:10241000105A002D01DA684200E028468146002D5E
:1024200001DA2D2000E02B2030550A20B9FBF0F016
:102430004FF47A71B0FBF1F201FB120A601CC1B2D9
:1024400003235246304600F011F82E21201D31544E
:102450000A20B9FBF0F100FB119A601DC1B2012303
:102460005246304600F002F800BFBCE7F0B5044623
:102470000D460121012004E001EB81067100461C9C
:10248000F0B29842F8DB00200EE0B2FBF1F60A272A
:10249000B6FBF7FC07FB1C6630362F18E6550A26FC
:1024A000B1FBF6F1461CF0B29842EEDBF0BD70478E
:1024B00010B5FEF76FFC10BD00B593B0302107A832
:1024C000FDF7B6FE142102A8FDF7B2FE00BF002002
:1024D00001904FF46150C4F20200006840F0805057
:1024E0004FF46151C4F2020108600846006800F030
:1024F0008050019000BF00BF00BF002001904FF44A
:10250000E040C4F20000006840F480404FF4E04135
:10251000C4F2000108600846006800F480400190A1
:1025200000BF00BF012007900004089002200D901A
:1025300041050E9104210F91A821109102211191C2
:102540000421129107A8FEF79DFE08B1FEF792F84C
:102550000F20029002200390002004904FF4A0501E
:1025600005904FF480500690052102A8FEF7FBFC71
:1025700008B1FEF77FF813B000BD4EF68850CEF2DA
:102580000000006840F470004EF68851CEF2000161
:1025900008604FF000604EF60851CEF2000108606E
:1025A000704770B50546AC6B0020E085E08420469E
:1025B000FFF767F970BD70B506460025B46B20685B
:1025C0004069C0F3C01594F83900212805D125B120
:1025D0000020E084204600F082F820684069C0F3C3
:1025E000801594F83A00222805D125B10020E08515
:1025F000204600F054F8E06B40F01000E063204605
:10260000FFF73FF970BD70B50546AC6B28680068F0
:1026100000F48070B0B90020E0852068C06820F424
:1026200080702168C8602068406920F0010021683E
:1026300048612068406920F04000216848612020FE
:1026400084F83A002046FFF722FB70BD70B50446BF
:10265000A56B2846FFF729FB70BD70B50546AC6B2E
:102660002868006800F4807070B90020E084206859
:10267000406920F08000216848612068C06840F00F
:1026800040002168C86002E02046FFF75FFB70BD94
:1026900070B50446A56B2846FFF759FB70BD01686D
:1026A000C96821F490710268D1600168496921F01C
:1026B000010102685161202180F83A10704710B57D
:1026C00004462068C06820F040002168C8602020CF
:1026D00084F839002046FFF739FB002010BD01685F
:1026E000C96821F0C0010268D160202180F839104A
:1026F000704770B5044694F83A0022284AD1A06881
:10270000B0F5805F13D1A56A206940B920684068A0
:10271000C0F308002880A06A801CA06219E020682D
:102720004068C0B22880A06A401CA06211E0206905
:1027300038B920684068C1B2A26A501CA06211700A
:1027400007E02068406800F07F01A26A501CA06288
:102750001170E08D401E80B2E085C8B92068C06865
:1027600020F020002168C8602068C06820F48070D4
:102770002168C8602068406920F001002168486134
:10278000202084F83A002046FFF781FA002070BD2F
:102790000020FCE70220FAE72DE9F84F0446206804
:1027A000006920F44050E16808432168086121690C
:1027B000A068084361690843E16908430090206804
:1027C000C06820F4037020F4144000990843216885
:1027D000C8602068406920F44070A16908432168FE
:1027E0004861E069B0F5004F7ED14FF48051C4F2EA
:1027F00001012068884206D04FF4A051C4F20101C3
:102800002068884272D1FEF7C2FC814602206168CE
:10281000A0FB015003461920A9FB00712A46384647
:10282000FDF7CEFC6421B0FBF1F04FEA001A022064
:102830006168A0FB015003461920A9FB00712A46DC
:102840003846FDF7BDFC074602206168A0FB015138
:102850001920A9FB00B084462A460B46584661461B
:10286000FDF7AEFC6421B0FBF1F000EBC00101EB21
:102870000010A7EB8000322101EBC0006421B0FB07
:10288000F1F000F0F8000AEB400A02206168A0FBBA
:10289000015003461920A9FB00712A463846FDF76E
:1028A0008FFC074602206168A0FB015003461920F7
:1028B000A9FB00B001462A465846FDF781FC642179
:1028C000B0FBF1F000EBC00101EB0010A7EB8000C2
:1028D000322101EBC0006421B0FBF1F000F00700F1
:1028E0005044216888605FE171E0FFE7FEF73EFC3D
:1028F000814602206168A0FB015003461920A9FB14
:1029000000712A463846FDF75BFC6421B0FBF1F00C
:102910004FEA001A02206168A0FB0150034619200B
:10292000A9FB007001462A463846FDF749FC0746D8
:1029300002206168A0FB015003461920A9FB00B1E9
:102940002A465846FDF73CFC6421B0FBF1F000EB51
:10295000C00101EB0010A7EB8000322101EBC000A9
:102960006421B0FBF1F000F0F8000AEB400A02200D
:102970006168A0FB01511920A9FB007080462A461E
:102980000B4638464146FDF71BFC074602206168AE
:10299000A0FB015003461920A9FB00B12A46584666
:1029A000FDF70EFC6421B0FBF1F000EBC00101EB80
:1029B0000010A7EB8000322101EBC0006421B0FBC6
:1029C000F1F000F00700504421688860ECE04FF41B
:1029D0008051C4F201012068884206D04FF4A05112
:1029E000C4F201012068884270D1FEF7D0FB814615
:1029F00004206168A0FB01511920A9FB00708046EA
:102A00002A460B4638464146FDF7DAFB824604204B
:102A10006168A0FB015003461920A9FB00712A46FA
:102A20003846FDF7CDFB6421B0FBF1F000EBC001AF
:102A300001EB0010AAEB8000322101EB00106421B1
:102A4000B0FBF1F000F0F00A04206168A0FB015037
:102A500003461920A9FB007001462A463846FDF7B7
:102A6000AFFB6421B0FBF1F00AEB001A04206168AF
:102A7000A0FB015003461920A9FB00712A463846E5
:102A8000FDF79EFB074604206168A0FB015003464A
:102A90001920A9FB00B001462A465846FDF790FBD5
:102AA0006421B0FBF1F000EBC00101EB0010A7EBDB
:102AB0008000322101EB00106421B0FBF1F000F046
:102AC0000F005044216888606EE0FFE7FEF74EFB80
:102AD000814604206168A0FB015003461920A9FB30
:102AE00000712A463846FDF76BFB82460420616878
:102AF000A0FB015003461920A9FB00712A46384665
:102B0000FDF75EFB6421B0FBF1F000EBC00101EBCF
:102B10000010AAEB8000322101EB00106421B0FB11
:102B2000F1F000F0F00A04206168A0FB01500346B8
:102B30001920A9FB007001462A463846FDF740FBE4
:102B40006421B0FBF1F00AEB001A04206168A0FBDD
:102B5000017003461920A9FB005001463A46284659
:102B6000FDF72EFB074604206168A0FB01500346D9
:102B70001920A9FB00B001462A465846FDF720FB64
:102B80006421B0FBF1F000EBC00101EB0010A7EBFA
:102B90008000322101EB00106421B0FBF1F000F065
:102BA0000F00504421688860BDE8F88F014691F815
:102BB000390021282CD18868B0F5805F0FD10A6ACE
:102BC0001088C0F308000B685860086918B9086AD3
:102BD000801C086209E0086A401C086205E00B6A74
:102BE000581C086218780B685860C88C401E80B268
:102BF000C88458B90868C06820F080000B68D860A5
:102C00000868C06840F040000B68D860002070473A
:102C10000220FCE710B540F21810C2F20000FEF7E7
:102C20003EFE10BD00BFFEE74EF60C50CEF2000097
:102C30000068C0F30220704710B5002807DB0A07C0
:102C4000130E4FF46442CEF20002135409E00A0757
:102C5000140E4EF61852CEF2000200F00F031B1FA6
:102C6000D45410BD02E008C8121F08C1002AFAD1CE
:102C700070477047002001E001C1121F002AFBD1FC
:102C800070470EB5FEF797F8FFF716FCFFF7BFF891
:102C9000FFF760F8FFF743F9FFF764F9FFF7D3F99F
:102CA000002043F25C53C0F6000340F28D02C2F2F2
:102CB000000218210090FFF7F1F9FFF73CFB4FF4F9
:102CC000FA70FDF725FF002201210846FDF784FB7D
:102CD0006420FDF71DFF002201210220FDF77CFB8F
:102CE0006420FDF715FF002211460120FDF792FB3D
:102CF0006420FDF70DFF002211460220FDF78AFB3C
:102D000040F6B830FDF704FFFEF73EF8044640F207
:102D10001400C2F200000460A4F1C80040F21801DF
:102D2000C2F20001086001214FF48050C4F2020099
:102D3000FEF71CF808B9012000E0002040F228014D
:102D4000C2F2000108700846007840F22901C2F280
:102D50000001087040F22C00C2F200000460E7E2BB
:102D6000FEF712F8044601214FF48050C4F202002D
:102D7000FDF7FCFF08B9012000E00020054640F205
:102D80002800C2F20000007885420AD040F22800F4
:102D9000C2F20000057040F22C00C2F20000046094
:102DA00076E040F22900C2F20000007885426FD040
:102DB00040F22C00C2F200000068201A1E2867D3DF
:102DC00040F22900C2F200000570007800285FD0B0
:102DD00040F21C00C2F200000068401C40F21C01DE
:102DE000C2F20001086040F21810C2F20000FEF7C3
:102DF00015FD002040F20C01C2F20001087040F203
:102E0000A201C2F20001087000BF029040F2181047
:102E1000C2F2000000680068029040F21810C2F28E
:102E2000000000684068029000BF00BF0120002140
:102E300040F20B122823CDE900210290B422FDF7C5
:102E400005FB6420FDF764FE0120002140F20B1217
:102E50002823CDE900210290B4220220FDF7F6FAE2
:102E60006420FDF755FE0020FDF7EBFB40F220004B
:102E7000C2F200000068401C40F22001C2F20001D2
:102E80000860FDF781FF40F21401C2F20001086002
:102E900040F2A300C2F200000078D8B1002040F256
:102EA000A301C2F20001087040F20C01C2F200015D
:102EB000087040F22400C2F200000068401C40F29A
:102EC0002401C2F20001086040F21810C2F20000B2
:102ED000FEF7A4FC40F20C00C2F200000078F8B14A
:102EE00040F21000C2F200000068201AB0F5167F10
:102EF00016D3002040F20C01C2F20001087040F22B
:102F00002400C2F200000068401C40F22401C2F21A
:102F10000001086040F21810C2F20000FEF77EFCCB
:102F200040F2A200C2F200000078002877D040F200
:102F30000B01C2F200010878002140F2A202C2F2A5
:102F40000002117040F20C02C2F20002117040F255
:102F50009A01C2F20001097843F23232C0F600024F
:102F6000125C91425CD140F29A01C2F200014978B0
:102F7000362955D140F29A01C2F20001C9796B2974
:102F80004ED140F29A01C2F20001C978090640F21E
:102F90009A02C2F20002127941EA024140F29A0218
:102FA000C2F20002527941EA022140F29A02C2F2D0
:102FB00000029279114300EE101AF8EE401A002137
:102FC000C4F2B43101EE101A61EE811A4FF08F4154
:102FD00001EE101A81EE812AF0EE420A40F29A01C7
:102FE000C2F20001897819B1B1EE601AF0EE410A1F
:102FF00040F20001C2F2000101EB8001C1ED000AC4
:10300000012140F20802C2F200021154411C01F0F9
:10301000010140F20A02C2F2000211700BE00BE063
:1030200040F22401C2F200010968491C40F2240266
:10303000C2F20002116000BF40F20C00C2F20000B8
:103040000078E8BB40F21400C2F200000068201AC9
:10305000962864D340F21810C2F20000FEF7DEFB9F
:1030600000BF0020029040F21810C2F20000006879
:103070000068029040F21810C2F200000068406838
:10308000029000BF00BF002040F2A201C2F2000186
:10309000087040F2A301C2F200010870082240F259
:1030A0009A01C2F2000140F21810C2F20000FEF7CD
:1030B0008AFD20BB40F20A00C2F20000007800E066
:1030C0002DE040F20B01C2F20001087043F23231F0
:1030D000C0F6000140F20B02C2F200021278885CD6
:1030E0000F21FDF7E6F9012040F20C01C2F20001C8
:1030F000087040F21000C2F2000004600AE040F2E2
:103100002400C2F200000068401C40F22401C2F218
:103110000001086040F21400C2F20000046040F2B6
:103120001800C2F200000068201AC82878D340F2C4
:103130001800C2F20000046040F20800C2F2000071
:10314000027840F20000C2F20000D0ED000AB0EEBA
:10315000600A072140F23000C2F20000FFF72EF9AA
:1031600040F20800C2F20000427840F20000C2F2D1
:103170000000D0ED010AB0EE600A072140F23E00E7
:10318000C2F20000FFF71AF940F21C00C2F2000080
:1031900000684FF47A71B0FBF1F201FB12060323D1
:1031A0003246042140F24C00C2F20000FFF75EF903
:1031B00040F22000C2F2000000684FF47A71B0FBC8
:1031C000F1F201FB120603233246042140F25400BF
:1031D000C2F20000FFF74AF940F20C00C2F2000010
:1031E000007808B1312000E0302040F25C01C2F2EA
:1031F0000001C87040F20800C2F20000007808B177
:10320000312000E0302040F25C01C2F2000108727F
:1032100040F20800C2F20000407810B1312001E015
:1032200085E0302040F25C01C2F20001487340F2B8
:103230002400C2F2000000684FF47A71B0FBF1F292
:1032400001FB120603233246042140F26B00C2F256
:103250000000FFF70BF9FEF7F6FE002043F25C5387
:10326000C0F6000340F23002C2F2000201460090B4
:10327000FEF714FF002043F25C53C0F6000340F257
:103280003E02C2F2000208210090FEF707FF002074
:1032900043F25C53C0F6000340F24C02C2F200025B
:1032A00010210090FEF7FAFE002043F25C53C0F6B6
:1032B000000340F25402C2F2000218210090FEF70F
:1032C000EDFE002043F25C53C0F6000340F25C02C6
:1032D000C2F2000220210090FEF7E0FE002043F23F
:1032E0005C53C0F6000340F26B02C2F200022821D8
:1032F0000090FEF7D3FE002043F25C53C0F60003BB
:1033000040F27302C2F2000230210090FEF7C6FEC6
:10331000002043F25C53C0F6000340F28302C2F285
:10332000000238210090FEF7B9FEFFF704F800BF55
:1033300016E501020000000000000000002F000060
:1033400000000700070000147F147F1400242A7F68
:103350002A120062640813230036495522500000E7
:103360000503000000001C224100000041221C0057
:103370000014083E08140008083E0808000000A0D9
:1033800060000008080808080000606000000020D5
:1033900010080402003E5149453E0000427F4000B3
:1033A000004261514946002141454B310018141239
:1033B0007F10002745454539003C4A494930000106
:1033C0007109050300364949493600064949291E55
:1033D00000003636000000005636000000081422B7
:1033E00041000014141414140000412214080002B7
:1033F0000151090600324959513E007C1211127CDC
:10340000007F49494936003E41414122007F414108
:10341000221C007F49494941007F09090901003EFA
:103420004149497A007F0808087F0000417F410038
:10343000002040413F01007F08142241007F4040AE
:103440004040007F020C027F007F0408107F003E96
:103450004141413E007F09090906003E4151215E7C
:10346000007F091929460046494949310001017F79
:103470000101003F4040403F001F2040201F003F0F
:103480004038403F006314081463000708700807C1
:1034900000615149454300007F41410000552A55D4
:1034A0002A55000041417F0000040201020400404F
:1034B0004040404000000102040000205454547871
:1034C000007F484444380038444444200038444491
:1034D000487F00385454541800087E09010200182F
:1034E000A4A4A47C007F080404780000447D40006C
:1034F000004080847D00007F102844000000417F50
:103500004000007C04180478007C0804047800382B
:103510004444443800FC242424180018242418FCB3
:10352000007C0804040800485454542000043F441C
:103530004020003C4040207C001C2040201C003CDF
:103540004030403C004428102844001CA0A0A07C2F
:10355000004464544C441414141414140806000059
:1035600034330008000000000000000000000000EC
:103570000000FC000000000002000000000C020C33
:10358000020000000000000090D0BCD0BC900003FE
:10359000000300001824FE448C000302070201000F
:1035A0001824D8B04C80000300010201C038E43870
:1035B000E000010202010202080600000000000013
:1035C00000000000000000F80402000000010204F6
:1035D000000204F800000004020100009060F8609E
:1035E00090000000010000002020FC2020000000CE
:1035F00001000000000000000000080600000000BC
:10360000202020202000000000000000000000001A
:1036100000000002000000000080601C02000403A3
:1036200000000000F8040404F80001020202010096
:103630000008FC000000000203020000188444247B
:10364000180003020202020008042424D800010228
:103650000202010040B088FC80000000000302006C
:103660003C242424C400010202020100F824242C7A
:10367000C0000102020201000C04E41C040000006E
:1036800003000000D8242424D80001020202010013
:1036900038444444F8000003020201000000100016
:1036A00000000000020000000000200000000000F8
:1036B0000600000000205088040200000000010203
:1036C000909090909000000000000000000204889C
:1036D00050200002010000001804C424180000005B
:1036E00002000000F804E494F80001020202020063
:1036F00000E09CF0800002030000030204FC24248C
:10370000D800020302020100F80404040C000102C4
:103710000202010004FC0404F8000203020201009A
:1037200004FC24740C0002030202030004FC247451
:103730000C00020302000000F0080444CC40000129
:103740000202010004FC2020FC040203000003022A
:103750000404FC040400020203020200000404FC4E
:10376000040406040403000004FC24D00C04020337
:103770000200030204FC0400000002030202020330
:10378000FC3CC03CFC0003000300030004FC30C40C
:10379000FC04020302000300F8040404F800010220
:1037A0000202010004FC24241800020302000000AD
:1037B000F8848404F80001020207050004FC246474
:1037C0009800020302000302182424448C00030220
:1037D000020201000C04FC040C00000203020000C1
:1037E00004FC0000FC04000102020100047C80E0F3
:1037F0001C040000030000001CE03CE01C0000036F
:1038000000030000049C609C04000203000302000B
:10381000041CE01C04000002030200000C84641C71
:1038200004000203020203000000FE020200000086
:1038300007040400000E30C0000000000001020078
:10384000000202FE0000000404070000000402045D
:103850000000000000000000000000000000080858
:103860000808080800000200000000000000000036
:103870000040A0A0C00000010202030204FC2020BE
:10388000C00000030202010000C02020600000010F
:103890000202020000C02024FC0000010202030218
:1038A00000C0A0A0C0000001020202000020F82415
:1038B00024040002030202000040A0A060200007D0
:1038C0000A0A0A0404FC2020C000020302000302CA
:1038D0000020E4000000000203020000000020E4D9
:1038E000000008080807000004FC80E02020020314
:1038F000020003020404FC000000020203020200B2
:10390000E020E020C00003000300030020E02020AE
:10391000C00002030200030200C02020C00000011A
:103920000202010020E02020C000080F0A0201006E
:1039300000C02020E0000001020A0F0820E0402023
:1039400020000203020000000060A0A0200000028E
:10395000020203000020F820000000000102020023
:1039600020E00020E00000010202030220E02080AD
:1039700060200000030100006080E0806000000320
:1039800000030000206080602000020300030200AA
:1039900020E0208060200808070100000020A060CF
:1039A0002000000203020200000020DE02000000EE
:1039B00000070400000000FF00000000000F0000EE
:1039C0000002DE20000000040700000002010204E3
:1039D00004020000000000000C060000643500082E
:1039E00000000000000000000000000000000000D7
:1039F000000000F80000000000000033300000006C
:103A000000100C06100C0600000000000000000072
:103A100040C07840C0784000043F04043F040400E4
:103A2000007088FC08300000001820FF211E0000F4
:103A3000F008F000E018000000211C031E211E0009
:103A400000F00888700000001E212324192721108F
:103A500010160E0000000000000000000000000032
:103A6000000000E0180402000000000718204000D9
:103A700000020418E00000000040201807000000C9
:103A8000404080F0804040000202010F010202002D
:103A9000000000F0000000000101011F0101010011
:103AA000000000000000000080B070000000000076
:103AB00000000000000000000001010101010101FF
:103AC0000000000000000000003030000000000096
:103AD000000000008060180400601806010000006B
:103AE00000E010080810E000000F102020100F0068
:103AF000001010F8000000000020203F20200000EF
:103B00000070080808887000003028242221300046
:103B100000300888884830000018202020110E004E
:103B20000000C02010F8000000070424243F2400F7
:103B300000F80888880808000019212020110E00CC
:103B400000E0108888180000000F112020110E00DE
:103B500000380808C83808000000003F00000000D6
:103B60000070880808887000001C222121221C0097
:103B700000E010080810E0000000312222110F00C0
:103B8000000000C0C0000000000000303000000055
:103B900000000080000000000000806000000000C5
:103BA00000008040201008000001020408102000DE
:103BB0004040404040404000040404040404040029
:103BC00000081020408000000020100804020100BE
:103BD000007048080808F0000000003036010000BE
:103BE000C030C828E810E0000718272423140B0071
:103BF0000000C038E0000000203C230202273820EB
:103C000008F8888888700000203F202020110E00CE
:103C1000C0300808080838000718202020100800C5
:103C200008F808080810E000203F202020100F00AE
:103C300008F88888E8081000203F2020232018007A
:103C400008F88888E8081000203F200003000000E2
:103C5000C03008080838000007182020221E020083
:103C600008F808000008F808203F210101213F2042
:103C7000000808F8080800000020203F202000006D
:103C800000000808F8080800C08080807F0000005D
:103C900008F888C028180800203F20012638200096
:103CA00008F8080000000000203F202020203000FD
:103CB00008F8F800F8F80800203F003F003F200017
:103CC00008F830C00008F808203F200007183F001F
:103CD000E01008080810E0000F10202020100F004E
:103CE00008F808080808F000203F21010101000041
:103CF000E01008080810E0000F18242438504F0086
:103D000008F8888888887000203F2000030C302045
:103D100000708808080838000038202121221C0083
:103D2000180808F8080818000000203F20000000CC
:103D300008F808000008F808001F202020201F00B5
:103D40000878880000C83808000007380E01000015
:103D5000F80800F80008F800033C0700073C0300DF
:103D6000081868808068180820302C03032C302045
:103D70000838C800C83808000000203F20000000B4
:103D800010080808C838080020382621202018000C
:103D9000000000FE020202000000007F40404000E0
:103DA000000C30C000000000000000010638C00018
:103DB00000020202FE000000004040407F000000C0
:103DC00000000402020204000000000000000000E5
:103DD00000000000000000008080808080808080E3
:103DE00000020204000000000000000000000000CB
:103DF00000008080808000000019242222223F20C1
:103E000008F8008080000000003F112020110E0003
:103E10000000008080800000000E11202020110092
:103E2000000000808088F800000E112020103F2044
:103E30000000808080800000001F222222221300C8
:103E4000008080F0888888180020203F2020000013
:103E50000000808080808000006B949494936000C8
:103E600008F8008080800000203F210000203F20D3
:103E700000809898000000000020203F20200000D3
:103E8000000000809898000000C08080807F0000C3
:103E900008F8000080808000203F24022D302000A0
:103EA000000808F8000000000020203F202000004B
:103EB0008080808080808000203F20003F20003F65
:103EC0008080008080800000203F210000203F2073
:103ED0000000808080800000001F202020201F0024
:103EE000808000808000000080FFA12020110E0053
:103EF0000000008080808000000E112020A0FF8044
:103F0000808080008080800020203F2120000100F0
:103F10000000808080808000003324242424190045
:103F2000008080E0808000000000001F2020000052
:103F30008080000000808000001F202020103F2093
:103F4000808080000080808000010E300806010023
:103F500080800080008080800F300C030C300F00C8
:103F600000808000808080000020312E0E312000F3
:103F7000808080000080808080818E701806010023
:103F800000808080808080000021302C2221300041
:103F900000000000807C020200000000003F404062
:103FA00000000000FF00000000000000FF00000013
:103FB0000002027C800000000040403F0000000042
:103FC00000060101020204040000000000000000DD
:103FD00010080000E03900080000000000000000A8
:103FE00000000000000000000000000000000000D1
:103FF00000000000000000000000000000000000C1
:1040000000F0F0F0000000000000000000017F015F
:104010000000000000000000001C1C1C000000004C
:1040200000008060301C8C60301C0C000000000020
:104030000000000000000000000000000000000080
:1040400000000000000000E00000000000E00000B0
:104050000086E69F86868686E69F860000011F0111
:10406000010101011F010100000080C06020F82053
:10407000E0C00000000003070C18FF70E1810000A1
:104080000000070F10107F100F07000080602060F5
:1040900080000000E02000000F3020309F70DC37EF
:1040A0001030C0000000100E0300071810180700A1
:1040B0000000C02020E0C0000000000080E01F38A9
:1040C000E88703C43C040000070F1810100B070D0D
:1040D0001010080000808C4C380000000000000028
:1040E00000000000000000000000000000000000D0
:1040F000000000000000000000000000000080E060
:10410000300804000000000000FEFF010000000075
:10411000000000000000030F1820400000040830D9
:10412000E0800000000000000000000001FFFE0031
:1041300000000000004020180F03000000000000F5
:10414000000000000000C0000000000000426666A1
:104150003C18FF183C6666420000000000000300A7
:1041600000000000000000000000800000000000CF
:10417000001010101010FF101010101000000000A0
:10418000000003000000000000000000000000002C
:10419000000000000000000000000000000000001F
:1041A00000808C4C3800000000000000000000007F
:1041B000000000000000000000101010101010108F
:1041C00010101000000000000000000000000000BF
:1041D00000000000000000000000000000000000DF
:1041E000000000000000000000001C1C1C0000007B
:1041F000000000000000000000000000E0380C009B
:104200000000000080701C03000000000060380EF9
:104210000100000000000000000080C0602020605D
:10422000C080000000FEFF010000000001FFFE0052
:104230000001070E181010180E0701000000808002
:1042400080C0E000000000000000000000FFFF0050
:104250000000000000001010101F1F1010100000C0
:104260000080402020202060C08000000003030068
:10427000804020381F070000001C1A191818181851
:10428000181F00000080C020202060C080000000B7
:10429000000303001010182FE780000000070F1024
:1042A000101010180F070000000000000000C0E010
:1042B000F000000000C0B088868180FFFF80800091
:1042C000000000000010101F1F1010000000E06030
:1042D000606060606060000000003F10080808181F
:1042E000F0E0000000070B101010101C0F0300007E
:1042F000000080C040202020E0C0000000FCFF2122
:104300001008080818F0E0000001070C1810101041
:10431000080F03000000C0E06060606060E06000C3
:10432000000003000000E01807000000000000008B
:10433000001F1F00000000000080C060202020201F
:1043400060C080000087EF2C1818303068CF8300E1
:1043500000070F0810101010180F07000000C0C051
:1043600020202020C0800000001F3F6040404020EF
:1043700010FFFE0000000C1C101010080F030000BE
:10438000000000000000000000000000000000002D
:10439000000E0E0E0000000000000000001C1C1C9F
:1043A000000000000000000000000000000000000D
:1043B00000000000000C0C000000000000000000E5
:1043C00000583800000000000000000000000080DD
:1043D000402010000000102844820100000000006E
:1043E00000000000000001020408100000000000AE
:1043F0000000000000000000008484848484848421
:104400008484840000000000000000000000000020
:1044100000001020408000000000000000000000AC
:10442000000001824428100000001008040201006E
:104430000000000000C020201010101030E0C0006C
:104440000003030000F010080C0703000000000048
:104450001C1C1C0000000000000000C04060202068
:104460002040C00000FCFF01F00E03C1FE03807F6E
:104470000001070E081111101109040200000000CC
:1044800080E0E000000000000000807C4340477FA7
:10449000F880000010181F1000000000131F1C10EF
:1044A00020E0E02020202060C080000000FFFF10FE
:1044B000101010182FE78000101F1F101010101080
:1044C000180F0700000080C0402020202060E0007E
:1044D00000FCFF0100000000000001000001070EC9
:1044E000181010100804030020E0E02020202040D5
:1044F000C080000000FFFF000000000001FFFE0080
:10450000101F1F10101018080E07010020E0E020F7
:10451000202020202060800000FFFF101010107C61
:1045200000000000101F1F101010101010180600BF
:1045300020E0E020202020206060800000FFFF10AD
:104540001010107C00000100101F1F100000000060
:1045500000000000000080C06020202040E000003B
:1045600000FCFF0100004040C0C140400001070EB8
:10457000181010100F0F000020E0E02000000000D5
:1045800020E0E02000FFFF101010101010FFFF00CF
:10459000101F1F1000000000101F1F10000020201F
:1045A00020E0E020202000000000000000FFFF00CD
:1045B0000000000000001010101F1F10101000005D
:1045C00000000000202020E0E0202020000000006B
:1045D000000000FFFF0000000060E0808080C07FDE
:1045E0003F00000020E0E020000020A0602020002C
:1045F00000FFFF30187CE3C000000000101F1F10F8
:10460000000001131F1C181020E0E0200000000033
:104610000000000000FFFF0000000000000000009C
:10462000101F1F10101010101018060020E0E0E0FE
:1046300000000000E0E0E02000FF013FFEC0E01EBF
:1046400001FFFF00101F1000031F0300101F1F10A9
:1046500020E0E0C0000000000020E02000FF000398
:10466000071C78E08000FF00101F10000000000011
:10467000030F1F00000080C060202060C080000089
:1046800000FEFF010000000000FFFE000001070E19
:10469000181010180C07010020E0E0202020202036
:1046A00060C0800000FFFF2020202020301F0F006E
:1046B000101F1F100000000000000000000080C05C
:1046C00060202060C080000000FEFF0100000000AC
:1046D00000FFFE000001070E1111133C7C67210052
:1046E00020E0E0202020202060C0800000FFFF109C
:1046F0001030F0D0080F0700101F1F10000000033B
:104700000F1C10100080C060202020204040E000DE
:1047100000070F0C1818303060E08100001F0C08F3
:1047200010101010180F07008060202020E0E020FB
:10473000202060800100000000FFFF000000000159
:1047400000000000101F1F100000000020E0E0200B
:10475000000000000020E02000FFFF00000000003B
:104760000000FF0000070F181010101010080700BD
:104770002060E0E02000000020E060200000077FD3
:10478000F88000807C03000000000000071F1C0769
:104790000000000020E0E02000E0E0200020E02019
:1047A0000007FFF8E01FFFFCE01F00000000031FF0
:1047B0000300011F03000000002060E0A0000020B3
:1047C000E0602000000000038F7CF8C601000000BC
:1047D0000010181E130001171F1810002060E0E0E1
:1047E0002000000020E06020000001073EF8E018F3
:1047F0000700000000000010101F1F101000000034
:1048000000806020202020A0E0E0200000000000C8
:10481000C0F03E0F0300000000101C1F1710101006
:10482000101806000000000000FC0404040404004A
:104830000000000000FF0000000000000000000079
:10484000007F404040404000000010E000000000B9
:104850000000000000000000031C60800000000059
:1048600000000000000000030C7080000000040441
:10487000040404FC0000000000000000000000FF31
:1048800000000000000040404040407F0000000069
:1048900000000010080C040C0810000000000000CC
:1048A0000000000000000000000000000000000008
:1048B00000000000000000000000000000000000F8
:1048C00000000000000000000000000080808080E8
:1048D00080808080808080800000000404080800C0
:1048E00000000000000000000000000000000000C8
:1048F00000000000000000000000000000000000B8
:104900000000000000000000000098D84464242447
:10491000FCF80000000F1F18101010081F1F1018BF
:104920000020E0F000000000000000000000FFFF99
:10493000180804040CF8F00000001F0F18101010E5
:10494000180F03000000000000000000000000003D
:1049500000E0F8180404043C3800000000030F0CC9
:1049600010101010080600000000000000000020D9
:10497000E0F0000000E0F81C04040408FFFF000061
:1049800000030F18101010081F0F0800000000008F
:1049900000000000000000000000E0F8484444442B
:1049A0004C7870000000030F0C1810101008040061
:1049B0000000000080C0602020E0C000000404046B
:1049C000FFFF040404040000000010101F1F10105B
:1049D00010000000000000000000000000000000C7
:1049E000000070F88C04048CF874040C007076CF0E
:1049F0008D8D8D89C87870000020E0F000000000E7
:104A0000000000000000FFFF08040404FCF80000A0
:104A100000101F1F100000101F1F100000000000DA
:104A200000606000000000000000040404FCFC00C2
:104A30000000000000001010101F1F1010100000D8
:104A400000000000000000606000000000000000A6
:104A5000040404FCFC0000000000C0C08080C07F93
:104A60003F0000000020E0F0000000000000000017
:104A70000000FFFF80C0F41C0404000000101F1F92
:104A80001100031F1C1010000000202020E0F00087
:104A9000000000000000000000FFFF000000000018
:104AA00000001010101F1F10101000000000000068
:104AB000000000000000000004FCFC0804FCFC08EE
:104AC00004FCFC00101F1F10001F1F10001F1F10F0
:104AD0000000000000000000000000000004FCFCDA
:104AE00008080404FCF8000000101F1F100000104C
:104AF0001F1F100000000000000000000000000068
:104B000000E0F0180C04040C18F0E00000030F0C97
:104B1000101010100C0F0300000000000000000037
:104B2000000000000004FCFC080404040CF8F00081
:104B30000080FFFF889010101C0F03000000000091
:104B4000000000000000000000E0F81C040404085D
:104B5000F8FC000000030F1810109088FFFF800081
:104B6000000000000000000000000000040404FC3D
:104B7000FC100804040C0C001010101F1F10101063
:104B80000000000000000000000000000000000025
:104B900000003078CCC48484840C1C0000001E18F3
:104BA00010101011190F06000000000000C00000D6
:104BB0000000000000040404FFFF040404000000DF
:104BC000000000000F1F1010100C0000000000007B
:104BD00000000000000000000004FCFE00000004D3
:104BE000FCFE000000000F1F181010081F0F080027
:104BF00000000000000000000000000000040C3C69
:104C0000FCC40000C43C0C0400000000010F1E0E98
:104C10000100000000000000000000000000000093
:104C2000043CFCC400E47CFC84807C040000071F7E
:104C3000070000071F070000000000000000000040
:104C4000000000000004041C7CE4C0341C040400C8
:104C50000010101C1601131F1C181000000000008B
:104C6000000000000000000000040C3CFCC400C474
:104C70003C0404000000C080C1370E0100000000A9
:104C800000000000000000000000000000001C0404
:104C900004C4F47C1C0400000000101C1F17111039
:104CA00010180E0000000000000000F80C040000C6
:104CB00000000000001028EF0000000000000000CD
:104CC0000000003F60400000000000000000FF0006
:104CD00000000000000000000000FF0000000000D5
:104CE000000000000000FF00000000000000040CB5
:104CF000F80000000000000000000000EF28100095
:104D000000000000000040603F00000000000000C4
:104D100000180602020408102020300800000000DD
:104D20000000000000000000000000000000000083
:104D300000000000180C0000D83F0008E6B3A200F5
:104D40001060020CC000F8888888FF8888A81800C6
:104D500004047C0380601F80432C1028468180005F
:104D6000E789B900403C10FF1010404848487F4890
:104D7000C8484000020602FF010100020A124282F6
:104D80007F020200E5BE8B00001088C4331054542B
:104D900054FF54547C101000020100FF0010121246
:104DA00012FF121212100000E58AA8004044C44409
:104DB0004444401010FF101010F00000103C13107D
:104DC00014B840300E014080403F00001010000039
:104DD0003C4D000804000000D03F00080000000027
:104DE0008080808080808080868F9FBFFFFCF8F865
:104DF000E0E0C08080808080C0E0E0F8F8FCFEBF8A
:104E00009F8F86808080808080800000000000F876
:104E1000FEFFFFFFFF1F1F1F1F1F1F1F1F1F1F1F43
:104E20001F1F1F1F1F1F1F1F1F1F1F1F1F1F1F1F92
:104E30001F1F1F1F1F1F1F1F1F1F1F1FFFFFFFFE03
:104E4000FCF8FFFFFFFFFFFF000000E0E0F0F0F0E4
:104E5000F0F8F8F8F8F8F800000000000000000092
:104E600000F8F8F8F8F8F8F0F0F0F0E0200000FFB3
:104E7000FFFFFFFFFFFFFFFFFFFFFF00000000033A
:104E80000101010100000000008080000080C0C01E
:104E90008000008080000000000001010103030089
:104EA0000000FFFFFFFFFFFFFFFFFFFFFFFF00000E
:104EB00000000000000000000000000107070707D5
:104EC00007030707070707030100000000000000B1
:104ED0000000000000FFFFFFFFFFFF0107071F1F8B
:104EE0001F1F1F1F1FFFFFFFFFFFFF1F1F1F1F1F92
:104EF0001F1F1F1F1F1F1F1F1F1F1F1F1F1F7FFF82
:104F0000FFFFFFFF7F1F1F1F1F1F1F07070300005B
:104F100033300000DC4D00080006101600061016A5
:104F20000000000000000000010203040607080959
:104F300000000000010203046C4F00080000002084
:104F4000B8000000642C000824500008B8000020BD
:104F5000981E0000742C00080009121B242D363FF7
:104F600048515A636D767F88919A000000000000D6
:104F70000000000000000000000000000000000031
:104F80000000000000000000000000000000000021
:104F90000000000000000000000000004D31204132
:104FA0004E47202D2D2D2D2D2D004D3220414E47C9
:104FB000202D2D2D2D2D2D004B455920303030002A
:104FC000434D44203030300052582030205631209C
:104FD00030205632203000455252203030300052BE
:104FE000454C2050524556205441524745540043A9
:104FF000572033302044454700484F4D494E472005
:105000004D31204D32000000000000000000000083
:10501000000000000000000010000000010000007F
:045020000024F40074
:040000050800018965
:00000001FF
