:020000040800F2
:10000000D80C0020A901000819350008D12B0008E0
:1000100045340008D50D0008D1420008000000005A
:10002000000000000000000000000000AD410008DA
:10003000D90D000800000000A9410008B1410008E6
:10004000C3010008C3010008C3010008C301000880
:10005000C3010008C3010008C3010008C301000870
:10006000C3010008C3010008C3010008C301000860
:10007000C3010008C3010008C3010008C301000850
:10008000C3010008C3010008C3010008C301000840
:10009000C3010008C3010008C3010008C301000830
:1000A000C3010008C3010008C3010008C301000820
:1000B000C3010008B9410008C3010008C3010008DA
:1000C000C3010008C3010008C3010008C301000800
:1000D000C3010008C3010008C3010008C3010008F0
:1000E000C3010008C3010008C301000800F002F8C2
:1000F00000F04AF80AA090E8000C82448344AAF178
:100100000107DA4501D100F03FF8AFF2090EBAE875
:100110000F0013F0010F18BFFB1A43F0010318473B
:10012000185B0000385B0000103A24BF78C878C123
:10013000FAD8520724BF30C830C144BF04680C60ED
:10014000704700000023002400250026103A28BF35
:1001500078C1FBD8520728BF30C148BF0B60704739
:10016000662905F0A881642900F0528000207047BC
:100170001FB500F063FC04000020002104F040FDE6
:10018000E0601FBD10B510BD00F058FD1146FFF72F
:10019000EFFF04F09FF800F076FD03B4FFF7F2FFE5
:1001A00003BC00F0B9FD000009488047094800473A
:1001B000FEE7FEE7FEE7FEE7FEE7FEE7FEE7FEE717
:1001C000FEE7FEE704480549054A064B7047000074
:1001D000B5410008ED000008D8060020D80C00202A
:1001E000D8080020D80800200FB41CB5074B06AA79
:1001F0007B4469460090059800F007FC00206946A2
:1002000000F016FC1CBC5DF814FB00003D0800006B
:100210002DE9F0410646002410687529314616A5DF
:1002200010D0AFF30080002802DA404213A507E0A7
:1002300031688A0701D512A502E0490704D511A546
:10024000012401E0AFF3008000210A2206F1240717
:1002500009E0B0FBF2FCB0FBF2F302FB1C00303013
:1002600078541846491C0028F3D123462A463046C4
:10027000BDE8F04100F05CB9000000002D00000076
:100280002B000000200000002DE9F0474FF0000A8D
:1002900089460446C0F820A02046E1688847002827
:1002A00076D0252806D0D4E901219047206A401C49
:1002B0002062F1E7E168204600258847C4F81CA0C9
:1002C00006460027C4F818A02A2E09D0304604F0AC
:1002D0008FFC38B304EB8708303EC8F8186019E08B
:1002E00059F8041B204604EB87029161E1688847B6
:1002F000012F064618D1E069002820DA25F02005F4
:100300001DE0D8F8180000EB800006EB4000303804
:10031000C8F818002046E1688847064604F068FCE3
:100320000028EED1012F0AD02E2E08D12046E168F8
:1003300088477F1C0646022F45F02005C4DBA069D4
:10034000002803DA404245F00105A061E80701D02A
:1003500025F01005B6B1A6F14100192802D82036C3
:1003600045F400654A463146204625604D46FFF774
:10037000F7FE58B1012806D0ED1D25F0070000F169
:10038000080989E704E005F1040985E730468AE7B2
:10039000206ABDE8F08740EA010310B59B070FD142
:1003A000042A0DD310C808C9121F9C42F8D020BAE5
:1003B00019BA884201D9012010BD4FF0FF3010BD9D
:1003C0001AB1D30703D0521C07E0002010BD10F86B
:1003D000013B11F8014B1B1B07D110F8013B11F831
:1003E000014B1B1B01D1921EF1D1184610BD032AEF
:1003F00040F2308010F0030C00F0158011F8013B42
:10040000BCF1020F624498BF11F801CB00F8013B28
:1004100038BF11F8013BA2F1040298BF00F801CBEC
:1004200038BF00F8013B11F0030300F02580083AC3
:10043000C0F0088051F8043B083A51F804CBA0E81A
:100440000810F5E7121D5CBF51F8043B40F8043B6F
:10045000AFF30080D20724BF11F8013B11F801CBA4
:1004600048BF11F8012B24BF00F8013B00F801CB75
:1004700048BF00F8012B704710B5203AC0F00B8040
:10048000B1E81850A0E81850B1E81850A0E818508A
:10049000203ABFF4F5AF5FEA027C24BFB1E8185000
:1004A000A0E8185044BF18C918C0BDE810405FEA62
:1004B000827C24BF51F8043B40F8043B08BF7047DE
:1004C000D20728BF31F8023B48BF11F8012B28BFE3
:1004D00020F8023B48BF00F8012B70474FF00002A4
:1004E00000B5134694469646203922BFA0E80C502A
:1004F000A0E80C50B1F12001BFF4F7AF090728BF05
:10050000A0E80C5048BF0CC05DF804EB890028BF80
:1005100040F8042B08BF704748BF20F8022B11F0A9
:10052000804F18BF00F8012B704770477047704725
:100530002DE9F0470D4699469246044600F12408FD
:100540000168880604D5E06921F01001216000E00F
:100550000120A84201DD471B00E00027A1697A19AC
:1005600002EB0900081AA0612078C00602D42046D8
:10057000AFF30080002608E0D4E901211AF8060054
:100580009047206A401C761C20624E45F4DB2078A0
:10059000C0060AD52046AFF3008006E0D4E9012169
:1005A00030209047206A401C2062381EA7F10107C6
:1005B000F4DC07E0D4E9012118F805009047206A2F
:1005C000401C2062281EA5F10105F3DC2046AFF394
:1005D00000802078000602D50220BDE8F0870120C7
:1005E000FBE72DE9FF4F0C461E464FF0FF378BB05F
:1005F000D2E90001DDF860800A908A46C1F30A550D
:1006000005B93D46002108464FF00000BAF1000F41
:1006100000F4400005DA00EB80004FF4400101EAED
:1006200050004FEA9059B9F1010F00DDB9460A9820
:1006300050EA4A000ED044F61050A5F2FF3545436B
:100640002F14B8F1000F1ED07542291E1EDDC9F10E
:1006500000021CE0B8F1010F4FF0000001D0302182
:1006600003E0F24305E02154401CB042FBDB30467E
:100670000022002121540B99C1F80880C1E9002013
:100680000FB0BDE8F08FBD1B6D1CDEE74A4600DAF7
:10069000694206A800F05CFA06AB93E8070003ABDA
:1006A00083E8070050460A9903F0C6FE8DE807006C
:1006B000A0F500501F3800900398002D0ADD42F28B
:1006C0001F014A460844002303A90390684604F02A
:1006D0002FF909E0A0F500504A461F38002303A96E
:1006E0000390684604F039F98DE807000004000C17
:1006F00003D04FF0FF30410800E01046B8F1000F82
:1007000003D00022009215461EE0751E05D400F0AD
:1007100099F9303262556D1EF9D5B346012208436E
:1007200002D000227F1C04E02078302801D1002272
:100730007F1E002A099784D01DE0112D07DA00F0F2
:1007400081F9303262556D1C50EA0102F5D108433F
:1007500002D00098C8B10EE00021681E05E0235CBD
:10076000625C63542254401E491C8142F7DBAB4655
:10077000A81B401E0990002004F80B000B98099A52
:10078000C0F80880C0E9002B7AE711264FF0000876
:1007900057E72DE9F04F88460446D21D22F00701A5
:1007A00091B0D1E90001CDE90A0104F00DFA024649
:1007B0000B98C00F01D02D2007E02068810701D5DC
:1007C0002B2002E0202101EAC000032A099001D079
:1007D000072A05DB03464146204600F079F90BE184
:1007E0002078800601D5E06900E00620B8F1650FA9
:1007F000814606D0B8F1660F18D0B8F1670F70D1F6
:1008000031E00020B9F1110F009001DB112301E06C
:1008100009F101030AAA01A90CA8FFF7E2FEDDE92C
:100820000C70002609F10105834647E001204B4684
:1008300000904FF000470AAA01A90CA8FFF7D1FECB
:10084000DDE90DB00C995D46002610B909F10100F3
:100850000D18B9EB050003D4C0F1FF3609F101050D
:10086000A5EB09002BE0B9F1010F01DA4FF0010906
:100870000020B9F1110F0090484601DD112300E07E
:1008800003460AAA01A90CA8FFF7ABFEDDE90C702C
:100890004D4600268346207800070AD4AB4500DA8F
:1008A0005D4601A8012D04DD411911F8011C302914
:1008B00007D04F4502DA17F1040F04DA012082460F
:1008C0000FE06D1EEEE7002F02DCED1B3E4403E05F
:1008D000781CA84200DD7D1CB81B00F1010A4FF016
:1008E00000472078000703D4AA4501DB4FF0FF3A08
:1008F0000021B7F1004F0DF143088DF8431024D0CB
:1009000002202B23002F01DA7F422D230A21021E11
:10091000A0F1010000DC5FB197FBF1FC97FBF1F265
:1009200001FB1C7C17460CF1300C08F801CDEEE7FA
:10093000A8F1010003702188090501D5452100E0D7
:100940006521A0F1010800F8011C09980FA9A1EB8D
:100950000807FF1D00B10120411901EBEA70A169F0
:100960003844081A401EA0612078C00602D42046F0
:10097000AFF30080099828B1D4E901219047206A9B
:10098000401C20622078C00622D52046AFF30080AC
:100990001EE0002E04DBB34502DD01A8805D00E00F
:1009A0003020D4E901219047206A401C2062761C47
:1009B000AAF101005FEA000A0AD100F03FF8C0681E
:1009C0000168405CD4E901219047206A401C206204
:1009D000281EA5F10105DCDC07E0D4E9012118F8A7
:1009E000010B9047206A401C2062381EA7F10107C6
:1009F000F3DC2046AFF30080032011B041E6000095
:100A000001694A1C02610878704700B58FB0CDE9D2
:100A100001310021059105497944CDE903101146C2
:100A20006846FFF731FC0FB000BD0000E5FFFFFF97
:100A30000A6802F8010B0A6070470000004870471E
:100A40003800002030B5B0F10A0271F100034FEA1E
:100A5000900E4EEA817EB0EB0E0061EB91014FEA01
:100A6000101E4EEA017E10EB0E0041EB11114FEA11
:100A7000102E4EEA016E10EB0E0041EB11214FEAF1
:100A8000104E4EEA014E10EB0E0041EB11414018A2
:100A900041F100014FEAD00040EA41704FEAD10134
:100AA0004FEA810444EA907410EB800544EB0104A2
:100AB0006D1944EB0404521BA3414FF0000348BFDF
:100AC0000A3200D530BD401C41F1000130BD0000AC
:100AD0002DE9F0411F46044603260168072A01F468
:100AE000006004DB08B116A505E016A503E008B117
:100AF00015A500E015A521F010002060A069C01E1A
:100B0000A0610FB1401EA0612046AFF300804FB13D
:100B1000D4E9012138469047206A401C2062C01C5D
:100B2000206206E0206AFAE7D4E9012115F8010BFA
:100B30009047761EF8D22046AFF30080BDE8F081E2
:100B40004E414E006E616E00494E4600696E660071
:100B50002DE9F047814616468AB0354878440DC8DD
:100B60008DE80D0032487844801C03AC0DC884E841
:100B70000D0041F69B300844372190FBF1F290FBC9
:100B8000F1F5A5F1800501FB12041B3C02D564427E
:100B9000012000E00020DFF898A080460027FA44FA
:100BA000AAF1BE0A0EE0E0070AD03246684607EB1B
:100BB000470101230AEB810103F0CFFE8DE8070016
:100BC00064107F1C002CEED1194F7F44AE3F19E01A
:100BD000E80715D007EB04100DF1180A90E80E0095
:100BE0008AE80E00C068F04201D198190890324698
:100BF000012306A903A803F0B0FE03AB83E80700B6
:100C00006D10641C002DE3D14FF00103324669469C
:100C1000B8F1000F03A802D003F08AFE01E003F050
:100C20009CFEC9E90001C9F808200AB0BDE8F087B8
:100C3000D849000000487047180000207546FFF7AB
:100C4000F9FFAE4605006946534620F00700854689
:100C500018B020B5FFF7B6FABDE820404FF0000607
:100C60004FF000074FF000084FF0000BAC46ACE827
:100C7000C009ACE8C009ACE8C009ACE8C00921F083
:100C800007018D46704710B50446AFF3008020463B
:100C9000BDE81040FFF781BA4FF0013C50F8042B3B
:100CA00051F8043B9A4221D1A2EB0C03934313EA7F
:100CB000CC1317D150F8042B51F8043B9A4215D1AC
:100CC000A2EB0C03934313EACC130BD150F8042B83
:100CD00051F8043B9A4209D1A2EB0C03934313EA67
:100CE000CC13DBD04FF00000704700BFD01A01BA20
:100CF000B1FA81F101F0180122FA01F0CB40DBB228
:100D0000C0B2C01AC1F120012CFA01F3D11A9143EB
:100D100011EAC311E6D1704701491820ABBEFEE7C6
:100D2000260002007047000040F2B860C2F20000E6
:100D30004FF07F5100224FF07C5303F02DBA00009A
:100D400070B540F27805C2F200052978044699B1E1
:100D500000207821002602F077FB0021C4F28C21CC
:100D6000204604F053F9002818BF70BD02F0B0FB14
:100D70002E7000F05FF92BE00021C4F2A011204694
:100D800004F044F980B90021CCF2A011204604F00F
:100D9000BFF804F04BFA00F10A019622504389B2E1
:100DA000B0FBF1F001E000BF0020014602F04CFB77
:100DB0000021C4F22021204604F021F948B902F0B4
:100DC00087FB0120287040F2D060C2F2000000686A
:100DD000686070BDFEE700007047000072B600BF9B
:100DE000FEE70000B0B5044600F024F9054640F2E5
:100DF0000000C2F200000078611C18BF044400BF6C
:100E000000F018F9401BA042FAD3B0BD2DE9F04F15
:100E100082B00E68002E00F0038141F20042C4F25D
:100E20000102042340F2004E904208BF03234FF614
:100E3000FF7CC4F2010E009300240123C1F2100CC8
:100E40004FF0000A4FF0000949E000BF012704F00D
:100E50000C030F229A402BEA020207FA03F34FEA2F
:100E60009A051A4346F82520D1F804B040F20C4503
:100E70005FEACB22DEF8082054BF22EA080242EAE9
:100E80000802C4F20105CEF808202A685FEA8B2325
:100E900054BF22EA080242EA08022A605FEA8B3362
:100EA000DEF8042054BF22EA080242EA08025FEAA0
:100EB000CB33CEF80420DEF800204FF0010354BFFE
:100EC00022EA080242EA0802CEF800200E680AF17F
:100ED000010A36FA0AF204F1040400F0A18003FAD0
:100EE0000AF816EA080FF1D04E68664512DC122E99
:100EF00056D8DFE806F0350B45495555555555553B
:100F0000555555555555554D510000BFD1F80C90CC
:100F100046E000BF4FF6FF72C1F2210296420FDC9D
:100F20000022C1F2110296421AD00022C1F212022E
:100F3000964215D00022C1F22102964210D02FE035
:100F40000022C1F2220296420AD00022C1F23102EE
:100F5000964205D00022C1F23202964220D100BF53
:100F60008A684AB1012A14BFC0F81480C0F8108002
:100F70004FF0080914E000BF4FF0040910E000BF73
:100F8000CA6802F108090BE04FF0000908E000BF51
:100F9000CA6802F1040903E0CA6802F10C0900BF43
:100FA00022460646BAF1080F24BF203A04363768B5
:100FB0000F25954027EA050509FA02F22A43326017
:100FC000CA79D2067FF582AF41F21803C4F2020358
:100FD0001A68AEF57E7642F001021A601A6802F0D5
:100FE00001020192019A2AF0030256F802B040F67B
:100FF0000002C4F20102904210D040F60042C4F256
:10100000010290423FF422AF41F20002C4F2010219
:10101000009F904208BF022719E700BF002716E78C
:1010200002B0BDE8F08F0000002A08BF090401618A
:101030007047000040F2D060C2F2000000687047C4
:1010400070B5B8B3044690F83D0028B9002084F884
:101050003C00204600F09AF9242084F83D002068E6
:10106000016821F001010160016841F40041016063
:10107000016821F40041016000F052FB48F2804118
:10108000C0F21E0140F60013D4F804E088424FF08D
:101090000001C0F23D0348F2A16C4FF0000238BFDE
:1010A00001219842C0F2010C38BF0122E64538BF49
:1010B0000A460AB1012070BD4DF68361C4F21B31AE
:1010C000A0FB01122168950C4B684FF4967623F033
:1010D0003F0343EA9243754344F6D3564B60C1F253
:1010E00062060B6AA5FB0656B50923F03F03E645E9
:1010F00038BF950C6A1C1A430A62CA6948F2A06696
:101100004CF6FF73C0F20106B64522EA03020BD883
:1011100001384FEA4E03B0FBF3F001306FF31F309C
:10112000042898BF04201EE0A368013863B1192386
:101130000EFB03F3B0FBF3F001306FF31F3078B117
:1011400000F5804008E000BF0EEB4E03B0FBF3F06B
:1011500001306FF31F3028B100F5004003E000BFFD
:10116000012000E001201043C8610868D4E907238A
:1011700020F0C000104318430860886848F2FF322E
:1011800004F10C0690434CCE18431043A5698860C7
:10119000C86820F0FF0030432843C860086840F06A
:1011A0000100086000202021206484F83D102063A5
:1011B00084F83E0070BD00002DE9F04383B01E4668
:1011C000174689460446FFF735FF94F83D1020295D
:1011D00020D10546206800BF8169890716D5FFF731
:1011E00029FF411B20681A29F6D381698907F3D5A5
:1011F00000202021206384F83D1084F83E00216CFB
:1012000041F02001216484F83C0003E094F83C1094
:10121000012903D1022003B0BDE8F083012184F845
:101220003C100168C90703D1016841F00101016068
:10123000016840F2020821F400610160212184F874
:101240003D10102184F83E100021216467626685FC
:10125000618DC0F201082185A8F10211E162E16A05
:101260000A9E11F5803F18BF01291DD1016841F484
:101270008071016020464FF0011100223346009535
:1012800001F008FD50B120680068C00544BF4FF46C
:1012900000702064012003B0BDE8F0832069B0F540
:1012A000804F07D1FE2015E00829DFD0216B1229DD
:1012B000DCD0DFE7062000EAD9102168F0300861B1
:1012C00008F10601204632462B4601F0CDFD0028EC
:1012D000E0D1FF20216800EA09000861204641466C
:1012E00032462B4601F0C0FD0028D3D100200290E9
:1012F00020684169029180690290029806E000BF6F
:10130000204631462A4601F065FC18BB208D68B3A3
:10131000204631462A4601F017FED8B9606A216896
:10132000024612F8013B0B616262628D013A6285EE
:10133000228D531E23854F697F07E1D51B04DFD023
:10134000437802300B616062608D01386085901EC9
:101350002085D5E7206C04289CD12068016841F4E1
:1013600000710160012003B0BDE8F08320680168CE
:1013700041F400710160202084F83D00002084F8D1
:101380003E0084F83C0003B0BDE8F08310B586B0A1
:1013900045F200410068C4F2000100228842049234
:1013A00002D006B010BD00BF41F21804C4F202041E
:1013B000206840F008002060206800F008000190DC
:1013C0000198C0200290122003900320059001F59F
:1013D000384002A9FFF71AFD606840F40010606011
:1013E000606800F400100190019806B010BD000084
:1013F00040F2000040F2D061C2F20000C2F20001EF
:1014000000780A68104408607047000080B542F216
:101410000000C4F20200016841F0100101600320E5
:1014200000F08EF80F2000F005F800F027F80020FB
:1014300080BD000070B540F20006C2F2000640F226
:1014400008013278C2F200014FF47A730968B3FBE5
:10145000F2F20446B1FBF2F1084600F063FB0F2CF8
:101460004FF0010508D838B94FF0FF30214600226F
:10147000002500F039F87460284670BD82B041F252
:101480001800C4F202000168022241F0010101606B
:10149000016801F0010101910199416841F0805119
:1014A0004160406800F08050009000980420C4F231
:1014B0000100016862F31A61016002B07047000028
:1014C000002848BF7047C1B200F01F00012202FA95
:1014D00000F04EF20012CEF2000242EAD10121F0F9
:1014E000030108607047000010B54EF60C5CCEF2A8
:1014F000000CDCF80030C3F3022E8EF00704042C3D
:1015000028BF0424BEF103034FF0FF3E0EFA04F49B
:1015100038BF0023A14399400EFA03F39A431143C5
:1015200000F00F0200F160430901043A03F564433F
:101530006244002848BF02F10C03197010BD00007E
:101540004EF60C51CEF200010A684FF6FF031A4026
:1015500060F30A2242F0806040F0FD70086070473E
:101560002DE9F04381B0002800F0858042F20008A8
:10157000C4F202080446D8F800000D4600F0070047
:1015800088420CD2D8F8000020F007002843C8F8A1
:101590000000D8F8000000F00700A8426BD12068D6
:1015A00041F204098107C4F2020917D5410705D5A4
:1015B000D9F8001041F4E061C9F80010010705D521
:1015C000D9F8001041F46051C9F80010D9F80010A2
:1015D000A26821F0F0011143C9F80010C00741D101
:1015E000D8F8000000F00700A8420CD9D8F8000095
:1015F00020F007002843C8F80000D8F8000000F0E9
:101600000700A84237D12068410707D5D9F8001054
:10161000E26821F4E0611143C9F80010000708D521
:10162000D9F80000216920F4605040EAC100C9F8EF
:101630000000D9F8002002F00C00082841F2002038
:10164000C0F27A0050D145F66433C2F38341C0F64C
:101650000003595CD2033BD440F60010C0F23D00B9
:10166000484341E0606802280AD001282AD159F88D
:10167000041C890308D4012001B0BDE8F08300BF39
:1016800059F8041C8901F6D5D9F8001021F003019E
:101690000843C9F80000FFF7CDFC064641F2883741
:1016A000D9F80000616800F00C00B0EB810F97D012
:1016B000FFF7C0FC801BB842F2D9032001B0BDE89F
:1016C000F08300BF59F8041C8907D4D5DCE700BFBC
:1016D000D9F8002045F26853C2F34042C0F6000337
:1016E0009A5C4843B0FBF2F0D9F8001045F2505232
:1016F000C1F30311C0F60002515C40F2080220FA67
:1017000001F140F20400C2F200000068C2F20002DF
:101710001160FFF78FFE002001B0BDE8F0830000EC
:1017200040F2080041F20401C2F20000C4F20201DA
:101730000068096845F26052C1F30221C0F6000258
:10174000515CC8407047000040F2080041F20401BB
:10175000C2F20000C4F202010068096845F260525A
:10176000C1F3C221C0F60002515CC84070470000BE
:101770002DE9F04182B0002868D00446007841F29B
:101780000006C007C4F2020625D0706800F00C0005
:1017900004281BD0706800F00C00082802D1706883
:1017A000C00313D46068002800F06881B0F5A02F52
:1017B00000F07C81B0F5803F00F07C81306820F43F
:1017C00080303060306820F4802076E1306880031B
:1017D00001D56068D0B32078800718D5706810F004
:1017E0000C0F07D0706800F00C0008286ED17068EC
:1017F000C0036BD43068800702D52069012825D149
:101800003068616920F0F80040EAC100306020785B
:1018100000071FD42078400732D4E56995B170687D
:1018200000F00C00082840F08F80012D0ED0706869
:10183000216A00F480328A4208D1616A00F4701093
:10184000884203D1002002B0BDE8F081012002B03F
:10185000BDE8F081A069002862D00020C4F24220D7
:101860000121C0F88014FFF7E5FB0546706A800788
:1018700000F18C80FFF7DEFB401B0228F6D92AE13D
:10188000F06910F0805808D1F06940F08050F061A4
:10189000F06900F080500090009847F20007C4F211
:1018A00000073868C00529D4386840F48070386073
:1018B000FFF7C0FB054600BF3868C0051ED4FFF720
:1018C000B9FB401B6428F7D905E100BF2069002857
:1018D00040F20000C4F2422000F082800121016049
:1018E000FFF7A8FB054600BF306880073FF588AFCB
:1018F000FFF7A0FB401B0228F6D9ECE0E0680028C7
:1019000000F08080052800F09780012800F0988082
:10191000306A20F001003062306A20F0040092E06A
:101920000020C4F242200021C0F88014FFF782FB9F
:10193000054600BF706A80077FF56CAFFFF77AFB42
:10194000401B0228F6D9C6E00027C4F24227002037
:101950003866FFF76FFB022D05460BD1306880011A
:1019600040F1BE80FFF766FB401B02284FF00300EA
:10197000F4D968E7306880017FF564AFFFF75AFB60
:10198000401B02284FF00300F4D95CE740F2080046
:10199000C2F20000006844F6D351C1F26201A0FB1C
:1019A0000101480A019000BF00BF0198411E0028B4
:1019B00001913FF42FAF00BF0198411E0028019113
:1019C0003FF428AF00BF0198411E002801913FF469
:1019D00021AF00BF0198411E00280191E4D119E711
:1019E00000210160FFF726FB054600BF3068800735
:1019F0007FF50DAFFFF71EFB401B02284FF00300E1
:101A0000F4D920E7306A20F001003062306A20F01B
:101A100004003062FFF70EFB054641F2883700BF35
:101A2000306A800720D5FFF705FB401BB8424FF016
:101A30000300F5D907E700BF306A40F004003062C8
:101A4000306A40F001003062FFF7F4FA054641F2D7
:101A5000883700BF306A800706D4FFF7EBFA401BD7
:101A6000B842F7D937E000BFB8F1000F7FF4D5AE28
:101A7000F06920F08050F061CFE600BF306820F4BC
:101A800080303060306820F480203060FFF7D2FA78
:101A9000054600BF306880037FF59DAEFFF7CAFAA8
:101AA000401B64284FF00300F4D9CCE6306840F4C2
:101AB00080203060306840F480303060FFF7BAFA40
:101AC000054600BF306880033FF585AEFFF7B2FAE8
:101AD000401B6428F6D9032002B0BDE8F08100BFA6
:101AE000206AB0F5803F05D17168A26821F4003109
:101AF000114371607168626A21F4741111430843E3
:101B0000706001203866FFF795FA0446306880015E
:101B10003FF598AEFFF78EFA001B02284FF0030046
:101B2000F4D990E6411E0020B0EB116F1CBF0120DC
:101B300070474EF21002CEF2000251604EF6235171
:101B4000CEF20001F0230B70072190601160704706
:101B50007047000070470000B0B590F83C20012AA3
:101B600004BF0220B0BD01F108053CCDD1E900CE93
:101B700023F47C5322F470521A432EF4F0431A4398
:101B80002CF4E0431A4324F4C0431A432A43C9699E
:101B900022F48042036811435964002180F83C100C
:101BA0000846B0BD10B590F83C20012A4FF0020263
:101BB00033D080F83D200268D2F804E0D2F808C0A3
:101BC0000C682EF07003234340F2FF74C4F200044B
:101BD000A24253600ADCB2F1804F13D040F20043BE
:101BE000C4F200039A420DD011E000BF42F6004358
:101BF000C4F201039A4205D040F60003C4F2000388
:101C00009A4204D149682CF0800319439160012164
:101C1000002280F83D1080F83C20104610BD0000E6
:101C2000002804BF0120704710B5044690F83D001D
:101C300028B9002084F83C00204600F06FF802200C
:101C400084F83D00206840F2FF730268C4F200038C
:101C500042F6004C9842C4F2010C15DCB0F1804F02
:101C60001AD040F20041C4F20001884214D09842D8
:101C700018DCB0F1804F1DD040F20041C4F20001E9
:101C8000884217D01AE000BF604505D040F6000139
:101C9000C4F200018842EAD1A16822F070020A432E
:101CA0009842E6DD604505D040F60001C4F200012F
:101CB000884203D1216922F440720A43A36922F0C9
:101CC0008001D4F804E0E268194360450160C26213
:101CD000C0F828E002D16169CCF8301001214161DF
:101CE0000269D20703D0026922F0010202610020DA
:101CF00084F8461084F83E1084F83F1084F84010B1
:101D000084F8411084F8421084F8431084F8441099
:101D100084F8451084F83D1010BD000080B586B0F1
:101D200040F200410268C4F2000100208A4205909E
:101D300002D006B080BD00BF41F21802C4F2020218
:101D4000536843F002035360536803F002030193A6
:101D5000019B136843F004031360126802F004024D
:101D60000192019A8022CDE90220049001F582308F
:101D700002A9FFF74BF81D2000210022FFF7B4FB5A
:101D80001D20FFF79DFB06B080BD000090F83D10C0
:101D900001291CBF01207047022180F83D10006816
:101DA00040F2FF71C4F20001884209DCB0F1804FBB
:101DB00012D040F20041C4F2000188420CD012E07F
:101DC00042F60041C4F20101884205D040F600010C
:101DD000C4F20001884206D1816801F0070106299A
:101DE00004BF00207047016841F00101016000203C
:101DF0007047000080B590F83C20012A4FF00202A5
:101E000000F0C28080F83D20D0F800C04FF6777215
:101E1000DCF8083023EA0202CCF808200B684F2BCC
:101E200028DC1F2B44DD202B45D0302B43D0402B0A
:101E300040F0AC80D1F804E0C968DCF82030DCF870
:101E4000202022F00102CCF82020DCF8182022F01B
:101E5000F00242EA011123F00A0242EA0E02CCF833
:101E60001810CCF82020DCF8081041F0470121F0D0
:101E7000300180E06F2B27DDB3F5005F48D0B3F56C
:101E8000805F7AD0702B40F08180D1E901E3C9688E
:101E9000DCF8082043EA0E0322F47F4243EA0121E2
:101EA0001143CCF80810DCF8081041F0770162E02B
:101EB0000BB1102B6AD1DCF8081021F07001194326
:101EC00041F0070157E000BF502B35D0602B5DD1AA
:101ED000D1F804E0C968DCF82030DCF8202022F0DA
:101EE0001002CCF82020DCF8182022F4704242EADC
:101EF000013123F0A00242EA0E12CCF81810CCF8FF
:101F00002020DCF8081041F0670121F0100132E0D8
:101F1000D1E901E3C968DCF8082043EA0E0322F4A2
:101F20007F4243EA01211143CCF80810DCF8081085
:101F300041F480411FE000BFD1F804E0C968DCF83B
:101F40002030DCF8202022F00102CCF82020DCF840
:101F5000182022F0F00242EA011123F00A0242EABC
:101F60000E02CCF81810CCF82020DCF8081041F054
:101F7000570121F02001CCF808100022012180F83F
:101F80003D10002180F83C10104680BD0122F5E78D
:101F9000B0B540F22861C2F20001884231D1087F19
:101FA000012818BFB0BD40F22864C2F200042046E8
:101FB000042100F043FD40F28005C2F20005686094
:101FC0002046002100F03AFD6968A860401A02F03E
:101FD0005EFE4CF29C4246F67203CBF22002C3F640
:101FE000A17302F06BFE0023C3F6E073002202F03F
:101FF00065FE02F01BFEE860E8682861FFF71AF84A
:102000006861B0BDF0B590F83C30012B04BF0220F0
:10201000F0BD4FEAB202032A22D8DFE802F003271C
:10202000476500BF0368D1E900C5D1F80CE01C6A20
:102030001A6A40F2FF7722F001021A621A4652F839
:10204000186FC4F20007BB4272DCB3F1804F7BD043
:1020500040F20047C4F20007BB4275D08EE000BFDB
:102060000121002280F83C200846F0BD0368D1E938
:1020700000E6D1E902C11C6A1A6A360222F0100297
:102080001A621A4652F8185F4FF2FF07BE4325F452
:10209000734561F30F3624F0A0040EF00A0746EAF8
:1020A000050144EA071711601F623AE00768D1E9A9
:1020B00000C5D1E902313C6A3A6A61F3071522F49E
:1020C00080723A623A4652F81C6F26F0F30645EAEF
:1020D00006014FEA5C0666F3492411603C62116810
:1020E00021F00C01116040E00368D1E900E6D1E97C
:1020F00002C11C6A1A6A360222F480521A621A4617
:1021000052F81C5F4FF2FF07BE4325F4734561F39D
:102110000F364FEA5E0746EA050167F34D3411605A
:102120001C6211684FEA0C2321F4406111601CE02D
:1021300042F60047C4F20107BB4205D040F6000753
:10214000C4F20007BB4219D126F00306354324F040
:102150000A070CF00A066EF3071537449D611F62EB
:102160009F6927F00C079F618B6811681943116004
:102170000021002280F83C200846F0BD46F0010511
:10218000E5E70000002804BF0120704710B50446B1
:1021900090F83D0028B9002084F83C00204600F06B
:1021A0006FF8022084F83D00206840F2FF73026857
:1021B000C4F2000342F6004C9842C4F2010C15DC54
:1021C000B0F1804F1AD040F20041C4F200018842C1
:1021D00014D0984218DCB0F1804F1DD040F200417D
:1021E000C4F20001884217D01AE000BF604505D054
:1021F00040F60001C4F200018842EAD1A16822F051
:1022000070020A439842E6DD604505D040F60001C1
:10221000C4F20001884203D1216922F440720A43CA
:10222000A36922F08001D4F804E0E2681943604514
:102230000160C262C0F828E002D16169CCF83010B8
:10224000012141610269D20703D0026922F0010233
:102250000261002084F8461084F83E1084F83F1094
:1022600084F8401084F8411084F8421084F8431038
:1022700084F8441084F8451084F83D1010BD000027
:102280007047000061B1082916D0042919BF00F178
:10229000410200F1450300F13F0200F143030FE06A
:1022A00090F83E2090F84230012A4FF0010208BF1A
:1022B000012B17D01046704700F1400200F1440393
:1022C00012781B78012A4FF0010208BF012BF1D1CF
:1022D000022208290CD0042910D180F83F2080F870
:1022E00043200FE0022280F83E2080F8422009E0DF
:1022F00080F8402080F8442004E000BF80F84120AE
:1023000080F84520006801F01F010122036A02FAEB
:1023100001F123EA01020262026A114340F2FF72F4
:10232000C4F20002904201620ADCB0F1804F13D087
:1023300040F20041C4F2000188420DD013E000BF1A
:1023400042F60041C4F20101884205D040F6000186
:10235000C4F20001884206D1816801F00701062914
:1023600004BF002070470168002241F001010160B4
:102370001046704761B1082916D0042919BF00F131
:10238000410200F1450300F13F0200F143030FE079
:1023900090F83E2090F84230012A4FF0010208BF29
:1023A000012B1DD01046704700F1400200F144039C
:1023B00012781B78012A4FF0010208BF012BF1D1DE
:1023C0000222082918D0042922D180F83F2080F861
:1023D00043204FEAB103032B4FF00102E2D821E082
:1023E000022280F83E2080F842204FEAB103032BFE
:1023F0004FF00102D6D815E080F8402080F8442044
:102400004FEAB103032B4FF00102CBD80AE000BF23
:1024100080F8412080F845204FEAB103032B4FF0AC
:102420000102BFD845F6743C0068C0F6000C5CF8A9
:1024300023C0C36801F01F0143EA0C03C360036AB1
:1024400002FA01F123EA01020262026A114340F238
:10245000FF72C4F200029042016209DCB0F1804FC9
:1024600012D040F20041C4F2000188420CD012E0C8
:1024700042F60041C4F20101884205D040F6000155
:10248000C4F20001884206D1816801F007010629E3
:1024900004BF002070470168002241F00101016083
:1024A0001046704770B504460068C5680669B107F4
:1024B00016D515F0020113D06FF002010161012160
:1024C00021778069800703D02046FFF761FD05E092
:1024D000204600F08FF8204600F03CFA00202077DC
:1024E000700719D515F0040016D020686FF00401AC
:1024F000016102212177806910F4407F04D02046D9
:10250000FFF746FD06E000BF204600F073F82046C6
:1025100000F020FA00202077300717D515F00800CA
:1025200014D020686FF00801016104212177C0698F
:10253000800703D02046FFF72BFD05E0204600F082
:1025400059F8204600F006FA00202077F00619D549
:1025500015F0100016D020686FF0100101610821FD
:102560002177C06910F4407F04D02046FFF710FDAA
:1025700006E000BF204600F03DF8204600F0EAF9F2
:1025800000202077F00718BF15F0010002D13006B7
:1025900009D412E020686FF001010161204600F0CB
:1025A0004BFA300609D515F0800006D020686FF090
:1025B000800101612046FFF7CBFA700609D515F0BE
:1025C000400006D020686FF040010161204600F015
:1025D0004FFAB00658BF70BD15F0200008D0216832
:1025E0006FF0200220460A61BDE87040FFF7B2BAE2
:1025F00070BD0000704700002DE9F04390F83C30BA
:10260000012B04BF0220BDE8F0834FEAB202032A87
:102610003CD8DFE802F0034381BD00BF036842F607
:1026200000461D6A1A6AC4F2010622F001021A620B
:102630001A465C6852F818CFB3428E68D1F800E0B1
:1026400025F0020545EA06050CD1CE68D1E90578EA
:1026500024F4407425F00C0526F004063C43354371
:1026600044EA08042CF0730747EA0E075C609F6198
:102670004F6809695F631D629F6947F008079F61A2
:102680009F6927F004079F61B2E000BF012100228B
:1026900080F83C200846BDE8F08300BF036842F69E
:1026A00000461D6A1A6AC4F2010622F010021A627C
:1026B0001A46D3F804C052F8184FB3428E68D1F8C6
:1026C00000E025F0200545EA061510D1CE68D1E9D5
:1026D000058725F0C0096FF0400505EA06152CF4C2
:1026E000406647EA080745EA090546EA870C24F4EC
:1026F000E64444EA0E27C3F804C09F614F680969A5
:102700009F631D629F6947F400679F619F6927F47B
:1027100080679F616BE000BF036842F600461D6A58
:102720001A6AC4F2010622F480721A621A46D3F8B9
:1027300004C052F81CEFB3428E680C6825F4007593
:1027400045EA062511D1CE68D1E9058725F440690F
:10275000360240F2FF4526EA05052CF4405647EACA
:10276000080745EA090546EA071C2EF073072743C8
:10277000C3F804C0DF614F680969DF631D62DF6968
:1027800047F00807DF61DF6927F00407DF612FE00A
:10279000036842F60047D3F820C01A6AC4F2010762
:1027A00022F480521A621A465C6852F81C5FD1F813
:1027B00000E08E68BB4204D14F6924F4804444EAAF
:1027C00087142CF4005747EA063725F4E64646EA14
:1027D0000E265C60DE614E6809691E641F62DF6957
:1027E00047F40067DF61DF6927F48067DF61090272
:1027F0001368194311600021002280F83C2008462C
:10280000BDE8F083002804BF0120704710B50446DE
:1028100090F83D0028B9002084F83C00204600F0E4
:102820006FF8022084F83D00206840F2FF730268D0
:10283000C4F2000342F6004C9842C4F2010C15DCCD
:10284000B0F1804F1AD040F20041C4F2000188423A
:1028500014D0984218DCB0F1804F1DD040F20041F6
:10286000C4F20001884217D01AE000BF604505D0CD
:1028700040F60001C4F200018842EAD1A16822F0CA
:1028800070020A439842E6DD604505D040F600013B
:10289000C4F20001884203D1216922F440720A4344
:1028A000A36922F08001D4F804E0E268194360458E
:1028B0000160C262C0F828E002D16169CCF8301032
:1028C000012141610269D20703D0026922F00102AD
:1028D0000261002084F8461084F83E1084F83F100E
:1028E00084F8401084F8411084F8421084F84310B2
:1028F00084F8441084F8451084F83D1010BD0000A1
:1029000082B00068B0F1804F14D042F60041C4F2AA
:10291000010188421BD141F21800C4F20200016893
:1029200041F400610160006800F4006001900198CA
:1029300002B0704741F21800C4F20200416841F051
:1029400001014160406800F001000090009802B071
:10295000704700007047000041B1082910D00429D9
:1029600014BF00F1410200F13F020BE090F83E205D
:10297000012A1CBF01207047022280F83E2013E08C
:1029800000F140021278012A1CBF01207047022288
:10299000082907D0042914BF80F8412080F83F207F
:1029A00002E000BF80F84020006801F01F01012212
:1029B000036A8A4023EA02010162036A42F6444143
:1029C000C4F201011A43A1F14403984202620FD0FC
:1029D00040F2FF71C4F20001884213DCB0F1804F75
:1029E0001CD040F20041C4F20001884216D01CE025
:1029F0000A6842F400420A6040F2FF71C4F200012A
:102A00008842EBDD42F60041C4F20101884205D064
:102A100040F60001C4F20001884206D1816801F04D
:102A20000701062904BF00207047016841F0010139
:102A30000160002070470000704700004FEAB101BC
:102A4000032984BF00207047DFE801F0020E060A68
:102A5000006834300068704700683C300068704798
:102A60000068403000687047006838300068704780
:102A700070470000002804BF0120704710B50446CD
:102A800090F8410028B9002084F84000204600F06A
:102A900063F8242084F841002068D4E90212C36856
:102AA00023F40053C360036923F440531A430261C3
:102AB000D4E904231143C268194341F20C639A43D9
:102AC0001143C1604169A26921F44071114343F689
:102AD0000002C4F201029042416103D0FEF720FEE1
:102AE00002E000BFFEF730FE626819214843910002
:102AF000B0FBF1F048F21F51C5F2EB11A0FB01232E
:102B00005A094FF69C73C0F6FF7302FB0300322391
:102B100003EB0010A0FB0101F02303EA511320682E
:102B200003EB0212C1F3431111448160016921F4E6
:102B300090410161416921F02A014161C16841F47C
:102B40000051C16000202021606484F8411084F8A5
:102B50004210606310BD000070B586B040F60004FE
:102B6000C4F201040068A4F544410026884204969A
:102B700002D006B070BD00BF41F21800C4F20200DE
:102B8000416802AD41F400314160416801F4003117
:102B900001910199016841F0040101600068294632
:102BA00000F004000190019804200290022003909C
:102BB000032005902046FEF729F90820CDE90206FA
:102BC000204629460496FEF721F906B070BD0000A4
:102BD000FEE7000070B50368044653F8140F400781
:102BE00011D40E46481C29D086BB00BF186840058A
:102BF00027D4FEF71FFA236853F8140F400739D57E
:102C000018684007F2D5002070BD00BF1868400763
:102C1000F9D41868400514D418684007F3D418682C
:102C200040050ED418684007EDD41868400508D454
:102C3000186840074FF0000048BF70BD1868400595
:102C4000E4D56FF480601860042014E0154603E0BA
:102C500053F8140F4007D6D418684005F1D4FEF796
:102C6000E9F9401B2368B042F2D958694007EFD414
:102C7000202000E0202000212022216384F83D2034
:102C800084F83E10226C10432064012084F83C102C
:102C900070BD00002DE9F041054600681E4614464F
:102CA00001F47F0201338FB242D0DDF81880B2F513
:102CB000803F40F0878040693840C01BB0FA80F008
:102CC0004009A04240F0C8804EB924E04069384035
:102CD000C01BB0FA80F04009A04240F0BD80FEF772
:102CE000A9F9A0EB08012868B142EFD94169394040
:102CF000C91BB1FA81F14909A142E7D19BE000BFAC
:102D000040693840C01BB0FA80F04009A0424FF043
:102D1000000040F0A680FEF78DF92868416939402F
:102D2000C91BB1FA81F14909A142E9D183E000BF91
:102D3000B2F5803F24D100BF41693940C91BB1FAC7
:102D400081F14909A14240F0878041693940C91B9E
:102D5000B1FA81F14909A14240F07E8041693940D0
:102D6000C91BB1FA81F14909A14275D141693940C4
:102D7000C91BB1FA81F14909A142DDD06CE000BF65
:102D800081693940C91BB1FA81F14909A14263D176
:102D900081693940C91BB1FA81F14909A1425BD16E
:102DA00081693940C91BB1FA81F14909A14253D166
:102DB00081693940C91BB1FA81F14909A142DFD0CB
:102DC0004AE000BF80693840C01BB0FA80F040097B
:102DD000A04241D146B923E080693840C01BB0FA17
:102DE00080F04009A0423BD1FEF724F9A0EB080196
:102DF0002868B142F0D981693940C91BB1FA81F123
:102E00004909A142E8D116E080693840C01BB0FAF8
:102E100080F04009A0424FF0000018BFBDE8F081EB
:102E2000FEF708F9286881693940C91BB1FA81F1B8
:102E30004909A142E8D100202021286385F83D10EE
:102E400085F83E00296C41F02001296485F83C009A
:102E50000120BDE8F08100BF0020BDE8F08100BF87
:102E60000020BDE8F0810000F0B581B004460068A4
:102E70001D4643698FB203EA0701B94202D100201F
:102E800001B0F0BD41691646013201F4806125D0E0
:102E9000002940D1CEB100BFFEF7CCF8411B20681D
:102EA000B14203D941693940B9424BD141693940F6
:102EB000B942E4D041694905EED52CE04169394079
:102EC000B942DCD04169490525D4FEF7B3F8206842
:102ED00041693940B942F1D0202024E0D9B9416993
:102EE0003940B942CBD04169490514D441693940D0
:102EF000B942C4D0416949050DD441693940B9424C
:102F0000BDD04169490506D441693940B942B6D0BE
:102F100041694905E3D5016841F4007101606FF42E
:102F200080614161042000212022216384F83D203A
:102F300084F83E10226C1043206484F83C10012079
:102F400001B0F0BD2020EEE770B50368044653F8E9
:102F5000140F000611D40E46481C29D086BB00BFB2
:102F60001868400527D4FEF765F8236853F8140F56
:102F7000000639D518680006F2D5002070BD00BFE4
:102F800018680006F9D41868400514D418680006BB
:102F9000F3D4186840050ED418680006EDD41868FC
:102FA000400508D4186800064FF0000048BF70BD07
:102FB00018684005E4D56FF480601860042014E0C0
:102FC000154603E053F8140F0006D6D418684005E0
:102FD000F1D4FEF72FF8401B2368B042F2D95869AC
:102FE0000006EFD4202000E02020002120222163D1
:102FF00084F83D2084F83E10226C104320640120A8
:1030000084F83C1070BD00002DE9F04784B041F217
:103010001800C4F20200016840F6000441F01001FB
:1030200001600168C4F2010401F0100100910099EF
:103030000168002241F0200101600168402601F092
:1030400020010091009901684FF0000941F004014E
:103050000160016801F0040100910099016841F0EC
:10306000080101600068402100F00800009000980D
:103070002046FDF7D9FF04F58065284640F6034158
:10308000002240F60348FDF7CFFF00966E464FF052
:10309000010A022720463146CDE901A90397FDF731
:1030A000B5FE28463146CDE9008ACDE90297FDF705
:1030B000ADFE04B0BDE8F08780B540F2445045F263
:1030C0000041C2F20000C4F2000141F68022002358
:1030D0004FF4804CC0F2060280E80E00C0E9033CC9
:1030E000C0E90533C0E90733FDF7AAFF002808BF90
:1030F00080BDBDE88040FDF771BE000070B598B09E
:1031000040F60004C4F2010440F29850002104F596
:103110001052C2F20000472340F2E7368025119199
:10312000CDE90F11CDE90D11CDE90B11CDE9091153
:10313000CDE90711CDE90511CDE90311CDE9011163
:10314000C0E90023C0E90216C0E904118561FFF758
:1031500059FB002818BFFDF741FE40F29850C2F21B
:10316000000010A9FEF71EFD002818BFFDF736FE6F
:10317000602009900020CDE90A00CDE90C00CDE9DE
:103180000E0040F29850C2F2000009A90022FFF799
:1031900033FA002818BFFDF721FE40F29850C2F222
:1031A000000009A90422FFF727FA002818BFFDF73D
:1031B00015FE40F298554FF40050C2F2000500266B
:1031C000069001A928460596CDE90366CDE901667A
:1031D0000896FEF7C1FC002818BFFDF7FFFD286820
:1031E0001696B0F1804F15D042F60041C4F20101AD
:1031F000884225D141F21800C4F20200016841F072
:1032000004010160006800F00400139013984FF46B
:1032100040700DE041F21800C4F20200016841F074
:1032200004010160006800F004001390139801206D
:10323000149002201590179014A92046FDF7E6FD82
:1032400018B070BDB0B590B040F2E0500021C2F2AD
:10325000000044F61F65CDE90811CDE90611CDE95E
:1032600004114FF080424723C0E90215016180211B
:10327000C0E900238161FFF7C5FA002818BFFDF7F8
:10328000ADFD40F2E050C2F2000008A9FEF78AFC52
:10329000002818BFFDF7A2FD40F2E0546020C2F202
:1032A00000040190002501A920460022CDE9025525
:1032B0000595FFF7A1F9002818BFFDF78FFD2068DD
:1032C0000E95B0F1804F15D042F60041C4F20101D5
:1032D000884228D141F21800C4F20200016841F08E
:1032E00004010160006800F004000B900B984FF49B
:1032F00040700DE041F21800C4F20200016841F094
:1033000004010160006800F004000B900B9801209C
:103310000C9002200D900F9040F60000C4F20100C6
:103320000CA9FDF773FD10B0B0BD000010B58AB058
:1033300040F228600021C2F2000040F200424FF645
:10334000FF740991CDE90711CDE90411CDE902110E
:10335000CDE90011C4F200024723C0E90214016163
:103360008021C0E900238161FEF75AFC002818BFC4
:10337000FDF734FD4FF48050069040F22860C2F211
:10338000000006A9FEF736FD002818BFFDF726FD50
:1033900040F22860C2F20000FEF7F4FE002818BFD9
:1033A000FDF71CFD40F228600024C2F2000004A9D1
:1033B000CDE90444FEF7F6FB002818BFFDF70EFD2B
:1033C0000220CDE9000040F22860C2F20000694608
:1033D0000022CDE90244FEF715FE002818BFFDF7D4
:1033E000FDFC002000900120019040F22860C2F214
:1033F000000069460422FEF705FE002818BFFDF70D
:10340000EDFC0AB010BD000080B540F2706044F2DF
:103410000041C2F20000C4F2000100234FF00C0C86
:103420004FF4E13280E80E00C0E90333C0E905C380
:10343000C361FFF71FFB002808BF80BDBDE88040C7
:10344000FDF7CCBCFEE7000070B540F60046C4F2C4
:1034500001060C460546002930464FF0010117D4FD
:103460000122FDF7E1FD304602210022FDF7DCFDDF
:1034700030464FF48061002D18D40122FDF7D4FDB1
:1034800030464FF400610022FDF7CEFD18E000BF8A
:103490000022FDF7C9FD304602210122FDF7C4FDDF
:1034A000644230464FF48061002DE6D50022FDF7DE
:1034B000BBFD30464FF400610122FDF7B5FD6D42C2
:1034C00040F29850C2F2000000684463856370BD0A
:1034D000B0B540F60044C4F20104204601210122A7
:1034E000FDF7A2FD2046022100220025FDF79CFDEC
:1034F00020464FF480610122FDF796FD20464FF4EF
:1035000000610022FDF790FD40F29850C2F20000E9
:10351000006845638563B0BDFEE7000070B582B00A
:1035200040F2C04440F24455C2F200048D20C2F281
:10353000000560704FF0FF362846782122460223AE
:103540000096FDF739FE1420607028467821224647
:1035500002230096FDF730FEAF20607028467821E8
:10356000224602230096FDF727FE02B070BD000040
:103570002DE9F04381B040F2C04440F24455C2F21C
:103580000004AE20C2F2000560704FF0FF362846FE
:103590007821224602230096FDF70EFE4FF0200808
:1035A000284678212246022384F801800096FDF700
:1035B00003FE1027284678212246022367700096D2
:1035C000FDF7FAFDB02060702846782122460223DC
:1035D0000096FDF7F1FDC82060702846782122464C
:1035E00002230096FDF7E8FD4FF0000928467821F8
:1035F0002246022384F801900096FDF7DDFD28465F
:1036000078212246022367700096FDF7D5FD402001
:10361000607028467821224602230096FDF7CCFDF3
:103620008120607028467821224602230096FDF70B
:10363000C3FDDF20607028467821224602230096D1
:10364000FDF7BAFDA12060702846782122460223AA
:103650000096FDF7B1FDA62060702846782122462D
:1036600002230096FDF7A8FDA82060702846782167
:10367000224602230096FDF79FFD3F2060702846FA
:103680007821224602230096FDF796FDA420607063
:1036900028467821224602230096FDF78DFDD3208F
:1036A000607028467821224602230096FDF784FDAB
:1036B000284678212246022384F801900096FDF7DF
:1036C0007BFDD52060702846782122460223009693
:1036D000FDF772FDF0206070284678212246022313
:1036E0000096FDF769FDD9206070284678212246B2
:1036F00002230096FDF760FD2220607028467821A5
:10370000224602230096FDF757FDDA206070284616
:103710007821224602230096FDF74EFD12206070AC
:1037200028467821224602230096FDF745FDDB203E
:10373000607028467821224602230096FDF73CFD62
:10374000284678212246022384F801800096FDF75E
:1037500033FD8D2060702846782122460223009692
:10376000FDF72AFD142060702846782122460223A6
:103770000096FDF721FD40F2C000C2F200004FF4B8
:103780008061FCF7ABFE00F0A7FBAF20607028461D
:103790007821224602230096FDF70EFD01B0BDE818
:1037A000F083000080B540F2C000C2F200004FF488
:1037B0008061FCF793FE80BD2DE9F04F87B092F851
:1037C00000900492B9F1000F039100F09780044635
:1037D000581C0290187859780730C00848430430C4
:1037E000049D9A465FFA80FB4FF000081AE000BF84
:1037F0003878221D069CBA467B780399109F00906A
:10380000E0B2019700F0FEF80298B044049A1FFA63
:1038100088F1007812F801900444B9F1000F02EB2E
:1038200001056BD04FFA89F1B1F1FF3FCDE90514E5
:1038300008DD012657469AF808A0BAF1000F25D1F5
:1038400031E000BF09F0E000C02807D1022657464A
:103850009AF808A0BAF1000F18D124E009F0F0009E
:10386000E02807D1032657469AF808A0BAF1000FBE
:103870000CD118E009F0F800F0283FD10426574693
:103880009AF808A0BAF1000F0DD000BF7C6800BF05
:10389000284621463246FCF77EFD0028A8D0BAF122
:1038A000010A5C44F4D1F86805994268BA460029D7
:1038B00016D406784378A9F12001F01DC0085943B9
:1038C000069C01FB00220399109FE0B2009601972D
:1038D00000F098F8DAF80C000126013095E700BFF7
:1038E0000178069C437800910399109FE0B20197FC
:1038F00000F088F8DAF80C00013086E707B0BDE880
:10390000F08F00002DE9F04F01F0070CDDF824E006
:1039100003EB0C04092C4FEAD10847D345B2002D24
:1039200020D43F291ED8CCF1080BFF2323FA0BF932
:1039300040F2C003C2F2000302FA0CF603EBC81314
:10394000BEF1000F18BFF64313F800A046EA0907BE
:103950000AEA07096FF0FF0747FA0BF73E4046EA0D
:1039600009061E54002D4BD4372949D804F1F7031A
:10397000CCF10807FA40DBB24FF4FF7707FA03F304
:1039800040F2C00708F10101C2F2000707EBC111C4
:10399000BEF1000F18BFD2430F5C42EA0306374066
:1039A0009A433A430A54BDE8F08F00BF43B2002B5C
:1039B00026D43F2988BFBDE8F08F611EC9B24FF4FD
:1039C000FF7340F2C00603FA01F1CCF10803FF27B0
:1039D000C2F2000602FA0CF2DF4006EBC816BEF196
:1039E000000F18BFD2431743355C0F432F406FF0D1
:1039F000FF0545FA03F323EA01011140394331542D
:103A0000BDE8F08F2DE9F04F95B0002B069200F045
:103A10005F828046DDE91E0B8A46BBF1000F4FEA4C
:103A2000D00218BF4FF0FF3B082800F0070405D272
:103A3000DDF87C90002C40F02F8249E20AF0070765
:103A4000012A01921046C7F108024FF0FF0121FA46
:103A500002F1029498BF012013916FF0FF01114110
:103A60001291791E1192C9B24FF4FF7202FA01F15C
:103A70001091C9430F91411E049100F00301079179
:103A800059000C91990000F01C000E9103EB4301CA
:103A90004042002509970B910D900A930593CDF8AC
:103AA0000C800EE00C98013501300C900A989D4274
:103AB00000F101000A900B9800F101000B9000F05A
:103AC000E58105EB080041B20029EBD40499C0B2AE
:103AD0000329149006D200200799002940F00A819A
:103AE000E0E700BFDDF818C0DDF824804FF00109E1
:103AF000089508E00D9809F10409484401280E983A
:103B0000844400F0ED800AEBC900A0F10802D3B2B2
:103B10003F2B3CD8089940F2C0041CF801204FEA22
:103B2000D30EC2F20004149F02FA08F5514604EBCA
:103B3000CE1A139C85EA0B055E461AF807B045EAD3
:103B400004080BEA0804B346129EDDF824803540D1
:103B50002C43372B0AF807408A4618D8B8F1000FD3
:103B600015D011990EF10103CA4040F2C001C2F212
:103B7000000101EBC313149F109982EA0B02DD5D73
:103B800042EA01040F9925400A402A43DA55C5B29A
:103B90003F2D32D80A99EB081CF801E040F2C00131
:103BA000C2F20001149A0EFA08F401EBC31713993C
:103BB00084EA0B04BE5C21433140129E372D06EA95
:103BC000040641EA0601B95417D8B8F1000F14D021
:103BD000591C119B149E2EFA03F240F2C003C2F24C
:103BE000000303EBC111109F82EA0B028B5D1743A8
:103BF0003B400F9F3A401A438A5500F10801CDB26D
:103C00003F2D32D80C9940F2C0071CF801E0EB08B8
:103C1000C2F20007149A0EFA08F107EBC317139CBF
:103C200081EA0B01BE5C0C432640129C372D01EA51
:103C3000040141EA0601B95417D8B8F1000F14D0B5
:103C4000591C119B149E2EFA03F240F2C003C2F2DB
:103C5000000303EBC111109F82EA0B028B5D174337
:103C60003B400F9F3A401A438A551030C3B23F2B56
:103C70003FF640AF0B9840F2C0071CF80000DA088E
:103C8000C2F20007149C00FA08F107EBC217139D5B
:103C900081EA0B013E5D0D432E40129D372B01EA58
:103CA000050141EA060139553FF624AFB8F1000F8E
:103CB0003FF420AF511C119A149FD04040F2C00233
:103CC000C2F2000202EBC111109B80EA0B00CA5D38
:103CD00003431A400F9B18401043C8550AE700BF22
:103CE000DDF80C80059B089DA9F1010007990029CA
:103CF0003FF4D8AE0AEBC001CAB23F2A3BD800FB62
:103D00000351069B4FEAD20E13F801C0099940F205
:103D1000C003C2F20003DDF850900CFA01F103EB8E
:103D2000CE17139B81EA0B0117F809602C4641EA74
:103D300003052E40129D059B294025463143372A15
:103D400007F8091017D80999A9B1119A40F2C007CC
:103D50000EF10101C2F20007149C2CFA02F207EBEB
:103D6000C111109F82EA0B020E5D174337400F9E70
:103D700032403A430A55079901293FF493AE471C54
:103D80000AEBC701CAB23F2A38D807FB0351069B8A
:103D90004FEAD20E13F801C0099940F2C003C2F2F3
:103DA0000003149C0CFA01F103EBCE17139B81EA7C
:103DB0000B013E5DA94641EA03052E40129D059B7D
:103DC00029404D463143372A395517D80999A9B1A9
:103DD000119A40F2C0070EF10101C2F20007149CD3
:103DE0002CFA02F207EBC111109F82EA0B020E5D62
:103DF000174337400F9E32403A430A55079902292C
:103E00003FF450AE02300AEBC001CCB23F2C3FF67B
:103E100049AE00FB035006994FEAD40E11F800C0DA
:103E2000099940F2C000C2F20000149A0CFA01F1A4
:103E300000EBCE17139B81EA0B01BE5C284641EADA
:103E400003052E40129D059B294005463143372C22
:103E5000B9543FF627AE099900293FF423AE119AD1
:103E60000EF101012CFA02F040F2C002C2F200028F
:103E7000149E02EBC111109F80EA0B008A5D07437C
:103E80003A400F9F3840104388550BE6029C019A38
:103E9000DDE91E09E4B1DBB100F0F80000EB0A0136
:103EA00006985D4202FB030A4FF0FF30CEB200BF1E
:103EB000471C5044427807EB0800C0B23146234605
:103EC000CDF80090FFF71EFDE81901303846EFD11C
:103ED00015B0BDE8F08F00002DE9F04F81B040F241
:103EE000C248C2F200084020454640F2C04740F2B6
:103EF000445605F8010BC2F20007B020C2F20006DA
:103F000078704FF0FF34304678213A46022300940F
:103F1000FDF752F94FF0000A304678213A46022365
:103F200087F801A00094FDF747F94FF0100B3046D9
:103F300078213A46022387F801B00094FDF73CF956
:103F400040F2C009C2F20009284649468022FCF727
:103F50004EFA30467821424681230094FDF72CF931
:103F6000B1207870304678213A4602230094FDF75C
:103F700023F9304678213A46022387F801A00094BD
:103F8000FDF71AF9304678213A46022387F801B046
:103F90000094FDF711F909F1800128468022FCF711
:103FA00026FA30467821424681230094FDF704F931
:103FB000B2207870304678213A4602230094FDF70B
:103FC000FBF8304678213A46022387F801A0009496
:103FD000FDF7F2F8304678213A46022387F801B01F
:103FE0000094FDF7E9F809F5807128468022FCF776
:103FF000FEF930467821424681230094FDF7DCF833
:10400000B3207870304678213A4602230094FDF7B9
:10401000D3F8304678213A46022387F801A000946D
:10402000FDF7CAF8304678213A46022387F801B0F6
:104030000094FDF7C1F809F5C07128468022FCF70D
:10404000D6F930467821424681230094FDF7B4F832
:10405000B4207870304678213A4602230094FDF768
:10406000ABF8304678213A46022387F801A0009445
:10407000FDF7A2F8304678213A46022387F801B0CE
:104080000094FDF799F809F5007128468022FCF7A5
:10409000AEF930467821424681230094FDF78CF832
:1040A000B5207870304678213A4602230094FDF717
:1040B00083F8304678213A46022387F801A000941D
:1040C000FDF77AF8304678213A46022387F801B0A6
:1040D0000094FDF771F809F5207128468022FCF75D
:1040E00086F930467821424681230094FDF764F832
:1040F000B6207870304678213A4602230094FDF7C6
:104100005BF8304678213A46022387F801A00094F4
:10411000FDF752F8304678213A46022387F801B07D
:104120000094FDF749F809F5407128468022FCF714
:104130005EF930467821424681230094FDF73CF831
:10414000B7207870304678213A4602230094FDF774
:1041500033F8304678213A46022387F801A00094CC
:10416000FDF72AF8304678213A46022387F801B055
:104170000094FDF721F809F5607128468022FCF7CC
:1041800036F930467821424681230094FDF714F831
:1041900001B0BDE8F08F00004FF0000C80E80E1079
:1041A000C0E904CC70470000704700007047000071
:1041B000FDF71EB97047000040F22860C2F200000F
:1041C000FEF770B92DE9F041FCF734FF40F294019D
:1041D000C2F20001096840F2B807401A40F20C062A
:1041E0006428C2F20007C2F2000603D90024C4F218
:1041F000C83421E0B878002156F82050C4F2A0114C
:10420000284600F085FE40F29008C2F20008D8F877
:104210000010044600F001FF70B90021CCF2A0119B
:10422000284600F075FED8F80010044600F0E0FEC5
:10423000002808BFD8F800407878411CCAB2B8708E
:104240007970032A46F8204024BF0020787096E851
:10425000130000F05DFE214600F05AFE0021C4F27A
:10426000400100F0EDFEBDE8F0810000B0B540F285
:10427000B804C2F200042078022815D0012815D015
:1042800028BBFCF7D7FE6168401A33281FD340F6DD
:104290000000C4F20100402101220125FCF7C4FE08
:1042A000FCF7C8FE606011E000250FE0FCF7C2FEDD
:1042B0006168401A022838BFB0BD40F60000C4F261
:1042C000010040210022FCF7AFFE02252570B0BDA1
:1042D000FEE7000090B0FDF799F800240120CDE939
:1042E0000B44CDE9094406900A904FF4E0104FF4D6
:1042F000803102250F9006A8CDE90714CDE90D51B4
:10430000FDF736FA10B172B6FEE700BF0F20CDE917
:1043100001054FF48060CDE9040401A80221039453
:10432000FDF71EF910B172B6FEE700BFFEF76CFE96
:10433000FEF7E4FEFEF786FFFEF7F8FFFEF7BCFE91
:10434000FFF762F840F29855C2F2000528460021B6
:104350000024FEF701FB28460421FEF7FDFA40F297
:10436000E050C2F200000021FEF7F6FA40F22868A1
:10437000C2F200084046FDF709FD40460421FDF762
:1043800081FF40460021FDF7F5FFFCF7CDFC6420DE
:10439000FCF728FDFFF7ECF8FFF7C0F840F2800BC0
:1043A000C2F2000B45F6943745F6A43A0BF1180516
:1043B0000FF27C09C0F60007C0F6000AFFF756FFAF
:1043C000D8F800004462FFF7FDFE0646FFF7EAF961
:1043D000304600F071FD02460B4628464946FBF781
:1043E00003FF002000212A463B460094FFF7E4F932
:1043F0009BF8002028465146FBF7F6FE00203221AC
:104400002A463B460094FFF7D7F9DBF814202846EC
:104410005146FBF7E9FE002019212A463B4600944D
:10442000FFF7CAF9FFF758FD3046FCF789FCC5E7EE
:10443000252E3366000000005FEA400C08BF91F0B3
:10444000000F4FEA8C234FEAC12243EA51514FEA51
:104450001C5018BF00F5F0404FEA300018BF41F083
:1044600000415FEA6C5C00F02980BCF1FF3F08BFAF
:1044700040F080407047130C06BF12044FF0100C40
:104480004FF0000C130E04BF12020CF1080C130FB6
:1044900004BF12010CF1040C930F04BF92000CF145
:1044A000020CD30F04BF52000CF1010C11464FF067
:1044B0000002A0F11F00A0EB0C00704711F0004FAC
:1044C00008BF704731F000413FF4D5AF0B0C06BF79
:1044D00009044FF0100C4FF0000C0B0E04BF090242
:1044E0000CF1080C0B0F04BF09010CF1040C8B0F2D
:1044F00004BF89000CF1020CCB0F04BF49000CF182
:10450000010CCCF1200322FA03F341EA030102FA81
:104510000CF2A0EB0C0000F10100704723F07F4784
:1045200020F07F4C80EA030000F00040ACEB070372
:1045300003F57C5303F1FF032DE9804909B44FEAE9
:10454000144324EA03484FEA154B25EA0B4E0FF2B9
:10455000042606EB13273E7803FB0667C7F5000722
:1045600007FB06F64FEAD64606F102064FEA543735
:1045700007FB066CCCF1005C4FEA1C472CEA074CA9
:104580000CFB06F507FB06F404EB15464FEA9616FE
:1045900049085FEA320234BF00204FF000404FEA82
:1045A000D13706FB07FC4FEA1C4C0CFB0BF7D21B68
:1045B00003FB0CF761EB07010CFB0EF7B0EB0740B8
:1045C00072EB17420CFB08F734BFA2EB0742B2EBC9
:1045D000074261EB17414FEA0C444FEA910706FB93
:1045E00007FC4FEA1C4C0CFB0BF7B0EBC74072EB1F
:1045F000573203FB0CF734BFA2EBC742B2EBC74202
:1046000061EB57310CFB0EF7B0EBC70072EB577242
:104610000CFB08F734BFA2EBC702B2EBC70261EB99
:1046200057714FEA816141EA92114FEA826242EA90
:1046300090124FEA806004EBCC04039F4FEAD1371D
:1046400006FB07FC4FEA1C4C0CFB0BF7D21B03FBD1
:104650000CF761EB07010CFB0EF7B0EB074072EBB8
:1046600017420CFB08F734BFA2EB0742B2EB07423C
:1046700061EB17414FEA8C5504EB9C244FEA9107FC
:1046800006FB07FC4FEA1C4C0CFB0BF7B0EBC740DA
:1046900072EB573203FB0CF734BFA2EBC742B2EB0D
:1046A000C74261EB57310CFB0EF7B0EBC70072EB62
:1046B00057720CFB08F734BFA2EBC702B2EBC7027C
:1046C00061EB57714FEA816141EA92114FEA8262D0
:1046D00042EA90124FEA806015EB4C2544F1000449
:1046E0004FEAD13706FB07FC4FEA1C4C0CFB0BF7DB
:1046F000D21B03FB0CF761EB07010CFB0EF7B0EBD1
:10470000074072EB17420CFB08F734BFA2EB0742DD
:10471000B2EB074261EB17414FEA813141EA924126
:104720004FEA823242EA90424FEA80304FEA0C76FA
:1047300015EB1C1544F1000448EA03434EEA0B480C
:104740004FF0000EB2EB080C71EB030724BF62467A
:1047500039464EEB0E0E4FF0000B00185241494106
:104760004BEB0B0BB2EB080C71EB03077BF1000B6F
:1047700024BF624639464EEB0E0E4FF0000B001878
:10478000524149414BEB0B0BB2EB080C71EB0307A9
:104790007BF1000B24BF624639464EEB0E0E51EA08
:1047A000020718BF46F0010616EB0E7655F100021F
:1047B00054F1000103D5BDE88901BDE80088BDE8DA
:1047C0008901BDE80048B619524141EB0101A3F14E
:1047D0000103704780807F7E7D7C7B7A7978777655
:1047E00076757473727171706F6E6E6D6C6C6B6ACE
:1047F0006A6968686766666564646363626161606C
:10480000605F5F5E5E5D5D5C5C5B5B5A5A595958E8
:104810005857575656555555545453535252525152
:10482000515050504F4F4F4E4E4D4D4D4C4C4C4BA8
:104830004B4B4A4A4A4949494848484747474746EF
:10484000464645454544444444434343434242422B
:10485000424141419C46002B30D477002BD04FEA97
:1048600037071CB503B44FF010004FF01001BAF138
:10487000000F06D0BCF1000FDCBF40F0080040F094
:1048800008014FF000000FBCBDE810400BF1010B18
:10489000BBF1010F08BF5FEA170722BF12F1010247
:1048A00011F101014FF0004143F1000300F000401D
:1048B00043EA00007047F9D35708D0E746EA0646B6
:1048C0004FEA164613F1400F1FDD13F1200FDFBF33
:1048D00016430A46002120335B42BED0C3F12007B5
:1048E00046EA06464FEA164602FA07F746EA070680
:1048F00022FA03F2C3F1200701FA07F742EA07029E
:1049000021FA03F14FF00003A7E746EA020646EA60
:1049100006464FEA164646EA0106BCBF46EA064688
:10492000360C4FF000034FF000024FF0000194E707
:104930002DE9804C70B49A46934691E8380007C838
:1049400031EA400C48BF34EA430C03D5FFF7E6FDDB
:10495000FFF780FFF0BCBDE8008C2DE9804C70B4FF
:104960009A46934691E8380007C810F0804F08BF78
:1049700013F0804F03D100F005F8FFF76BFFF0BC98
:10498000BDE8008C20F07F4723F07F4C80EA0300D5
:1049900000F0004007EB0C03A3F57C53A3F1FE03EA
:1049A00092F0000F00F0B38095F0000F00F07780D8
:1049B0002DE901494FEA114021EA00484FEA144627
:1049C00024EA064700FB06FC08FB06F607FB08F88E
:1049D00018EB06484CEB164C00FB07F718EB0748A2
:1049E0004CEB17404FEA124B22EA0B4E4FEA1546AA
:1049F00025EA06470BFB06FC0EFB06F607FB0EFE40
:104A00001EEB064E4CEB164C0BFB07F71EEB074E4E
:104A10004CEB174B18EB0B0840F1000018EB0E0B9A
:104A200058EB000840F100008F1A4FF000014FF0E2
:104A300000063CBFC943661B14BFB5EB040C002144
:104A40003CBFC943F61B4FEA174427EA04454FEA27
:104A50001C472CEA074C04FB076205FB07F70CFB1D
:104A600005F616EB074642EB174204FB0CFC16EB6F
:104A70000C4642EB1C421BEB060658EB020241417E
:104A80004EEA8E0E46EA9E0601D5BDE80189B619AA
:104A9000524141EB0101A3F10103BDE801894FEA55
:104AA000144524EA05464FEA114721EA074C05FB65
:104AB00007F406FB07F70CFB06F111EB074144EB8B
:104AC000174405FB0CFC11EB0C4144EB1C444FEA72
:104AD000124722EA074C05FB07F206FB07F70CFB1F
:104AE00006F616EB074642EB174205FB0CFC16EBED
:104AF0000C4642EB1C456A1854F1000148BF704750
:104B0000B619524141EB0101A3F10103704795F041
:104B1000000F37D04FEA114221EA02464FEA14470C
:104B200024EA074C02FB07F106FB07F70CFB06F42F
:104B300014EB074441EB174102FB0CFC14EB0C4453
:104B400041EB1C414FEA154725EA074C02FB07F5EC
:104B500006FB07F70CFB06F616EB074645EB174579
:104B600002FB0CFC16EB0C4645EB1C42121951F1F2
:104B7000000148BF7047B619524141EB0101A3F152
:104B8000010370474FEA144524EA05464FEA1147EE
:104B900021EA074C05FB07F106FB07F70CFB06F2C1
:104BA00012EB074241EB174105FB0CFC12EB0C42E8
:104BB00051EB1C414FF0000648BF7047921841EB83
:104BC0000101A3F101037047490050EAC12018BF59
:104BD00004204A0D18BF40F0010040F2FF72B2EB12
:104BE000515F08BF40F00200012808BF0520704750
:104BF00030380A2801D20120704700207047000099
:104C000010B500290AD00878002807D00548784454
:104C1000FCF742F8002801D0002010BD024878447B
:104C200010BD00004A1000004210000021F00042B8
:104C300001F00043A2F16052B2F5801F28BFD2F10B
:104C40007F6C0BD95FEA001C43EAC20242EB507052
:104C500018BF704728BF20F001007047B2F5801FD1
:104C6000BCBF184670474FEA410C1CF5001F02D22A
:104C7000084600F0A5BB70B500F0CAF80000008936
:104C8000FFF7F6BF4FF00040A0F58000704710F02E
:104C9000004248BF4042B0FA80F310FA03F10AD054
:104CA000C3F11D0303F5806302EB03524FEA415049
:104CB00002EBD12170474FF00000704770B5DFF86C
:104CC00048C11CEA111E1EBF1CEA13159EEA0C0FF8
:104CD00095EA0C0F00F06F8081EA03044EEAD47E5F
:104CE000AE4421EA4C1123EA4C1341F4801143F401
:104CF0008013AEF17F7EA1FB024CA0FB0365361949
:104D000055EB0C05A1FB034C4CF10003A0FB021C6E
:104D100016EB0C06654153F10003094218BF46F03B
:104D2000010613F4007F0BD14FEA03314FEA05303F
:104D300041EA155140EA165034036FF003020AE0CD
:104D40004FEAC3214FEAC52041EA555140EA565087
:104D5000F4026FF0020202EB2E4201EB025585EAEB
:104D6000CE710AD05FEA440C18BF24F0004450F121
:104D7000000041F1000120EAD47040F2FE7C62455F
:104D800000D270BDA84214BF4FF080444FF04044A1
:104D9000002E08BF0024BEF1806FA8BFA1F1C04162
:104DA000BDE8704080F2828001F1C04101F0004115
:104DB0004FF0000070470CEA13159EEA0C0F18BF65
:104DC00095EA0C0F06D081EA030E4FF000000EF0BA
:104DD000004170BD00F01CF88900013E00F007B8EA
:104DE00000F009B84FEA430C5FEA5C5C08D081EA46
:104DF000030100F05BB84FEA410C5FEA5C5CF6D15E
:104E000002494FF0000070470000FF070000F87FE4
:104E10000EF1020E2EF0030E5EF8046B364205D43E
:104E2000012A43EB030515F5001F12D8012841EBB9
:104E3000010C1CF5001F0CD80ED14FEAD17C0CEBF5
:104E40004C0C0CF1020C15F5001F08BF4CEBD37C89
:104E500004E04FF0080C01E04FEAD37C0CEB4C056A
:104E600026FA05F606F00706B6F1040C06D20EEB9C
:104E7000860CBDE870404CF0010C6047DFE80CF098
:104E8000090B02024FF00041A1F500214FF0000094
:104E900070BD19461046012851EB010418BFD4F526
:104EA000001484BF002001F0004170BD0808A0F587
:104EB00000114FEA3101704743004FEAD30C4FEA2B
:104EC0003C0C43401FBF40070CF1605113F0FE4FF4
:104ED00070471CF0006F03D10CF0004100207047B8
:104EE0000CF0004343EA507040EACC0010B500F0EB
:104EF00021FA00BF000000924FEA0001FFF7D6BF81
:104F00004FF00041A1F500214FF000007047000074
:104F100090EA010F48BF81F0004100F15E82421A21
:104F20003CBF801A89184FEAD052A2EBD1534FF000
:104F30007F4C1CEA410F18BF9CEA026F00F03B80D7
:104F40004FF0004C4CEA00204CEA012121FA03FC0E
:104F500010EB0C0C1ED202F1FF325FEA1C2040EB7A
:104F6000C25038BF70471CF07F0F4FEA400C18BF8B
:104F7000BCF17F4F38BF7047C3F12003994008BF91
:104F800020F00100BCF17F4F38BF7047A0F1C04056
:104F900000F016BA4FEA3C00000A40EBC25028BFAE
:104FA0001CF0FF0F4FEA400CE6D018BFBCF17F4F5A
:104FB00038BF7047EAE79CEA026F05D010EA5C0F41
:104FC00008BF00F00040704710B500F0B3F900BF13
:104FD00064FBBE3E10B500F0F5F80CBF01200020C8
:104FE00010BD10B500F0EEF814BF0120002010BD78
:104FF00010B500F037F98CBF0120002010BD10B5AE
:1050000000F030F92CBF0120002010BD10B500F0D9
:105010005DF994BF0120002010BD10B500F056F9D5
:1050200034BF0120002010BD401058BFC0F14040E7
:10503000491058BFC1F140418142EFF300807047F1
:105040004FF47F0C1CEAD0121EBF1CEAD11392EA67
:105050000C0F93EA0C0F00F0858090EA010F48BF17
:1050600042F4807240F4000C41F400002CF07F41C7
:1050700020F07F4000B5A2EB030281420FF2081C32
:10508000ACEB504E9EF800E0C0F100004FEA4E0E2F
:1050900000FB0EFC38BF49004FEA2C1C0CFB0EF342
:1050A0004FEACE1E0EEB635E4FEA112C0EFB0CFC9A
:1050B0004FEAC1214FEA1C5300FB031102F5FA022B
:1050C0004FEA112C0EFB0CFC4FEA01314FEADC4C8D
:1050D00000FB0C1142EB2242C14228BF09184CEBE5
:1050E00003335DF804EB10EB410143EBC250B2F522
:1050F0007C0F38BF704729D512F0F00F1CBF00F1AC
:10510000C04000F00040704700818283848586871C
:1051100088898B8C8D8E8F919293959697999A9C76
:105120009D9FA0A2A3A5A7A8AAACAEB0B2B3B5B7E5
:10513000B9BCBEC0C2C5C7C9CCCED1D4D7D9DCDFBB
:10514000E2E6E9ECF0F3F7FAFE0000004FEA400C6B
:105150000CF1807CBCF17E4F28BF7047B0F1C0409D
:1051600000F02EB90CEAD11390EA010F48BF42F4C7
:105170008072624538BF634507D213F47F0F16D0A3
:1051800080EA010000F00040704710B500F0D2F84E
:10519000097EFC3E00F005B880EA010000F0004006
:1051A000704780EA010000F0004000F009B912F4F5
:1051B0007F0F04BF0248704780EA010000F000B989
:1051C0000000C07F50EA010C00F113801CF5000FB5
:1051D00058BFBCF5000F01D48842704707D710F5BF
:1051E000000F58BF11F5000F15D48842704789424F
:1051F00070471CF5000F04D5BCF5000FF7D58142B0
:1052000070474FF0807C1CEB400F38BF1CEB410F08
:1052100001D28142704710B500F08CF89224490009
:105220004FF000504FF08051FFF7FEBE41000B0ED3
:10523000D3F19E0208D950F400034FEA032323FA66
:1052400002F048BF4042704710B500F073F800BF4D
:1052500049922480002070476FF0004282EA2000CB
:105260007047000050EA010C00F113801CF5000F9C
:1052700058BFBCF5000F01D48842704707D710F51E
:10528000000F58BF11F5000F15D4884270478942AE
:1052900070471CF5000F04D5BCF5000FF7D581420F
:1052A00070474FF0807C1CEB400F38BF1CEB410F68
:1052B00001D28142704710B500F03CF892244900B9
:1052C0004FF080504FF00051FFF7AEBE50EA010C96
:1052D00000F113801CF5000F58BFBCF5000F01D47E
:1052E0008842704707D710F5000F58BF11F5000F1F
:1052F00015D488427047894270471CF5000F04D5C9
:10530000BCF5000FF7D5814270474FF0807C1CEB55
:10531000400F38BF1CEB410F01D28142704710B5DE
:1053200000F008F8922449004FF000504FF08051EF
:10533000FFF77ABE0EF1020E2EF0030E5EF8044B5C
:10534000244204D44FEA4102B2F17F4F11D84FEA10
:105350004003B3F17F4F0CD80ED14FEAD07C0CEB59
:105360004C0C0CF1020CB2F17F4F08BF4CEBD17C1E
:1053700004E04FF0080C01E04FEAD17C0CEB4C0349
:1053800024FA03F404F00704B4F1040C06D20EEB83
:10539000840CBDE810404CF0010C6047DFE80CF0D5
:1053A000070802024FF00040A0F5800010BD08463B
:1053B000420018BFD2F1807288BF00F0004010BDDB
:1053C000FF2141EAD050C0057047000090EA010F6C
:1053D00048BF81F000413FF5A2AD421A04D882F0E7
:1053E0000042A0EB020011444FEAD052A2EBD1538D
:1053F0004FF07F4C1CEA410F18BF9CEA026F4AD065
:105400004FF0004C4CEA00204CEA012121FA03FC49
:10541000B0EB0C0C0FD412F0FE0F36D05FEA4C004C
:105420001DD5001240EBC25038BF70471CF03F0F33
:1054300018BF70470BE05FEA1C20A2F1010240EBAD
:10544000C25038BF70471CF07F0F18BF7047C3F1C0
:105450002003994014BF401E20F0010070474FEA1E
:105460001223800808BF7047B0FA80FCA2EB0C0240
:10547000CCF1280C60FA0CF093EA122F04BF00EB79
:10548000C25070474FEAC3707047130A5FEADC10DE
:1054900008BF7047F6E79CEA026F04D010EA5C0F81
:1054A00008BF0020704710B5FFF744FF40DFF63E0D
:1054B00081F000407047FBF76CB90000024000002B
:1054C000000000A00000000005400000000000C82F
:1054D000000000000C4000000000409C00000000A4
:1054E000194000000020BCBE000000003440000055
:1054F000BFC91B8E00000004B5400000504BCFD048
:105500006607E2CF010000006C4100003E8251AA14
:10551000DFEEA73401000000D9420000DCB5A0E2B4
:105520003A301F97FFFFFFFFB4450000FD25A0C8DC
:10553000E9A3C14FFFFFFFFFFF3F00000000008015
:1055400000000000FF3F000000000080000000009D
:105550000000000000000000010203040607080923
:105560000000000001020304010200001008000016
:10557000745500080000000000000000000000005A
:1055800000000000000000F80000000000000033F0
:105590003000000000100C06100C06000000000097
:1055A0000000000040C07840C0784000043F040480
:1055B0003F040400007088FC08300000001820FF41
:1055C000211E0000F008F000E018000000211C037C
:1055D0001E211E0000F00888700000001E212324F8
:1055E0001927211010160E00000000000000000016
:1055F00000000000000000E01804020000000007A6
:105600001820400000020418E000000000402018AC
:1056100007000000404080F0804040000202010F7F
:1056200001020200000000F0000000000101011F63
:1056300001010100000000000000000080B07000C7
:105640000000000000000000000000000001010157
:1056500001010101000000000000000000303000E6
:1056600000000000000000008060180400601806C0
:105670000100000000E010080810E000000F1020FA
:1056800020100F00001010F8000000000020203F44
:1056900020200000007008080888700000302824CE
:1056A000222130000030088888483000001820206F
:1056B00020110E000000C02010F800000007042494
:1056C000243F240000F808888808080000192120D9
:1056D00020110E0000E0108888180000000F112033
:1056E00020110E0000380808C83808000000003FEC
:1056F000000000000070880808887000001C22214B
:1057000021221C0000E010080810E00000003122F7
:1057100022110F00000000C0C00000000000003097
:1057200030000000000000800000000000008060E9
:10573000000000000000804020100800000102046A
:105740000810200040404040404040000404040451
:10575000040404000008102040800000002010080D
:1057600004020100007048080808F0000000003042
:1057700036010000C030C828E810E00007182724D0
:1057800023140B000000C038E0000000203C23027E
:105790000227382008F8888888700000203F2020E1
:1057A00020110E00C0300808080838000718202013
:1057B0002010080008F808080810E000203F20200A
:1057C00020100F0008F88888E8081000203F2020EB
:1057D0002320180008F88888E8081000203F2000DF
:1057E00003000000C0300808083800000718202017
:1057F000221E020008F808000008F808203F2101D6
:1058000001213F20000808F8080800000020203F80
:105810002020000000000808F8080800C0808080F0
:105820007F00000008F888C028180800203F2001E9
:105830002638200008F8080000000000203F202043
:105840002020300008F8F800F8F80800203F003F5A
:10585000003F200008F830C00008F808203F200072
:1058600007183F00E01008080810E0000F10202083
:1058700020100F0008F808080808F000203F210158
:1058800001010000E01008080810E0000F182424AF
:1058900038504F0008F8888888887000203F200022
:1058A000030C3020007088080808380000382021D8
:1058B00021221C00180808F8080818000000203FE2
:1058C0002000000008F808000008F808001F202049
:1058D00020201F000878880000C83808000007381A
:1058E0000E010000F80800F80008F800033C07006B
:1058F000073C0300081868808068180820302C03D3
:10590000032C30200838C800C83808000000203FA9
:105910002000000010080808C83808002038262198
:1059200020201800000000FE020202000000007F9C
:1059300040404000000C30C00000000000000001AA
:105940000638C00000020202FE0000000040404095
:105950007F000000000004020202040000000000BA
:105960000000000000000000000000008080808037
:10597000808080800002020400000000000000001F
:1059800000000000000080808080000000192422B8
:1059900022223F2008F8008080000000003F1120F4
:1059A00020110E000000008080800000000E1120F9
:1059B00020201100000000808088F800000E1120D7
:1059C00020103F200000808080800000001F2222E5
:1059D00022221300008080F0888888180020203F51
:1059E000202000000000808080808000006B949464
:1059F0009493600008F8008080800000203F210020
:105A000000203F2000809898000000000020203FE8
:105A100020200000000000809898000000C08080D6
:105A2000807F000008F8000080808000203F240272
:105A30002D302000000808F8000000000020203F62
:105A4000202000008080808080808000203F200017
:105A50003F20003F8080008080800000203F2100A8
:105A600000203F200000808080800000001F202058
:105A700020201F00808000808000000080FFA12087
:105A800020110E000000008080808000000E112098
:105A900020A0FF80808080008080800020203F2127
:105AA00020000100000080808080800000332424DA
:105AB00024241900008080E0808000000000001F86
:105AC000202000008080000000808000001F202037
:105AD00020103F20808080000080808000010E30F8
