:020000040800F2
:10000000580B002089020008CB210008EB1B0008D8
:10001000C92100087B070008F12900080000000042
:100020000000000000000000000000007F25000824
:100030007D07000800000000CD2100088125000890
:10004000A3020008A3020008A3020008A3020008FC
:10005000A3020008A3020008A3020008A3020008EC
:10006000A3020008A3020008A3020008A3020008DC
:10007000A3020008A3020008A3020008A3020008CC
:10008000A302000800000000A3020008A302000869
:10009000A3020008A3020008A3020008A3020008AC
:1000A000A3020008A3020008A3020008A30200089C
:1000B000A3020008A3020008A3020008A30200088C
:1000C000A3020008A3020008A3020008A30200087C
:1000D000A3020008A3020008A3020008A30200086C
:1000E000A3020008A3020008A3020008A30200085C
:1000F000A3020008A3020008A302000800000000F9
:1001000000000000A302000800000000A302000895
:10011000A302000800000000A3020008FD2500085B
:10012000A3020008A3020008A3020008A30200081B
:10013000A30200080000000000000000A302000865
:10014000A3020008A3020008000000000000000055
:10015000000000000000000000000000000000009F
:10016000000000000000000000000000A3020008E2
:10017000A3020008000000000000000000000000D2
:1001800000000000A30200080000000000000000C2
:10019000000000000000000000000000000000005F
:1001A0000000000000000000A3020008A3020008F5
:1001B000A3020008A3020008A30200080000000038
:1001C00000000000A3020008000000000000000082
:1001D000A3020008A302000800F002F800F044F8AF
:1001E0000AA090E8000C82448344AAF10107DA4592
:1001F00001D100F039F8AFF2090EBAE80F0013F0A0
:10020000010F18BFFB1A43F0010318478C3C000094
:10021000AC3C0000103A24BF78C878C1FAD8520725
:1002200024BF30C830C144BF04680C607047000070
:100230000023002400250026103A28BF78C1FBD8EF
:10024000520728BF30C148BF0B607047642900F0D7
:10025000B980732900F05382002070471FB502F067
:100260001DFD1FBD10B510BD00F04DFA1146FFF782
:10027000F5FF02F0DFFC00F06BFA03B4FFF7F2FFCA
:1002800003BC00F073FA00000948804709480047A2
:10029000FEE7FEE7FEE7FEE7FEE7FEE7FEE7FEE736
:1002A000FEE7FEE704480549054A064B7047000093
:1002B000ED250008D901000858050020580B002042
:1002C00058070020580700200FB41CB5074B06AA9A
:1002D0007B4469460090059800F0DFF900206946EC
:1002E00000F0EEF91CBC5DF814FB0000ED0300000B
:1002F0000FB41CB50C0007AA009001D02044401E8A
:10030000074B7B4469460190069800F0C6F9002C23
:1003100003D06946002000F0D3F91CBC5DF814FB43
:10032000C503000070B5044685690068C10601D5A3
:10033000302600E02026C00707D070BDD4E9012197
:1003400030469047206A401C20626D1EF6D570BD75
:1003500070B5044685690078C00707D170BDD4E93F
:10036000012120209047206A401C20626D1EF6D596
:1003700070BD70B50C460546012A05D02878800668
:1003800000D5EA69002302E0012305E05B1C9342EB
:1003900002D2E05C0028F9D1A869E618C01AA86169
:1003A000286A184428622846FFF7BCFF04E0D5E914
:1003B000012114F8010B9047B442F8D32846FFF707
:1003C000C7FF70BD2DE9F04106460024106875296D
:1003D000314616A510D0AFF30080002802DA404263
:1003E00013A507E031688A0701D512A502E0490785
:1003F00004D511A5012401E0AFF3008000210A22F9
:1004000006F1240709E0B0FBF2FCB0FBF2F302FBBB
:100410001C00303078541846491C0028F3D123467C
:100420002A463046BDE8F04100F0D8B80000000090
:100430002D0000002B000000200000002DE9F047F7
:100440004FF0000A89460446C0F820A02046E16823
:100450008847002876D0252806D0D4E90121904786
:10046000206A401C2062F1E7E168204600258847A9
:10047000C4F81CA006460027C4F818A02A2E09D0EC
:10048000304602F0C6FA38B304EB8708303EC8F8AD
:10049000186019E059F8041B204604EB87029161AB
:1004A000E1688847012F064618D1E069002820DA64
:1004B00025F020051DE0D8F8180000EB800006EBC1
:1004C00040003038C8F818002046E16888470646E2
:1004D00002F09FFA0028EED1012F0AD02E2E08D16B
:1004E0002046E16888477F1C0646022F45F020051C
:1004F000C4DBA069002803DA404245F00105A06191
:10050000E80701D025F01005B6B1A6F14100192881
:1005100002D8203645F400654A463146204625601B
:100520004D46FFF793FE58B1012806D0ED1D25F08A
:10053000070000F1080989E704E005F1040985E7EF
:1005400030468AE7206ABDE8F08710B5431C02E018
:1005500010F8011B71B18107FAD14FF0013202C8C6
:100560008C1A8C4314EAC211F9D0C01A0A0603D0BF
:10057000C01E10BDC01A10BD0A0401D0801E10BDDF
:100580000902FCD0401E10BD4FF0000200B513461A
:1005900094469646203922BFA0E80C50A0E80C50A3
:1005A000B1F12001BFF4F7AF090728BFA0E80C5054
:1005B00048BF0CC05DF804EB890028BF40F8042B4D
:1005C00008BF704748BF20F8022B11F0804F18BFBA
:1005D00000F8012B70477047704770472DE9F047CE
:1005E0000D4699469246044600F1240801688806A3
:1005F00004D5E06921F01001216000E00120A8424B
:1006000001DD471B00E00027A1697A1902EB090010
:10061000081AA0612078C00602D42046FFF782FEA7
:10062000002608E0D4E901211AF806009047206A64
:10063000401C761C20624E45F4DB2078C0060AD5AB
:100640002046FFF76FFE06E0D4E9012130209047F5
:10065000206A401C2062381EA7F10107F4DC07E085
:10066000D4E9012118F805009047206A401C206257
:10067000281EA5F10105F3DC2046FFF769FE20786E
:10068000000602D50220BDE8F0870120FBE700004C
:1006900001694A1C02610878704700B58FB0CDE946
:1006A00001310021059105497944CDE90310114636
:1006B0006846FFF7C3FE0FB000BD0000E5FFFFFF77
:1006C0000A6802F8010B0A607047D1E900239A42D8
:1006D00002D2531C0B601070704710B5436913B100
:1006E000AFF3008001E0FFF744FE012010BD127857
:1006F00000F124010A7000224A700122EDE711681E
:100700004FF0FF32E9E7754600F02CF8AE460500E1
:100710006946534620F00700854618B020B5FFF71C
:10072000C1FDBDE820404FF000064FF000074FF03C
:1007300000084FF0000B21F00701AC46ACE8C009FF
:10074000ACE8C009ACE8C009ACE8C0098D46704708
:1007500010B50446AFF300802046BDE81040FFF717
:100760008CBD000000487047F404002001491820A7
:10077000ABBEFEE7260002007047FEE7704710B5EB
:10078000002140F6B83405E0224602235B1C934268
:10079000FCD3491C8142F7D310BD72B6FEE70000BE
:1007A00070B5044600F03CF90546601C02D00448D0
:1007B0004068044400F034F9401BA042FAD370BDF5
:1007C000280000202DE9F04FDFF8209200230126B9
:1007D0000324A9F1040B85B00F2709F1040AABF13A
:1007E000040EFAE006FA03F52A407CD091F804C022
:1007F0000CF0030CBCF1010F02D0BCF1020F26D1AA
:10080000D0F808C0CDF800C04FEA430C04FA0CF849
:10081000CDF810C0DDF800C02CEA080CCDF800C0FF
:10082000D1F80C80DDF810C008FA0CF8DDF800C033
:1008300048EA0C08C0F80880D0F804C02CEA050C7F
:100840000D79C5F300159D4045EA0C0545600D790D
:10085000ED43AD070ED0C5684FEA430804FA08FC23
:1008600025EA0C05D1F808C00CFA08FC4CEA050C86
:10087000C0F80CC00D7905F00305022D16D1DD0876
:1008800000EB850CCDF808C0DCF820805D074FEA4E
:10089000D56C07FA0CF528EA05080D6905FA0CF580
:1008A000DDF808C045EA0805CCF8205005684FEA95
:1008B000430CCDF808C004FA0CFC25EA0C0591F8AD
:1008C00004C00CF00308DDF808C008FA0CF848EA88
:1008D0000508C0F800804D6815F4403F7CD0444DB9
:1008E000D5F860C000E077E04CF0010CC5F860C0BE
:1008F0002D6E23F0030C05F0010500953D4D654478
:100900000295AD684FEA837C4FEA1C7807FA08FC31
:1009100025EA0C05B0F1904F06D0DFF8DCC0604549
:1009200005D14FF0010C20E04FF0000C1DE0DFF886
:10093000CCC0604502D14FF0020C16E0DFF8C0C019
:10094000604502D14FF0030C0FE0DFF8B8C06045FE
:1009500002D14FF0040C08E0DFF8ACC0604502D1D2
:100960004FF0050C01E04FF0060C0CFA08FC4CEAC5
:10097000050C029DC5F808C0D9F80050CC46D1F846
:10098000048095435FEAC82800D51543CCF8005091
:10099000DAF80050D446D1F8048095435FEA8828FD
:1009A00000D51543CCF80050DBF80050DC46D1F8F8
:1009B000048095435FEA883800D51543CCF8005091
:1009C000DEF80050F446D1F8048095435FEAC83859
:1009D00000D51543CCF800505B1C0A6832FA03F5C9
:1009E0007FF400AF05B0BDE8F08F000008040140BF
:1009F00000100240000001400004004800080048C8
:100A0000000C00480010004800140048006908402D
:100A100000D0012070470AB1816170478162704740
:100A20000148806870470000280000200248816863
:100A300042681144816070472800002010B50024EE
:100A4000032000F073F80F2000F008F808B101242B
:100A500001E000F025F8204610BD000070B50E4EF4
:100A600005460024706898B14FF47A71B1FBF0F03C
:100A70000A490968B1FBF0F000F0D2FD40B9102D31
:100A800006D200222946501E00F030F8356000E002
:100A90000124204670BD0000280000203400002002
:100AA0000A4882B0016E41F001010166016E01F059
:100AB00001010091816D41F080518165806D00F0F0
:100AC0008050009002B000F0A1B800000010024079
:100AD000002809DB00F01F0201219140400980003D
:100AE00000F1E020C0F8001170470000F0B40E4B98
:100AF0001B680C46C3F30223C3F10705042D00D97C
:100B00000425191D072901D2002300E0DB1E012660
:100B100006FA05F1491E214099409E40761E164076
:100B20003143F0BC01F065BF0CED00E0064900F078
:100B3000070208684FF6FF03184040EA0220034A04
:100B400010430860704700000CED00E00000FA055B
:100B50002B492C4B0A6832214A432B4940B1B0F54E
:100B6000007F086829D020F4C06040F480602CE049
:100B70000868C0F34120022804D051F8800F20F407
:100B8000807022E0D1F8800020F48070C1F88000ED
:100B9000086820F4C06040F400700860B2FBF3F015
:100BA000401C00E0401E4A69520501D50028F9D1D9
:100BB000486940050AD503207047C0F34120022848
:100BC00006D051F8800F40F4807008600020704714
:100BD000D1F8800040F48070C1F88000086820F4EB
:100BE000C06040F400700860B2FBF3F0401C00E00D
:100BF000401E4A695205DBD50028F9D1D8E700002C
:100C00003400002040420F0000700040024881681C
:100C100041F4804181607047007000402DE9F84345
:100C20000446006800269D4D00035ED5A86D002790
:100C3000C00008D4A86D40F08050A865A86D0127B9
:100C400000F080500090DFF85892D9F8001041F47D
:100C50008071C9F80010FFF7E3FE804606E000BF90
:100C6000FFF7DEFEA0EB080002282BD8D9F8000021
:100C7000C005F5D5D5F8900010F4407014D0216C63
:100C8000814211D0D5F89000D5F8901020F4407032
:100C900041F48031C5F89010D5F8901021F48031DE
:100CA000C5F89010C5F89000C00711D0FFF7B8FE46
:100CB000804641F2883907E0FFF7B2FEA0EB080159
:100CC000494501D903260BE0D5F890008007F3D5FC
:100CD000D5F89000216C20F440700843C5F89000CE
:100CE0001FB1A86D20F08050A8652078C00707D0FC
:100CF000D5F88800616820F003000843C5F8880033
:100D00002078800707D5D5F88800A16820F00C006E
:100D10000843C5F888002078400707D5D5F8880033
:100D2000E16820F030000843C5F88800207800070B
:100D300007D5D5F88800216920F0C0000843C5F820
:100D400088002078800607D5D5F88800616920F4EE
:100D500040600843C5F888002078400607D5D5F8DC
:100D60008800A16920F440500843C5F88800207825
:100D7000000607D5D5F88800E16920F44040084313
:100D8000C5F888002088C00507D5D5F88800216AF5
:100D900020F440300843C5F888002088800507D536
:100DA000D5F88800616A20F440200843C5F888001F
:100DB000208840050FD5D5F88800A16A20F440109E
:100DC0000843C5F88800A06AB0F5801F03D1E86821
:100DD00040F48010E860208800050FD5D5F8880021
:100DE000E16A20F440000843C5F88800E06AB0F5E5
:100DF000800F03D1E86840F48010E8602088C004C8
:100E00000FD5D5F88800216B20F040700843C5F855
:100E10008800206BB0F1807F03D1E86840F4801037
:100E2000E86020884FF0006180040ED5D5F8880076
:100E3000626B20F040601043C5F88800606B884208
:100E400003D1E86840F48010E860208840040ED5A3
:100E5000D5F88800A26B20F040601043C5F88800E8
:100E6000A06B884203D1E86840F48010E8602088D5
:100E700000040FD5D5F88800E16B20F040500843FE
:100E8000C5F88800E06BB0F1805F03D1E86840F4FA
:100E90008030E8603046BDE8F88300000010024072
:100EA000007000402DE9F0470E4605004FF00007A6
:100EB00025D0DFF8AC81D8F8000000F00F00B04278
:100EC0000CD2D8F8001021F00F013143C8F80010FF
:100ED000D8F8000000F00F00B04210D12968614C32
:100EE000C80741F2883A5AD06868DFF87C91032835
:100EF00008D0022820682DD0400500282CDB0120D6
:100F0000BDE8F08720688001F9D5E06800F00302B1
:100F1000E068C0F30310401C032A19D0534A00BFF5
:100F2000B2FBF0F0E268C2F306225043E268C2F37B
:100F30004162521C5200B0FBF2F0484517D9A0683C
:100F400010F0F00F0CD0880711D5A86840B10EE062
:100F5000474AE5E78003D0E700F092F8484506D914
:100F6000A06820F0F00040F08000A0608027A0681A
:100F7000696820F003000843A060FFF751FD814637
:100F800006E000BFFFF74CFDA0EB090151453AD840
:100F9000A068696800F00C00B0EB810FF2D12868FE
:100FA000810714D5400703D5A06840F4E060A06035
:100FB0002878000705D5A06820F4605040F4E06070
:100FC000A060A068A96820F0F000084304E0802F2A
:100FD00003D1A06820F0F000A060D8F800104046CF
:100FE00001F00F01B14216D9016821F00F01314320
:100FF0000160FFF715FD074607E000BFFFF710FD92
:10100000C11B514501D903207AE7D8F8000000F050
:101010000F00B042F2D12878400705D5A068E968F2
:1010200020F4E0600843A0602878000706D5A06897
:10103000296920F4605040EAC100A06000F020F867
:10104000A1680C4AC1F30311515C01F01F01C840B3
:101050000949086009480068BDE8F047FFF7FEBC91
:10106000002002400010024000B4C4040024F40038
:1010700000366E01763E0008340000202800002073
:10108000184910B58868C0F381021748012A0BD0AF
:101090008A68164BC2F38102022A06D08A68C2F31C
:1010A0008102032A03D0002010BD184610BDCA6873
:1010B00002F00304CA68C2F30312521C032C02D0CC
:1010C000B0FBF2F001E0B3FBF2F0CA68C968C2F30A
:1010D00006225043C1F34161491C4900B0FBF1F0C5
:1010E00010BD0000001002400024F40000366E0124
:1010F0002DE9F84304007AD02078F84DC00747D096
:10110000A868E96800F00C0001F003010C2802D087
:10111000082817D001E0032914D06068B0F5803F9B
:1011200017D0B0F5A02F286817D020F480302860A1
:10113000286820F4802028606068E0B1FFF770FC28
:10114000064614E02868800322D560680028D2D0C3
:101150001EE0286840F48030EDE740F480202860ED
:10116000F7E700BFFFF75CFC801B642870D8286895
:101170008003F7D50CE0FFF753FC064605E000BFFF
:10118000FFF74EFC801B6428F0D828688003F7D452
:10119000207880074CD5A868E96800F00C0001F0C1
:1011A00003010C2802D004280DD001E002290AD046
:1011B000E068002828682BD040F480702860FFF792
:1011C0002FFC064619E02868400502D5E068002893
:1011D00091D06868217C20F0FE4040EA01606860A0
:1011E000BF480068FFF73AFC002800D120E072E118
:1011F000FFF716FC801B0228B8D828684005F7D5F1
:101200006868217C20F0FE4040EA016068600FE0E1
:1012100020F480702860FFF703FC064605E000BF5D
:10122000FFF7FEFB801B0228A0D828684005F7D4F2
:101230002078000729D560690028D5F8940013D0DC
:1012400040F00100C5F89400FFF7EAFB064606E00F
:1012500090E000BFFFF7E4FB801B022886D8D5F89A
:1012600094008007F6D510E020F00100C5F8940046
:10127000FFF7D6FB064604E0FFF7D2FB801B0228EF
:1012800078D8D5F894008007F6D42078400761D547
:10129000A86D0026C00008D4A86D40F08050A86555
:1012A000A86D012600F0805000908E480168C905A5
:1012B00011D40168804641F480710160FFF7B0FBF2
:1012C000074604E0FFF7ACFBC01B022852D8D8F851
:1012D0000000C005F6D5A068012815D00528D5F86E
:1012E000900016D020F00100C5F89000D5F89000CD
:1012F00020F00400C5F89000A06841F28838B8B129
:10130000FFF78EFB07460EE0D5F8900040F0010095
:10131000F0E740F00400C5F89000F5E7FFF780FB28
:10132000C11B414526D8D5F890008007F6D50CE0C2
:10133000FFF776FB074604E0FFF772FBC11B414550
:1013400018D8D5F890008007F6D41EB1A86D20F00B
:101350008050A8652078800629D5A0690028D5F896
:10136000980013D040F00100C5F89800FFF758FB33
:10137000064606E075E000BFFFF752FB801B02281F
:101380006FD8D5F898008007F6D510E020F001005E
:10139000C5F89800FFF744FB064604E0FFF740FB62
:1013A000801B02285DD8D5F898008007F6D4E06944
:1013B000F0B3A968C1F3810103295DD00228286830
:1013C00020F08070286003D0FFF72AFB04464BE032
:1013D000FFF726FB064604E0FFF722FB801B0228EE
:1013E0003FD828688001F7D4F4E908016FF00F02B4
:1013F00002EB01110843218A5204490802EB4151D2
:10140000A26841EA02210843217D4FF07E4249084B
:1014100002EB41610843217B40EAC160E968324A3E
:1014200011400843E860286840F08070286000E0C0
:101430005EE0E86840F08070E860FFF7F1FA04468B
:1014400005E000BFFFF7ECFA001B022809D8286866
:101450008001F7D54CE000BFFFF7E2FA001B02283D
:1014600002D90320BDE8F88328688001F4D4E86835
:101470001E490840E8603BE00128F3D0E868226A92
:1014800000F00301914226D1616A00F0F0020901E7
:10149000103991421FD1A26A00F4FE41B1EB022F34
:1014A00019D194F82C2000F07841B1EBC26F12D121
:1014B000218E00F4C00249084905A1F500119142AE
:1014C00009D194F8341000F0C06049084906A1F130
:1014D000007181420CD00120C4E7000000100240DE
:1014E00028000020007000400C809F01FCFFEEFEF1
:1014F0000020B7E770B504004FF0010040D094F829
:10150000250028B9002084F82400204600F040F887
:10151000022084F825002068C168C943C90630D577
:10152000CA214162216853204862204600F0DAFF58
:1015300010BB20688169154A114081612168886962
:101540006268A369104322691A43104388612189A4
:10155000E06840EA014021680861204600F0E7FFAA
:1015600050B9D4E90721114322686369956925F0D0
:1015700060452B43194391612268FF21516208B1F4
:1015800070BD0020012184F8251070BDBFFF8FFBC6
:1015900010B592B0044644216846FEF7F5FF1049A5
:1015A000206888421AD14FF4002000904FF4407018
:1015B00010906846FFF732FB08B1FFF7EEF80948D4
:1015C00050F8901F41F4004140F83819016841F487
:1015D00080610160006800F48060119012B010BD5D
:1015E000002800400010024070B504460B482168F6
:1015F000C860FFF715FA05464FF47A7607E000BF9A
:10160000FFF70EFA401BB04201D9032070BD2068DD
:10161000C0688006F4D5002070BD00005F000100A6
:1016200010B5401EB0F1807F01D3012010BD4FF0F6
:10163000E02460610F21601701F0DBF90020A06158
:1016400007202061002010BD704770477047704729
:1016500070477047F0B590F83C20012A3AD0012538
:1016600080F83C50022280F83D2003685A689C684C
:10167000194E1A4FB34201D0BB4204D122F4700C70
:101680004A6842EA0C02DFF858C002EA0C02D1F8BC
:1016900000C04CEA020CC3F804C00268B2420DD08C
:1016A000B2F1804F0AD00F4B9A4207D00E4B9A42AC
:1016B00004D0BA4202D00D4B9A4204D1896824F07A
:1016C00080031943916080F83D50002180F83C1060
:1016D0000846F0BD0220F0BD002C0140003401405E
:1016E0008FFFFFFD00040040000800400040014063
:1016F000704710B5040003D094F83D0010B107E026
:10170000012010BD002084F83C00204600F022F8A3
:10171000022084F83D00211D206800F075FF0120A3
:1017200084F8480084F83E0084F83F0084F84000C4
:1017300084F8410084F8420084F8430084F84400AF
:1017400084F8450084F8460084F8470084F83D009A
:10175000002010BD08B500680B49884212D10B4823
:10176000816D41F020018165806D002200F0200034
:10177000009011463720FFF7B9F9BDE8084037203F
:10178000FFF7A6B908BD0000001400400010024099
:1017900090F83D10012901D001207047022180F806
:1017A0003D100168CA6842F00102CA600068104931
:1017B00088420ED0B0F1804F0BD00E49884208D03D
:1017C0000D49884205D00D49884202D00C49884213
:1017D00007D181680B4A1140062906D0B1F5803F38
:1017E00003D0016841F00101016000207047000052
:1017F000002C01400004004000080040003401407B
:10180000004001400700010070472DE9F041044607
:101810000068C66805694FF00007A90713D5B1072E
:1018200011D5F91E016101202077206880698007A9
:10183000204602D0FFF7E8FF04E000F0DFF8204682
:1018400000F0B4F92777680716D5700714D521681A
:101850006FF004000861022020772068806910F48E
:10186000407F204602D0FFF7CFFF04E000F0C6F82B
:10187000204600F09BF92777280715D5300713D5A8
:1018800021686FF008000861042020772068C06993
:101890008007204602D0FFF7B7FF04E000F0AEF863
:1018A000204600F083F92777E80616D5F00614D510
:1018B00021686FF010000861082020772068C06957
:1018C00010F4407F204602D0FFF79EFF04E000F0B6
:1018D00095F8204600F06AF92777E80708D0F00766
:1018E00006D021686FF001000861204600F060F921
:1018F000280601D4A80408D5300606D521686FF45F
:10190000025008612046FFF7A0FEE80508D5300622
:1019100006D521686FF4807008612046FFF794FEB9
:10192000680608D5700606D521686FF0400008618A
:10193000204600F059F9A80608D5B00606D521685A
:101940006FF0200008612046FFF780FEE80208D50E
:10195000F00206D521686FF4801008612046FFF779
:1019600077FEA80208D5B00206D521686FF40010F2
:1019700008612046FFF76BFE680208D5700206D5A5
:1019800021686FF4800008612046FFF762FE28029C
:101990000AD5300208D521686FF40000086120469E
:1019A000BDE8F041FFF7A4BEBDE8F08110B586B0F8
:1019B000044614216846FEF7E7FD0E492068884278
:1019C00015D10D48C16C41F00101C164C06C00210A
:1019D00000F001000590502000900220CDE90101A7
:1019E000CDE9031069464FF09040FEF7EBFE06B0DC
:1019F00010BD00000004004000100240704770B5A8
:101A0000044690F83C0000260D4601280BD001202A
:101A100084F83C000C2A4AD007DC82B1042A20D08A
:101A2000082A06D131E0022070BD102A53D0142AB2
:101A300063D00126002084F83C00304670BD206849
:101A400000F040FE2068816941F008018161206852
:101A5000816921F004018161206881692A6911434B
:101A600011E0206800F07CFE2068816941F400618B
:101A700081612068816921F48061816120688169C8
:101A80002A6941EA02218161D4E7206800F0B0FEB2
:101A90002068C16941F00801C1612068C16921F075
:101AA0000401C1612068C1692A69114311E02068FD
:101AB00000F0E6FE2068C16941F40061C161206860
:101AC000C16921F48061C1612068C1692A6941EA64
:101AD0000221C161AEE7206800F01AFF2068016DA5
:101AE00041F0080101652068016D21F004010165E4
:101AF0002068016D2A69114311E0206800F040FF61
:101B00002068016D41F4006101652068016D21F4D8
:101B1000806101652068016D2A6941EA0221016541
:101B200088E710B5040003D094F83D0010B107E039
:101B3000012010BD002084F83C00204600F022F86F
:101B4000022084F83D00211D206800F05DFD012089
:101B500084F8480084F83E0084F83F0084F8400090
:101B600084F8410084F8420084F8430084F844007B
:101B700084F8450084F8460084F8470084F83D0066
:101B8000002010BD08B500680649884208D1064803
:101B9000816D41F002018165806D00F002000090CE
:101BA00008BD000000040040001002407047000023
:101BB0000B49884204D10B48002142790AB1816166
:101BC00070478269521C8261B2F57A7FF8D302793C
:101BD000012AF5D1017181614170C1707047000027
:101BE000A8040020080000207047FEE700B585B07B
:101BF00014216846FEF7C8FC4FF6FF7000900020E5
:101C00000321CDE90201019069460248FEF7DAFDA1
:101C100005B000BD0008004800B585B01421684635
:101C2000FEF7B2FC4FF6FF700090012001900320F8
:101C300003900020029069460248FEF7C3FD05B0FC
:101C400000BD00000008004870B50024064621468B
:101C5000204600F003F900F041F94FF49635304684
:101C600000F010F9641CAC42F9D370BD30B587B0F8
:101C700014216846FEF788FC1E48C16C41F004013F
:101C8000C164C16C01F004010591C16C41F0010116
:101C9000C164C16C01F001010591C16C41F0020108
:101CA000C164C06C012500F0020005904FF448703B
:101CB000CDE9000500240394694602940E48FEF71E
:101CC00081FD280203940090CDE901544FF0904427
:101CD00069462046FEF776FDFFF79EFFA06940F4B7
:101CE0008070A06104481830016841F408710160F7
:101CF00007B030BD0010024000040048203AD2B2C4
:101D0000034B02EB420203EB021200F019B8000091
:101D1000A62C0008F0B50E460746002540F23F14F9
:101D200007E021463846FFF7E9FF103C6D1CA4B2DE
:101D3000761C3278002A01D0142DF2D3F0BD0000B9
:101D40002DE9F04791468A460026044600F086F8C1
:101D5000DFF84080012700BF00F0C0F85FF0000509
:101D600039F8160007FA05F10842404601D14088CB
:101D700000E0008800F086F86D1C102DF0D3641C84
:101D8000E4B25146204600F069F8761C182EE3D3E1
:101D9000BDE8F0870000002010B5FFF767FF0020C6
:101DA00000F014F8084CA080A088A0F5024130395A
:101DB00006D000F095FA002000F008F8A08010BDD1
:101DC00000F005FAF7E700000000002070B51D499B
:101DD0000A6842F400720A600A6842F480720A607B
:101DE000184C103C226842F020022260164A106013
:101DF000086840F02000086000BF00BF00BF2068F6
:101E000040F020002060206840F480702060FFF7E0
:101E1000EDFE4FF09041886A40F48070886200BF08
:101E200000BF00BF0848001F006885B2886940F401
:101E300080708861FFF7F0FE206840F40070206039
:101E4000284670BD280400481408004801B5BDF8B4
:101E500000000149488008BD0000002010B50C4674
:101E60000146202000F068F82146BDE810402120FE
:101E700000F062B801B5BDF800000149088008BD56
:101E800000000020134A116841F4007111601149EB
:101E900010390B6843F480730B600B6843F0200328
:101EA0000B600D4B1860106840F02000106000BF00
:101EB00000BF00BF086840F020000860086840F4D8
:101EC0008070086000BF00BF00BF086840F4007069
:101ED000086070472804004814080048144908683E
:101EE00040F400700860086840F480700860104892
:101EF0001038026842F0200202600E4B22221A6063
:101F00000A6842F020020A6000BF00BF00BF0168FB
:101F100041F020010160016841F48071016000BF5F
:101F200000BF00BF016841F400710160704700000C
:101F30002804004814080048184B10B51A6842F4E9
:101F400000721A601A6842F480721A60134A103ADA
:101F5000146844F020041460114C2060186840F0AC
:101F60002000186000BF00BF00BF106840F02000D4
:101F70001060106840F4807010602160186840F0B4
:101F80002000186000BF00BF00BF106840F02000B4
:101F90001060106840F48070106010BD2804004884
:101FA000140800487FB505460C460846FEF7CDFAF2
:101FB000C0F11400430809A008A1CDE90014CDE93F
:101FC000023007A214210948FEF792F904B028460E
:101FD000BDE870400549FFF79DBE0000000000000D
:101FE000252A732573252A7300000000380000207D
:101FF000F0B587B014216846FEF7C6FA2D48C16CCB
:1020000041F00401C164C16C01F004010591C16C8F
:1020100041F02001C164C16C01F020010591C16C47
:1020200041F00101C164C16C01F001010591C16C75
:1020300041F00201C164C16C01F002010591C16C63
:1020400041F00801C164C06C1B4E00F008004FF461
:102050007F440590002221463046FEF7DCFC174FF6
:10206000002204213846FEF7D6FC0125CDE90045C3
:1020700000240294694630460394FEF7A3FBCDE9A1
:10208000005469464FF090400294FEF79BFB0720F6
:10209000CDE9000469460A480294FEF793FB042048
:1020A0000090CDE90154694638460394FEF78AFB57
:1020B00007B0F0BD0010024000080048000C0048C6
:1020C000000400480D4810B50B49016000217F2233
:1020D000C0E90112FF22C0E903214FF080424161B3
:1020E000C0E906120162FFF705FA002803D0BDE837
:1020F0001040FEF752BB10BD002800403404002001
:1021000010B58AB00024079408941C2168460994ED
:10211000FEF73AFA1948184901604F21C0E9011445
:102120006321C0E903148461FFF7FBFC08B1FEF7EB
:1021300034FB079407A911480994FFF78BFA08B1FB
:10214000FEF72BFB6020CDE90004029400226946D3
:102150000A480494FFF753FC08B1FEF71EFB042263
:1021600069460648FFF74BFC08B1FEF716FB03482B
:10217000FFF71CFC0AB010BD000400405C04002006
:102180003EB500240F48009401940D49029401606B
:1021900041F61F41C0E9011409218461C160FFF7C4
:1021A000A8FA08B1FEF7F9FA0094694605480294C6
:1021B000FFF750FA002801D0FEF7EFFA3EBD00000D
:1021C00000140040A8040020FEE7FEE7704730B589
:1021D00001210020FFF7B0FE4FF47A70FEF7CFFA2E
:1021E00000210120FFF7A8FE41F290711020FFF7B7
:1021F000A3FE4FF41C516020FFF79EFE01216120D9
:10220000FFF79AFE02214620FFF796FE48F21001E2
:102210001320FFF791FE48F2FE011220FFF78CFE1B
:102220004FF4A0610220FFF787FE41F23001032046
:10223000FFF782FE40F2033421463020FFF77CFE98
:1022400021463120FFF778FE21463220FFF774FE49
:10225000E51E29463320FFF76FFE03213420FFF7E8
:102260006BFE21463520FFF767FE14213620FFF76D
:1022700063FE21463720FFF75FFE21463820FFF737
:102280005BFE21463920FFF757FE29463A20FFF72B
:1022900053FE03213B20FFF74FFE21463C20FFF772
:1022A0004BFE4FF4A0513D20FFF746FE4FF4007166
:1022B0009220FFF741FE21469320FFF73DFE40F6B6
:1022C0000D019020FFF738FE41F218010320FFF7BF
:1022D00033FEBDE8304040F273110720FFF72CBEFB
:1022E00010B543F20801E320FFF726FE1221E72094
:1022F000FFF722FE41F23121EF20FFF71DFE002102
:102300000120FFF719FE4FF4E0610220FFF714FEF1
:1023100041F230010320FFF70FFE00210420FFF7F8
:102320000BFE40F207210820FFF706FE00210920DE
:10233000FFF702FE00210A20FFF7FEFD00210C201E
:10234000FFF7FAFD00210D20FFF7F6FD00210F2019
:10235000FFF7F2FD00211020FFF7EEFD072111200D
:10236000FFF7EAFD00211220FFF7E6FD0021132010
:10237000FFF7E2FDC820FEF713FA41F2906110204A
:10238000FFF7DAFD40F227211120FFF7D5FD3220BB
:10239000FEF706FA1D211220FFF7CEFD3220FEF7D0
:1023A000FFF94FF400611320FFF7C6FD1421292027
:1023B000FFF7C2FD0B212B20FFF7BEFD3220FEF7F9
:1023C000EFF900212020FFF7B7FD00212120FFF7C2
:1023D000B3FD07213020FFF7AFFD40F20771312038
:1023E000FFF7AAFD06213220FFF7A6FD40F2047197
:1023F0003520FFF7A1FD41F604713620FFF79CFD63
:1024000004213720FFF798FD00213820FFF794FDC5
:1024100040F206713920FFF78FFD40F201713C2038
:10242000FFF78AFD0F213D20FFF786FD0021502098
:10243000FFF782FDEF215120FFF77EFD00215220A2
:10244000FFF77AFD40F23F115320FFF775FD4FF47F
:102450001C516020FFF770FD01216120FFF76CFD2A
:1024600000216A20FFF768FD00218020FFF764FD4E
:1024700000218120FFF760FD00218220FFF75CFD35
:1024800000218320FFF758FD00218420FFF754FD31
:1024900000218520FFF750FD10219020FFF74CFD13
:1024A00000219220FFF748FD03219320FFF744FD10
:1024B0004FF488719520FFF73FFD00219720FFF72B
:1024C0003BFD00219820FFF737FD41F21801032062
:1024D000FFF732FDBDE8104040F273110720FFF70F
:1024E0002BBD00002DE9F041044600680025C168BD
:1024F000490619D4C16841F08001C160FEF790FA25
:1025000006464FF47A78032708E000BFFEF788FA02
:10251000801B404502D9032584F825702068C068D7
:10252000400601D4032DF1D12846BDE8F08170B5F5
:10253000044600680025C16821F08001C160206860
:1025400081694FF00306890607D42046FFF74CF84F
:1025500098B184F8256003250FE0816921F02001FE
:1025600081612046FFF740F810B184F8256003250B
:102570002068816941F020018161284670BD704763
:10258000FEF754BA10B594B038216846FDF7FCFF49
:1025900014210EA8FDF7F8FF4FF40070FEF7D8FAEB
:1025A000012000900004019002200324CDE90704DB
:1025B0001421CDE90A100C900D9009946846FEF79D
:1025C00097FD08B172B6FEE70F20CDE90E0400209A
:1025D00010901190129002210EA8FEF763FC0028C3
:1025E00001D072B6FEE714B010BD000002480168C9
:1025F00041F470010160704788ED00E00148FFF789
:1026000004B90000A80400202DE9F0430268264B1D
:10261000264D274E274C4FF08049984207D0484519
:1026200005D0A84203D0B04201D0A04203D122F08D
:1026300070074A683A43204FDFF880C0DFF8808097
:1026400098420DD048450BD0A84209D0B04207D0DF
:10265000A04205D0B84203D0604501D0404503D127
:1026600022F44075CA682A434D6922F080022A4349
:1026700002608A68C2620A688262984207D0A042F9
:1026800005D0B84203D0604501D0404501D1096969
:102690000163012141610169C90703D0016921F08A
:1026A00001010161BDE8F083002C014000040040FD
:1026B0000008004000340140004001400044014057
:1026C000004801402DE9F043056A026A22F0010248
:1026D0000262436882691C4C25F0020522400C68A6
:1026E00022F0030214438A68194E2A43174D194FEA
:1026F000DFF864C0DFF86490A84207D0B04205D08C
:10270000B84203D0604501D0484506D122F0080800
:10271000CA6842EA080222F00402A84207D0B04286
:1027200005D0B84203D0604501D0484505D14D6978
:1027300023F440731D438B692B43436084614968D4
:1027400041630262BDE8F0838FFFFEFF002C014071
:102750000034014000400140004401400048014075
:10276000F0B5056A026A22F01002026242688369CB
:10277000194C1B4E23400C6823F4407343EA042495
:1027800025F020038D6843EA0513144DA84201D0BB
:10279000B04206D1CF6823F0800343EA071323F049
:1027A0004003A8420AD0B04208D00E4DA84205D03E
:1027B0000D4DA84202D00D4DA84207D14D6922F41B
:1027C000406242EA85028D6942EA85024260846184
:1027D000496881630362F0BDFF8FFFFE002C01405A
:1027E00000340140004001400044014000480140E5
:1027F000F0B5056A026A22F4807202624368C26917
:10280000194C1B4E22400C6822F00302144325F49D
:1028100000728D6842EA0522144DA84201D0B042F0
:1028200006D1CF6822F4006242EA072222F48062D5
:10283000A8420AD0B04208D00E4DA84205D00E4D95
:10284000A84202D00D4DA84207D14D6923F4405350
:1028500043EA05138D6943EA05134360C46149687F
:10286000C1630262F0BD00008FFFFEFF002C01403B
:102870000034014000400140004401400048014054
:10288000F0B5056A026A22F4805202624268C369A6
:10289000194C1B4E23400C6823F4407343EA042474
:1028A00025F400538D6843EA0533144DA84201D046
:1028B000B04206D1CF6823F4004343EA073323F440
:1028C0008043A8420AD0B04208D00E4DA84205D09D
:1028D0000D4DA84202D00D4DA84207D14D6922F4FA
:1028E000404242EA85128D6942EA85124260C46123
:1028F000496801640362F0BDFF8FFFFE002C0140B8
:1029000000340140004001400044014000480140C3
:1029100030B5056A026A22F4803202624268036DB1
:10292000114C23400C681C4325F400330D8943EA05
:1029300005430E4DA8420BD00D4DA84208D00D4DB9
:10294000A84205D00C4DA84202D00C4DA84204D19B
:102950004D6922F4803242EA0522426004654968EA
:102960008164036230BD00008FFFFEFF002C014038
:102970000034014000400140004401400048014053
:1029800030B5046A026A22F4801202624268036D62
:10299000114D24F400142B400D6843EA05230D89E2
:1029A00044EA05540D4DA8420BD00D4DA84208D065
:1029B0000C4DA84205D00C4DA84202D00B4DA842A8
:1029C00004D14D6922F4802242EA852242600365E7
:1029D0004968C164046230BDFF8FFFFE002C0140D6
:1029E00000340140004001400044014000480140E3
:1029F000FEE70907090E002804DB00F1E02080F85B
:102A00000014704700F00F0000F1E02080F8141D62
:102A1000704730380A2801D20120704700207047E3
:102A2000074910B50B68074A94681B1BC82B06D3CF
:102A300009684000916010F0FF0000D1102010BD27
:102A4000300000200800002070B519480168194CBA
:102A5000E268891A0A2929D30068E06000F02CF89E
:102A600060714FF6FF75012804D16070E070284650
:102A7000FFF7EAF86079022804D16070E070284618
:102A8000FFF7E2F860790426032804D16070E6704D
:102A90002846FFF7D9F86079042807D16670082026
:102AA000E0702846BDE87040FFF7CEB870BD00006A
:102AB00030000020080000202DE9F047354E0025A9
:102AC000354C30782F464FF001084FF0904920B137
:102AD000012817D002285AD144E001212046FDF7F1
:102AE00095FFD8B302212046FDF790FFB0B3042133
:102AF0002046FDF78BFF88B301214846FDF786FF8E
:102B000078BB2BE001212046FDF780FF70B1022148
:102B10002046FDF77BFF48B104212046FDF776FFF4
:102B200020B101214846FDF771FFD0B901212046AF
:102B3000FDF76CFF00B9012502212046FDF766FF75
:102B400000B9022504212046FDF760FF00B90325E6
:102B500001214846FDF75AFF00B9042586F8008098
:102B600015E013E001212046FDF750FF78B1022166
:102B70002046FDF74BFF50B104212046FDF746FFEC
:102B800028B101214846FDF741FF00B137702846C2
:102B9000BDE8F087240000200004004810B50C4870
:102BA00001680C4C2269891A642910D300682061DD
:102BB00018206169FFF7F6F9627807A10748FDF769
:102BC00083FBBDE8104005494820FFF7EBB910BD75
:102BD0003000002008000020256400004C00002088
:102BE00070B5124D044601224FF47F412846FDF78F
:102BF00012FF0F4E012204213046FDF70CFF002288
:102C000004213046FDF707FF210200222846FDF788
:102C100002FF012204213046FDF7FDFE3046BDE8EB
:102C2000704000220421FDF7F6BE000000080048B5
:102C3000000C0048FDF702FFFFF7A4FCFFF7D8F9EE
:102C4000FFF740FAFFF75CFAFFF79AFAFFF7A4F8EC
:102C50004FF6FF742046FEF7F7FF0020FFF70AF952
:102C60002046FFF7F3F80B48FEF792FD0020FFF730
:102C7000B7FF094C2078FFF7D3FE2070FFF7E4FE82
:102C8000FFF78CFFE07821780843A070FFF7A8FFDA
:102C9000F0E70000A8040020080000204FF040707A
:102CA000E1EE100A70470000000000000000000084
:102CB0000000000000000000000000000000000014
:102CC0000000000000000000000000000000000004
:102CD00000000000000000008001800180018001F0
:102CE00080018001800180018001800180018001DC
:102CF0008001000000008001800100000000000051
:102D000000000000000000000000CC00CC00CC005F
:102D1000CC00CC00CC00000000000000000000004F
:102D200000000000000000000000000000000000A3
:102D30000000000000000000000000000000000093
:102D40000000600C600C600C30063006FE1FFE1F99
:102D5000300638071803FE1FFE1F180318038C01E6
:102D60008C018C01000000008000E003F80F9C0E35
:102D70008C1C8C188C009800F801E007800E801CD9
:102D80008C188C189C18B80CF00FE00380008000A1
:102D90000000000000000000000000000E181B0CE6
:102DA000110C11061106110311039B018E01C0388D
:102DB000C06C60446044304430441844186C0C3893
:102DC0000000000000000000E001F00338071806D2
:102DD00018063003F001F000F8009C310E33061E97
:102DE000061C061C063FFC73F021000000000000DA
:102DF000000000000000000000000C000C000C00AF
:102E00000C000C000C00000000000000000000009E
:102E100000000000000000000000000000000000B2
:102E20000000000000000000000200038001C0005C
:102E3000C000600060003000300030003000300022
:102E400030003000300060006000C000C000800131
:102E5000000300020000000020006000C0008001AC
:102E600080010003000300060006000600060006BD
:102E70000006000600060003000380018001C00078
:102E800060002000000000000000000000000000C2
:102E90000000C000C000D806F807E0013003380782
:102EA0000000000000000000000000000000000022
:102EB0000000000000000000000000000000000012
:102EC000000080018001800180018001FC3FFC3F07
:102ED000800180018001800180010000000000006D
:102EE00000000000000000000000000000000000E2
:102EF00000000000000000000000000000000000D2
:102F000000000000000000008001800100010001BD
:102F10008000000000000000000000000000000031
:102F20000000000000000000000000000000E007BA
:102F3000E0070000000000000000000000000000AA
:102F40000000000000000000000000000000000081
:102F50000000000000000000000000000000000071
:102F60000000000000000000C000C00000000000E1
:102F70000000000000000000000C000C000600062D
:102F8000000600030003000380038001800180012C
:102F9000C000C000C0006000600000000000000031
:102FA0000000000000000000E003F007380E180CDD
:102FB0000C180C180C180C180C180C180C180C18F1
:102FC0000C18180C380EF007E00300000000000099
:102FD000000000000000000000018001C001F001BD
:102FE00098018801800180018001800180018001B9
:102FF000800180018001800180010000000000004C
:103000000000000000000000E003F80F180C0C188E
:103010000C1800180018000C000600038001C00006
:10302000600030001800FC1FFC1F000000000000C2
:103030000000000000000000E001F807180E0C0C72
:103040000C0C000C0006C003C007000C0018001890
:103050000C180C18180CF807E00300000000000022
:103060000000000000000000000C000E000F000F28
:10307000800DC00C600C600C300C180C0C0CFC3F6C
:10308000FC3F000C000C000C000C000000000000D5
:103090000000000000000000F80FF80F18001800F2
:1030A0000C00EC03FC071C0E001C00180018001894
:1030B0000C181C0C180EF807E003000000000000BC
:1030C0000000000000000000C007F00F381C1818B6
:1030D00018000C00CC03EC0F3C0E1C1C0C180C1838
:1030E0000C18181C380EF007E00300000000000068
:1030F0000000000000000000FC1FFC1F000C000688
:103100000006000380038001C001C000E0006000F1
:10311000600070003000300030000000000000004F
:103120000000000000000000E003F007380E180C5B
:10313000180C180C3806F007F007180C0C180C18AF
:103140000C180C18380CF80FE00300000000000009
:103150000000000000000000E003F007380E1C0C27
:103160000C180C180C181C1C381EF81BE019001841
:10317000000C000C1C0EF807F0010000000000001D
:10318000000000000000000000000000000000003F
:10319000000080018001000000000000000000002D
:1031A000000000000000800180010000000000001D
:1031B000000000000000000000000000000000000F
:1031C00000008001800100000000000000000000FD
:1031D000000000000000800180010001000180006B
:1031E00000000000000000000000000000000000DF
:1031F0000000000000000010001C800FE003F80039
:103200001800F800E003800F001C00100000000010
:1032100000000000000000000000000000000000AE
:10322000000000000000F81F000000000000F81F70
:10323000000000000000000000000000000000008E
:10324000000000000000000000000000000000007E
:1032500000000000000008003800F001C007001F57
:103260000018001FC007F00138000800000000002F
:103270000000000000000000E003F80F180C0C181C
:103280000C180018000C000600038001C000C000EC
:10329000C00000000000C000C000000000000000EE
:1032A00000000000000000000000E00718180420E3
:1032B000C229224A1144094409440944092211132C
:1032C000E20C024004201818E00700000000000093
:1032D000000000000000000080038003C006C0065C
:1032E000C006600C600C301830183018F83FF83FFA
:1032F0001C700C600C6006C006C0000000000000DE
:103300000000000000000000FC03FC0F0C0C0C1877
:103310000C180C180C0CFC07FC0F0C180C300C30A3
:103320000C300C300C18FC1FFC07000000000000E3
:103330000000000000000000C007F01F38381C30FB
:103340000C70066006000600060006000600060077
:1033500006600C701C30F01FE00700000000000049
:103360000000000000000000FE03FE0F060E06181D
:1033700006180630063006300630063006300630B5
:1033800006180618060EFE0FFE03000000000000DF
:103390000000000000000000FC3FFC3F0C000C009F
:1033A0000C000C000C00FC1FFC1F0C000C000C009F
:1033B0000C000C000C00FC3FFC3F00000000000073
:1033C0000000000000000000F83FF83F180018005F
:1033D000180018001800F81FF81F1800180018002F
:1033E0001800180018001800180000000000000065
:1033F0000000000000000000E00FF83F3C780E6085
:1034000006E007C00300030003FE03FE03C007C07D
:1034100006C00EC03CF0F83FE00F000000000000C6
:1034200000000000000000000C300C300C300C30AC
:103430000C300C300C30FC3FFC3F0C300C300C30AE
:103440000C300C300C300C300C3000000000000050
:103450000000000000000000800180018001800168
:103460008001800180018001800180018001800154
:1034700080018001800180018001000000000000C7
:103480000000000000000000000600060006000624
:1034900000060006000600060006000600060006FC
:1034A000180618063807F003E001000000000000CD
:1034B000000000000000000006300618060C06069A
:1034C00006038601C60066007600DE008E01060354
:1034D0000606060C06180630066000000000000014
:1034E000000000000000000018001800180018007C
:1034F000180018001800180018001800180018000C
:10350000180018001800F81FF81F00000000000045
:1035100000000000000000000EE01EF01EF01EF093
:1035200036D836D836D836D866CC66CC66CCC6C641
:10353000C6C6C6C6C6C686C386C300000000000055
:1035400000000000000000000C301C303C303C301B
:103550006C306C30CC30CC308C310C330C330C36BE
:103560000C360C3C0C3C0C380C3000000000000009
:103570000000000000000000E007F81F1C380E707B
:10358000066003C003C003C003C003C003C003C080
:1035900006600E701C38F81FE007000000000000F5
:1035A0000000000000000000FC0FFC1F0C380C3075
:1035B0000C300C300C300C18FC1FFC070C000C00FD
:1035C0000C000C000C000C000C00000000000000BF
:1035D0000000000000000000E007F81F1C380E701B
:1035E000066003E003C003C003C003C003C007E0DC
:1035F00006630E3F1C3CF83FE0F700C000000000EF
:103600000000000000000000FE0FFE1F063806301C
:10361000063006300638FE1FFE0706030606060CB7
:10362000061806180630063006600000000000008C
:103630000000000000000000E003F80F1C0C0C1854
:103640000C180C001C00F803E00F001E00380630B8
:1036500006300E301C1CF80FE007000000000000D0
:103660000000000000000000FE7FFE7F800180015E
:103670008001800180018001800180018001800142
:1036800080018001800180018001000000000000B5
:1036900000000000000000000C300C300C300C303A
:1036A0000C300C300C300C300C300C300C300C303A
:1036B0000C300C301818F81FE00700000000000064
:1036C00000000000000000000360063006300630F5
:1036D0000C180C180C18180C180C380E3006300684
:1036E000700760036003C001C0010000000000001B
:1036F00000000000000000000360C361C361C361FB
:103700006633663366336633663366336C1B6C1B15
:103710006C1B2C1A3C1E380E380E000000000000F6
:1037200000000000000000000FE00C70183030189E
:10373000700C600EC00780038003C003E006700CAD
:10374000301C18180C300E6007E00000000000006C
:10375000000000000000000003C006600C301C38B0
:103760003818300C6006E007C0038001800180013A
:1037700080018001800180018001000000000000C4
:103780000000000000000000FC7FFC7F00600030B3
:103790000018000C000600038001C000600030002B
:1037A00018000C000600FE7FFE7F000000000000F5
:1037B0000000000000000000E003E0036000600083
:1037C00060006000600060006000600060006000F9
:1037D00060006000600060006000600060006000E9
:1037E000E003E003000000003000300060006000F3
:1037F0006000C000C000C000C001800180018001E5
:1038000000030003000300060006000000000000A3
:103810000000000000000000E003E00300030003DC
:103820000003000300030003000300030003000380
:103830000003000300030003000300030003000370
:10384000E003E003000000000000C001C0016003CD
:103850006003600330063006180C180C00000000EE
:103860000000000000000000000000000000000058
:103870000000000000000000000000000000000048
:103880000000000000000000000000000000000038
:103890000000000000000000FFFFFFFF000000002C
:1038A00000000000000000000C000C000C000C00E8
:1038B0000C000C00000000000000000000000000F0
:1038C00000000000000000000000000000000000F8
:1038D00000000000000000000000000000000000E8
:1038E0000000F003F8071C0C0C0C000FF00FF80C94
:1038F0000C0C0C0C1C0FF80FF0180000000000005E
:103900000000000000000000180018001800180057
:103910001800D803F80F380C1818181818181818A9
:1039200018181818380CF80FD80300000000000011
:103930000000000000000000000000000000000087
:103940000000C003F007300E180C18001800180013
:103950001800180C300EF007C00300000000000033
:1039600000000000000000000018001800180018F7
:103970000018C01BF01F301C181818181818181839
:1039800018181818301CF01FC01B000000000000A1
:103990000000000000000000000000000000000027
:1039A0000000C003F00F300C1818F81FF81F1800A3
:1039B00018003818301CF00FC0070000000000008D
:1039C0000000000000000000800FC00FC000C00019
:1039D000C000F007F007C000C000C000C000C00079
:1039E000C000C000C000C000C00000000000000017
:1039F00000000000000000000000000000000000C7
:103A00000000E00DF80F180E0C0C0C0C0C0C0C0C3C
:103A10000C0C0C0C180EF80FE00D000C0C0C1C0616
:103A2000F807F00100000000180018001800180046
:103A30001800D807F80F381C181818181818181874
:103A40001818181818181818181800000000000086
:103A50000000000000000000C000C00000000000E6
:103A60000000C000C000C000C000C000C000C00016
:103A7000C000C000C000C000C00000000000000086
:103A80000000000000000000C000C00000000000B6
:103A90000000C000C000C000C000C000C000C000E6
:103AA000C000C000C000C000C000C000C000C00016
:103AB000F8007800000000000C000C000C000C0066
:103AC0000C000C0C0C060C038C01CC006C00FC00F0
:103AD0009C018C030C030C060C0C00000000000081
:103AE0000000000000000000C000C000C000C000D6
:103AF000C000C000C000C000C000C000C000C000C6
:103B0000C000C000C000C000C000000000000000F5
:103B100000000000000000000000000000000000A5
:103B200000007C3CFF7EC7E383C183C183C183C1A6
:103B300083C183C183C183C183C100000000000031
:103B40000000000000000000000000000000000075
:103B500000009807F80F381C1818181818181818AB
:103B60001818181818181818181800000000000065
:103B70000000000000000000000000000000000045
:103B80000000C003F00F300C181818181818181877
:103B900018181818300CF00FC003000000000000C7
:103BA0000000000000000000000000000000000015
:103BB0000000D803F80F380C18181818181818181F
:103BC00018181818380CF80FD80318001800180027
:103BD00018001800000000000000000000000000B5
:103BE0000000C01BF01F301C1818181818181818DF
:103BF00018181818301CF01FC01B001800180018E7
:103C00000018001800000000000000000000000084
:103C10000000B007F00370003000300030003000CA
:103C200030003000300030003000000000000000A4
:103C30000000000000000000000000000000000084
:103C40000000E003F003380E180C3800F003C00742
:103C5000000C180C380EF007E00300000000000014
:103C6000000000000000000000008000C000C00054
:103C7000C000F007F007C000C000C000C000C000D6
:103C8000C000C000C000C0078007000000000000A6
:103C90000000000000000000000000000000000024
:103CA00000001818181818181818181818181818C4
:103CB00018181818381CF01FE01900000000000048
:103CC00000000000000000000000000000000000F4
:103CD00000000C18180C180C180C300630063006B2
:103CE000600360036003C001C00100000000000029
:103CF00000000000000000000000000000000000C4
:103D00000000C141C141C3616363636363633636CD
:103D1000363636361C1C1C1C1C1C00000000000023
:103D20000000000000000000000000000000000093
:103D300000001C38381C300C600660036003600310
:103D400060036006300C381C1C38000000000000C6
:103D50000000000000000000000000000000000063
:103D600000001830301830187018600C600CE00C2F
:103D7000C006C00680038003800380018001C0016B
:103D8000F0007000000000000000000000000000D3
:103D90000000FC1FFC1F000C000600038001C00097
:103DA000600030001800FC1FFC1F00000000000035
:103DB000000000000000000000038001C000C000FF
:103DC000C000C000C000C0006000600030006000A3
:103DD0004000C000C000C000C000C000C0008001A2
:103DE00000030000000000008001800180018001CC
:103DF00080018001800180018001800180018001BB
:103E000080018001800180018001800180018001AA
:103E100080018001000000006000C000C00180013E
:103E2000800180018001800100030003000600037F
:103E30000001800180018001800180018001C000BB
:103E40006000000000000000000000000000000012
:103E5000000000000000F010F81F080F0000000034
:103E60000000000000000000000000000000000052
:103E7000000000000000000000000000000001023F
:103E8000030406070809000063757272656E7420EA
:103E90007374617465000000B83E000800000020E3
:103EA0003800000014020008F03E0008380000202E
:103EB000200B0000300200080000FFFF000000009F
:103EC00008010000010000000000000000000000E8
:103ED00000000000883E0008000000000000000014
:103EE0001000000001000000000000000024F400A9
:04000005080001D915
:00000001FF
