:020000040800F2
:10000000E81800209D0100083F2700080D25000882
:100010003B270008AF080008273200080000000056
:10002000000000000000000000000000992B000804
:10003000C109000800000000972B00089B2B000856
:10004000B7010008B7010008B7010008B7010008B0
:10005000B7010008B7010008B7010008B7010008A0
:10006000B7010008B7010008B7010008B701000890
:10007000B7010008B3080008B7010008C30800086A
:10008000B7010008B7010008B7010008B701000870
:10009000B7010008B7010008B7010008B701000860
:1000A000B7010008B7010008B7010008B701000850
:1000B000B7010008B7010008B7010008B701000840
:1000C000B7010008B7010008B7010008B701000830
:1000D000B7010008B701000817320008B70100088F
:1000E000B7010008B7010008B7010008B701000810
:1000F000B7010008B7010008B7010008B701000800
:10010000B7010008B7010008B7010008B7010008EF
:100110008D2C0008B7010008B7010008B7010008DE
:10012000B7010008B7010008B7010008B7010008CF
:10013000B7010008B7010008B7010008B7010008BF
:10014000B7010008B7010008B7010008B7010008AF
:10015000B7010008B7010008B7010008B70100089F
:10016000B7010008B7010008B7010008B70100088F
:10017000B7010008B7010008B7010008000000003F
:10018000B7010008B7010008DFF80CD000F044FB0D
:1001900000480047EB3F0008E81800200648804769
:1001A00006480047FEE7FEE7FEE7FEE7FEE7FEE75C
:1001B000FEE7FEE7FEE7FEE7652C00088901000880
:1001C0002DE9F05F0546002092469B46884606468C
:1001D000814640241BE0284641464746224600F01F
:1001E000A8F953465A46C01A914110D311461846F1
:1001F000224600F08FF92D1A67EB01084F46224680
:100200000120002100F086F917EB00094E41201E65
:10021000A4F10104DFDC484631462A464346BDE8E6
:10022000F09FD2B201E000F8012B491EFBD27047CB
:100230000022F6E710B513460A4604461946FFF7B2
:10024000F0FF204610BD2DE9F04791460F4680464D
:100250000446002614F8015B2DB100F08DF900680A
:10026000405DC007F6D12B2D02D02D2D18D0641E75
:100270004A463946204600F083F927B13968A14241
:1002800001D1C7F8008071054FF002040BD5404240
:10029000002803DD02F0DEFF0460A007BDE8F08760
:1002A00046F48066E4E70028F8DA02F0D3FF046041
:1002B0006FF00040F2E72DE9FE4F804681EA03002F
:1002C000C00F0C46009021F0004123F00045B8EB30
:1002D0000200A94105D24046214690461C460B46E5
:1002E000024623F00040104347D0270DC7F30A0011
:1002F000C3F30A510290401A019040286BDAC3F30D
:10030000130040F4801B0098924620B10023D2EBEA
:10031000030A63EB0B0B01985946C0F140025046AB
:1003200000F0F8F806460D4650465946019A00F08E
:1003300010F910EB08006141002487EA115284EAA9
:10034000E7731A4340D0009A62B3019A012A4FEA38
:10035000075215DC001B61EB02014FF0004202EA7C
:100360000752CDE90042001C41F5801132462B4670
:1003700000F064F903B0BDE8F08F40462146F9E78C
:10038000001B61EB0201001C41F5801300185B416A
:100390002018A2F5001747EB030140EAD570B61903
:1003A0006D4111E06D084FEA360645EAC0754FEA27
:1003B0000752001B61EB0201001C41F58011490846
:1003C0004FEA30000019514132462B4603B0BDE8D8
:1003D000F04F00F024B90098012240000023D0EB38
:1003E000020263EBE073009821464FEAE074B8EB39
:1003F000000061EB0401E9E783F000435BE781F073
:10040000004158E72DE9FE4F81EA030404F000445F
:1004100021F0004100944FF0000B23F0004350EA1C
:1004200001045ED052EA03045BD0C3F30A54C1F363
:100430000A552C44A4F2F3340194A0FB0254C1F3F6
:10044000130141F48011C3F3130343F4801301FB40
:10045000024400FB034E840A970A44EA815447EAA7
:100460008357A4FB076802958D0A05FB07854FEAB1
:10047000932C04FB0C542705029D4FEA065847EACB
:100480001637B5EB08056EEB070C870E920E47EAA0
:10049000811742EA8312A7FB0201B6EB0B0164EB62
:1004A00000042B0D43EA0C335E1844EB1C50DA4673
:1004B0005146E7FB0201C5F313044FEA0B3343EA4D
:1004C00014534FEA0432019C43EA0603A4F10C04DE
:1004D0000294009CCDE900B400F0B0F803B0BDE890
:1004E000F08F00200146F9E730B50B4601460020A9
:1004F0002022012409E021FA02F59D4205D303FAE6
:1005000002F5491B04FA02F52844151EA2F1010266
:10051000F1DC30BD202A04DB203A00FA02F1002091
:1005200070479140C2F1200320FA03F31943904031
:100530007047202A04DB203A21FA02F0002170479C
:1005400021FA02F3D040C2F120029140084319463B
:100550007047202A06DBCB17203A41FA02F043EA23
:10056000E07306E041FA02F3D040C2F1200291406C
:10057000084319467047000000487047386E00086D
:100580002DE9F05F82460078002715468B460AF178
:100590000104B946302801D09DB113E014F8010BD5
:1005A0000127782803D0582801D045B10AE00DB1C1
:1005B000102D07D10027102514F8010B02E00825A3
:1005C00000E00A250026B0460EE005FB080005FB0A
:1005D00006F1012701EB10461FFA80F8B6F5803FBF
:1005E00000D3B94614F8010B294600F027F900287A
:1005F000EBDABBF1000F05D00FB1641E00E05446EA
:10060000CBF80040B9F1000F06D002F023FE022122
:100610000160C81EBDE8F09F48EA0640FAE710B541
:10062000141E73F1000408DA401C41F10001921815
:100630005B411A4301D120F0010010BD2DE9F04DBE
:1006400092469B4611B1B1FA81F202E0B0FA80F213
:1006500020329046FFF75EFF04460F4640EA0A004C
:1006600041EA0B0153465A46084313D0114653EA58
:10067000010019D0C8F140025046FFF75AFF054665
:100680000E46504659464246FFF744FF084305D000
:10069000012004E020463946BDE8F08D00200543E6
:1006A00046EAE0762C4337430A986305E40AA0EB58
:1006B00008000022FD0A44EA47540A3002D500200F
:1006C0000146E9E7010510196941DDE9084500190E
:1006D0006941BDE8F04DA2E72DE9F04D81EA030440
:1006E00004F0004B21F0004514464FF0000A23F0BF
:1006F000004150EA050220D054EA01021DD0C5F3A2
:100700000A570246C5F31303C1F31300C1F30A5697
:1007100040F4801543F48013A7EB0608101BD6465F
:1007200008F2FD3873EB050002D308F1010801E07F
:1007300092185B41B8F1000F03DA00200146BDE8D2
:10074000F08D00204FF48011064684460EE0171B02
:1007500073EB050705D3121B63EB050306434CEA55
:10076000010C49084FEA300092185B4150EA01073A
:10077000EDD152EA030012D082EA040083EA0501B7
:10078000084305D0101BAB4106D20122002306E02E
:1007900000224FF0004302E06FF0010253101AEB09
:1007A00006004CEB085110EB0A0041EB0B01BDE8D1
:1007B000F04DFFF734BFC1F30A52C1F3130140F209
:1007C000FF3341F480119A4202DA0020014670475B
:1007D00040F233439A42A2F2334202DC5242FFF724
:1007E000A8BEFFF797BE000030B5041E71F10004EB
:1007F00004DB4FF00044404264EB0101141E73F12E
:10080000000405DB1C464FF00043524263EB040337
:10081000994208BF904230BD064C074D06E0E068A3
:1008200040F0010394E8070098471034AC42F6D337
:10083000FFF7AEFC3C6E00085C6E00083A2800D260
:10084000303820F02002412A01D3A2F1370088423B
:1008500001D34FF0FF30704770B58C1810F8015B72
:1008600015F0070301D110F8013B2A1106D110F849
:10087000012B03E010F8016B01F8016B5B1EF9D14D
:100880002B0705D40023521E0DD401F8013BFAE7D3
:1008900010F8013BCB1A921C03E013F8015B01F83E
:1008A000015B521EF9D5A142D8D3002070BD00BF14
:1008B000FEE710B541F22800C2F2000000F035FA60
:1008C00010BD10B541F28800C2F2000000F02DFA10
:1008D00010BD01684AF6AB23CAB2103ACAF6AA2381
:1008E000A3FB0232120946F6AC53C0F600039B5C30
:1008F000C365032A04D96FF30901091D816502E06C
:100900006FF309018165806D7047014600208A6A96
:100910008B69002B0FD0B3F5005F1DD08AB3012A7D
:1009200030D0022A2ED0032A04D1C96A11F0807F68
:1009300000D0012070471AB1012A07D0022AF9D14C
:10094000C96A11F0807FF5D001207047C96AB1F102
:10095000C07FFAD1012070475AB1012A0BD0022A78
:1009600007D0032AF7D1C96AB1F1C07FF3D10120C2
:10097000704701207047C96A11F0807FFAD00120CA
:100980007047FFE70120704710B4D0F800C0DCF8D2
:10099000004024F48024CCF80040D0F800C0CCF80B
:1009A00004308368402B05D0036899600068C260FA
:1009B00010BC704703689A600068C16010BC704743
:1009C000704770B506460C46154640F2E470C2F218
:1009D00000000670F32040F2E471C2F2000148709A
:1009E000AB2088700846C47005716B2048710622E0
:1009F00040F69870C2F2000001F032FD70BD70B593
:100A000006460C46154640F66400C2F20000067029
:100A10009A2040F66401C2F20001487008468470D2
:100A2000C5706B200871052240F69870C2F2000074
:100A300001F016FD70BD2DE9F04706460F4615463C
:100A40009846DDE9099A089C40F60400C2F20000CD
:100A50000670FD2040F60401C2F20001487008460D
:100A600087702812C8700D71084680F80580200E26
:100A70008871200CC871200A08724C72084680F8F0
:100A80000A9080F80BA06B2008730D2240F6987036
:100A9000C2F2000001F0E4FCBDE8F08770B5054645
:100AA0000E46002440F6E400C2F200000555641C26
:100AB000701F122871D246F65C61C0F60001D1E8C1
:100AC00000F0242040F6E401C2F200010855601C49
:100AD000C4B29AE0262040F6E401C2F200010855B3
:100AE000601CC4B291E0272040F6E401C2F200018C
:100AF0000855601CC4B288E0292040F6E401C2F227
:100B000000010855601CC4B27FE0302040F6E401CB
:100B1000C2F200010855601CC4B276E0312040F6F4
:100B2000E401C2F200010855601CC4B26DE032203D
:100B300040F6E401C2F200010855601CC4B264E052
:100B4000332040F6E401C2F200010855601CC4B233
:100B50005BE0342040F6E401C2F200010855601C5D
:100B6000C4B252E0352040F6E401C2F2000108555B
:100B7000601CC4B249E0362040F6E401C2F2000134
:100B80000855601CC4B240E0372040F6E401C2F2D0
:100B900000010855601CC4B237E035E0382040F64B
:100BA000E401C2F200010855601CC4B22DE03920F6
:100BB00040F6E401C2F200010855601CC4B224E012
:100BC0003A2040F6E401C2F200010855601CC4B2AC
:100BD0001BE03B2040F6E401C2F200010855601C16
:100BE000C4B212E03C2040F6E401C2F20001085514
:100BF000601CC4B209E03D2040F6E401C2F20001ED
:100C00000855601CC4B200E000BF00BF6B2040F676
:100C1000E401C2F200010855601CC4B2224640F64D
:100C20009870C2F2000001F01BFC70BD10B50446C4
:100C300040F64400C2F200000470FF2040F6440178
:100C4000C2F200014870662088706B20C8700422D0
:100C500040F69870C2F2000001F002FC10BD70472F
:100C60002DE9F0410446A66D00F03DFB054694F8E1
:100C700035000027022806D08020606584F8347093
:100C80000120BDE8F0812068016821F016010160B3
:100C90002068416921F080014161206C08B9A06C95
:100CA00020B12068016821F0080101602068016816
:100CB00021F0010101602068006810F0010F12D0DE
:100CC00000F011FB401B052808D920206065032097
:100CD00084F8350084F83470BDE8F081206800683D
:100CE00010F0010FECD194F85C003F2101FA00F004
:100CF000B060012084F8350084F834700020BDE82D
:100D0000F08190F83510022903D08021416501203F
:100D10007047052180F835100068016821F0010155
:100D2000016000207047406D70472DE9F84304468C
:100D30004FF00008CDF8008040F28010C2F20000B1
:100D400000684FF41651B0FBF1F7A56D2E6894F8CA
:100D50005C00082101FA00F0304211D020680268DE
:100D600012F0040F0CD0026822F00402026094F822
:100D70005C0001FA00F0A860606D40F00100606561
:100D800094F85C004FF0010909FA00F0304209D0F4
:100D90002168496911F0800F04D0A860606D40F0AF
:100DA0000200606594F85C1004208840304209D04D
:100DB0002168096811F0020F04D0A860606D40F04E
:100DC0000400606594F85C1010208840304224D004
:100DD0002168096811F0080F1FD0A8602068016819
:100DE00011F4802F0DD0006810F4002F04D0A16CF6
:100DF00099B12046884710E0216C71B120468847A0
:100E00000BE0016811F4807F03D1016821F0080133
:100E10000160216C09B12046884794F85C102020BD
:100E20008840304251D02168096811F0100F4CD031
:100E3000A86094F8350005280DD02068016811F4E9
:100E4000802F32D0006810F4002F29D0E16B59B305
:100E50002046884739E02068016821F016010160CA
:100E60002068416921F080014161206C08B9A06CC3
:100E700020B12068016821F00801016094F85C004D
:100E80003F2101FA00F0A86084F8359084F834809E
:100E9000216D00293ED001B02046BDE8F04308474F
:100EA000616C09B1204688470FE0016811F4807F2A
:100EB00007D1016821F01001016084F8359084F8B1
:100EC0003480E16B09B120468847606D002821D04D
:100ED000606D10F0010F15D0052084F835002068F2
:100EE000016821F0010101600098401C0090B842A7
:100EF00004D82068006810F0010FF5D184F835900F
:100F000084F83480E16C002904D001B02046BDE8AB
:100F1000F0430847BDE8F8832DE9F041044600F0AE
:100F2000E2F90546DCB1022084F83500002684F899
:100F300034602068016821F00101016020680068C8
:100F400010F0010F13D000F0CEF9401B052809D98D
:100F500020206065032084F83500BDE8F081012081
:100F6000BDE8F0812068006810F0010FEBD1216826
:100F7000086848F23F02CFF210021040A36862688E
:100F8000D4F810C01A43E36843EA0C031A436369B8
:100F90001A43A3691A43E3691A43236A1A431043A5
:100FA000626A042A03D1236BE26A1A431043086081
:100FB0002068406920F00701606A40EA01050127C6
:100FC00004280ED1A06A0543E06A50B12046FFF71D
:100FD0009CFC30B14020606584F835700120BDE88C
:100FE000F081206845612046FFF773FC94F85C109F
:100FF0003F2202FA01F18160666584F835700020B5
:10100000BDE8F08170B504460025A66D94F8340063
:1010100001280DD0012084F8340094F835C0002058
:10102000BCF1010F06D084F834000225284670BDBB
:10103000022070BD4FF0020C84F835C06065204678
:10104000FFF7A2FC94F85C003F2101FA00F0B060C9
:101050002068016841F016010160206C20B1206811
:10106000016841F0080101602068016841F0010158
:101070000160DBE770B5044600F035F90546B4F1D0
:10108000FF3F05D040F28410C2F200000078044413
:1010900000F029F9401BA042FAD370BD2DE9F84FAA
:1010A000002243F6084A43F64409C4F2010A4FF00D
:1010B000010E03274FF00F08C4F20209AAF1040B36
:1010C0000EFA02FC0B6803EA0C0363457DD10C7930
:1010D00004F00304012C01D0022C14D185685400C3
:1010E00007FA04F6B543CE6806FA04F42C4384608C
:1010F000446824EA0C0C0C79C4F30014944044EACC
:101100000C0CC0F804C0D1F804C037EA0C0C0CD0A9
:10111000C4684FEA420C07FA0CF5AC438D6805FA37
:101120000CFC4CEA040CC0F80CC091F804C00CF0A4
:10113000030CBCF1020F12D14FEAD20C00EB8C046D
:10114000256A4FEA427C4FEADC6C08FA0CF6B5439C
:101150000E6906FA0CFC4CEA050CC4F820C00468C1
:101160004FEA420C07FA0CF5AC430D7905F0030584
:1011700005FA0CFC4CEA040CC0F800C0D1F804C01D
:101180001CF4403F21D0D9F800C04CF4804CC9F881
:1011900000C0D9F800C00CF4804CCDF800C022F09B
:1011A000030C0CF1804505F59835D5F808C894076F
:1011B000240F08FA04F62CEA0606A0F1804CBCF5D0
:1011C000003C6AD0A0F1804C00E060E0BCF5013C3E
:1011D00066D0A0F1804CBCF5023C64D0A0F1804CFC
:1011E000BCF5033C62D0A0F1804CBCF5043C60D05F
:1011F000A0F1804CBCF5053C5ED0A0F1804CBCF564
:10120000063C5CD0A0F1804CBCF5073C5AD04FF0B6
:10121000080C0CFA04FC4CEA060CC5F808C8DAF80D
:1012200000C02CEA030C4C6814F4801F01D04CEA77
:10123000030CCAF800C043F60C44C4F20104D4F80D
:1012400000C02CEA030C4D6815F4001F01D04CEAD5
:10125000030CC4F800C0DBF800C02CEA030C4C6897
:1012600014F4003F01D04CEA030CCBF800C04FF45B
:101270007054C4F20104D4F800C02CEA030C4D6889
:1012800015F4803F01D04CEA030CC4F800C0521C96
:10129000102AFFF415AFBDE8F88F4FF0000CB8E747
:1012A0004FF0010CB5E74FF0020CB2E74FF0030C22
:1012B000AFE74FF0040CACE74FF0050CA9E74FF097
:1012C000060CA6E74FF0070CA3E70069084201D01F
:1012D0000120704700207047002A01D081617047CB
:1012E00009048161704740F28410C2F200008068F6
:1012F000704740F28410C2F2000081680278114405
:101300008160704710B54FF47050C4F2020001685C
:1013100041F400710160016841F48061016001687D
:1013200041F480710160032000F094F8002000F087
:1013300004F800F025F8002010BD70B5044640F216
:101340008415C2F2000528784FF47A71B1FBF0F0F1
:1013500040F28011C2F200010968B1FBF0F000F028
:10136000FCFB08B1012070BD102C07D200222146E1
:10137000501E00F03BF86C60002070BD012070BD75
:1013800008B500BF0020009043F64400C4F20200FC
:10139000006840F4804043F64401C4F20201086052
:1013A0000846006800F48040009000BF00BF00BF06
:1013B00000200090081F006840F08050091F08605E
:1013C0000846006800F08050009000BF00BF08BDD4
:1013D00000280ADB00F01F01012202FA01F1400996
:1013E000800000F1E020C0F80011704710B44EF604
:1013F0000C53CEF200031B68C3F30223C3F1070CA6
:10140000BCF1040F01D94FF0040C1C1D072C01D2B4
:10141000002300E0DB1E012404FA0CFCACF1010CFB
:101420000CEA0101994004FA03F35B1E1A401143D0
:10143000002806DB00F1E020090180F8001410BC50
:10144000704700F00F0000F1E020090180F8141D42
:1014500010BC704700F007004EF60C52CEF20002AE
:1014600011684FF6FF03194041EA002040F0FD707B
:1014700040F08060106070472DE9F04704460D464B
:10148000002C15D04FF47059C4F20209D9F80000AD
:10149000EFB200F00700A8420DD289F80070D9F829
:1014A000000000F00700A84205D00120BDE8F08749
:1014B0000120BDE8F087206843F6080610F0020F0F
:1014C000C4F2020614D010F0040F03D0306840F4C8
:1014D000E0503060207810F0080F03D0306840F4FE
:1014E000604030603068A16820F0F0000843306050
:1014F000207810F0010F41D060684FF46051C4F2C1
:101500000201012808D002280DD003280BD0096859
:1015100011F0020F28D00AE0096811F4003F06D14B
:101520000120BDE8F087096811F0007F19D031680B
:1015300021F0030108433060FFF7D5FE8046306894
:10154000616800F00C00B0EB810F17D041F2883ACF
:10155000FFF7C9FEA0EB0800504508D90320BDE8FD
:10156000F0870120BDE8F0870120BDE8F0873068F2
:10157000616800F00C00B0EB810FE9D1D9F80000F0
:1015800000F00700A8420AD989F80070D9F80000D5
:1015900000F00700A84202D00120BDE8F0872078C3
:1015A00010F0040F05D03068E16820F4E0500843E3
:1015B0003060207810F0080F06D03068216920F4E0
:1015C000604040EAC100306000F040F83168C1F38B
:1015D000031146F69452C0F60002515CC84040F236
:1015E0008011C2F20001086040F28810C2F20000CF
:1015F0000068FFF7A2FE0020BDE8F08740F28010EF
:10160000C2F200000068704700B5FFF7F7FF43F62D
:101610000801C4F202010968C1F3822146F6A4520E
:10162000C0F60002515CC84000BD00B5FFF7E6FF00
:1016300043F60801C4F202010968C1F3423146F6DB
:10164000A452C0F60002515CC84000BD10B543F67C
:101650000800C4F20200006810F00C014FF41050B2
:10166000C0F2F40019D04310042915D0082914D170
:1016700043F60404C4F20204216801F03F02216829
:1016800011F4800F0AD02068C0F38810A0FB03017A
:101690000023FEF795FD09E0184610BD21680023E0
:1016A000C1F38811A1FB0001FEF78AFD2168C1F397
:1016B0000141491C4900B0FBF1F010BD2DE9F84F84
:1016C0000446002C15D0207843F60406C4F2020626
:1016D00010F0010FA6F1040563D0301D016801F080
:1016E0000C0104290CD0006800F00C00082803D07D
:1016F00010E00120BDE8F88F306810F4800F09D0A9
:10170000286810F4003F4CD06068002849D10120BF
:10171000BDE8F88F6068B0F5803F14D0B0F5A02F19
:1017200016D0286820F480302860286820F48020B3
:101730002860606810B3FFF7D6FD0746286810F4EC
:10174000003F0ED02DE0286840F480302860F0E79C
:10175000286840F480202860286840F480302860A1
:10176000E7E7FFF7C0FDC01B642802D90320BDE8EE
:10177000F88F286810F4003FF3D012E0FFF7B3FDB4
:101780000746286810F4003F0BD0FFF7ACFDC01BE4
:10179000642802D90320BDE8F88F286810F4003FC0
:1017A000F3D120784FF0000710F0020F4FF000093E
:1017B000C4F247275AD043F60800C4F20200016879
:1017C00011F00C0F14D0006800F00C00082803D1B1
:1017D000306810F4800F0BD0E06880B301203860CF
:1017E000FFF781FD8046286810F0020F12D01EE03E
:1017F000286810F0020F05D0E068012802D001200F
:10180000BDE8F88F2868216920F0F80040EAC1009F
:1018100028602BE0FFF767FDA0EB0800022802D943
:101820000320BDE8F88F286810F0020FF2D0286876
:10183000216920F0F80040EAC100286016E0FFE7C7
:10184000C7F80090FFF74FFD8046286810F0020FA0
:101850000CD0FFF748FDA0EB0800022802D90320B6
:10186000BDE8F88F286810F0020FF2D1207810F050
:10187000080F3AD04FF4686043F6740A6169C4F205
:101880004720C4F2020AC1B101210160FFF72BFD1C
:101890008046DAF8000010F0020F26D1FFF723FD92
:1018A000A0EB0800022802D90320BDE8F88FDAF87F
:1018B000000010F0020FF1D017E0C0F80090FFF721
:1018C00012FD8046DAF8000010F0020F0DD0FFF78D
:1018D0000AFDA0EB0800022802D90320BDE8F88F1A
:1018E000DAF8000010F0020FF1D1207810F0040FA8
:1018F00070D04FF000084FF46150C4F2020000684D
:1019000010F0805F0DD14FF46150C4F20200016805
:1019100041F080510160006800F0805000904FF06D
:1019200001084FF4E04BC4F2000BDBF8000010F4A8
:10193000807F1BD1DBF8000040F48070CBF8000002
:10194000FFF7D1FC8246DBF8000010F4807F0DD158
:10195000FFF7C9FCA0EB0A00022802D90320BDE86A
:10196000F88FDBF8000010F4807FF1D0A06843F618
:10197000700BC4F2020B012818D005281DD0DBF82B
:10198000000020F00100CBF80000DBF8000020F0A0
:101990000400CBF80000A06870B3FFF7A4FC8246F7
:1019A000DBF8000010F0020F15D03DE0DBF800007E
:1019B00040F00100CBF80000EDE7DBF8000040F05C
:1019C0000400CBF80000DBF8000040F00100CBF889
:1019D0000000E0E733E0FFF786FCA0EB0A0141F2EC
:1019E0008830814202D90320BDE8F88FDBF800007F
:1019F00010F0020FEFD017E0FFF775FC8246DBF81E
:101A0000000010F0020F0FD0FFF76DFCA0EB0A01F1
:101A100041F28830814202D90320BDE8F88FDBF81B
:101A2000000010F0020FEFD1B8F1010F07D14FF411
:101A30006150C4F20200016821F080510160A06988
:101A400078B343F60801C4F2020109684FF0FF3889
:101A500001F00C01082954D0022810D0C7F860907A
:101A6000FFF741FC0446286810F0007F72D0FFF7B2
:101A70003AFC001B02283FD90320BDE8F88FC7F8C5
:101A80006090FFF730FC8146286810F0007F0DD091
:101A9000FFF729FCA0EB0900022803D90320BDE8C9
:101AA000F88F57E0286810F0007FF1D1216AE069D3
:101AB000A26A0843616A08EB5202890141EA0241C5
:101AC000084394F82C1040EA016030600120386629
:101AD000FFF709FC0446286810F0007F3AD1FFF7B1
:101AE00002FC001B022802D90320BDE8F88F2868F9
:101AF00010F0007FF3D02DE0286810F0007FB6D101
:101B000028E0012823D03068E26900F48001914286
:101B10001AD1226A00F03F01914215D147F6C071F7
:101B2000626A0140B1EB821F0ED1A26A00F440311B
:101B300008EB5202B1EB024F06D194F82C1000F0E2
:101B40007060B0EB016F05D00120BDE8F88F012077
:101B5000BDE8F88F0020BDE8F88F401EB0F1807F0F
:101B600001D3012070474FF0E02148614EF6235227
:101B7000CEF20002F020107000208861072008617A
:101B80000020704738B5044694F84200202801D060
:101B9000022038BD71B16AB101202063002060636A
:101BA000204601F04BFA0346206B012804D00123A4
:101BB000184638BD012038BD206801684068009093
:101BC00020680C3050E8001F41F0100140E800127E
:101BD000002AF5D1ECE770B506460D464FF4984162
:101BE000C4F200013068884200D070BD202D00D9B9
:101BF000202540F28600C2F200000078D8B9002407
:101C00000BE040F6F860C2F20000005D40F618718B
:101C1000C2F200010855601C84B2AC42F1DB40F214
:101C20008400C2F200000580012040F28601C2F269
:101C3000000108700AE040F28000C2F20000006873
:101C4000401C40F28001C2F200010860202240F6F0
:101C5000F861C2F2000140F69870C2F20000FFF78E
:101C600091FF80B940F69870C2F20000C06B006826
:101C7000006820F0080040F69871C2F20001C96BBC
:101C80000968086005E0012040F28701C2F2000106
:101C9000087000BFA9E770B5044620680C3050E812
:101CA000001F21F4907140E80012002AF5D120684D
:101CB000143050E8001F21F0010140E80012002A12
:101CC000F5D1206B012809D120680C3050E8001FA5
:101CD00021F0100140E80012002AF5D12068406987
:101CE0004FF0000510F0400F15D02068143050E878
:101CF000001F21F0400140E80012002AF5D1E06BFE
:101D000048B10565E06BFEF7ABFF20B1E06BFFF774
:101D10000AF8202806D0E585202084F842002563B3
:101D2000002070BD10206064032070BD10B5044613
:101D30004FF49841C4F200012068884211D140F26A
:101D40008000C2F200000068401C40F28001C2F234
:101D500000010860012040F28701C2F20001087012
:101D600008E04FF48841C4F200012068884201D1A4
:101D700002F09DF810BDF8B5044622681068D168DD
:101D8000536900F00F0CBCF1000F0AD110F0200FC6
:101D900007D011F0200F04D02046BDE8F84001F034
:101DA00069B80025BCF1000F78D003F0010C01F4F4
:101DB00090765CEA060671D010F0010F06D011F49F
:101DC000807F03D0626C42F00102626410F0040F65
:101DD00006D013F0010F03D0626C42F0020262647D
:101DE00010F0020F06D013F0010F03D0626C42F026
:101DF0000402626410F0080F08D001F0200252EAD9
:101E00000C0203D0626C42F008026264626C002A29
:101E100038D010F0200F05D011F0200F02D020464E
:101E200001F028F820684069C0F38010616C11F05F
:101E3000080F00D160B3204600F0DAFF2068406947
:101E400010F0400F1FD02068143050E8001F21F020
:101E5000400140E80012002AF5D1E06B78B142F66B
:101E60009D41C0F600010165E06BFEF74AFF0028C6
:101E700008D0E06B016D01B0BDE8F0400847204696
:101E8000FFF754FFF8BD2046FFF750FFF8BD05E00F
:101E9000FFE72046FFF74AFF6564F8BD236B012B7F
:101EA0007DD110F0100F7AD011F0100F77D010689C
:101EB0005068009050694FF0200310F0400F4FF031
:101EC000020651D0E26B1068406880B2E0B3A18D89
:101ED00081423DD9E085D069B0F5807F2DD0206862
:101EE0000C3050E8001F21F4807140E80012002AF5
:101EF000F5D12068143050E8001F21F0010140E8BE
:101F00000012002AF5D12068143050E8001F21F09B
:101F1000400140E80012002AF5D184F842302563E0
:101F200020680C3050E8001F21F0100140E800123A
:101F3000002AF5D1E06BFEF793FE6663A08DE18D7C
:101F4000401A81B2204600E002E0FFF744FEF8BDEF
:101F5000A18D8142FBD1D069B0F5807FF7D1666356
:101F60002046FFF738FEF8BDA08DE18D401A81B202
:101F7000E08D0028F7D00029F5D020680C3050E81B
:101F8000002F22F4907240E8002CBCF1000FF4D135
:101F90002068143050E8002F22F0010200E016E023
:101FA00040E8002CBCF1000FF2D184F842302563E8
:101FB00020680C3050E8002F22F0100240E8002387
:101FC000002BF5D166632046FFF705FEF8BD10F043
:101FD000800F07D011F0800F04D02046BDE8F840F4
:101FE00001F0A3B810F0400FF0D011F0400FEDD089
:101FF0002046BDE8F84000F022BF70B50446002C32
:1020000004D094F84100002510B106E0012070BD15
:1020100084F84050204600F023F8242084F8410042
:102020002068C16821F40051C160204600F087FF9C
:102030002068016921F4904101612068416921F023
:102040002A0141612068C16841F40051C1606564A2
:10205000202084F8410084F842006563002070BDB0
:1020600010B586B00446142101A8FEF7E1F84FF43C
:102070009841C4F20001206888427DD100BF002051
:1020800000904FF46150C4F20200006840F4002058
:102090004FF46151C4F2020108600846006800F480
:1020A0000020009000BF00BF00BF0020009043F65A
:1020B0003000C4F20200006840F0040043F6300132
:1020C000C4F2020108600846006800F004000090B5
:1020D00000BF00BF4FF4406001900220029000203A
:1020E0000390032004900820059001A94FF400609C
:1020F000C4F20200FEF7D2FF46F24000C4F2020032
:1021000041F22801C2F20001086040054860002148
:1021100041F22800C2F200008160C1604FF480618A
:102120000161002141618161C1614FF400310162AF
:1021300000214162FEF7F0FE08B1FEF790FD00BFFE
:1021400041F22800C2F20000E063846300BF46F25F
:102150007000C4F2020041F28801C2F2000108607E
:102160004FF000604860402141F28800C2F2000058
:1021700081600021C16000E021E04FF480610161D5
:10218000002141618161C1614FF400310162002190
:102190004162FEF7C1FE08B1FEF761FD00BF41F2EA
:1021A0008800C2F20000A063846300BF00221146D1
:1021B0003420FFF71BF93420FFF70AF94BE04FF406
:1021C0008841C4F200012068884244D100BF002049
:1021D00000904FF46150C4F20200006840F40030F7
:1021E0004FF46151C4F2020108600846006800F42F
:1021F0000030009000BF00BF00BF0020009043F6F9
:102200003000C4F20200006840F0080043F63001DC
:10221000C4F2020108600846006800F0080000905F
:1022200000BF00BF602001900220029000200390B8
:10223000032004900720059001A94FF44060C4F2E8
:102240000200FEF72BFF002211462620FFF7CEF8F2
:102250002620FFF7BDF806B010BD90F84230202BC5
:1022600001D00220704721B11AB10023036300F0AE
:1022700040BF0120704770B505464FF48841C4F255
:1022800000012868884200D070BD40F21800C2F2F8
:102290000000047840F21000C2F20000047040F226
:1022A0000C00C2F200000068401C40F20C01C2F2B7
:1022B0000001086040F21A00C2F20000007840BB42
:1022C0000A2C27D140F21B00C2F20000007808B3AC
:1022D000002040F6C861C2F2000140F21B02C2F2C7
:1022E00000021278885440F21B00C2F2000000780D
:1022F00040F21901C2F200010870002040F21B01F7
:10230000C2F200010870012040F21A01C2F200017D
:1023100008702FE00D2C2DD040F21B00C2F20000FF
:1023200000782F2815D240F6C860C2F2000040F2B3
:102330001B01C2F200010978445440F21B00C2F2B2
:1023400000000078401C40F21B01C2F2000108703E
:1023500010E0002040F21B01C2F20001087040F2C0
:102360001400C2F200000068401C40F21401C2F2E6
:1023700000010860012240F21801C2F2000140F69B
:10238000E070C2F20000FFF768FF50B140F21400A5
:10239000C2F200000068401C40F21401C2F20001C9
:1023A000086000BF70E770472DE9F84304460E4609
:1023B00015461F4694F84100202802D00220BDE8AF
:1023C000F8837EB175B100206064212084F841005B
:1023D000FEF789FF8146A584E584A068B0F5805F9B
:1023E00003D004E00120BDE8F883206990B13546B0
:1023F0000026E08C4FF02008C8B14B460022802117
:102400002046009700F0C0FE30B184F841800320E0
:10241000BDE8F8830025ECE7B5B12168287848606D
:102420006D1CE08C401EE084E08C0028E5D14B461A
:10243000002240212046009700F0A6FE58B184F803
:1024400041800320BDE8F88330882168C0F308008C
:102450004860B61CE5E784F841800020BDE8F883B9
:1024600037B5044694F84100202802D003B002207A
:1024700030BD019999B392B32162A284E284002015
:102480006064212384F8413042F6A353C0F6000370
:10249000D4F838C0CCF83C3042F6E753C0F600031D
:1024A000D4F838C0CCF8403042F6AB43C0F6000355
:1024B000D4F838C0CCF84C30A36B186520681346AC
:1024C00000F1040C6246A06BFEF79CFD58B1102091
:1024D0006064202084F8410003B0012030BDFFE794
:1024E00003B0012030BD21686FF040000860206813
:1024F000143050E8001F41F0800140E80012002A2B
:10250000F5D103B0002030BD7047704700BFFEE733
:1025100008B500BF0020009043F63000C4F202006E
:10252000006840F4001043F63001C4F20201086074
:102530000846006800F40010009000BF00BF00BF14
:10254000002000900846006840F4800008600846BB
:10255000006800F48000009000BF00BF46F22840F1
:10256000C4F2020040F63871C2F200010860002097
:102570004860802140F63870C2F200008160890016
:10258000C16049000161002141618161C161016255
:1025900004214162032181620021C1620163FEF7CF
:1025A000BBFC08B1FEF75BFB002211460D20FEF7D5
:1025B0001DFF0D20FEF70CFF002211460F20FEF735
:1025C00015FF0F20FEF704FF08BD00B587B01421EA
:1025D00002A8FDF72DFE00BF0020019043F6300059
:1025E000C4F20200006840F0040043F63001C4F277
:1025F000020108600846006800F00400019000BF76
:1026000000BF00BF002001900846006840F0800035
:1026100008600846006800F08000019000BF00BF1D
:1026200000BF002001900846006840F008000860E4
:102630000846006800F00800019000BF00BF00BF1E
:10264000002001900846006840F01000086008462D
:10265000006800F01000019000BF00BF0022C91404
:102660004FF44060C4F20200FEF736FE01224FF440
:10267000E0414FF44060C4F20200FEF72DFE4FF43B
:10268000F04002900120039000200490059002A9E0
:102690004FF44060C4F20200FEF700FD01200290FA
:1026A000002003900120049002A94FF48050C4F24E
:1026B0000200FEF7F3FC07B000BD10B54FF49840E0
:1026C000C4F2000040F69871C2F2000108604FF4B5
:1026D000E1304860002140F69870C2F2000081604D
:1026E000C16001610C21416100218161C161FFF77D
:1026F00084FC08B1FEF7B3FA10BD10B54FF4884062
:10270000C4F2000040F6E071C2F2000108604FF42C
:1027100016504860002140F6E070C2F2000081606F
:10272000C16001610C21416100218161C161FFF73C
:1027300064FC08B1FEF793FA10BD00BFFEE77047D6
:1027400010B500224FF480514FF44060C4F20200F3
:10275000FEF7C2FD1420FEF78DFC012211034FF499
:102760004060C4F20200FEF7B7FD1420FEF782FCC1
:10277000AE2000F09CF8202000F099F8102000F026
:1027800096F8B02000F093F8C82000F090F80020F0
:1027900000F08DF8102000F08AF8402000F087F853
:1027A000812000F084F8DF2000F081F8A12000F003
:1027B0007EF8A62000F07BF8A82000F078F83F20F3
:1027C00000F075F8A42000F072F8D32000F06FF844
:1027D000002000F06CF8D52000F069F8F02000F03F
:1027E00066F8D92000F063F8222000F060F8DA20C3
:1027F00000F05DF8122000F05AF8DB2000F057F8E6
:10280000202000F054F88D2000F051F8142000F042
:102810004EF800F006F800F07CF9AF2000F047F821
:1028200010BD10B54FF4806140F6C820C2F2000020
:10283000FDF7FEFC10BD2DE9FC4307468846154612
:102840001C46DDF824902078CDE900092078C61DCB
:10285000F01706EB5070C010617810FB01F1A5F184
:102860002000D4F804C000FB01C26378414638461A
:1028700000F0B6F8BDE8FC832DE9F843054688462C
:1028800014461E46DDF820902F460BE0CDF8009050
:102890002278334641463846FFF7CDFF70783844FA
:1028A000C7B2641C20780028F0D1BDE8F88310B5C9
:1028B000044600224FF400614FF44060C4F202006D
:1028C000FEF70AFD204600F040F910BD70B5044641
:1028D0000D460122D1024FF44060C4F20200FEF71F
:1028E000FBFC05E0207800F030F9641C681E85B21E
:1028F000002DF7D170BD2DE9FC4380460C461646ED
:102900001F462046E11704EB5171C1F3C709204669
:10291000E11704EB5171C910A4EBC101CDB207203E
:10292000CDE9000706FA05F0C2B22B4641464846FB
:1029300000F0A3F875B1681EC0B2C5F1080146FAEF
:1029400001F209F10101CDE90007C8B200234146B7
:1029500000F093F8BDE8FC832DE9FC4781460C4666
:1029600016461F46DDF828802046E11704EB51711A
:10297000C1F3C70A2046E11704EB5171C910A4EB5B
:10298000C101CDB2E81908281BDD0720CDE90008F8
:1029900006FA05F0C2B22B464946504600F06DF8E3
:1029A00078190938C0B2C5F1080146FA01F20AF1F6
:1029B0000101CDE90008C8B20023494600F05DF8E6
:1029C0000CE0E819401EC0B2CDE9000806FA05F097
:1029D000C2B22B464946504600F04FF8BDE8FC878E
:1029E0002DE9FC4F81468A4693461D460B9C2046A6
:1029F000E11704EB5171C1F3C707E11704EB517103
:102A0000C910A4EBC101C9B201914FF0000816E052
:102A100000260EE006FB05831BF803200AEBC60325
:102A2000D9B209EB0803D8B20C9BFFF764FF701C06
:102A3000C6B2BE42EEDB08F1010000F0FF08A84577
:102A4000E6DB0198B8B105FB07F8002610E00C980A
:102A500008EB060300901BF803200AEBC703D9B26A
:102A600009EB0603D8B2019BFFF776FF701CC6B2D4
:102A7000AE42ECDB00BFBDE8FC8FF0B5DDE90545FB
:102A8000082801DA802900DBF0BD0DB1D643F2B28F
:102A9000661CFF2707FA06F61643C3F1080C47FA2F
:102AA0000CF73E4340F20007C2F200073E7040F6CA
:102AB000C826C2F2000606EBC016765C3F783E40A0
:102AC00040F6C827C2F2000707EBC0177E54661C09
:102AD000FF27B74022EA0706C3F1080CFF2747FA91
:102AE0000CF7BE4340F20007C2F200073E7040F60A
:102AF000C826C2F2000606EBC016765C3F783E435D
:102B000040F6C827C2F2000707EBC0177E5400BF8B
:102B1000BAE710B5002415E004F1B001C8B2FFF720
:102B2000C6FE0020FFF7C3FE1020FFF7C0FE40F6F0
:102B3000C821C2F2000101EBC4108021FFF7C6FEDC
:102B4000601CC4B2082CE7DB10BD70B5044600253C
:102B50001EE000224FF480414FF44060C4F20200B6
:102B6000FEF7BAFBC4F3C0124FF400514FF44060BB
:102B7000C4F20200FEF7B0FB012291034FF4406063
:102B8000C4F20200FEF7A8FB6006040E681CC5B282
:102B9000082DDED370BD7047704710B5FEF7A9FB56
:102BA00010BD00B593B0302107A8FDF741FB1421FB
:102BB00002A8FDF73DFB00BF002001904FF46150DB
:102BC000C4F20200006840F080504FF46151C4F23A
:102BD000020108600846006800F08050019000BFC4
:102BE00000BF00BF002001904FF4E040C4F200009D
:102BF000006840F480404FF4E041C4F200010860F6
:102C00000846006800F48040019000BF00BF01202A
:102C100007900004089002200D9041050E910421B8
:102C20000F91A8211091022111910421129107A85E
:102C3000FEF744FD08B1FEF712F80F2002900220C3
:102C40000390002004904FF4A05005904FF4805062
:102C50000690052102A8FEF70FFC08B1FDF7FFFF63
:102C600013B000BD4EF68850CEF20000006840F46C
:102C700070004EF68851CEF2000108604FF00060FF
:102C80004EF60851CEF200010860704710B540F6CC
:102C90009870C2F20000FFF76EF810BD10B5806B9F
:102CA0000021C185FFF742F810BD70B5846B206824
:102CB0004069C0F3C01094F841100025212904D1C7
:102CC00018B1E584204600F0C7F820684069C0F3D9
:102CD000801094F84210222904D118B1E5852046CD
:102CE00000F086F8606C40F0100060642046FFF74A
:102CF0001DF870BD10B50146886B096809684FF072
:102D0000000311F4807F32D1C38501680C3151E892
:102D1000002F22F4807241E8002CBCF1000FF4D1A6
:102D20000168143151E8002F22F0010241E8002C23
:102D3000BCF1000FF4D10168143151E8002F22F0EA
:102D4000400241E8002CBCF1000FF4D1202180F8B2
:102D50004210016B01290AD101680C3151E8002FA2
:102D600022F0100241E8002CBCF1000FF4D14363C3
:102D7000016B012902D0FFF77EFA10BD818DFEF7AD
:102D80002AFF10BD10B5806B01214163016B012941
:102D900002D0FFF708FB10BD818D4908FEF71BFF2D
:102DA00010BD10B50146886B0968096811F4807F71
:102DB00002D0FFF7A9FB10BD0021C18401681431C6
:102DC00051E8002F22F0800241E80023002BF5D1CA
:102DD00001680C3151E8002F42F0400241E8002325
:102DE000002BF5D110BD10B5806BFFF78EFB10BD29
:102DF00001680C3151E8002F22F4907241E8002361
:102E0000002BF5D10168143151E8002F22F00102A6
:102E100041E80023002BF5D1016B012909D101689C
:102E20000C3151E8002F22F0100241E80023002B62
:102E3000F5D1202180F8421000210163704710B5C0
:102E40000168CA6822F04002CA60202180F841105F
:102E5000FFF75AFB002010BD01680C3151E8002F2C
:102E600022F0C00241E80023002BF5D1202180F898
:102E70004110704708B590F84210222901D0022075
:102E800008BD8268B2F5805F01D1016929B1816A0C
:102E9000B2F5805F1DD052B10BE0816A02685268C2
:102EA000C2F308020A80816A891C816209E0026912
:102EB0007AB10268526802F07F020A70816A491C86
:102EC0008162C18D491E0904090CC18505D000200D
:102ED00008BD026852680A70F0E70168CA6822F00B
:102EE0002002CA600168CA6822F48072CA60016860
:102EF0004A6922F001024A61202180F84210002133
:102F00004163026B012A03D0FFF7B5F9002008BD29
:102F1000016301680C3151E8002F22F0100241E8F2
:102F20000023002BF5D101680A6812F0100F02D0BF
:102F30000A6849680091818DFEF74DFEE6E72DE9AC
:102F4000F041044620680169E26821F440511143D0
:102F500001612169A068E269084361691143014385
:102F60002068C26822F4037222F414421143C16043
:102F700020684169A26921F44071114341612068D0
:102F8000A0F18041B1F5883131D0A0F18041B1F597
:102F90008A312CD0FEF738FB8446E16900201927DE
:102FA00048F21F553226C5F2EB15B1F5004F22D07D
:102FB0006068830F8200ACFB0701FDF701F9014651
:102FC000A5FB002040097A42424301EB820106EB57
:102FD0000111A5FB0121490901F0F00202EB0010EB
:102FE00001F00F01084421688860BDE8F081FEF718
:102FF0001CFB8446D1E761684A1840EB0003ACFB38
:103000000701FDF7DDF80346A5FB0010410918464E
:103010000A016FF01803594300EB810006EBC00072
:10302000A5FB0010400900F0F80102EB410100F09F
:103030000700084421688860BDE8F08117B581B0B9
:1030400004461346029AA262A385002060642221EE
:1030500084F8421042F6F541C0F60001D4F83CC0B5
:10306000CCF83C1042F68551C0F60001D4F83CC0C3
:10307000CCF8401042F6AB41C0F60001D4F83CC099
:10308000CCF84C10E16B08652068011DE06BFDF782
:10309000B9FF38B110206064202084F8420004B0E9
:1030A000012010BD2068016840680090206948B187
:1030B00020680C3050E8001F41F4807140E8001295
:1030C000002AF5D12068143050E8001F41F00101BA
:1030D00040E80012002AF5D12068143050E8001FA3
:1030E00041F0400140E80012002AF5D104B0002070
:1030F00010BD81628285C28500214164222180F851
:1031000042100169002904D00168CA6842F4807243
:10311000CA6001684A6942F001024A610068C168F8
:1031200041F02001C1600020704790F84110212932
:1031300001D0022070478168B1F5805F01D101693B
:1031400061B1016A4A1C0262026809785160C18C4F
:10315000491E0904090CC1840AD013E0016A0268FF
:103160000988C1F308015160016A891C0162EEE718
:103170000168CA6822F08002CA600068C16841F034
:103180004001C160002070472DE9F8430446089EC5
:103190000D46174698462068006835EA000028D09A
:1031A0000020B84232D1B6F1FF3F27D0FEF79BF89E
:1031B000A0EB0800B0421ED8EEB12068C16811F043
:1031C000040F1BD0802D19D0402D17D0016811F0AD
:1031D000080F13D000252168096840680090204638
:1031E000FFF706FE0820606484F840500120BDE827
:1031F000F8830120D5E70320BDE8F8832068006844
:1032000035EA000005D00020B842CCD00020BDE84F
:10321000F8830120F8E710B540F6E070C2F2000034
:10322000FEF7A9FD10BD00BFFEE700000FB4084B7C
:1032300010B504A902AA039800F0E2F8044602A916
:10324000002000F074FC204610BC5DF814FB000068
:103250002F3B0008004870479001002002E008C89A
:10326000121F08C1002AFAD170477047002001E000
:1032700001C1121F002AFBD1704700002DE9FF5F3A
:1032800082B00021DDE90430020DDDF840B00343D7
:1032900018D044F61050A2F2FF3242431514119890
:1032A00001281FD0A5EB0B00401C5FEA000A4FF07D
:1032B00000064E4FDFF83891B046504615D5CAF19A
:1032C000000413E0119801244AA3012801D16FEAF8
:1032D0000B010298119AC0E90031C0E9024206B020
:1032E000BDE8F09FCBF10000DFE704460021404A33
:1032F000491842EB0450CDE9001012E0E00707D076
:1033000032463B4640464946FDF77CF880468946B2
:1033100032463B4610461946FDF774F806460F46FE
:103320006410002CEAD1DDE90401DDE90023BAF1E3
:10333000000F06DAFDF766F842464B46FDF762F8E5
:1033400005E0FDF7C9F942464B46FDF7C5F90446CD
:103350000E460022284BFDF747FA03D84FF0FF3006
:10336000014607E00022254B20463146FCF7A3FF2B
:10337000FDF721FA102409E0002C0ADB0A220023C1
:10338000FCF71EFF039B30321A55641E50EA0102FF
:10339000F2D1641C039AC4F111031444119A012A56
:1033A00003D0012208430DD10AE0084304D00020D5
:1033B0004FF0110B119072E7A3EB0B056D1E0DE0A2
:1033C0005B4504DD4FF0000205F1010504E003DA7E
:1033D0004FF00002A5F10105002AECD002981199E6
:1033E000C0E90231C0E9004579E70000000014405F
:1033F0000000F03F300000000000F0430000E03F1C
:103400002DE9FF4F95B09B468946064600250FE201
:10341000252877D100242746F84A0121059400E0A9
:10342000044316F8013F203B01FA03F01042F7D1A4
:1034300030782A2811D06FF02F033078A0F13002B5
:10344000092A16D8059A44F0020402EB820203EB23
:1034500042021044761C0590EFE759F8042B0592C0
:10346000002A03DA504244F40054059044F0020468
:10347000761C30782E2816D116F8010F44F004047B
:103480002A280DD06FF02F023078A0F13003092BDD
:1034900009D807EB870302EB4303C718761CF3E751
:1034A00059F8047B761C30786C280FD006DC4C2849
:1034B00017D068280DD06A2814D104E0742810D0E1
:1034C0007A280FD10DE044F400140AE044F480148B
:1034D00001E044F440147278824202D104F5801471
:1034E000761C761C307866280BD013DC582877D0F1
:1034F00009DC002875D04528F6D04628F4D04728A6
:103500001AD19DE118E0632835D0642879D0652868
:1035100012D195E1702873D008DC6728F1D06928B2
:103520006FD06E280DD06F2806D1B5E073282CD04F
:10353000752875D0782874D05A46179990476D1C15
:1035400075E1C4F30250022809D003280DD0D9F840
:10355000001004280DD00D6009F1040967E1D9F8C5
:103560000010EA17C1E90052F6E7D9F800100D8003
:10357000F2E70D70F0E719F8041B8DF80010002039
:103580008DF80100EA46012003E059F804AB4FF042
:10359000FF3061074FF0000102D40DE008F1010196
:1035A0008846B9420FDA8045F8DB1AF8081000297E
:1035B000F4D108E008F1010188468142FADB1AF8EB
:1035C00008100029F6D105985B46A0EB08072146B4
:1035D0003846179A00F094FA284400EB080507E0F3
:1035E0004DE029E10DE01AF8010B5A461799904772
:1035F000B8F10108F7D25B4621463846179A13E125
:1036000042E00A220092C4F302524FF0000A022A5A
:1036100008D059F804CB032A4FEAEC710AD00DE028
:1036200029E02AE009F1070121F00702F2E802C1CE
:10363000914609E00FFA8CFC4FEAEC71042A03D1A1
:103640004FFA8CFC4FEAEC71002907DA0A46002198
:10365000DCF1000C61EB02012D2202E0220504D511
:103660002B228DF80420012203E0E20701D0202262
:10367000F7E7904659E00A2102E010220DE0102100
:103680004FF0000A00910BE010224FF0000A44F0C6
:1036900004040827009203E008224FF0000A009279
:1036A000C4F30252022A05D059F804CB0021032AA0
:1036B00008D009E009F1070121F00702F2E802C190
:1036C000914605E01FFA8CFC042A01D10CF0FF0C96
:1036D0004FF00008220728D5702806D0009B83F001
:1036E000100353EA0A0305D00EE040228DF80420AF
:1036F000012208E05CEA010206D030228DF80420A5
:103700008DF8050002229046009B83F0080353EADF
:103710000A030AD15CEA010201D1620705D5302211
:103720008DF804204FF001087F1E582804D034A0E3
:1037300003900EA802900DE036A0F9E753466046CC
:10374000009AFCF73DFD84460398825C0298401E77
:10375000029002705CEA0100F0D1029806A9081AF2
:1037600000F1200A600702D524F4803400E001272C
:10377000574502DDA7EB0A0000E0002000EB0A013C
:10378000009005984144401A0590E00306D45B463A
:103790002146179A059800F0B3F90544002706E082
:1037A00001A85A46C05D179990476D1C7F1C47457C
:1037B000F6DBE0030CD55B462146179A059800F02E
:1037C0009FF9054404E030205A46179990476D1C34
:1037D0000099481E00900029F5DC08E00298029943
:1037E0005A460078491C0291179990476D1CBAF10E
:1037F0000001AAF1010AF1DC65E1000009280100DD
:103800003031323334353637383961626364656656
:103810000000000030313233343536373839414218
:10382000434445460000000000F058F90544761C6A
:10383000307800287FF4ECAD19B02846BDE8F08F51
:10384000620700D4062709F1070222F0070CFCE802
:103850000223E14603F000485FEA080C02D00FF2B1
:10386000702C0DE05FEA045C02D50FF2682C07E0D3
:103870005FEAC47C02D00FF2602C01E0AFF2700C62
:103880004FF0FF3823F00043CDF850C065280CD02E
:1038900006DC452809D046281DD047283DD13DE00B
:1038A000662818D067287ED138E00021112F01DB6F
:1038B000112000E0781CCDE9000106A90EA8FFF751
:1038C000DDFCDDE90F010E9A03910021009207F162
:1038D000010A04914DE04FF000400097CDE901103E
:1038E00006A90EA8FFF7CAFCDDE90F0203920E9BA2
:1038F00011990022DDF80CA00093049211B9791CF3
:1039000000EB010AB7EB0A0004D4C0F1FF3007F165
:10391000010A0490AAEB0700019044E0012F00DAAD
:1039200001270021112F01DD112000E03846CDE9EB
:10393000000106A90EA8FFF7A1FCDDE90F010E9A10
:103940000391002104910092BA4621070CD40399F7
:10395000514500DA8A46BAF1010F05DD009AAAF155
:103960000101515C302908D0B84202DA10F1040F8D
:1039700006DA0121CDE9011015E0AAF10101E9E71C
:10398000002805DC049901440491AAEB000102E03F
:10399000411C514500DD8A460499401A401C0190A3
:1039A0004FF000400290200704D40198504501DBFD
:1039B000CDF8048000208DF84F0002980DF14F07DC
:1039C000B0F1004F25D02B200E9002984FF0020846
:1039D00000280CDA404202902D200E9007E00A21C8
:1039E0000298FCF781FD3031029007F8011DB8F113
:1039F0000001A8F10108F2DC02980028EFD1791E3D
:103A00000E980870307800F0200040F0450007F86C
:103A1000020D12A8C01B00F107081498007800B12D
:103A2000012000EB0A01019801EBE0710598414487
:103A3000401A401E0590E00306D45B462146179AC3
:103A4000059800F05DF805441498007818B15A46BE
:103A5000179990476D1CE00324D55B462146179AC1
:103A6000059800F04DF805441CE00498002807DB99
:103A7000DDE90301884203DD0098405C179901E00D
:103A8000179930205A469047049805F10105401CCB
:103A900004900198401E019004D12E205A46179997
:103AA00090476D1CBAF10001AAF1010ADDDC05E0C6
:103AB00017F8010B5A46179990476D1CB8F1000191
:103AC000A8F10108F4DC5B462146179A0598ABE69D
:103AD0002D0000002B000000200000002DE9F04127
:103AE000044600251E461746880404D405E03946DE
:103AF0002020B0476D1C641EF9D52846BDE8F08132
:103B00002DE9F041044600251E469046C80301D524
:103B1000302700E02027880404D505E041463846D8
:103B2000B0476D1C641EF9D52846BDE8F0810A68CF
:103B3000531C0B601070704708B5002040F20C0158
:103B4000C2F20001086040F21001C2F200010870E8
:103B500040F21401C2F20001086040F21901C2F201
:103B60000001087040F21A01C2F20001087040F230
:103B70001B01C2F20001087000BF009040F6E07027
:103B8000C2F2000000680068009040F6E070C2F2E7
:103B9000000000684068009000BF00BF012240F2B2
:103BA0001801C2F2000140F6E070C2F20000FEF718
:103BB00054FB50B140F21400C2F200000068401CF7
:103BC00040F21401C2F20001086064230A2240F2AC
:103BD0001C01C2F2000140F6E070C2F20000FEF7E4
:103BE000E3FB08BD30B58DB040F21A00C2F2000010
:103BF0000078E0B172B640F21900C2F20000057818
:103C0000002408E040F6C860C2F20000005D01A98F
:103C10000855601CC4B2AC42F4DD002040F21A0129
:103C2000C2F20001087062B601A800F018F8FDF7B2
:103C30005AFB40F27001C2F200010968401AB0F567
:103C40007A7F01D20DB030BDFDF74DFB40F270011F
:103C5000C2F20001086000F079F800BFF2E7F0B5A9
:103C60008BB004462078532842D1607845283FD154
:103C7000A07854283CD1E0782C2839D10A22694612
:103C8000201DFCF7E0FA0546009800782C2844D166
:103C90000A2269460098401CFCF7D5FA06460098AF
:103CA0000078C8BB15F5616F37DBB5F5616F34DCA3
:103CB00016F5616F31DBB6F5616F2EDC31B228B2DB
:103CC00000F014FF40B333462A4640F25F01C2F2CF
:103CD000000101A8FFF7AAFA0746BAB2642301A9B6
:103CE00040F6E070C2F20000FEF75EFB0BB0F0BDE4
:103CF0002078532811D1607854280ED1A07841281B
:103D00000BD1E078542808D120793F2805D160797B
:103D100010B900F01BF8E9E7FFE740F21400C2F227
:103D200000000068401C40F21401C2F2000108606B
:103D300064230D2240F22601C2F2000140F6E07039
:103D4000C2F20000FEF730FB00BFCFE770B52DEDEB
:103D5000028BA0B040F28800C2F2000090ED000A91
:103D6000B5EEC00AF1EE10FA02D2BEEE000A01E092
:103D7000B6EE000A40F28800C2F20000D0ED000A60
:103D8000B2EE041A00EE810ABDEEC00A10EE104A2F
:103D900090ED010AB5EEC00AF1EE10FA02D2BEEEC5
:103DA000000A01E0B6EE000A40F28800C2F200000C
:103DB000D0ED010AB2EE041A00EE810ABDEEC00A8F
:103DC00010EE105A40F29000C2F2000090ED000A8E
:103DD000B5EEC00AF1EE10FA02D2BEEE000A01E022
:103DE000B6EE000A40F29000C2F20000D0ED000AE8
:103DF000B2EE041A00EE810ABDEEC08A90ED010A0F
:103E0000B5EEC00AF1EE10FA02D2BEEE000A01E0F1
:103E1000B6EE000A40F29000C2F20000D0ED010AB6
:103E2000B2EE041A00EE810AFDEEC08A40F6E070A0
:103E3000C2F200000068006840F6E071C2F20001C2
:103E400091F8421040F21402C2F20002126840F2ED
:103E50001003C2F200031B78CDE90432CDE906104D
:103E600040F20C00C2F20000006840F29A01C2F277
:103E7000000109788DED008ACDED018A2B4622469E
:103E8000CDE9021040F23301C2F2000108A8FFF7A9
:103E9000CDF90646B2B2642308A940F6E070C2F23A
:103EA0000000FEF781FA20B0BDEC028B70BD08B5B2
:103EB00040F21400C2F200000068401C40F21401FD
:103EC000C2F20001086000BF0020009040F6E070E0
:103ED000C2F2000000680068009040F6E070C2F294
:103EE000000000684068009000BF00BF012240F25F
:103EF0001801C2F2000140F6E070C2F20000FEF7C5
:103F0000ACF908BD10B5FDF7EEF940F20801C2F2B8
:103F100000010968401A0A2800D210BDFDF7E3F934
:103F200040F20801C2F20001086000F011F8012817
:103F30000CD140F20400C2F200000068401C40F2C4
:103F40000401C2F20001086000F06FF800BFE4E76E
:103F500010B5002440F27C10C2F20000007820B1BD
:103F6000012811D0022836D125E001214FF48050DC
:103F7000C4F20200FDF7A9F928B9012040F27C1132
:103F8000C2F2000108702DE001214FF48050C4F20C
:103F90000200FDF79AF938B90124022040F27C11A1
:103FA000C2F20001087005E0002040F27C11C2F26C
:103FB0000001087016E001214FF48050C4F20200A5
:103FC000FDF783F9012805D1002040F27C11C2F2EF
:103FD0000001087006E0002040F27C11C2F20001EE
:103FE000087000BF00BF204610BDFDF78BF9FEF73B
:103FF000D8FDFEF7EAFAFEF78BFAFEF75EFBFEF756
:104000007CFBFEF79DFB00F0AAFFFFF795FD00F09B
:104010001FF809E0FFF776FF00F0F3FFFFF7E2FD7E
:1040200000F08BF800F0C3FDF4E740F29B00C2F211
:104030000000007863280AD240F29B00C2F2000020
:104040000078401C40F29B01C2F2000108707047EA
:1040500010B5FDF748F90446002040F28801C2F28D
:1040600000010860486040F29001C2F2000108605F
:10407000486040F29801C2F200010870487040F2B6
:104080009A01C2F20001087040F29B01C2F20001E5
:10409000087040F29C01C2F20001086040F2A001E9
:1040A000C2F20001086040F2A401C2F200010860FF
:1040B00040F2A800C2F20000046040F2AC00C2F27C
:1040C0000000046040F2B000C2F200000460002072
:1040D00040F2B401C2F200010860486040F2BC0145
:1040E000C2F200010860486040F2C401C2F200015F
:1040F000087040F2C801C2F20001086040F2CC0131
:10410000C2F20001087040F2CD01C2F20001087055
:1041100040F2CE01C2F20001087040F2CF01C2F2BB
:104120000001087040F2D001C2F20001087040F2B4
:10413000D101C2F20001087010BD70B52DED028BE7
:1041400084B0FDF7D0F8044640F2C800C2F2000087
:10415000006840F28001C2F200010968084440F2A0
:10416000A401C2F20001086040F2CE00C2F20000D9
:10417000007800287CD040F2CD00C2F20000057823
:1041800040F27C00C2F20000405D002871D00020A7
:1041900040F27C01C2F20001485540F27400C2F2C4
:1041A000000000EB850090ED000A40F28800C2F2AA
:1041B000000000EB850080ED000A012040F298012C
:1041C000C2F200014855A840C0B240F2CF01C2F28D
:1041D00000010978084340F2CF01C2F200010870E3
:1041E000002040F2CE01C2F200010870681C00F00D
:1041F000010040F2CC01C2F20001087040F2CF0091
:10420000C2F200000078032832D1002040F2CF0132
:10421000C2F20001087040F28800C2F2000090ED86
:10422000000A40F29000C2F20000D0ED000A30EE29
:10423000608A40F28800C2F2000090ED010A40F26C
:104240009000C2F20000D0ED010A70EE608AB5EE77
:10425000C08AF1EE10FA03D2B1EE480AB0EE408AFD
:10426000F5EEC08AF1EE10FA06D2B1EE680A01E06E
:1042700059E0B5E0F0EE408A40F29800C2F200004A
:104280000078A8B140F29800C2F20000407878B1FE
:10429000B7EE080AB4EEC08AF1EE10FA08D8B7EE0D
:1042A000080AF4EEC08AF1EE10FA01D8012000E00D
:1042B0000020064640F29A00C2F20000007808286A
:1042C00006D040F29A00C2F2000000780B2832D1EA
:1042D00056B340F2D000C2F200000078401C40F219
:1042E000D001C2F2000108700846007802281AD3F3
:1042F000052040F29A01C2F20001087040F2A800C5
:10430000C2F20000046040F2AC00C2F2000004609F
:10431000002040F2D001C2F20001087040F2D10149
:10432000C2F2000108707DE0002040F2D001C2F22C
:104330000001087076E040F29A00C2F200000078B6
:1043400005286FD1EEBB40F2D100C2F20000007828
:10435000401C40F2D101C2F200010870084600780A
:1043600003285FD301210A4640F2B400C2F20000E4
:104370000068002806DA40F2B400C2F200000068CB
:10438000404204E040F2B400C2F200000068CDE90F
:104390000121009040F2B400C2F200000068C10F99
:1043A0002823B4220120FCF746FB092040F29A01A1
:1043B000C2F20001087040F2A800C2F200000460DE
:1043C00000E006E0002040F2D101C2F200010870D6
:1043D00028E0002040F2D101C2F20001087021E083
:1043E00040F2B000C2F200000068201AB0F5167F5B
:1043F00018D3002040F2CE01C2F200010870681C00
:1044000000F0010040F2CC01C2F20001087040F25D
:10441000C800C2F200000068401C40F2C801C2F2AD
:104420000001086040F29A00C2F2000000780E28F5
:104430007DD246F66E61C0F60001D1E800F040F290
:10444000A800C2F200000068201AB0F5FA7F0FD36E
:10445000002201210846FCF7B4FA012040F29A013B
:10446000C2F20001087040F2A800C2F2000004602D
:10447000ECE240F2A800C2F200000068201A6428B2
:104480000FD3002201210220FCF79BFA022040F208
:104490009A01C2F20001087040F2A800C2F20000C6
:1044A0000460D3E240F2A800C2F200000068201AC3
:1044B00064280FD3002211460120FCF7A0FA032044
:1044C00040F29A01C2F20001087040F2A800C2F264
:1044D00000000460BAE240F2A800C2F200000068E6
:1044E000201A64280FD3002211460220FCF787FA15
:1044F000042040F29A01C2F20001087040F2A800C4
:10450000C2F200000460A1E240F2A800C2F2000082
:104510000068201A40F6B831884217D3052040F2CF
:104520009A01C2F20001087040F2A80000E08AE29D
:10453000C2F20000046040F2AC00C2F2000004606D
:10454000002040F2CF01C2F2000108707EE240F28A
:10455000C400C2F200000078E0B340F2CE00C2F224
:1045600000000078B0BB40F2BC00C2F2000000685E
:1045700040F2B401C2F20001086040F2BC00C2F295
:10458000000040684860084690ED000AF8EEC00A56
:104590000020C4F2B43000EE100A60EE800A002061
:1045A000C4F2485000EE100A80EE801A40F29000EB
:1045B000C2F2000080ED001A084690ED010AF8EE04
:1045C000C00A0020C4F2B43000EE100A60EE800A87
:1045D000002000E048E0C4F2485000EE100A80EEEF
:1045E000801A40F29000C2F2000080ED011A002013
:1045F00040F2C401C2F20001087001210A4640F2F3
:10460000B400C2F20000006800280EDA40F2B400E4
:10461000C2F20000006840420CE0CFE097E0E6E123
:10462000B3E17BE14EE11BE1FAE040F2B400C2F2FB
:1046300000000068CDE90121009040F2B400C2F210
:1046400000000068C10F2823B4220120FCF7F3F911
:104650000C2040F29A01C2F20001087040F2A8005A
:10466000C2F20000046071E040F29B00C2F2000060
:104670000078F0B340F2CE00C2F200000078C0BB78
:1046800040F29B00C2F200000078401E40F29B0105
:10469000C2F20001087040F2B400C2F200000068EB
:1046A00000F20B1040F2B401C2F2000108600846AB
:1046B000406800F20B104860084690ED000AF8EEE2
:1046C000C00A0020C4F2B43000EE100A60EE800A86
:1046D0000020C4F2485000EE100A80EE801A40F22A
:1046E0009000C2F2000080ED001A084690ED010A29
:1046F00000E02BE0F8EEC00A0020C4F2B43000EE77
:10470000100A60EE800A0020C4F2485000EE100A41
:1047100080EE801A40F29000C2F2000080ED011A93
:104720000120002140F20B122823CDE90021029044
:10473000B422FCF780F9062040F29A01C2F200018F
:10474000087040F2A800C2F2000004607EE140F26E
:10475000A800C2F200000068201A64282DD30121AD
:104760000A4640F2B400C2F200004068002806DAAF
:1047700040F2B400C2F200004068404204E040F25F
:10478000B400C2F200004068CDE90121009040F27F
:10479000B400C2F200004068C10F2823B4220220F6
:1047A000FCF749F90D2040F29A01C2F200010870AD
:1047B00040F2A800C2F20000046047E140F2A80005
:1047C000C2F200000068201A642828D30020FCF7F9
:1047D0002DFA40F29C00C2F200000068401C40F23A
:1047E0009C01C2F200010860082040F29A01C2F266
:1047F0000001087040F2A800C2F20000046040F21C
:10480000AC00C2F200000460002040F2CF01C2F20E
:104810000001087040F2D001C2F20001087015E1F9
:1048200040F2A800C2F200000068201A642816D3E3
:104830000120002140F20B122823CDE90021029033
:10484000B4220220FCF7F7F8072040F29A01C2F2E6
:104850000001087040F2A800C2F200000460F5E018
:1048600040F2A800C2F200000068201A642828D391
:104870000020FCF7DBF940F29C00C2F20000006867
:10488000401C40F29C01C2F200010860082040F286
:104890009A01C2F20001087040F2A800C2F20000C2
:1048A000046040F2AC00C2F200000460002040F25C
:1048B000CF01C2F20001087040F2D001C2F2000143
:1048C0000870C3E040F2A800C2F200000068201A9D
:1048D00042F21071884220D340F2C800C2F20000B8
:1048E0000068401C40F2C801C2F2000108600520C7
:1048F00040F29A01C2F20001087040F2A800C2F230
:104900000000046040F2AC00C2F20000046000202D
:1049100040F2CE01C2F20001087097E040F2A80018
:10492000C2F200000068201A64282DD301210A4633
:1049300040F2B400C2F200004068002806DA40F2FB
:10494000B400C2F200004068404204E040F2B4000B
:10495000C2F200004068CDE90121009040F2B400AD
:10496000C2F200004068C10F2823B4220220FCF7E5
:1049700062F80A2040F29A01C2F20001087040F287
:10498000A800C2F20000046060E040F2A800C2F299
:1049900000000068201A642828D30020FCF746F99C
:1049A00040F2A000C2F200000068401C40F2A001EA
:1049B000C2F2000108600B2040F29A01C2F200012D
:1049C000087040F2A800C2F20000046040F2AC009F
:1049D000C2F200000460002040F2CF01C2F20001E8
:1049E000087040F2D001C2F2000108702EE040F2DF
:1049F000A800C2F200000068201A42F2107188423A
:104A000020D340F2C800C2F200000068401C40F20F
:104A1000C801C2F200010860052040F29A01C2F20A
:104A20000001087040F2A800C2F20000046040F2E9
:104A3000AC00C2F200000460002040F2CE01C2F2DD
:104A40000001087002E0FFF703FB00BF00BF40F267
:104A50009A00C2F20000007805280DD040F29A00BA
:104A6000C2F200000078082806D040F29A00C2F294
:104A7000000000780B2835D140F2CE00C2F20000D1
:104A8000007878BB40F2AC00C2F200000068201A47
:104A9000962827D340F2CC00C2F20000057800200F
:104AA00040F27C01C2F2000148550DB9012100E03D
:104AB000022108460F21FBF7F1FF40F2CD00C2F2C0
:104AC0000000057040F2B000C2F20000046040F245
:104AD000AC00C2F200000460012040F2CE01C2F23C
:104AE0000001087004B0BDEC028B70BD024612F5E7
:104AF000616F08DBB2F5616F05DC11F5616F02DBF8
:104B0000B1F5616F01DD00207047002A10DB02EB78
:104B1000C20000EB02104FF4E16303EBC0105B0036
:104B200090FBF3F040F2BC03C2F20003186011E006
:104B3000504200EBC00303EB00104FF4E16303EBC2
:104B4000C0105B0090FBF3F0404240F2BC03C2F2A5
:104B500000031860002910DB01EBC10000EB01101D
:104B60004FF4E16303EBC0105B0090FBF3F040F205
:104B7000BC03C2F20003586011E0484200EBC003DE
:104B800003EB00104FF4E16303EBC0105B0090FBFC
:104B9000F3F0404240F2BC03C2F20003586001202F
:104BA00040F2C403C2F20003187000BFACE72DE965
:104BB000F04F8BB0FCF797FB40F27811C2F2000186
:104BC0000968401AC82802D20BB0BDE8F08FFCF784
:104BD0008AFB40F27811C2F200010860FDF721FE65
:104BE00040F28800C2F2000090ED000AB5EEC00A63
:104BF000F1EE10FA02D2BEEE000A01E0B6EE000AB3
:104C000040F28800C2F20000D0ED000AB2EE041AB1
:104C100000EE810ABDEEC00A10EE104A002C01DA47
:104C2000604200E0204605460A20B5FBF0F100FB9B
:104C30001158B5FBF0F04FF47A71B0FBF1F201FBC3
:104C4000120940F29800C2F200000078CDE900801D
:104C5000002C01DA2D2000E02B2002464B4640F2CA
:104C6000D401C2F2000105A8FEF7E0FA002045F2E7
:104C7000D833C0F6000305AA01460090FDF7FCFDFD
:104C800040F28800C2F2000090ED010AB5EEC00AC1
:104C9000F1EE10FA02D2BEEE000A01E0B6EE000A12
:104CA00040F28800C2F20000D0ED010AB2EE041A10
:104CB00000EE810ABDEEC00A10EE104A002C01DAA7
:104CC000604200E0204605460A20B5FBF0F100FBFB
:104CD0001158B5FBF0F04FF47A71B0FBF1F201FB23
:104CE000120940F29800C2F200004078CDE900803D
:104CF000002C01DA2D2000E02B2002464B4640F22A
:104D0000E801C2F2000105A8FEF790FA002045F282
:104D1000D833C0F6000305AA08210090FDF7ACFDCA
:104D200040F29C00C2F2000000684FF47A71B0FBC0
:104D3000F1F201FB120840F20400C2F20000006828
:104D4000B0FBF1F201FB120943464A4640F2FC0176
:104D5000C2F2000105A8FEF769FA002045F2D83337
:104D6000C0F6000305AA10210090FDF785FD40F272
:104D70009000C2F2000090ED000AB5EEC00AF1EE1C
:104D800010FA02D2BEEE000A01E0B6EE000A40F2CE
:104D90009000C2F20000D0ED000AB2EE041A00EE5C
:104DA000810ABDEEC00A10EE104A002C01DA604202
:104DB00000E02046054640F29000C2F2000090ED6F
:104DC000010AB5EEC00AF1EE10FA02D2BEEE000AF8
:104DD00001E0B6EE000A40F29000C2F20000D0ED11
:104DE000010AB2EE041A00EE810ABDEEC00A10EE0E
:104DF000106A002E01DA704200E0304607460A20B1
:104E0000B7FBF0F100FB1178B7FBF0F04FF47A71CB
:104E1000B0FBF1F201FB12090A20B5FBF0F100FB37
:104E2000115AB5FBF0F04FF47A71B0FBF1F201FBCF
:104E3000120B002E01DA2D2000E02B20CDE900A07E
:104E4000CDE90298002C01DA2D2000E02B2002464B
:104E50005B4640F21011C2F2000105A8FEF7E6F928
:104E6000002045F2D833C0F6000305AA18210090AF
:104E7000FDF702FD40F29B00C2F20000037840F211
:104E80009A00C2F20000027840F22E11C2F2000134
:104E900005A8FEF7CBF9002045F2D833C0F6000391
:104EA00005AA20210090FDF7E7FC40F2A000C2F225
:104EB000000000684FF47A71B0FBF1F201FB1208B8
:104EC00040F2A400C2F200000068B0FBF1F201FB66
:104ED000120943464A4640F24011C2F2000105A8B9
:104EE000FEF7A4F9002045F2D833C0F6000305AA66
:104EF00028210090FDF7C0FC002045F2D833C0F611
:104F0000000340F26712C2F2000230210090FDF768
:104F1000B3FC40F20C00C2F2000000684FF47A715A
:104F2000B0FBF1F201FB120840F21000C2F20000E7
:104F30000378424640F25411C2F2000105A8FEF780
:104F400075F9002045F2D833C0F6000305AA3821D0
:104F50000090FDF791FCFDF7DCFD00BF34E608B5DD
:104F6000002040F28401C2F20001088040F2860174
:104F7000C2F20001087040F28701C2F2000108701D
:104F800040F27C01C2F200010870487040F28001DA
:104F9000C2F20001086000BF009040F69870C2F2B3
:104FA000000000680068009040F69870C2F20000AF
:104FB00000684068009000BF00BF202240F6F86102
:104FC000C2F2000140F69870C2F20000FCF7DAFD70
:104FD00080B940F69870C2F20000C06B00680068AB
:104FE00020F0080040F69871C2F20001C96B096810
:104FF000086005E0012040F28701C2F2000108705C
:1050000008BDF0B589B040F28700C2F20000007818
:10501000D0B340F69870C2F20000FCF73CFE00BF2F
:105020000020009040F69870C2F20000006800680E
:10503000009040F69870C2F200000068406800904E
:1050400000BF00BF002040F28701C2F200010870DB
:10505000202240F6F861C2F2000140F69870C2F2D8
:105060000000FCF78FFD80B940F69870C2F2000096
:10507000C06B0068006820F0080040F69871C2F22A
:105080000001C96B0968086005E0012040F2870152
:10509000C2F20001087040F28600C2F200000078FF
:1050A00008B909B0F0BD72B640F28400C2F2000047
:1050B0000688002408E040F61870C2F20000005D87
:1050C00001A90855601C84B2B442F4DB002040F210
:1050D0008601C2F20001087062B6002462E001A8F5
:1050E000005D012803D001A8005D022858D101A964
:1050F000601C085C362853D1E01D085C6B284FD13A
:1051000001A8005D012801D0012000E00020054633
:1051100001A9E01C085C010601AA201D105C41EAFF
:105120000041601D105C41EA0020A11D515C40EA75
:10513000010700EE107AF8EE400A0020C4F2B43005
:1051400000EE100A60EE800A4FF08F4000EE100A69
:1051500080EE801A40F27400C2F2000000EB85007D
:1051600080ED001A01A9A01C085C88B140F274000F
:10517000C2F2000000EB850090ED000AB1EE400A9B
:1051800040F27400C2F2000000EB850080ED000ADE
:10519000012040F27C01C2F200014855E01D84B2BA
:1051A000601C84B2E01DB04299D300BF79E70000D3
:1051B0000000000000000000002F000000000700B9
:1051C000070000147F147F1400242A7F2A12006233
:1051D00064081323003649552250000005030000DF
:1051E00000001C224100000041221C000014083E67
:1051F00008140008083E0808000000A0600000082D
:105200000808080800006060000000201008040280
:10521000003E5149453E0000427F4000004261513E
:105220004946002141454B31001814127F100027D8
:1052300045454539003C4A4949300001710905039B
:1052400000364949493600064949291E00003636CC
:10525000000000005636000000081422410000142F
:10526000141414140000412214080002015109060C
:1052700000324959513E007C1211127C007F49498D
:105280004936003E41414122007F4141221C007FBE
:1052900049494941007F09090901003E4149497ACC
:1052A000007F0808087F0000417F41000020404146
:1052B0003F01007F08142241007F40404040007FB2
:1052C000020C027F007F0408107F003E4141413EF6
:1052D000007F09090906003E4151215E007F09193E
:1052E00029460046494949310001017F0101003F3B
:1052F0004040403F001F2040201F003F4038403FBB
:10530000006314081463000708700807006151491E
:10531000454300007F41410000552A552A550000B1
:1053200041417F000004020102040040404040402F
:10533000000001020400002054545478007F4844C7
:10534000443800384444442000384444487F0038FE
:105350005454541800087E0901020018A4A4A47C27
:10536000007F080404780000447D400000408084F1
:105370007D00007F102844000000417F4000007C39
:1053800004180478007C0804047800384444443845
:1053900000FC242424180018242418FC007C080491
:1053A000040800485454542000043F444020003C6A
:1053B0004040207C001C2040201C003C4030403CF1
:1053C000004428102844001CA0A0A07C0044645481
:1053D0004C4414141414141408060000B0510008AE
:1053E0000000000000000000000000000000FC00C1
:1053F0000000000002000000000C020C020000008F
:105400000000000090D0BCD0BC900003000300005E
:105410001824FE448C000302070201001824D8B0AF
:105420004C80000300010201C038E438E0000102B2
:105430000201020208060000000000000000000057
:10544000000000F80402000000010204000204F859
:1054500000000004020100009060F860900000006D
:10546000010000002020FC202000000001000000BE
:10547000000000000000080600000000202020209E
:1054800020000000000000000000000000000002FA
:10549000000000000080601C020004030000000007
:1054A000F8040404F8000102020201000008FC00F4
:1054B00000000002030200001884442418000302C4
:1054C0000202020008042424D800010202020100A2
:1054D00040B088FC80000000000302003C2424242B
:1054E000C400010202020100F824242CC0000102C1
:1054F000020201000C04E41C040000000300000090
:10550000D8242424D8000102020201003844444473
:10551000F80000030202010000001000000000007B
:105520000200000000002000000000000600000053
:10553000002050880402000000000102909090902A
:1055400090000000000000000002048850200002CB
:10555000010000001804C42418000000020000002C
:10556000F804E494F80001020202020000E09CF05A
:10557000800002030000030204FC2424D80002037C
:1055800002020100F80404040C00010202020100FE
:1055900004FC0404F80002030202010004FC247469
:1055A0000C0002030202030004FC24740C0002033A
:1055B00002000000F0080444CC4000010202010097
:1055C00004FC2020FC040203000003020404FC0489
:1055D0000400020203020200000404FC04040604A6
:1055E0000403000004FC24D00C04020302000302A4
:1055F00004FC04000000020302020203FC3CC03C65
:10560000FC0003000300030004FC30C4FC0402039C
:1056100002000300F8040404F80001020202010081
:1056200004FC24241800020302000000F88484040F
:10563000F80001020207050004FC2464980002033C
:1056400002000302182424448C0003020202010019
:105650000C04FC040C0000020302000004FC000027
:10566000FC04000102020100047C80E01C04000034
:10567000030000001CE03CE01C00000300030000ED
:10568000049C609C0400020300030200041CE01C54
:1056900004000002030200000C84641C04000203E6
:1056A000020203000000FE020200000007040400E2
:1056B000000E30C00000000000010200000202FEE7
:1056C00000000004040700000004020400000000C1
:1056D000000000000000000000000808080808089A
:1056E0000000020000000000000000000040A0A038
:1056F000C00000010202030204FC2020C0000003DD
:105700000202010000C0202060000001020202002D
:1057100000C02024FC0000010202030200C0A0A07F
:10572000C0000001020202000020F824240400024C
:10573000030202000040A0A0602000070A0A0A0439
:1057400004FC2020C0000203020003020020E40049
:105750000000000203020000000020E4000008082E
:105760000807000004FC80E020200203020003027E
:105770000404FC000000020203020200E020E0201A
:10578000C00003000300030020E02020C00002034B
:105790000200030200C02020C0000001020201003C
:1057A00020E02020C000080F0A02010000C02020D5
:1057B000E0000001020A0F0820E040202000020360
:1057C000020000000060A0A020000002020203000E
:1057D0000020F820000000000102020020E000206C
:1057E000E00000010202030220E0208060200000AF
:1057F000030100006080E0806000000300030000FF
:1058000020608060200002030003020020E020806E
:1058100060200808070100000020A06020000002AE
:1058200003020200000020DE020000000007040066
:10583000000000FF00000000000F00000002DE205A
:10584000000000040700000002010204040200003E
:10585000000000000C060000E053000800000000FB
:10586000000000000000000000000000000000F840
:1058700000000000000000333000000000100C06A3
:10588000100C0600000000000000000040C078403E
:10589000C0784000043F04043F040400007088FC0A
:1058A00008300000001820FF211E0000F008F00062
:1058B000E018000000211C031E211E0000F00888D3
:1058C000700000001E2123241927211010160E003D
:1058D000000000000000000000000000000000E0E8
:1058E00018040200000000071820400000020418FD
:1058F000E00000000040201807000000404080F059
:10590000804040000202010F01020200000000F08E
:10591000000000000101011F010101000000000062
:105920000000000080B070000000000000000000D7
:105930000000000000010101010101010000000060
:1059400000000000003030000000000000000000F7
:1059500080601804006018060100000000E01008D4
:105960000810E000000F102020100F00001010F8A9
:10597000000000000020203F2020000000700808E8
:105980000888700000302824222130000030088868
:10599000884830000018202020110E000000C02090
:1059A00010F8000000070424243F240000F80888B1
:1059B000880808000019212020110E0000E010883E
:1059C00088180000000F112020110E000038080870
:1059D000C83808000000003F000000000070880880
:1059E00008887000001C222121221C0000E0100801
:1059F0000810E0000000312222110F00000000C05A
:105A0000C0000000000000303000000000000080F6
:105A100000000000000080600000000000008040E6
:105A200020100800000102040810200040404040FF
:105A30004040400004040404040404000008102052
:105A40004080000000201008040201000070480897
:105A50000808F0000000003036010000C030C828FF
:105A6000E810E0000718272423140B000000C038BA
:105A7000E0000000203C23020227382008F8888834
:105A800088700000203F202020110E00C030080840
:105A900008083800071820202010080008F8080817
:105AA0000810E000203F202020100F0008F8888810
:105AB000E8081000203F20202320180008F88888DC
:105AC000E8081000203F200003000000C030080854
:105AD0000838000007182020221E020008F80800DD
