:020000040000FA
:1000000058502020D5000000D9000000DB0000007F
:1000100000000000000000000000000000000000E0
:10002000000000000000000000000000DD000000F3
:100030000000000000000000DF000000E100000000
:10004000E3000000D3070000690D0000DD0D000093
:10005000ED050000F9050000E3000000E3000000EA
:1000600000000000E3000000E300000000000000CA
:1000700000000000A50D0000C10D0000890D00006A
:10008000F90C0000310D0000C10C0000DD0C000077
:100090004D0D0000150D00000000000000000000E4
:1000A000E3000000E300000000000000000000008A
:1000B000E300000000000000E3000000D1070000A2
:1000C0000348854600F080FA00480047490E0000CA
:1000D0005850202003480047FEE7FEE7FEE7FEE712
:1000E000FEE7FEE7C1000000F0B5074608465840AD
:1000F00087B0C00F049048000E46590040084908D8
:10010000BC1A884105D2384631461E4617460B4672
:1001100002465800400810434CD0300D0390400573
:100120005900400D490D0590401A0290402872DA9E
:1001300018030121000B090508430190049800925F
:10014000002805D001995242002088410092019078
:10015000029840210A1A0199009800F0A2F9054678
:100160000C466B4607CB00F0BDF9C0197141039AEC
:100170000E0D0023D71756401A467A40164344D036
:10018000049A002A2DD0029A012A039A15DC12053E
:10019000C01A914101263605001C7141D20F059EFF
:1001A000D2070093019202962A46234600F0BAF93C
:1001B00007B0F0BD38463146FAE71605224A0F4629
:1001C000B218C01AB74101210905001C4F4100189F
:1001D0007F41114618187941E20F10436D196441AF
:1001E00013E0E2076D0815436408C2071443039A3D
:1001F00001261205C01A91413605001C7141CE0737
:10020000400830434908C01851412A46234600F0AF
:100210007CF9CDE7FFE7049801224000C117121ACC
:1002200000238B4104983146C417381AA141EEE7E8
:1002300030B40124E407634030BC55E730B40124F6
:10024000E407614030BC4FE70000E0FFF0B51FB4A9
:1002500088B00B990998002448400999C00F4900BB
:1002600049080991C0070B990090490049080B9172
:1002700009990898A64608431CD00B990A98084388
:1002800018D0099801244000420D4800410D0998FA
:1002900024050003000B204309900B980003000B7A
:1002A00020430B9050181C4940180022019014461E
:1002B000104605E0002001460DB0F0BD032801DA2C
:1002C000034600E003239C46C11A0AAE0AE05F0021
:1002D00008ADED5B4F00F75B7D430027AA187C411A
:1002E000491C5B1E6145F2DD410004AB5A522104FA
:1002F000120C0A43240C401C0828DFDB01980290F2
:100300000099704601910090059B049A0799069800
:1003100000F008F9D0E700000DFCFFFFF0B50C4637
:100320005C4085B0E40FE40703944C0000266408A9
:1003300059009446490802460296224321D062465B
:100340000A431ED06200570D4A000E032303550DC9
:10035000012402462C492405781B1B0B360B401840
:1003600023432643614600901C46501AB44103D3F0
:100370000098401C009002E0921800985B41002811
:1003800003DA0020014605B0F0BD00200121090577
:100390000746864611E064461D46141BB54106D348
:1003A0006546521BB341744607430C43A646CD072E
:1003B00040084908284392185B4105460D43EAD19D
:1003C0001046184313D06046194650407140084308
:1003D00006D06046101AB34106D20122002306E07F
:1003E00000220123DB0702E00122D24353100098D0
:1003F00074460105381C6141029C039D0019694146
:1004000000F083F8BFE70000FD0300000EB50549CA
:100410000291002100910A460B46019100F082F8FA
:1004200003B000BD330400004A0009030123090B97
:100430001B051943094B10B5520D9A4201DA0020F1
:1004400010BD064B34339A4203DC9A1A00F039F897
:1004500010BD03495118884010BD0000FF03000083
:10046000CDFBFFFF70B50446002903D000202022F9
:10047000012310E0002801D00020C043C046C04640
:100480000DE02546D5408D4205D30D469540641BB1
:100490001D46954040191546521E002DF1DC21469F
:1004A00070BD10B5202A04DB0146203A914000209F
:1004B00010BD914020239C1A0346E340194390400D
:1004C00010BD10B5202A04DB0846203AD040002198
:1004D00010BD0B46D340D0402024A21A91400843BF
:1004E000194610BD10B5202A06DBCB170846203A66
:1004F0001041C1170B4306E00B461341D0402024A6
:10050000A21A91400843194610BD10B5002B08DA15
:100510000024401C614192185B411A4301D14008FC
:10052000400010BDF0B51FB482B005460C0003D0EA
:10053000084600F09BFC02E000F098FC20300246E8
:10054000009021462846FFF7ACFF049B059A04461D
:100550000F4618431143084314D0184610431BD0CC
:10056000009840210A1A18460599FFF7AAFF054688
:100570000E46009A05990498FFF793FF084305D0AB
:10058000012004E02046394607B0F0BD0020C11725
:1005900005430E432C43374300990E986305401AD8
:1005A0007905E40A00220C43FD0A0A3002D5002036
:1005B0000146E9E70105101969410C9C0D9D0019E0
:1005C0006941FFF7A2FFDFE7064C0125064E05E073
:1005D000E36807CC2B430C3C98471034B442F7D364
:1005E000FFF772FD781000009810000001480068C5
:1005F0007047C04620100040014800687047C04660
:1006000020300040811E091F00BFFCD2704700004F
:10061000B0B53F231B04044C25689D430843104399
:10062000184028182060B0BD38010B40F0B585B0E7
:1006300001221402344B19680494A14319609503F4
:1006400062490E682E4208D10E682E4205D10E680E
:100650002E4202D10E682E42F3D0457E15409E698F
:10066000964375199D612025455D03263540DF6958
:10067000B7437D19DD61254D2E6805272F60476A38
:100680003C681C627C685C62072434402C60C4694E
:100690007F252D02DE69AE436406640C3419DC61EB
:1006A00050C805680095476885680195C56802953A
:1006B00003929A69164D15402207120B3403A4B217
:1006C000A2183A43009C2407240D1443019A1443B2
:1006D000029A1443007C20430E4A0240501998614C
:1006E0001868049A10431860039840020A6802428E
:1006F00008D10A68024205D10A68024202D10A689A
:100700000242F3D005B0F0BD08010B400013404099
:100710008D00F0FF72FF0F00F0B5184B1D46083D2D
:100720002E680124A6432E600326360330401F683E
:10073000B743381818601868FF26B043C9B240188C
:1007400018602868204328601868002A11D0210703
:100750000843186020021D490A68024208D10A684D
:10076000024205D10A68024202D10A680242F3D06D
:10077000F0BD210788431860F0BDC04610010B4052
:1007800010B51149886001225305F44804681C42E1
:1007900008D104681C4205D104681C4202D10468D7
:1007A0001C42F3D012040B6813430B600168C906A6
:1007B00008D40168C90605D40168C90602D40168D5
:1007C000C906F3D510BDC04604010B4004020B401E
:1007D000704780B500F002F880BD0000F0B581B030
:1007E000204800780090002839D0002504260AE02F
:1007F0006068381860601B4800780090361D6D1CDA
:10080000009885422BD217498C59217849003A48E3
:100810004218527801273B469340415C8900374893
:100820004158114809581940E160E7D0607800F05C
:1008300045F80090217849002F48421852783B46ED
:100840009340415C89002D4A515808480A581A4380
:100850000A5000980028CBD00020C743C8E701B059
:10086000F0BDC046080020203810000048100000ED
:10087000022903D0012906D10F4905E080000C4967
:100880000C4A4250704781218200094BD1504000F0
:1008900019490A5C9200194B9A58081840780121AE
:1008A0008140952040011150101801637047C046E7
:1008B00004804240810004008100040240000E498F
:1008C0000A5C92000D4B9A582723DB01D258081876
:1008D0004078C240012010407047C04640000649A1
:1008E0000A5C9200054B9A58081840780121814013
:1008F000034811507047C046C60E0000000020207B
:10090000B0120000F0B58DB079487A4A42607A485A
:1009100042607A4842607A4842607A4842607A4847
:1009200042607A4842607A4842607A4842607A4837
:1009300042607A4842607A4E72607A4D6A607A4CC0
:1009400062607A4B5A607A494A607A4842607A4AD1
:10095000674F3A60684F3A60684F3A60684F3A6054
:10096000684F3A60684F3A60684F3A60684F3A6043
:10097000684F3A60684F3A60684F3A6032602A6068
:1009800022601A600A60026010200390FFF73AFEAE
:100990006A48042101604F214160002181600268A2
:1009A000052304931A43026065480160416065486D
:1009B000243801600F210802634F3A1F13688343F4
:1009C000012466029819029210600320C0433B463E
:1009D000083B1A6802401A603868A04338603868DB
:1009E0005A4A104038602003009001912246FFF7D8
:1009F00093FE5748FFF71AFE2005079006946406F9
:100A0000564D1F200006396B814339630498020458
:100A100000200799FFF7FCFD4A484F490160422733
:100A20002868204204D14B48FFF7ECFD7F1EF7D128
:100A30004548806C05900698420400200799FFF70E
:100A4000E7FD40484449016042272868204204D11C
:100A50004048FFF7D7FD7F1EF7D13E481730059974
:100A60004843394FB96CFFF7FDFC3D4940180F284A
:100A700015D338683549084038600698000239684F
:100A80000143396028683042BBD128683042B8D170
:100A900028683042B5D128683042F3D0B1E7029BD4
:100AA0001868039A104320218843186001980003B6
:100AB000396B8143092000030818386318680099CE
:100AC00008431860786B10437863386BB043386321
:100AD00000242046FFF754FE22A008A90A4628C891
:100AE00028C268C868C2204600F046F80DB0F0BDC4
:100AF00000080A40030000B100280A4000881040A6
:100B000000081040002810400008504000088640AF
:100B100000288640004808400088864000A886409B
:100B200000080940000887400088464000A8464069
:100B300000080040002800400100002610E000E00E
:100B4000288042402C030B4008010B40FFFEFFFFB2
:100B500050100000D10300000100000E04020B4001
:100B600043F6FFFF0405000000C20100000018006A
:100B70000000003000000000F0B585B001900A7858
:100B8000D200434DAB185B6880241C43AA589200E6
:100B9000404BD4504A78D200AC1864683E4E26438D
:100BA000AA589200D65083003C4AD758012420030B
:100BB0003A180823936000253D5011200602B859C9
:100BC0000494E24302921040B851887A0A890243A1
:100BD00088891043324A0240B859324B0340981872
:100BE000B851887BCA7B0243087C10437E221040A8
:100BF000BC196368934318186060B8590322D20384
:100C000090430396B8514868FFF700FC264B2E46E8
:100C10002A46FFF71BFB02460B460198032801D02A
:100C2000234900E0214930460096FFF777FB05464F
:100C30000E46FFF7F9FB81B222691E4B1340C9181B
:100C40002161FFF7E3FB02460B4628463146FFF7DA
:100C5000EFFA194B009D2A46FFF7F8FA174B2A4680
:100C6000FFF742FAFFF7E0FB3F21084062698A4341
:100C7000801860616068049A10406168029B1940A6
:100C800008186060039978581043785005B0F0BD9B
:100C9000400F00000480424080000400401000002B
:100CA00018670000E798FDFF00003040D012934124
:100CB000D01283410000FFFF000050400000E03FE1
:100CC00080B505480068C0B2022804D12D480068EC
:100CD000002800D0804780BD2010864080B50548A0
:100CE0000068C0B2022804D126484068002800D01D
:100CF000804780BD2030864080B505480068C0B27E
:100D0000022804D11F488068002800D0804780BD99
:100D10002050084080B505480068C0B2022804D1C0
:100D200018488069002800D0804780BD2010874087
:100D300080B505480068C0B2022804D11148C068D7
:100D4000002800D0804780BD2090864080B50548AF
:100D50000068C0B2022804D10A480069002800D007
:100D6000804780BD20B0864080B505480068C0B28D
:100D7000022804D103484069002800D0804780BD84
:100D8000201009402C00202080B505480068C0B222
:100D90000B2804D118480068002800D0804780BD87
:100DA0002090104080B505480068C0B20B2804D1DF
:100DB00011484068002800D0804780BD20101040B6
:100DC00080B505480068C0B20B2804D10A48806885
:100DD000002800D0804780BD2030104080B50548F5
:100DE0000068C0B20B2804D10348C068002800D0B6
:100DF000804780BD2010504048002020B0B51049E9
:100E0000414310480368232206E0E41A051F2D68B9
:100E10006419A2188A4212D21C4603689C4208D167
:100E200003689C4205D103689C4202D103689C423E
:100E3000F3D09C42E9D9E41AA2188A42ECD3B0BD9F
:100E40006035010018E000E0FFF75CFD0A20FFF7C5
:100E5000D5FF242000210A46FFF70AFD7D208000EF
:100E6000FFF7CCFF2420FFF739FDF7E72021020C24
:100E700001D010211046020A01D01046083902099B
:100E800001D01046091F820801D01046891E420871
:100E900001D0881E7047081A70470000000000004B
:100EA00002E008C8121F08C1002AFAD170470000EA
:100EB0007047000000000000002001E001C1121F87
:100EC000002AFBD1704700000001001C001D001E1D
:100ED000001F0002000300040005000601000101DC
:100EE0000007010201030104010500080009000ACE
:100EF000000B0106010701080109010A010B010CA1
:100F0000010D010E010F0110000C000D000E000F6D
:100F1000001000110012001300140111011201133E
:100F2000001500160114011501160117011800170C
:100F3000001800190119011A011B001A001B0000FA
:100F4000000000000200000001000000020000009C
:100F50000B000000020000000C0000000200000076
:100F60001400000002000000150000000200000054
:100F70000200000002000000050000000200000066
:100F8000100000000200000011000000020000003C
:100F90001600000002000000170000000200000020
:100FA0001200000002000000130000000200000018
:100FB00026000000020000002700000002000000E0
:100FC0001F000000020000002000000002000000DE
:100FD0002A000000020000002B00000002000000B8
:100FE0002D000000020000002E00000002000000A2
:100FF0003400000002000000350000000200000084
:101000000E000000020000000F00000002000000BF
:101010001C000000020000001D0000000200000093
:101020002300000004000000220000000400000073
:101030003A0000000200000036000000020000003C
:101040000080104000001040002010400000504080
:10105000010000000000000000000000400000004F
:101060002000000000000000020100000900000054
:10107000010000002400C44198100000000020205E
:1010800008000000A00E0000A010000008002020B2
:1010900050500000B80E000000000A4000200A4036
:04000005000000C136
:00000001FF
