:020000040800F2
:10000000080D002051020008D341000845370008C0
:10001000D1410008CD1500088558000800000000F7
:1000200000000000000000000000000093490008EC
:10003000E7150008000000002D420008B94D000837
:100040006B0200086B0200086B0200086B020008DC
:100050006B0200086B0200086B0200086B020008CC
:100060006B0200086B0200086B0200086B020008BC
:100070006B0200086B0200086B0200086B020008AC
:100080006B0200086B0200086B0200086B0200089C
:100090006B0200086B0200086B0200086B0200088C
:1000A0006B0200086B0200086B0200086B0200087C
:1000B0006B0200086B0200086B0200086B0200086C
:1000C0006B0200086B0200086B0200086B0200085C
:1000D0006B0200086B0200086D5400086B020008F8
:1000E0006B0200086B0200086B0200086B0200083C
:1000F0006B0200086B0200086B0200086B0200082C
:100100006B0200086B0200086B0200086B0200081B
:100110006B0200086B0200086B0200086B0200080B
:100120006B0200086B0200086B0200086B020008FB
:100130006B0200086B0200086B0200086B020008EB
:100140006B0200086B0200086B0200086B020008DB
:100150006B0200086B0200086B0200086B020008CB
:100160006B0200086B0200086B0200086B020008BB
:100170006B0200086B0200086B0200080000000020
:100180006B0200086B02000800F002F800F050F863
:100190000AA090E8000C82448344AAF10107DA45E2
:1001A00001D100F045F8AFF2090EBAE80F0013F0E4
:1001B000010F18BFFB1A43F001031847C476000073
:1001C000E4760000103A24BF78C878C1FAD8520704
:1001D00024BF30C830C144BF04680C6070470000C1
:1001E0000023002400250026103A28BF78C1FBD840
:1001F000520728BF30C148BF0B607047642900F028
:100200002B81752900F02881732900F04484002097
:1002100070471FB507F023FA00F08AFE04000020A3
:10022000002107F08BF9401C60601FBD10B510BDA8
:1002300000F046FE1146FFF7ECFF07F062F900F010
:100240006DFE03B4FFF7F2FF03BC00F075FE000083
:100250000948804709480047FEE7FEE7FEE7FEE75A
:10026000FEE7FEE7FEE7FEE7FEE7FEE70448054996
:10027000054A064B70470000514E000889010008EE
:1002800008070020080D00200809002008090020A8
:1002900053EA020C00F069802DE9F04B4FF00006A4
:1002A000002B1FBFB3FA83F503FA05F424FA05F611
:1002B0005E4012BF1643B2FA82F502FA05F4C5F1A8
:1002C00020051EBF22FA05FC44EA0C04203556EA3C
:1002D000044C4FEA144418BF641C4FF000084FF060
:1002E0000009904271EB030C39D3002919BFB1FA10
:1002F00081F701FA07F6B0FA80F700FA07F6C7F1BE
:1003000020071EBF20FA07FC46EA0C062037B6FB82
:10031000F4FCA7EB0507103F07F01F0BCBF12006FD
:100320000CFA0BFB2CFA06F644BFB3460026202F2E
:10033000A4BF5E464FF0000B5BEA060C08BF4FF00F
:10034000010B19EB0B09ABFB027C48EB0608C01B49
:1003500006FB02CC0BFB03CC71EB0C01C1E70B4697
:10036000024641464846BDE8F08B13B54FF0000009
:100370004FF00001AFF30080BDE81C407047000063
:100380000FB47CB50C0009AA009001D02044401E97
:10039000084B7B4469460190089800F04AFB0546EB
:1003A0001CB10020694600F057FB28467CBC5DF874
:1003B00014FB0000CD06000070B504468569006896
:1003C000C10601D5302600E02026C00707D070BD49
:1003D000D4E9012130469047206A401C20626D1EFE
:1003E000F6D570BD70B5044685690078C00707D1A1
:1003F00070BDD4E9012120209047206A401C206272
:100400006D1EF6D570BD70B50C460546012A05D0A7
:100410002878800600D5EA69002302E0012305E080
:100420005B1C934202D2E05C0028F9D1A869E6186F
:10043000C01AA861286A184428622846FFF7BCFF42
:1004400004E0D5E9012114F8010B9047B442F8D338
:100450002846FFF7C7FF70BD2DE9F041064600248E
:1004600010687529314616A510D0AFF3008000281A
:1004700002DA404213A507E031688A0701D512A5C8
:1004800002E0490704D511A5012401E0AFF3008083
:1004900000210A2206F1240709E0B0FBF2FCB0FBC0
:1004A000F2F302FB1C00303078541846491C002837
:1004B000F3D123462A463046BDE8F04100F05ABA4F
:1004C000000000002D0000002B00000020000000B4
:1004D0002DE9F05F894604464FF0000ADFF874B159
:1004E000FB44C0F820A02046E1688847002874D06B
:1004F000252806D0D4E901219047206A401C2062BB
:10050000F1E700265F462046E16888472028054637
:1005100007DB312D05D2781910F8200C08B10643FD
:10052000F1E7B00701D526F00406C4F81CA00027A7
:10053000C4F818A02A2D09D0284606F0DBFF38B3EE
:1005400004EB8708303DC8F8185019E059F8041B2F
:10055000204604EB87029161E1688847012F054638
:1005600018D1E069002820DA26F020061DE0D8F82E
:10057000180000EB800005EB40003038C8F8180088
:100580002046E1688847054606F0B4FF0028EED112
:10059000012F0AD02E2D08D12046E16888477F1C04
:1005A0000546022F46F02006C4DBA069002803DAC6
:1005B000404246F00106A061F00701D026F0100687
:1005C0006C2D0BD0682D09D04C2D39D06A2D35D02B
:1005D000742D35D07A2D33D016E038E0E1682F46FF
:1005E00020468847B842054609D16C2F26D04FF4E3
:1005F0008060E168064320468847054604E06C2F8A
:100600001AD04FF4807006430DB3A5F141001928AC
:1006100002D8203546F400664A4629462046266020
:100620004E46FFF7EBFD80B101280BD0F61D26F0FA
:10063000070000F1080956E74020E4E78020D8E7EA
:100640000020D6E706F104094DE7284652E7206A64
:10065000BDE8F09FD47200000FB400B58DB010A9B2
:10066000099000910B904FF0FF300A9000200C9001
:10067000064878440690064878446A4607900F99E1
:1006800009A800F021FA0DB05DF814FB7304000016
:100690008B0400002DE9FF5F1D464FF0FF3B9146A4
:1006A0004FF000085F46D5E90146A96901987F1C13
:1006B0008847296A824688470028F6D1BAF1FF3F69
:1006C0000CD0002E24F4C06419DD600614D5BAF1F4
:1006D0002B0F09D0BAF12D0F0ED103E0584604B00C
:1006E000BDE8F09F44F48064A96901987F1C8847A5
:1006F000761E8246002E02DDBAF1300F03D0B9F12A
:10070000000F26D032E0A969761E01987F1C44F4C0
:1007100000748847002E824605DDBAF1780F06D0B6
:10072000BAF1580F03D0B9F1000F10D01EE0B9F1A3
:10073000000F02D0B9F1100F18D1A969761E0198E7
:100740007F1C24F4007488478246102002E00820B1
:1007500000E00A20814609E0A96908FB0908761E25
:1007600001987F1C44F4007488478246002E05DD02
:100770004946504600F093F90028EDDAE9690198FE
:100780008847A00502D46FF00100A8E7E00725D153
:10079000600613D5600502D5C8F1000000E04046B0
:1007A00029680A1D2A600968220501D5087015E02C
:1007B000220701D5088011E008600FE02868011DBC
:1007C00029600068210502D580F8008006E0210735
:1007D00002D5A0F8008001E0C0F8008038467EE72E
:1007E000401ECAB210F8011F8A4202D00029F9D176
:1007F0000020704740EA010370B59B072ED14FF0EF
:100800000136042A2AD308C810C99D1B9D43121F14
:1008100015EAC61517D0D8B2E1B2401A50EA056100
:1008200010D198B2A1B2401A50EA05410AD123F082
:100830007F4024F07F41401A50EA052102D1180E72
:10084000A0EB146070BDA342DBD018BA21BA884275
:1008500001D9012070BD4FF0FF3070BD0AB90020F2
:1008600070BD10F8013B11F8014B63B1A3420AD1EE
:10087000521E08D010F8013B11F8014B1BB1A342E6
:1008800001D1521EEDD1181B70BD4FF0000200B512
:10089000134694469646203922BFA0E80C50A0E8A3
:1008A0000C50B1F12001BFF4F7AF090728BFA0E851
:1008B0000C5048BF0CC05DF804EB890028BF40F81D
:1008C000042B08BF704748BF20F8022B11F0804F5F
:1008D00018BF00F8012B70474FF0013C50F8042B73
:1008E00051F8043B9A4221D1A2EB0C03934313EA43
:1008F000CC1317D150F8042B51F8043B9A4215D170
:10090000A2EB0C03934313EACC130BD150F8042B46
:1009100051F8043B9A4209D1A2EB0C03934313EA2A
:10092000CC13DBD04FF00000704700BFD01A01BAE3
:10093000B1FA81F101F0180122FA01F0CB40C1F1C6
:100940002001DBB2C0B2C01A2CFA01F3D11A9143D4
:1009500011EAC311E6D1704770477047704710B570
:1009600000F0E2F8006810BD10B5044600F0DCF8B5
:10097000046010BD2DE9F0470D46994692460446A5
:1009800000F124080168880604D5E06921F010010F
:10099000216000E00120A84201DD471B00E00027A4
:1009A000A1697A1902EB0900081AA0612078C00633
:1009B00002D42046FFF700FD002608E0D4E901211B
:1009C0001AF806009047206A401C761C20624E45AB
:1009D000F4DB2078C0060AD52046FFF7EDFC06E0E0
:1009E000D4E9012130209047206A401C2062381E43
:1009F000A7F10107F4DC07E0D4E9012118F80500AC
:100A00009047206A401C2062281EA5F10105F3DCF6
:100A10002046FFF7E7FC2078000602D50220BDE85B
:100A2000F0870120FBE7000001694A1C0261087899
:100A3000704700B58FB0CDE901310021059105491E
:100A40007944CDE9031011466846FFF741FD0FB028
:100A500000BD0000E5FFFFFF0A6802F8010B0A6015
:100A60007047D1E900239A4202D2531C0B601070E8
:100A7000704710B5436913B1AFF3008001E0FFF791
:100A8000C2FC012010BD127800F124010A7000227E
:100A90004A700122EDE711684FF0FF32E9E73A288A
:100AA00000D2303820F02002412A01D3A2F13700D1
:100AB000884201D34FF0FF307047000002681144B4
:100AC0001378016018467047D16005497944516137
:100AD00004497944116200211161114600F032B8D5
:100AE000EDFFFFFF5B000000426842B1016811F8B2
:100AF000013B23B1521EC0E9001218467047012184
:100B0000C160881E704742685AB1C368016843B922
:100B100083688B4205D0491E521CC0E90012002098
:100B200070474FF0FF30704700487047A406002020
:100B300010B5044600F0EAF90068005D00F001001D
:100B400010BD00002DE9F34F4FF0000A0C46564649
:100B50008DB001200C9001F10C000B9062690B9894
:100B600001219047051E2DD0252D2CD0216A8847C4
:100B7000C0B162690B9801219047216A884700281B
:100B8000F7D16269411E0B98904700E0761CA1697D
:100B90000D988847216A88470028F7D1E1690D98A8
:100BA0008847DBE7A1690D988847A842074601D12D
:100BB000761CD3E7E1690D9888477F1C02D1BAF112
:100BC000000F6FD06BE162690B9800273D463946F4
:100BD00090472A2804D162690B980121904701258A
:100BE000DFF8D08262690B9801219047A0F13001B3
:100BF0000A290AD24745E5DC07EB870100EB4107EC
:100C0000303FDFD445F01005ECE7E90601D46FF082
:100C100000476C280AD04C2814D0682815D06A28C0
:100C20000DD074281CD07A281AD01DE062690B9868
:100C3000012190476C2802D045F0040514E045F0EE
:100C400002050DE045F020050AE062690B980121DC
:100C50009047682802D045F0080505E045F4006596
:100C600062690B9801219047C4E9015765283DD07E
:100C700019DC58287AD00CDC452837D004DC25282C
:100C800026D041289ED131E046282FD0472899D13F
:100C90002CE05B2877D0612828D063287CD064289A
:100CA00023D15AE0F6E06F2848D008DC66281DD032
:100CB00067281BD0692821D06E2816D127E070281C
:100CC00045D0732868D0752847D078280DD14DE0DD
:100CD000A1690D988847252805463FF469AFE16969
:100CE0000D9888476D1C3FF46AAFD8E00D992346F4
:100CF0006A466FF00100AFF30080C5E045F04000A8
:100D000023464FF000026060A80736D43EE0E807B3
:100D10007FF447AF2068011D21600068290501D5D7
:100D200006701BE7290701D5068017E7A90703D539
:100D3000F117C0E9006111E706600FE745F04000D8
:100D400023464FF008026060A80716D41EE040F664
:100D50000E0125EA0100606016E045F040002346E0
:100D60004FF00A026060A80707D40FE045F040008A
:100D70006060A80708D5234610220D996FF0010086
:100D8000AFF3008080E007E0102223460D996FF05A
:100D90000100FFF77FFC77E04FF0000963284F4622
:100DA000C8464B46CB4602D05B2806D038E0E80662
:100DB00001D40120A060012732E06269D4F80CB0B0
:100DC0000B98012190475E2807D14FF00109494651
:100DD0006269D4F80CB00B989047216939B90021A9
:100DE0000A4603AB43F82120491C0829FADBD8B393
:100DF000216949B308F1010862690B980121904704
:100E00005D28F4D1B9F1000F09D0002003A951F8F1
:100E10002020D24341F82020401C0828F7DB03ABF8
:100E20002069002820794FEA40701ED05B46224698
:100E3000CDF80080CDE901970D9900286FF00100F1
:100E400020DAAFF300801FE0C11703AA00EBD161E5
:100E50004B1121F01F0102EB8302411A136801209C
:100E6000884003431360C7E719E00D992246002824
:100E70006FF00100009702DAAFF3008004E0AFF3F7
:100E8000008001E0AFF3008000280ADA401C06D1A0
:100E90000C9820B14FF0FF300FB0BDE8F08F5046F6
:100EA000FAE7E90701D10AF1010A064400200C9093
:100EB00054E60000CCCCCC0C00487047A4060020BF
:100EC0007546FFF7F9FFAE4605006946534620F028
:100ED0000700854618B020B5FFF7C8F9BDE82040E7
:100EE0004FF000064FF000074FF000084FF0000BE6
:100EF00021F00701AC46ACE8C009ACE8C009ACE899
:100F0000C009ACE8C0098D467047000010B500F07C
:100F10000FF8001D10BD00BF2566000010B5044687
:100F2000AFF300802046BDE81040FFF78AB900000B
:100F300000487047C406002001491820ABBEFEE7F8
:100F40002600020070470000464910B54A6822F4A6
:100F500040324A604A6843681A434A6001684A68F6
:100F600022F480724A6001684A68036942EA0322F7
:100F70004A6001684A6822F040724A6001684A6823
:100F800083681A434A6001688A6822F400628A60B2
:100F900001688A68C3681A438A60816A6FF0706268
:100FA000D14201688A6822F070628A6001688A68AA
:100FB0000CD0836A1A438A6001688A6822F0405222
:100FC0008A6001688A68C36A1A4301E022F04052CD
:100FD0008A6001688A6822F002028A6001688A6871
:100FE000037E42EA43028A6090F8201000290168DB
:100FF0004A680FD042F400624A6001684A6822F4ED
:1010000060424A6001684A68174C436A04EB433304
:101010001A4301E022F400624A600168CA6A22F4BD
:101020007002CA620168CA6A838B104C04EB0353D6
:101030001A43CA6201688A6822F400728A600168F1
:101040008A6890F8303042EA43228A6001688A68F0
:1010500022F480628A6001688A68406942EA8020DE
:10106000886010BD0023014000E0FFFF0000F0FF9A
:101070002DE9F04106462DED048B05F039FDFF4CBE
:10108000054694F87B0058B194F87A0040B194F882
:10109000780028B194F87C0010B194F8770070B112
:1010A0005FF0000705F06EFE9FEDF58A10B394F82F
:1010B000790028431ED094F8760010B105E001278E
:1010C000F0E794F8770000B9A7B105F02DFD0027EF
:1010D0009FEDEC9AF0B105F0B5FC84ED0B0A94EDB0
:1010E000090A84ED110A84ED128A84ED138A84EDD5
:1010F000148A1AE184ED028A84ED038A84ED048A5D
:1011000084ED058A84ED0B8ABDEC048BBDE8F041CB
:1011100005F0F4BE94F87B00002815D094F87A000E
:10112000002811D094F8780000280DD094F87700AA
:10113000002809D194F87600D34D002894F87C005B
:1011400001D010B111E080B9D3E094ED090A01207B
:1011500084ED100A84ED110A84ED128A84ED138A5D
:1011600084ED148A84F87C002E602868301A1E28CA
:101170007ED300EE100AB8EE400ADFEDC40AC0EEDE
:10118000208AD4ED0F0A94ED150A06F067F9F5EE02
:10119000C08AB0EE401AF1EE10FA2E6004D918EEB3
:1011A000900ABB49884201DDDFEDBA8A94ED100A4E
:1011B000D4ED090A30EE600A05F0C6FF84ED130A8B
:1011C00094ED100AD4ED110A30EE600A05F0BCFF70
:1011D00061EE280AF0EEC01AF4EEE01AF1EE10FA11
:1011E00006D8C0EE280AC4ED120A94ED100A11E0E8
:1011F000B5EEC00AF1EE10FA02DDF0EE410A01E0B0
:10120000F1EE410AC4ED120A94ED110A00EEA80AAB
:1012100005F09AFF84ED110AD4ED090A30EE600A58
:1012200005F092FF9C48D4ED120AD4ED0A1A90ED15
:10123000022A70EEE11A62EE200A90ED002A42EED8
:10124000000A90ED010A40EE210AC4ED140AF4EE02
:10125000C10AF1EE10FA01DD84ED141AD4ED140A7E
:10126000B1EE410AF4EEC00AF1EE10FA03D200E04A
:101270003AE084ED140A94ED100AD4ED110A30EE30
:10128000600A05F061FFB0EEC00A10EE100A834953
:10129000884229DAD4ED138AB0EEE80A10EE100A7B
:1012A000B0F17C5F20DD94ED0A0A7D49B0EEC00A02
:1012B00010EE100A884217DA94ED140AB0EEC00A54
:1012C00010EE100AB0F1824F0EDAF0EE410AB2EEE3
:1012D000000A06F0C3F8F5EEC08AF1EE10FA01DC60
:1012E000B1EE400A84ED140A94ED140A84ED0B0A61
:1012F0001DE094F97700D4ED0F0A00EE100AB8EE65
:10130000C00A20EE200AC0EE090AC4ED0B0A94EDD3
:10131000090A84ED110A84ED128A84ED138A84EDA2
:10132000148A10B994F8760008B984F87C7094F99E
:101330007600D4ED068A00EE100A94F87A10594827
:10134000B8EEC00A20EE280AC0EE091AE9B394F8F4
:101350007810D1B394ED0B0AD4ED0A0A90ED001A7F
:1013600070EE600ADFED502A90ED012A4F4B00EE3F
:10137000A21A30EEC23A4E4A83EE222A11EE101A19
:10138000994202DD9FED4B1A05E011EE101A9142D1
:1013900001D99FED491AD0ED052A22EE800A84ED8D
:1013A0000E0AD0ED022A02EEA00AD0ED032A02EEC8
:1013B000810AD0ED042A02EE820AF4EEC08AF1EE30
:1013C00010FA01D2B0EE680A00E052E0B1EE682AED
:1013D000B4EEC02AF1EE10FA01DDB0EE420AB0EE32
:1013E000C02AB4EEE82AF1EE10FA06D320EE202A45
:1013F000B5EEC02AF1EE10FA01D280ED001AC0ED70
:10140000010A00BF31EEC08A31EE809AC4ED0C0AA9
:1014100084ED0D0AB0EEC80AF0EEC90A05F0FAFF35
:10142000F4EEC08AF1EE10FA05D2C8EE800A20EE82
:10143000888A20EE899A11492048B0EE480A84ED46
:10144000020A84ED039AD4ED000A103105F0F4FC91
:1014500005F0A4FC0949D4ED010A94ED030A143106
:10146000174805F0E9FCBDEC048BBDE8F04105F040
:10147000BBBC94F9771000EE101A23E0480000205E
:10148000000000000000C8420400002000007A4470
:10149000CDCC4C3E8FC2F53C100100200AD7233C36
:1014A0000000A040F80000200AD7233C000096432B
:1014B000000096C300009643000096C3C8000020B9
:1014C000E0000020B8EEC00A84ED0E8A80ED008AAC
:1014D00080ED018A60EE280A94ED0A1A80EE890AEE
:1014E000D4ED0B0A70EEC10A8CE700000E4903220E
:1014F0009FED0F0A81F8912048650C48826ECA66FC
:10150000C26E0A67002281F88B2081ED140A91F8DF
:101510008C30142B02D291F98C1000E0142100F8C9
:10152000761F4270827170473C0100204800002005
:10153000000000002DE9F04107462DED028B05F07B
:10154000DDFC1E4C94F8780020B194F87A0008B1C4
:10155000012000E000201A4D84F87B00042085F86B
:10156000910000269FED178A6F656E6685ED148ADF
:1015700094ED090AD5ED1F0A603430EE200A05F01B
:10158000E3FD85ED1D0AA675E67504ED080A54ED28
:101590000F0A44ED070A04ED068A30EE600A05F0F2
:1015A000D3FD04ED050A04ED048A012020770648E6
:1015B0000760BDEC028BBDE8F08100004800002010
:1015C0003C0100200000000004000020FEE7642829
:1015D00001DD642070476FF06301884201DA08463C
:1015E000704740B27047704770B5044679B31949E7
:1015F0000A468B6E12F8890F927873B1E51A0023B0
:10160000B5F5487F04D391F888500DB1052802D371
:1016100081F88B301CE08B6609E0052807D391F830
:101620008A00052803D3032A08D2521C01E072B1B4
:10163000521ED0B281F88B20032809D34FF4FA70E0
:1016400004F074F92046FFF751FF012070BDFFE759
:101650000020FBE73C01002072B6FEE778B50024CD
:10166000009490F83C20012A19D0012280F83C20F7
:101670000A6807230568092A13D9EE680A3A02EBBB
:10168000420293409E43EE600B788A680A3B03EB6C
:1016900043039A400368DD682A43DA6010E00220C1
:1016A00078BD2E6902EB420293409E432E610B7877
:1016B0008A6803EB43039A4003681D692A431A6151
:1016C0004A681F23072A13D205686E6B521E02EB6D
:1016D000820293409E436E630B790A885B1E92B22E
:1016E00003EB83039A4003685D6B2A435A6327E048
:1016F00005680D2A12D22E6BD21F02EB8202934094
:101700009E432E630B790A88DB1F92B203EB83039F
:101710009A4003681D6B2A431A6311E0EE6A0D3A82
:1017200002EB820293409E43EE620B790A880D3BE6
:1017300092B203EB83039A400368DD6A2A43DA62BC
:10174000164B0568144A9D4206D10D68122D03D12F
:10175000556845F48005556005689D4218D10B68B1
:10176000102B01D0112B13D1536843F400035360A5
:10177000096810290CD10A490A4A0968B1FBF2F13B
:1017800001EB8101490000E0491E00910029FBD1D5
:1017900080F83C40002078BD00230140002001403B
:1017A0004400002040420F000068C06C704770B5D4
:1017B00004004FF0000503D0206C002610B107E0B4
:1017C000012070BD204600F01DF8666484F83C607E
:1017D000206CC00610D4206C20F4885040F0020029
:1017E00020642046FFF7B0FB6664206C20F0020006
:1017F00040F00100206400E0012584F83C602846A8
:1018000070BD000070B586B0044614216846FFF72D
:101810003CF81E491C4E256800221C48143901233F
:101820000324B54213D1056845F48075056000684E
:1018300000F480700590086840F0020008600868B5
:10184000009300F0020005906946114815E0114E22
:10185000B54216D1056845F400750560006800F4CE
:1018600000700590086840F0040008600868009364
:1018700000F00400059008486946CDE9014200F0F7
:1018800021FA06B070BD000000200140443802403B
:101890000004024000210140000802402DE9F0410F
:1018A000044600680D4681684FF0000749050BD5D6
:1018B0008068C00508D5206C40F02000206484F8C2
:1018C0003C700120BDE8F08100F0FEFA064613E00E
:1018D000681C11D025B100F0F7FA801BA8420BD983
:1018E00020680068800707D4206C40F00400206462
:1018F00084F83C700320E5E7206800688007E7D59E
:1019000021686FF012000860206C40F400702064C1
:101910002068816811F0405F13D1217E89B9C16AC6
:1019200011F4700F02D0806840050AD4206C20F4B6
:1019300080702064206CC00403D4206C40F001004F
:1019400020640020BEE7000018B50021009190F847
:101950003C20012A07D0012280F83C2002689368CD
:10196000DB0702D011E0022018BD936843F00103A9
:1019700093602E4A2E4B1268B2FBF3F202EB420246
:1019800000E0521E0092002AFBD102689368DB0738
:1019900042D0036C40F20164A34343F480730364B8
:1019A00053685B0505D5036C23F4005343F480535F
:1019B0000364036CDB0404D5436C23F00603436427
:1019C00000E0416480F83C101A496FF02203136074
:1019D00049680068CA06184906D0884224D181683F
:1019E00011F0405F13D01FE08842F8D0134A9042B4
:1019F00003D1D1F80423D206F1D0114A904213D179
:101A0000D1F8041301F01F011029E8D30CE081681C
:101A100041F08041816007E0016C41F010010164F8
:101A2000416C41F001014164002018BD44000020D8
:101A300040420F00002301400020014000210140EE
:101A40000022014090F83C1001290CD0012180F8BF
:101A50003C1001688A6822F001028A600168896886
:101A6000C90702D007E002207047016C21F48851B9
:101A700041F001010164002180F83C1008467047E4
:101A80002DE9F0410446876D00F01EFA064694F8F1
:101A900035000025022806D08020606584F8345087
:101AA0000120BDE8F0812068016821F01601016085
:101AB0002068416921F080014161206C08B9A06C67
:101AC00020B12068016821F00801016020680168E8
:101AD00021F0010101600CE000F0F6F9801B0528FF
:101AE00007D920206065032084F8350084F834503D
:101AF000D7E720680068C007EED194F85C103F205B
:101B00008840B860012084F8350084F83450002003
:101B1000C7E790F83510022903D0802141650120E4
:101B20007047052180F835100068016821F0010137
:101B3000016000207047000070B5044600F0C4F951
:101B40000546601C02D004480078044400F0BCF94B
:101B5000401BA042FAD370BD380000202DE9F04FA1
:101B60000022DFF838B101264FF00F0906FA02F41F
:101B700001EA0403A3427DD122F003075F44D7F8B2
:101B8000088895074FEA157C09FA0CFA0AEA080555
:101B9000DFF80C81404502D14FF0000832E0DFF859
:101BA0000481404502D14FF001082BE0DFF8F880B6
:101BB000404502D14FF0020824E0DFF8F0804045B4
:101BC00002D14FF003081DE0DFF8E480404502D168
:101BD0004FF0040816E0DFF8DC80404502D14FF0FA
:101BE00005080FE0DFF8D080404502D14FF006082D
:101BF00008E0DFF8C880404502D14FF0070801E057
:101C00004FF0080808FA0CF8A84522D12C4DD5F859
:101C100000C02CEA030CC5F800C005F1040CDCF888
:101C200000509D43CCF80050254D0C35D5F800C030
:101C30002CEA030CC5F800C02D1FD5F800C02CEA13
:101C4000030CC5F800C0D7F8085825EA0A05C7F8FC
:101C50000858056857000323BB409D430560D5081D
:101C600000EB8505D5F820C057074FEAD76809FA79
:101C700008F700E00CE02CEA070CC5F820C0C568A6
:101C80009D43C5604568A543456084689C43846066
:101C9000521C102AFFF46AAFBDE8F08F00300140FB
:101CA000000002400004024000080240000C024014
:101CB000001002400014024000180240001C0240C4
:101CC000003C01402DE9F84FDFF8BCA100220125BE
:101CD00003264FF00F090AF1040BAAF1040E00BF0E
:101CE0000B6805FA02F42340A34270D10F7907F084
:101CF0000307012F01D0022F16D187684FEA42084F
:101D000006FA08FC27EA0C07D1F80CC00CFA08FC0C
:101D10004CEA070CC0F808C04768A7430C79C4F325
:101D2000001494403C4344600C79E443A4070AD077
:101D3000C4684FEA420C06FA0CF7BC438F6807FAF6
:101D40000CF72743C7600C7904F00304022C12D16E
:101D5000D40800EB840CDCF820405707FF0E09FA8A
:101D600007F824EA0804D1F8108008FA07F848EACE
:101D70000408CCF8208004684FEA420C06FA0CF7FD
:101D8000BC430F7907F0030707FA0CF727430760F6
:101D90004C6814F4403F70D03C4C276847F48047AF
:101DA0002760246822F0030704F480440094384C30
:101DB00007EB040CDCF8084897074FEA177809FA94
:101DC00008F7BC43334FB84202D1002724E054E067
:101DD000314FB84201D101271EE0304FB84201D146
:101DE000022719E02E4FB84201D1032714E02D4FEE
:101DF000B84201D104270FE02B4FB84201D105278B
:101E00000AE02A4FB84201D1062705E0284FB84220
:101E100001D1072700E0082707FA08F72743CCF885
:101E20000878DAF800405746D1F804C09C435FEACE
:101E3000CC2C00D51C433C60DBF800405F46D1F859
:101E400004C09C435FEA8C2C00D51C433C60DEF848
:101E500000407746D1F804C09C435FEA8C3C00D533
:101E60001C433C60084F083F3C68D1F804C09C43C9
:101E70005FEACC3C00D51C433C60521C102AFFF4A6
:101E80002FAFBDE8F88F0000083C01404438024005
:101E900000300140000002400004024000080240FF
:101EA000000C0240001002400014024000180240E2
:101EB000001C02400069084000D0012070470AB1B0
:101EC000816170470904FBE70148806870470000A2
:101ED0003800002010B5040013D0242084F83D0001
:101EE0002068016821F001010160204600F020FB1C
:101EF0000020206484F83D0044F8300FA073207364
:101F000010BD012010BD000070B5040025D094F86C
:101F10003D00002520B984F83C50204600F024FB09
:101F2000242084F83D002068016821F0010101604F
:101F30002068016841F4004101602068016821F4D3
:101F40000041016000F07AFC4D4A6168914201D87D
:101F50004C4900E04C49884201D2012070BD4B49F8
:101F60002368B0FBF1F15E6826F03F060E435E6029
:101F70006368934206D94FF4967359434FF47A73CA
:101F8000B1FBF3F12368491C1E6A26F03F0631437A
:101F900019626168914210D84900401EB0FBF1F20D
:101FA000521CC2F30B02042A01D2042022E0B0FB2F
:101FB000F1F0401CC0F30B001CE0A268F2B301EB8F
:101FC000C10303EB0116431EB3FBF6F35B1C43F4A2
:101FD00080431B0549D092B301EBC10202EB011112
:101FE000401EB0FBF1F0401CC0F30B0040F48040F9
:101FF00040F400402168CA694CF6FF739A431043CD
:10200000C861D4E9071001432068026822F0C002C9
:1020100011430160D4E9030101432068826848F25A
:10202000FF339A4311438160D4E9050108432168D5
:10203000CA6822F0FF021043C86001E00EE016E01B
:102040002068016841F0010101602564202084F8C6
:102050003D00256384F83E50002070BD01EB410631
:10206000431EB3FBF6F35B1CB3E70120C2E701EBB1
:102070004101401EB0FBF1F0401CC0F30B00B7E77C
:10208000A086010080841E0000093D0040420F0030
:102090002DE9FF4F81B089460446FFF715FF05463D
:1020A00094F83D004FF0000820287DD1192301222B
:1020B00050492046009501F05BFC002874D194F84B
:1020C0003C00012870D0012084F83C0020680168A1
:1020D000C90703D1016841F001010160206801686E
:1020E00021F400610160242084F83D00002626646C
:1020F0004148E0624FF0011B20272068016841F44D
:10210000807101600095002259462046049B01F031
:102110002FFC50B120680068C00502D54FF4007054
:102120002064032005B0BDE8F08F216809F0FE00AF
:102130000861FFF7C9FE2168054648694969C0F38F
:102140004000C1F380214FF0A00A0FE0FFF7BCFE72
:10215000411B0498814200D808B984F83DA0216849
:1021600048694969C0F34000C1F3802194F83D20DB
:10217000A02A02D008B90029E8D084F83D70206870
:102180004169C943890716D4016841F400710160AF
:10219000206841698069192301221649204600956B
:1021A00001F0E6FBB8B900E021E084F83D7084F866
:1021B0003C600020B6E7016841F4007101602168CD
:1021C0006FF480604861192301220A492046009576
:1021D00001F0CEFB08B10120A4E7039808F1010843
:1021E00080458AD384F83D7084F83C60F3E7022090
:1021F00098E70000020010000000FFFF2DE9FF4FEC
:1022000083B09A46DDE9118793460446DDF8409095
:10221000FFF75AFE054694F83D00202870D1192397
:10222000012274492046009501F0A2FB0028F5D157
:1022300094F83C00012863D0012084F83C00206819
:102240000168C90703D1016841F0010101602068FC
:10225000016821F400610160222084F83D004020E3
:1022600084F83E0000262664C4F82490A4F82A804E
:10227000608D20856048E062CDE9007553465A467E
:102280002046049901F076FA002879D1208DD0B14A
:10229000012821D00228206824D04169806900905B
:1022A000208D032866D801282BD0544902283B46AC
:1022B0004FF00002009557D08846204601F058FBA9
:1022C00000285DD13AE02068416981690091016888
:1022D00041F4007101607DE02068016821F48061B3
:1022E0000160F0E7016821F4806101602068016805
:1022F00041F400610160206841698069009069E0F3
:1023000075E02A463946204601F0D8FB88BB54E0E8
:102310002068016841F40071016020680069616A09
:102320000870606A401C6062218D491E2185618DA4
:10233000491E618521680969017042E020680168D1
:1023400021F48061016020680069616A0870606A38
:10235000401C6062208D401E2085608D401E60857F
:102360003B46002241460095204601F001FB00B9A2
:10237000CEE705E02A463946204601F09FFB18B11A
:10238000012007B0BDE8F08F20680069616A08701D
:10239000606A401C6062208D401E81B22185608D84
:1023A000401E608520684269D243520712D4032937
:1023B00003D1016821F48061016020680069616ACD
:1023C0000870606A401C6062208D401E2085608D10
:1023D000401E6085208D00287FF462AF202084F8A5
:1023E0003D0084F83E6084F83C600020C9E702208C
:1023F000C7E70000020010000000FFFF040001001A
:102400002DE9FF4F83B09A46DDE9119793460446C4
:10241000DDF84080FFF758FD054694F83D00202880
:102420007FD11923012240492046009501F0A0FAEE
:10243000002876D194F83C00012872D0012084F85D
:102440003C0020680168C90703D1016841F001011F
:1024500001602068016821F400610160212084F896
:102460003D00402084F83E0000262664C4F8248005
:10247000A4F82A90608D20852C48E062CDE9007593
:1024800053465A462046049901F0F2F970B930E0FB
:102490002A463946204601F049FB58B1206C0428F1
:1024A00004D12068016841F400710160012007B087
:1024B000BDE8F08F606A216800780861606A401C9E
:1024C0006062218D491E89B22185628D521E62850E
:1024D00022685369DB435B070BD469B10078106154
:1024E000606A401C6062208D401E2085608D401E09
:1024F0006085208D0028CBD12A463946204601F040
:102500000BFA0028CAD154F83D0B016841F4007160
:102510000160202004F81E09E67766770020C6E7F0
:10252000FFE70220C3E70000020010000000FFFFE9
:1025300010B50068094988420FD10948016821F4A3
:1025400080010160074C01152046FFF707FBE114ED
:102550002046BDE81040FFF701BB10BD0058004009
:10256000403802400004024010B586B004461421F1
:102570006846FEF78AF914492068884221D1134839
:10258000016841F0020101600068694600F0020044
:1025900005904FF4406000901220019001200290BD
:1025A00003200390042004900948FFF78BFB0748A1
:1025B0001030016841F480010160006800F480007F
:1025C000059006B010BD00000058004030380240B1
:1025D000000402400248816802781144816070471B
:1025E000380000200B4810B5016841F4007101600B
:1025F000016841F480610160016841F4807101600B
:10260000032000F06FF80F2000F006F800F024F827
:10261000002010BD003C024070B50D4D04464FF443
:102620007A712878B1FBF0F00A490968B1FBF0F043
:1026300000F00AFB48B9102C07D200222146501E98
:1026400000F030F800206C6070BD012070BD00000B
:1026500038000020440000200A4808B5016841F411
:1026600080410160006800F4804000900548001F30
:10267000016841F080510160006800F080500090D6
:1026800008BD000044380240002809DB00F01F02AA
:10269000012191404009800000F1E020C0F80011C4
:1026A00070470000F0B40E4B1B680C46C3F30223C6
:1026B000C3F10705042D00D90425191D072901D2EE
:1026C000002300E0DB1E012606FA05F1491E214029
:1026D00099409E40761E16403143F0BC04F061BD27
:1026E0000CED00E0064900F0070208684FF6FF0312
:1026F000184040EA0220034A104308607047000077
:102700000CED00E00000FA052DE9F0470E4605004B
:1027100065D0DFF81481D8F80000F7B200F00700A8
:10272000B04207D288F80070D8F8000000F0070027
:10273000B04254D128683D4C810712D5400703D5DB
:10274000206840F4E05020602878000703D5206816
:1027500040F4604020602068A96820F0F000084341
:1027600020602878C0072DD03049686808390128D2
:1027700012D0022813D0032811D009688907002934
:102780002DDA216821F0030101432160FFF79CFB52
:10279000814641F2883A0EE009688903EFE709684B
:1027A0008901ECE7FFF790FBA0EB0901514502D945
:1027B0000320BDE8F0872068696800F00C00B0EBEA
:1027C000810FEFD1D8F80010404601F00701B14267
:1027D00007D90770006800F00700B04201D001205F
:1027E000E7E72878400705D52068E96820F4E0503D
:1027F000084320602878000706D52068296920F45E
:10280000604040EAC100206000F038F82168084AC2
:10281000C1F30311515CC8400649086006480068CE
:10282000FFF7FAFE0020C4E7003C024008380240EF
:10283000A0770008440000203C000020044805491F
:1028400000680968044AC1F38221515CC84070479E
:102850004400002008380240B077000804480549C9
:1028600000680968044AC1F34231515CC8407047AE
:102870004400002008380240B0770008154810B521
:10288000006810F00C02144813D04110042A0FD035
:10289000082A0ED10F4C241F2268236802F03F0241
:1028A0005B0207D52068C0F38810A0FB010106E099
:1028B000084610BD2168C1F38811A1FB0001002367
:1028C000FDF7E6FC2168C1F30141491C4900B0FB5A
:1028D000F1F010BD083802400024F4002DE9F84F53
:1028E00004006ED02078DFF84C93C007A9F10405EE
:1028F0004AD009F104000168C1F38101012908D01F
:102900000068C0F3810002280AD1D9F80000400213
:1029100006D52868800337D560680028E1D033E009
:102920006068B0F5803F10D0B0F5A02F286810D0B7
:1029300020F480302860286820F4802028606068B7
:10294000A8B1FFF7C1FA06460DE0286840F48030D0
:10295000F4E740F480202860F7E700BFFFF7B4FAFF
:10296000801B642873D828688003F7D50CE0FFF734
:10297000ABFA064605E000BFFFF7A6FA801B642805
:10298000F0D828688003F7D42078DFF8AC8280077D
:102990004FF0000A3ED5A748001D016811F00C0F4A
:1029A00008D00068C0F3810002280BD1D9F80000DC
:1029B000400207D42868800716D5E068012800D1B6
:1029C00012E033E1E068B8B10120C8F80000FFF779
:1029D0007BFA064605E000BFFFF776FA801B022867
:1029E000C0D828688007F7D52868216920F0F8004A
:1029F00040EAC10028600DE0C8F800A0FFF764FAC3
:102A0000064604E0FFF760FA801B02281FD82868FA
:102A10008007F7D42078000722D5864F8748616960
:102A2000703771B101210160FFF74EFA064604E0EC
:102A3000FFF74AFA801B022809D838688007F7D5C3
:102A40000EE0C0F800A0FFF73FFA064605E082E07E
:102A5000FFF73AFA801B02287DD838688007F7D440
:102A60002078400768D5DFF8CCB100270BF13C0B8C
:102A7000DBF80000C0000BD4DBF8001041F08051FF
:102A8000CBF80010DBF80000012700F08050009028
:102A90006B4E3068C00510D4306840F480703060F0
:102AA000FFF712FA009005E0FFF70EFA0099401ABE
:102AB000022850D83068C005F6D55E4EA0686C3646
:102AC00001280FD00528306810D020F001003060B8
:102AD000306820F004003060A068B8B1FFF7F4F966
:102AE00000900FE0306840F00100F4E740F004008F
:102AF0003060F7E7FFF7E8F90099411A41F28830B2
:102B0000814266D830688007F4D50EE0FFF7DCF923
:102B1000009007E0FFF7D8F90099411A41F2883098
:102B2000814256D830688007F4D42FB1DBF800100A
:102B300021F08051CBF80010A069C8B33D49091DB0
:102B40000968C1F3810102294AD00228504607D002
:102B5000C8F8600000E03CE0FFF7B6F904463BE04F
:102B60004746C8F86000FFF7AFF9064605E000BF2A
:102B7000FFF7AAF9801B02282BD828688001F7D418
:102B8000D4E907010843A16A2E4A490802EB014132
:102B9000626A41EA8211084394F82C1040EA01610C
:102BA000C9F8001001203866FFF78EF9044606E0E8
:102BB0003EE000BFFFF788F9001B022809D828680B
:102BC0008001F7D534E000BFFFF77EF9001B022833
:102BD00002D90320BDE8F88F28688001F4D427E0EB
:102BE0000128F7D0D9F80000E26900F48001914291
:102BF0001CD1226A00F03F01914217D147F6C07103
:102C0000626A0140B1EB821F10D1A26A4FF0FF331C
:102C100000F4403103EB5202B1EB024F06D194F8BD
:102C20002C1000F07060B0EB016F01D00120D1E7F3
:102C30000020CFE70438024000004742800E4742A0
:102C4000007000400000FFFF10B5401EB0F1807F13
:102C500001D3012010BD4FF0E02460610F21601707
:102C600004F09FFA0020A06107202061002010BD21
:102C700070B590F83C20012A32D0012480F83C4005
:102C8000022280F83D2003685A689D6822F0700691
:102C90000A6832435A60134B02689A4214D0B2F168
:102CA000804F11D0104B9A420ED0104B9A420BD04D
:102CB0000F4B9A4208D00F4B9A4205D00E4B9A42C6
:102CC00002D00E4B9A4204D1496825F08003194383
:102CD000916080F83D40002180F83C10084670BDAE
:102CE000022070BD000001400004004000080040C8
:102CF000000C00400004014000400140001800406A
:102D000010B5040003D094F83D0010B107E0012095
:102D100010BD002084F83C00204600F01FF802207F
:102D200084F83D00211D206802F09AF8012084F803
:102D3000460084F83E0084F83F0084F8400084F8A0
:102D4000410084F8420084F8430084F8440084F889
:102D5000450084F83D00002010BD000008B5124A6F
:102D600001681248914207D1016841F48031016045
:102D7000006800F4803009E00D4A914208D10168F2
:102D800041F400310160006800F40030009008BD9B
:102D9000084A9142FBD1016841F48021016000683A
:102DA00000F48020F2E70000004001404438024077
:102DB000004401400048014070B5044690F83C00D2
:102DC0000025012817D0012684F83C60022084F8F1
:102DD0003D002068826822F0770222F47F42826000
:102DE0000868502838D00DDC20284FD005DC90B37F
:102DF000102811D14AE0022070BD302846D040286A
:102E00000AD13BE060282FD070280DD0B0F5805F4C
:102E100003D0B0F5005F12D0012584F83D6000209A
:102E200084F83C00284670BDCB68D1E901212068B8
:102E300002F08BF82068816841F0770109E0CB68E7
:102E4000D1E90121206802F080F82068816841F40E
:102E500080418160E1E719E0CA684968206802F0B2
:102E600049F95021206806E0CA684968206802F0E4
:102E700052F96021206802F072F8CEE7CA6849680A
:102E8000206802F037F940212068F4E72268014603
:102E90001046F0E72DE9F0410D46040003D094F808
:102EA0003D0018B108E00120BDE8F081002084F861
:102EB0003C00204600F040F8022084F83D002068E5
:102EC000816844F2070291438160211D206801F06E
:102ED000C7FF226890689169166A2B68AF6903433F
:102EE00040F20330814341EA0721A868EF690843B3
:102EF0004FF6FC418843E96840EA0720014328690E
:102F00002F6A000140EA0730084369686D6926F0BE
:102F1000AA0646EA0515294393602268906154F891
:102F2000460B0162012004F81F09E0752076E07667
:102F30002077A0750020B7E7F0B587B004461421CC
:102F40006846FDF7A2FC2B49226800242948103965
:102F50000225294EB2F1804F1ED0284B9A4219D13A
:102F6000026842F002020260006800F00200059070
:102F7000086840F0020008600868694600F0020036
:102F8000059030200090CDE901543046CDE903454D
:102F9000FEF798FE07B0F0BD026842F00102026041
:102FA000006800F001000590086840F0010008602A
:102FB000086800F001000590086840F00200086011
:102FC0000868012700F0020005904FF400400090CF
:102FD000CDE90154CDE9034769460948FEF772FE81
:102FE00008200090CDE90154CDE9034769463046F9
:102FF000CEE70000403802400004024000040040D8
:103000000000024070B590F83E60044690F83F50D2
:1030100090F8423090F84320022021B104290ED0CC
:10302000012E1BD114E0012E18D1012B16D184F8EA
:103030003E0084F8420001220021206820E0012D9A
:103040000CD1012A0AD184F83F0084F8430014E02F
:10305000012D03D1012B01D1012A01D0012070BD26
:1030600084F83E0084F83F0084F8420084F843006E
:1030700001220021206801F05BFF01220421206869
:1030800001F056FF2068016841F001010160002055
:1030900070BD000070B586B0044614216846FDF787
:1030A000F4FB1F48256800211E4A022303248542A1
:1030B00010D1106840F010001060106800F010008F
:1030C000059060200090CDE90131CDE903146946F7
:1030D00015480DE0154E1648B5420DD1156845F05E
:1030E00002051560126802F00202059282150FE0D7
:1030F000FEF7E8FD06B070BD0E4EB542FAD1156878
:1031000045F002051560126802F002020592721580
:103110000092CDE90131CDE903146946E8E70000EA
:10312000004001403038024000100240004401409D
:10313000000402400048014070B5044690F83C008D
:1031400000260D4601280FD0012084F83C006AB10A
:10315000042A1DD0082A2FD00C2A3FD00126002097
:1031600084F83C00304670BD022070BD206801F03C
:10317000FFFE2068816941F0080181612068816952
:1031800021F004018161206881692A69114311E0FD
:10319000206801F01DFF2068816941F400618161B0
:1031A0002068816921F480618161206881692A69D0
:1031B00041EA02218161D2E7206801F03FFF2068E7
:1031C000C16941F00801C1612068C16921F00401B1
:1031D000C1612068C1692A69114311E0206801F0CA
:1031E00061FF2068C16941F40061C1612068C16963
:1031F00021F48061C1612068C1692A6941EA022124
:10320000C161ACE710B5040003D094F83D0010B1E3
:1032100007E0012010BD002084F83C00204600F0AB
:103220001EF8022084F83D00211D206801F018FEE0
:10323000012084F8460084F83E0084F83F0084F8BA
:10324000400084F8410084F8420084F8430084F888
:10325000440084F8450084F83D00002010BD70470C
:1032600010B50446022249B104290ED0082913D012
:1032700094F84100012816D0012010BD94F83E00BA
:103280000128F9D184F83E200FE094F83F0001288E
:10329000F2D184F83F2008E094F840000128EBD1F7
:1032A00084F8402001E084F841200122206801F0E8
:1032B0003FFE16492068164A884201D0904203D149
:1032C000436C43F4004343642068884213D0B0F158
:1032D000804F10D00F4988420DD00F4988420AD044
:1032E0000E49884207D0904205D00D49884202D04D
:1032F0000C49884204D1816801F00701062903D0F6
:10330000016841F001010160002010BD0000014092
:10331000000401400004004000080040000C004090
:103320000040014000180040704702F035BB00002B
:10333000F8B5016804460868CA684B6910F00F0FB9
:103340004FF0000559D003F0010602F4907737439F
:1033500065D0C10705D0D10503D5616C41F00101ED
:103360006164410705D5D90703D0616C41F00201C2
:103370006164810705D5D90703D0616C41F0040170
:103380006164010707D502F02001314303D0616C6D
:1033900041F008016164616C00293AD0800604D5CF
:1033A000900602D5204601F05DFF20684069616CFF
:1033B000C0F38010090700D460B3204601F02BFF52
:1033C00020684069400621D52068143050E8001F6D
:1033D00021F0400140E80012002AF5D1E06BA8B1CD
:1033E00072490165E06BFEF794FB002811D0E06B99
:1033F000016D01B0BDE8F040084783060FD5930684
:103400000DD52046BDE8F84001F02CBF2046FFF75F
:103410008CFFF8BD2046FFF788FF6564F8BD266B7A
:103420002023012E7ED1C6067CD5D6067AD5086823
:103430004868009048694FF0020640064DD5E26B9F
:10344000106840684FF480770004000C3AD0A18DDA
:10345000814237D9E085D069B8422DD020680C3040
:1034600050E8001F21F4807140E80012002AF5D1D5
:103470002068143050E8001F21F0010140E80012DC
:10348000002AF5D12068143050E8001F21F04001D7
:1034900040E80012002AF5D184F842302563206804
:1034A0000C3050E8001F21F0100140E80012002A03
:1034B000F5D1E06BFEF7E4FA6663A08DE18D401A6A
:1034C00081B206E0A18D8142A8D1D069B842A5D1D0
:1034D00066632046FFF728FFF8BDA08DE18D401AF6
:1034E00081B2E08D0028F7D00029F5D020680C309B
:1034F00050E8002F22F4907240E80027002FF5D109
:103500002068143050E8002F22F0010240E8002724
:10351000002FF5D184F84230256320680C3050E844
:10352000002F00E006E022F0100240E80023002B0C
:10353000F3D1CDE705062BD5150629D594F8410022
:103540002128C9D1A068B0F5805F01D12069B0B150
:10355000206A411C2162216800784860E08C401E8E
:103560000004000CE084B7D12068C16821F080011C
:10357000C1602068C16841F04001C160F8BD206AA7
:103580000088C0F308004860206A801C2062E5E7DC
:103590004006F3D55006F1D5CA68204622F0400215
:1035A000CA6084F8413000F09AF8F8BD095200086A
:1035B00070B5040004D094F84100002510B106E075
:1035C000012070BD84F84050204600F023F82420EC
:1035D00084F841002068C16821F40051C160204690
:1035E00001F0A2FE2068016921F490410161206888
:1035F000416921F02A0141612068C16841F400510C
:10360000C1606564202084F8410084F8420065634D
:10361000002070BD10B586B0044614216846FDF741
:1036200034F917492068884228D1164800210268D9
:1036300042F400320260006800F400300590114846
:103640001038026842F008020260006800F00800CA
:103650000590602000900220CDE901010320039035
:103660000720049069460848FEF72CFB002211460B
:103670002620FFF717F82620FFF706F806B010BD42
:103680000044004040380240000C024090F84230B4
:10369000202B01D00220704721B11AB1002303630F
:1036A00001F0C8BE0120704702F0C4B990F8413063
:1036B000202B01D00220704779B172B1016282845F
:1036C000C28400214164212180F841100068C16852
:1036D00041F08001C160002070470120704702F076
:1036E0008FBB000010B5044601211448FEF7E2FB31
:1036F000E0B10022124991F88F00904202D081F887
:103700008F200C6691F89000904216D0086E201A17
:103710001E2812D381F89020002A0ED003F0E8F979
:1037200030B1BDE81040002001F028BB0122E1E7E4
:103730002046BDE8104001F0FDBA10BD0010024067
:103740003C010020FEE701684A69D24352050FD4CC
:103750006FF480624A61002140F8301F20224273DA
:103760008173026942F00402026101730120704713
:10377000002070472DE9F84F0446006889460B9DEC
:1037800001689846174641F480610160206801682D
:1037900041F48071016000954FF0011B00225946F1
:1037A00020460A9B00F0E4F84FF4007A40B120680C
:1037B0000068C00501D5C4F840A00320BDE8F88F1B
:1037C000216809F0FE0008612B46284920460A9A24
:1037D00000F016F9F0BB20684169806900902A4624
:1037E00020460A9900F0A2F940B1206C04283AD191
:1037F0002068016841F40071016034E0FEB2B8F164
:10380000010F09D02168380A08612A4620460A9922
:1038100000F08CF90028E8D1206806612A4620468D
:103820000A9900F083F90028DFD12068016841F48B
:103830008071016000950022594620460A9B00F0E5
:1038400097F80028B3D1216809F0FF0040F001008B
:10385000086100E007E02B46044920460A9A00F080
:10386000CFF80028AAD00120A8E70000020001003C
:103870002DE9F843044600680D46DDE90897016824
:103880009846164641F4807101604B4600224FF085
:1038900001112046009700F06BF848B120680068DD
:1038A000C00502D54FF4007020640320BDE8F88302
:1038B000216805F0FE0008613B464A46154920464E
:1038C00000F09EF888B920684169806900903A4606
:1038D0004946204600F02AF948B1206C042804D15A
:1038E0002068016841F4007101600120DEE7F5B253
:1038F000B8F1010F09D02168300A08613A464946FB
:10390000204600F013F90028E7D120680561002067
:10391000CCE700000200010070B516460D460446D3
:103920001EE02046FFF70FFF08B1012070BD681CA4
:1039300016D0FEF7C9FA801BA84200D885B92068C6
:103940004069C04340070BD5002044F8300F2021C8
:103950006173A073216941F0200121612073E4E7C4
:1039600020684069C0434007DBD4002070BD0000E0
:103970002DE9F047984617460D460446C1F3074621
:10398000DDF820902AE000BFB8F1FF3F26D0FEF717
:103990009BFAA0EB0901414502D8B8F1000F1DD1F7
:1039A0002068012E16D0806925EA00000004000C72
:1039B00012D00020B84211D1002044F8300F20214D
:1039C0006173A073216941F02001216120730120FE
:1039D000BDE8F0874069E7E70120EBE72068012EAA
:1039E0000AD0806925EA00000004000C06D00020FF
:1039F000B842C9D00020EBE74069F3E70120F7E7C0
:103A00002DE9F047984616460D4604464FF000094A
:103A10004FF0200AC1F3074723E020684069C04304
:103A2000400515D42068016841F4007101602168E7
:103A30006FF480604861C4F8309084F83DA084F849
:103A40003E90216C41F00401216484F83C9021E017
:103A5000701C06D0FEF738FAA0EB0800B04203D87D
:103A600016B1012F1FD021E02068012F15D08069E9
:103A700025EA00000004000C18D000BF44F8309F75
:103A800084F80DA084F80E90216941F02001216195
:103A900084F80C900120BDE8F087406925EA000019
:103AA0000004000CEAD12068406901E020688069C8
:103AB00025EA00000004000CAFD1ECE72DE9F0414D
:103AC000002590460E460446202728E04069C04362
:103AD000C0060CD454F8301B6FF01000486144F855
:103AE00010596777A577206A2062257714E0FEF7E2
:103AF000EBF9A0EB0800B04200D886B92068406915
:103B0000C04340060BD544F8305F6773A573206946
:103B100040F02000206125730120BDE8F08120687D
:103B20004169C9434906D1D40020F6E770B516466D
:103B30000D4604461EE02046FFF705FE08B10120B1
:103B400070BD681C16D0FEF7BFF9801BA84200D8D4
:103B500085B920684069C04300060BD5002044F8B1
:103B6000300F20216173A073216941F02001216190
:103B70002073E4E720684069C0430006DBD40020DE
:103B800070BD00002DE9F04F00208BB080468DF80D
:103B90000C0007460646044664230322D021404811
:103BA000FEF776FA00284FD10121642203A88DE8A0
:103BB00007000B467522D0213948FEF71FFBE8BBF2
:103BC0009DF80C0068283FD100216B2000F0A4F87C
:103BD00000283AD03220FDF7AFFF0921192000F06C
:103BE0009BF803211A2000F097F800211B2000F019
:103BF00093F800211C2000F08FF800250DF1180922
:103C00000DF1140A4FF4FA7BCDE900A904AB09AA1F
:103C100008A907A800F048F850B1BDF91400BDF993
:103C200010100744BDF91800641C88440644A4B26F
:103C30000320FDF781FF6D1CADB200E004E05D459F
:103C4000E2D3B4F5E17F03D200200BB0BDE8F08FE2
:103C500000EE108A1348F8EEC00A00EE104AB8EEE3
:103C6000400A80EE801A00EE107AF8EEC00A00EEEC
:103C7000104AB8EE400A80ED171A80EE801A00EE66
:103C8000106AF8EEC00A00EE104AB8EE400A80ED65
:103C9000181A80EE801A80ED191A0120D5E700006D
:103CA000A0040020480000202DE9F04387B015460D
:103CB000DDE90E890E46074664220E2103A88DE831
:103CC00007001C4601233B22D0211248FEF796FA3A
:103CD00018B1002007B0BDE8F083BDF80C0040BA71
:103CE0003880BDF80E0040BA3080BDF8100040BAF0
:103CF0002880BDF8140040BA2080BDF8160040BAF4
:103D0000A8F80000BDF8180040BAA9F8000001208A
:103D1000E0E70000A004002003B583B06423012283
:103D200004A98DE80E0013460246D0210448FEF790
:103D300067FB10B1002005B000BD0120FBE70000CB
:103D4000A00400201FB500211648009101910291A6
:103D5000134A039102604FF48032C0E901210161EE
:103D6000017680F82010104AC0E90A210124C461BC
:103D7000C16080F830104461FDF719FD08B1FDF70E
:103D80006BFC0820CDE90004062002906946054836
:103D9000FDF764FC002801D0FDF75EFC1FBD0000AC
:103DA00000200140100400200100000F1FB5002179
:103DB0001648009101910291134A039102604FF459
:103DC0008032C0E901210161017680F82010104A9B
:103DD000C0E90A210124C461C16080F83010446147
:103DE000FDF7E5FC08B1FDF737FC0A20CDE900043A
:103DF0000620029069460548FDF730FC002801D0F6
:103E0000FDF72AFC1FBD00000021014058040020DE
:103E10000100000F2DE9F04387B014216846FCF73C
:103E200034FD3D480024016841F010010160016843
:103E300001F010010591016841F080010160016805
:103E400001F080010591016841F002010160016803
:103E500001F002010591016841F00801016001686B
:103E600001F008010591016841F00101016001685C
:103E700001F001010591016841F004010160006851
:103E8000264F00F00400059000220E213846FEF770
:103E900016F8DFF88C90BE15002231464846FEF732
:103EA0000EF8DFF880800022F1004046FEF707F8A8
:103EB00001224FF4E0414046FEF701F84FF4F04094
:103EC00000900125CDE90154694640460394FDF771
:103ED000F9FE08208DE8310069464046FDF7F2FE04
:103EE000CDE90054694610480295FDF7EBFE0E201F
:103EF0000090CDE90154694638460394FDF7E2FE8F
:103F0000CDE90065CDE9025469464846FDF7DAFE81
:103F100007B0BDE8F08300003038024000080240DE
:103F200000000240000C0240001002400D4810B595
:103F30000B4901600C49416000214FF480428160CF
:103F4000C0E9031241618161C1610162FDF7DCFFDB
:103F5000002803D0BDE81040FDF77EBB10BD000077
:103F600000580040A0040020A086010010B588B0D1
:103F70001C216846FCF789FC144813490024C0E959
:103F8000001444F29F11C0E9024104618461FEF70C
:103F9000B7FE08B1FDF760FB0C48FFF733F908B135
:103FA000FDF75AFB6020CDE9000402940022694627
:103FB00006480494FFF7C0F808B1FDF74DFB03482D
:103FC000FFF768F808B010BD00440140CC050020A0
:103FD00010B588B01C216846FCF757FC14481349FB
:103FE0000024C0E9001444F29F11C0E902410461B9
:103FF0008461FEF785FE08B1FDF72EFB0C48FFF744
:1040000001F908B1FDF728FB6020CDE90004029416
:104010000022694606480494FFF78EF808B1FDF7C0
:104020001BFB0348FFF736F808B010BD00480140FD
:104030001406002010B58CB024216846FCF725FC3E
:104040000024154809944FF080410A94C0E90014F7
:10405000611EC0E90241046184610320CDE90004CE
:104060000120CDE902040494CDE905400794694696
:1040700009480894FEF70EFF08B1FDF7EDFA099420
:1040800009A905480A94FEF7F3FD002801D0FDF7C1
:10409000E3FA0CB010BD0000F404002010B58CB0A1
:1040A00024216846FCF7F1FB0024164809941449C2
:1040B0000A94C0E900144FF6FF71C0E9024104619F
:1040C00084610320CDE900040120CDE902040494B9
:1040D000CDE90540079469460A480894FEF7DAFEE0
:1040E00008B1FDF7B9FA099409A906480A94FEF740
:1040F000BFFD002801D0FDF7AFFA0CB010BD0000E5
:10410000000400403C05002010B58CB0002407944A
:10411000089409941C2168460A94FCF7B6FB1D48D4
:104120001B49C0E9001444F29F11C0E90241046137
:104130008461FEF7E5FD08B1FDF78EFA4FF480507B
:10414000079007A91348FEF737FE08B1FDF784FA78
:104150001048FFF757F808B1FDF77EFA6020CDE967
:1041600000040294002269460A480494FEF7E4FF22
:1041700008B1FDF771FA042269460648FEF7DCFF34
:1041800008B1FDF769FA0348FEF784FF0CB010BDD3
:1041900000400140840500200C4810B50A49016028
:1041A0004FF416514160002181600C22C160C0E9CA
:1041B00004128161C161FFF7FBF9002803D0BDE85B
:1041C0001040FDF749BA10BD004400405C060020D5
:1041D000FEE7FEE7002100F001B800002DE9F04104
:1041E000114E05460A464FF400613046FDF767FE62
:1041F00000244FF480474FF40058002239463046DF
:10420000FDF75DFEEA0941463046FDF758FE012202
:1042100039463046FDF753FE6806641C050EE4B2CD
:10422000082CEAD3BDE8F081000C02407047000082
:104230002DE9F14F2DED028B9EB00BAB0AAAFDA12B
:104240002098FCF709FADFF8F883FE4CFE4E0228AE
:104250007BD00DF10C0A05AB04AAFCA1CDF800A09F
:104260002098FCF7F9F9DFF8F4B341F288374CF203
:10427000503503286AD005AB04AAF9A1CDF800A0F7
:104280002098FCF7E9F9DFF8E89303287AD005AB2A
:1042900004AAF8A1CDF800A02098FCF7DDF90328C6
:1042A00071D01AAAF7A12098FCF7D6F901286BD093
:1042B00015AAF6A12098FCF7CFF901287ED017ABFC
:1042C00016AAF5A12098FCF7C7F942F210799FEDE4
:1042D000F68A022873D0F5A12098FCF7FDFA012791
:1042E000F54D00286CD0F5A12098FCF7F5FA0028D0
:1042F00067D0F5A12098FCF7EFFA002877D018AA2C
:10430000F3A12098FCF7A8F9012871D019AAF3A10C
:104310002098FCF7A1F901286BD00CAAF2A12098F3
:10432000FCF79AF9002501287CD00DAAF0A120986D
:10433000FCF792F9012876D00722F0A12098FCF72B
:1043400059FA002870D0082201E053E06EE0EDA198
:104350002098FCF74FFA002867D014AAECA1209807
:10436000FCF77AF9DFF8B49301287DD011AAECA10B
:104370002098FCF771F99FEDEC8A012875D002AB0B
:1043800009AA02E073E096E0BBE0E8A12098FCF700
:1043900063F902286AD0E9A12098FCF79DFA002869
:1043A0007DD0E8A12098FCF797FAB0B3E7A1209858
:1043B000FCF792FA002815D1F07E03E0A6E0AEE00B
:1043C000C4E0C8E010B1002001F026FDA566E56656
:1043D00084ED098A84ED108A84ED118A84ED128AB5
:1043E00084ED138A1EB0BDEC028BBDE8F88FB6E0F9
:1043F000B7E0C1E002F08EFB08B102F00BFCF07EEA
:1044000010B1002001F008FD0A98FDF7E0F804F86B
:10441000760F0B98FDF7DBF86070FDF755FDC8F8D7
:104420000000DFE7B1E0BFE0CBE0B7E1049AAA42C9
:10443000D8D805990029D5DBA942D3DC03980028F8
:10444000D0DBB842CEDC00EE102AB8EEC00A8BED0D
:10445000030A00EE101AB8EEC00A8BED040A00EE53
:10446000100AB8EEC00A49E0EEE112E231E2049A25
:10447000AA42B7D805980028B4DBA842B2DC039959
:104480000029AFDBB942ADDC00EE102AB8EEC00A5D
:1044900089ED030A00EE100AB8EEC00A00E030E22F
:1044A00089ED040A00EE101AB8EEC00A89ED050A7B
:1044B00002F024FD96E7049AAA4293D805980028B2
:1044C00090DBA8428EDC039900298BDBB94289DCA2
:1044D00000EE102AB8EEC00A89ED030A8BED030A3C
:1044E00000EE100AB8EEC00A89ED040A8BED040A4A
:1044F00000EE101AB8EEC00A89ED050A8BED050A28
:10450000D6E79FED940A84ED060A6BE71598A0F1B3
:104510001401502985D8C0B202F06EFB62E71699EB
:10452000B942C7D817980028C4DB4845C2DC00EE62
:10453000100AB8EEC00AC0EE080A00EE101AB8EE73
:10454000C01A81EE080A02F029FB4BE702F062FB79
:1045500002F024FA03E002F05DFB02F0EDF9EF70E7
:1045600040E7189840F2DE32A0F10A019142A1D84A
:1045700080B202F0E7FA35E71998A0F10A01AA29FA
:1045800098D880B202F0F8FA2CE70C9820B194F891
:10459000780008B1012000E0002084F87A000028AB
:1045A00086D184F87B5083E70D98A0F10A01B1F51C
:1045B000AF7FAAD800EE100AB8EEC00A84ED0F0A49
:1045C00010E707A910A8CDE900010FAB0EAA62A160
:1045D0002098FCF741F8032801D0042895D10E9CBF
:1045E000002C92DB61498C428FDC0F9B002B8CDB13
:1045F0008B428ADC109A002A87DB8A4285DC0328FA
:1046000002D0079D8D4289D800EE104AF8EEC00A0C
:104610009FED570A574980EE801A00EE903AF8EE67
:10462000E00A81ED021A80EE801A00EE902A81EDF8
:10463000031AA1E04452562C25642C256400000086
:1046400000000020480000201C0100205049444C7C
:104650002C25642C25642C2564000000C800002053
:10466000504944522C25642C25642C2564000000FC
:10467000E00000205049442C25642C25642C25643E
:10468000000000004D41582C256400004C494E4567
:104690005350442C256400004C494E455049442C4D
:1046A00025642C256400000000007A4447524159DB
:1046B00057484954450000002800002047524159FE
:1046C000424C41434B0000004752415943414C008A
:1046D0004C494E454144562C256400004C494E45FA
:1046E0005455524E2C2564005941572C2564000026
:1046F000594157524154452C2564000059415750A7
:1047000049442C00484541445049442C00000000D5
:10471000484541445345542C2564000004000020C2
:10472000484541442C256400000000005351554188
:1047300052452C25642C25640000000053544F5032
:104740000000000050494E47000000005A45524FFB
:10475000000000003333333F5941575049442C2562
:10476000642C25642C25642C25640000A08601009F
:1047700000247449F8000020F8EEE00A042880EED6
:10478000801A81ED041A7FF4BBAEDDED070AF8EE66
:10479000E00A80EE801A81ED051A89E608A906A8CC
:1047A000CDE9000113AB12AA5CA12098FBF754FFDE
:1047B0005F4903283DD004287FF433AE129E002EBB
:1047C000FFF62FAE44F6206086423FF72AAE139BD9
:1047D000002BF5DB4B45F8DC069A002AF0DBB2F53E
:1047E000FA6FF2DC08980528EADBB0F5B47FECDC60
:1047F00000EE106AB8EEC00AC0EE080A00EE103AE9
:10480000B8EEC00AC1ED000AC0EE080A00EE102A98
:10481000B8EEC00AC1ED010AC0EE080A00EE100AA7
:10482000B8EEC00AC1ED020A84ED150A84F87C5086
:104830003EE60698089091ED020A20EE080ABDEEC9
:10484000C00A8DED060AB9E7149800F5E161B1F5EB
:10485000616F3FF6E6AD94F87B1000293FF4E1ADBF
:1048600000EE100AB2EE041AF8EEC00A80EE810AD9
:1048700084ED100AD4ED090A30EE600A02F064FCFF
:1048800084ED130A84F87C70FDF71EFBC9F8000064
:10489000A8E5119838B194F87A0020B194F878001E
:1048A00008B1012000E0002084F87B0094ED090AA3
:1048B00084ED100A84ED110A84ED128A84F87C00DC
:1048C00084ED138A84ED148AFDF7FEFAC9F800001E
:1048D000EEE509980A383228DAD80298411C01D04E
:1048E0000128D5D102F016F908B102F093F9FDF7CD
:1048F000EBFA024609980299C0B249B201F026FBD0
:1049000070E502F087F9F07E00B13577F57604F8AE
:10491000765F6570C8F80050E570C9E548454144C8
:104920005049442C25642C25642C25642C256400D6
:1049300010010020F0B58DB0064620216846FBF737
:10494000A4FF002508AF6C4608A801F044FE002033
:1049500054F8201037F81020114444F82010401C5F
:10496000C0B20828F4D36D1CEDB2082DECD30020A2
:1049700054F82010C90826F81010401CC0B20828AE
:10498000F6D30DB0F0BD0168486A002200B24A6259
:104990007047704770B50B4D044600F001020221CC
:1049A0002846FDF78CFAC4F3400204212846FDF79F
:1049B00086FAC4F380022846BDE870400821FDF75E
:1049C0007EBA000000080240124A13499FED130A04
:1049D000936E0B60D36E4B6081ED030A01230B775E
:1049E0000023C1E9040382F8773091F918209FED84
:1049F0000C1A00EE902A91ED020A897EF8EEE00A88
:104A000020EE811A00EE901AF8EE600A01EE200AFC
:104A100000F008B8480000201C0100200000000041
:104A20000000B44200B5034602F08EFB0C4A9FED35
:104A30000D1A82ED100AD2ED090AC2ED110A82EDBB
:104A4000121A30EE600A02F07FFB82ED130A82ED4B
:104A5000141A012082F87C000348036000BD0000A6
:104A60004800002000000000040000202DE9F05F55
:104A7000A54C07462DED068BE07E00287ED0A34D89
:104A800095F8790000287AD002F07CF90028FAD055
:104A900095F878000028F6D095F87A000028F2D032
:104AA00095F87B000028EED0207F4FF07E594FF024
:104AB000814A4FF4C87B4FF00008012820D002281B
:104AC0005CD185F8768085F8778095ED100AD5ED74
:104AD000090A424630EE600A02F036FBB0EEC00A28
:104AE00010EE100A48457CDC95ED0A0AB0EEC00ACB
:104AF00010EE100A504574DC6069002872D0DCE0CA
:104B0000A86E2168401A00EE100AB8EEC00ADFED68
:104B1000800AE86E6168C0EE208A401A00EE100A32
:104B2000B8EEC00ADFED7B0A667E95ED069A80EE50
:104B300020AA00EE106AB8EE400A29EE000ADFED66
:104B4000769A80EE298AF0EE480A9FED740A02F008
:104B500085FCD5EC020A30EE811AF6EE000A21EE51
:104B6000202A38EE8A1A61EE200AB7EE001AC4ED48
:104B7000030A71EE600A9FED6A1A01E0C0E0B8E036
:104B800020EE811AB4EEC81AF1EE10FA01DDB0EE93
:104B9000481AF1EE481AB4EEE11AF1EE10FA01D219
:104BA000B0EE611AF0EEE01A11EE900A5D4988420B
:104BB00002DC9FED5D1A0FE0F0EEC12AF4EEC02A90
:104BC000F1EE10FA08D2F5EEC00AF1EE10FA01DCAF
:104BD000B1EE400AB0EE401A61EE290A80EE890A71
:104BE00001E07CE068E0B5EEC01AF1EE10FA02DBFD
:104BF000F6EE000A01E0FEEE000A30EE200ABDEEFD
:104C0000C00A10EE100A864200DA30467242824232
:104C100000DD104685F8760011EE900A424685F8D0
:104C20007780884242DCB0EEC20A10EE100A3F499B
:104C300088423BDC95ED100AD5ED090A30EE600A9A
:104C400002F082FAB0EEC00A10EE100A48452DDCE0
:104C500095ED0A0AB0EEC00A10EE100A504525DCA8
:104C6000606900B967616069381A58451FD305F853
:104C7000762F02216A702177C4E9047294F9181022
:104C80009FED2B1A00EE901AA17E94ED020AF8EE29
:104C9000E00A491C384620EE811A00EE901AF8EE20
:104CA000600A01EE200AFFF7BDFE00E062612069A4
:104CB00047F23051381A1AE067616069381A58456E
:104CC0000ED3A07E401CC0B2A076042803D30320DC
:104CD00001F0A2F804E03846FFF776FE00E06261DA
:104CE000E07E00280CD0206942F21071381A884208
:104CF00006D9BDEC068B0420BDE8F05F01F08CB84E
:104D0000BDEC068BBDE8F09F1C0100204800002090
:104D100000D0EA4500F8E2450000C8420AD7233D2A
:104D20009A99993F0AD7233C00000000CDCCCC3C97
:104D30000000B4420D4900220123CA760A770C49CB
:104D40009FED0C0A81F89130CA65486581ED140A1F
:104D500091ED110A084881ED120A81F88B204A660C
:104D600000F8762F427002F0C9B800001C01002044
:104D70003C010020000000004800002010B50B4C52
:104D800084F89100FDF7A0F89FED090A606584EDB5
:104D9000140A0020E065074984F88B00606601F87A
:104DA000760F4870BDE8104002F0A8B83C01002022
:104DB0000000000048000020FDF70CBC30B593B0A7
:104DC00030216846FBF761FD14210CA8FBF75DFD5F
:104DD0001D480025016841F080510160006800F025
:104DE000805011901948016841F4804101600068C9
:104DF000022400F4804011900120009000040190F2
:104E00008001CDE9064008AA0420A82182E8130009
:104E10000B906846FDF762FD08B172B6FEE70CA97B
:104E20000F2081E831004FF4A0500F904FF48050D4
:104E3000109005210CA8FDF767FC002801D072B680
:104E4000FEE713B030BD0000403802400070004063
:104E50000248016841F470010160704788ED00E08C
:104E6000F0B50268274B284D284E294F294C4FF0AA
:104E7000804C984209D0604507D0A84205D0B04286
:104E800003D0B84201D0A04204D122F0700E4A688B
:104E900042EA0E0298421BD0604519D0A84217D0B2
:104EA000B04215D0B84213D0A04211D01A4DA8423A
:104EB0000ED01A4DA8420BD0194DA84208D0194D5A
:104EC000A84205D0184DA84202D0184DA84203D1DF
:104ED00022F44075CA682A434D6922F080022A43B1
:104EE0008D68C5620D688562984201D0A04201D1EB
:104EF00009690163016841F0040101600121416118
:104F00000260F0BD000001400004004000080040C5
:104F1000000C0040000401400040014000440140FA
:104F20000048014000180040001C004000200040E4
:104F300010B501F01F030121046A99408C430462FB
:104F4000016A9A401143016210BD10B5846842EABB
:104F5000032224F47F440A432243826010BD826806
:104F600022F070020A4342F007018160704700009E
:104F7000F0B5036A026A22F00102026242688469A3
:104F8000124E24F073050C682C4323F002058B6845
:104F90002B430D4DA84201D0B04205D123F00807A4
:104FA000CB683B4323F00403A84201D0B04205D1B3
:104FB0004D6922F4407215438A692A434260846134
:104FC000496841630362F0BD0000014000040140F4
:104FD000F0B5026A036A23F0100303624368846930
:104FE0000D6824F4E64444EA05248D6822F020028A
:104FF00042EA05120F4D104EA84201D0B04206D130
:10500000CF6822F0800242EA071222F04002A84252
:1050100001D0B04207D14D6923F4406343EA8503D0
:105020008D6943EA85034360846149688163026254
:10503000F0BD00000000014000040140F0B5026A2C
:10504000036A23F4807303624368C46922F4007224
:1050500024F073050C68124E2C438D6842EA052239
:105060000E4DA84201D0B04206D1CF6822F40062B2
:1050700042EA072222F48062A84201D0B04207D15E
:105080004D6923F4405343EA05138D6943EA051340
:105090004360C4614968C1630262F0BD0000014021
:1050A0000004014030B5046A026A22F480520262B0
:1050B0004268C3690D6823F4E64343EA05238D681B
:1050C00024F4005444EA0534084DA84202D0084DA7
:1050D000A84204D14D6922F4804242EA851242601E
:1050E000C36149680164046230BD000000000140F2
:1050F0000004014010B5036A046A24F0010404624C
:10510000846924F0F00444EA021423F00A020A43FA
:105110008461026210BD10B5036A046A24F01004B1
:105120000462846923F0A00324F4704444EA023248
:1051300043EA01118261016210BD000030B5204CCC
:105140008FB0E078002836D0A078002833D11D48F1
:105150000DF12C0C018FC58F838F428F8CE82E00B0
:10516000018E0DF11C0CC58E838E428E8CE82E00B4
:10517000018D0DF10C0CC58D838D428D8CE82E00B8
:10518000418CC38C828C8DE80E00038C4FF4C0756B
:105190000DA229461A48FBF7F3F800280BDDA842B8
:1051A00009DA0121A17082B215491648FEF77EFA8C
:1051B000002110B1A1700FB030BDE170FBE700001D
:1051C000280000203C01002043414C2C25752C2553
:1051D000752C25752C25752C25752C25752C25757C
:1051E0002C25752C25752C25752C25752C25752CB5
:1051F00025752C25752C25752C25750A00000000B9
:10520000900200205C06002010B5806B0021C18553
:10521000FEF78BF810BD01680C3151E8002F22F425
:10522000907241E80023002BF5D10168143151E858
:10523000002F22F0010241E80023002BF5D1016B81
:10524000012909D101680C3151E8002F22F0100228
:1052500041E80023002BF5D1202180F842100021E5
:105260000163704708B590F84210222901D002204E
:1052700008BD82684FF480539A4201D1016921B17F
:10528000816A9A421BD04AB10AE00268816A526878
:10529000C2F308020A80816A891C08E0026972B1BF
:1052A0000268526802F07F020A70816A491C8162BA
:1052B000C18D491E0904090CC18503D01BE0026899
:1052C0005268F1E70168CA6822F02002CA600168EA
:1052D000CA6822F48072CA6001684A6922F0010239
:1052E0004A61202180F8421000214163026B012AAB
:1052F00003D0FEF7D9F9002008BD016301680C3125
:1053000051E8002F22F0100241E80023002BF5D1D4
:1053100001680A68D20602D50A6849680091818D41
:10532000FEF702F8E7E7000070B50446006801697F
:10533000E26821F44051114301612169A068E269EA
:1053400008436169114308432168CA6849F20C6344
:105350009A430243CA6020684169A26921F44071FE
:105360001143416131492068884202D03049884266
:1053700002D1FDF773FA01E0FDF760FAE26900235C
:10538000192164253226B2F5004F626828D0A0FBAF
:105390000101930F9200FAF77BFF0146B0FBF5F095
:1053A0006FF01802504301EB800006EB0010B0FBD9
:1053B000F5F000F0F002B1FBF5F002EB0012B1FBEA
:1053C000F5F06FF01803584301EB800006EB001076
:1053D000B0FBF5F000F00F0021681044886070BD4C
:1053E000A0FB010192185B41FAF752FF0146B0FBA6
:1053F000F5F00201B1FBF5F06FF01803584301EB33
:10540000800006EBC000B0FBF5F000F0F80002EB06
:105410004002B1FBF5F0584301EB800006EBC00001
:10542000B0FBF5F000F00700D6E7000000100140E7
:105430000014014081628285C285002141642221DD
:1054400080F84210016921B10168CA6842F4807293
:10545000CA6001684A6942F001024A610068C16895
:1054600041F02001C1600020704700000148FDF7B5
:105470005FBF00005C06002070B5034601F0ACFA87
:1054800000EB800040F2DC5101EB40001F4A204954
:105490009FED201A946ECD6EDFED1F1A641B00EE97
:1054A000104AD46E0D6FB8EEC00A641BC0EE010A3C
:1054B00000EE104AB8EEC01A81EE210A30EE800AE2
:1054C000F6EE000A20EE200ADFED140AC1ED140A00
:1054D00091F88C40142C02D291F98C4000E01424F5
:1054E00002F8764F002454709471D1ED1E0AF4EE48
:1054F000C00AF1EE10FA03D9496D591A814204D35A
:10550000BDE870401846FCF715B870BD4800002093
:105510003C01002000D0EA4500F8E2450000000010
:105520002DE9F041254C264D074694ED1D0AD5ED99
:10553000090A30EE600A01F007FE95F87B0078B3A7
:10554000B0EEC00A10EE100A0026B0F17F5F28DC32
:1055500095ED0A0A1B49B0EEC00A10EE100A884207
:105560001FDC606E00B96766606E381AC82819D3F0
:1055700001F0C4FC022084F891006765C4E9196752
:1055800084F88B609FED100AE66584ED140A94EDB3
:10559000100A84ED120A05F8766F6E70BDE8F0818E
:1055A00006E06666606D41F65831381A8842F5D3D8
:1055B000BDE8F0410620FFF7E1BB00003C01002000
:1055C000480000200000A040000000002DE9F04F3E
:1055D00000235B4A1C46194692F888A01D461846CF
:1055E0009B46914609EB400739F810C03A8C3E8E35
:1055F00002F59678464501D9944501D85A460EE001
:10560000B44502D34FF47A7209E0ACEB020C4FF4CC
:105610007A780CFB08FCB21ABCFBF2F292B2401C86
:10562000C0B23A820828DDD3B9F810604846324645
:105630005FF0010700EB470CBCF810C0B44500D286
:105640006646944500D962467F1CFFB2082FF1D30D
:10565000921B1FFA82F8DFF8EC9080F889B00022E4
:1056600000EB420630F812C0378CBC4502D9ACEBD7
:10567000070700E00027368ABFB2FA2E02D9A6F14A
:10568000FA0C01E04FF0000C1FFA8CFCFA2F0DD33E
:10569000B6F52F7F0AD390F88960491C761CC9B2F1
:1056A00080F88960A94202D90D4600E0002119F96D
:1056B0000260521C06FB0C44D2B26344082ACFD3CA
:1056C00080F88A50B8F1780F02D30BB1012100E0C5
:1056D000002180F8881000292BD000EE104ADFED61
:1056E0001A0AB1EE0C1AB8EEC00ABAF1000F60EE59
:1056F000200A00EE103AB8EE400A20EE011A80EEC1
:10570000810A18D0D0ED110A9FED101A30EE600A10
:1057100040EE010AC0ED110A90ED110A80ED100A69
:10572000F0EEC00A10EE901AB1F1804F01DB80ED6F
:10573000130ABDE8F08F80ED110A80ED120AEBE745
:105740003C010020787700080000C8426666E63E0B
:105750002DE9F0414049414B0E46D1F868C016F89A
:10576000885FDFF8FCE000223E4F347956ED120AE4
:10577000BCF1000F16D01DB191F88960052E12D32F
:10578000A0EB0C0040F2DC55A84229D2CA659FED7F
:10579000360A142C81ED140A02D291F98C0054E0DF
:1057A000142052E0ADB191ED120ACA65D1ED211A73
:1057B00030EEC01A91ED200AC1ED120A20EE200A47
:1057C00001EE810A10EE100AB8421ADD9FED270A99
:1057D0001DE0CE6D06B9C865CE6D801BFA2804D3D6
:1057E000BDE8F0410520FFF7C9BA91ED130AB5EE07
:1057F000C00AF1EE10FA02DB9FED1D0A07E09FEDF3
:105800001D0A10EE100A704501D99FED1B0A81EDAB
:10581000140AB0EEE00A10EE100A1849DFED180A7B
:10582000884201DDB0EE600AA4F1120001EE100A18
:10583000B8EEC11A21EE000A80EE201ABDEEC10AB0
:1058400010EE100A201A05B9122003F8760F5A70CC
:105850009A71BDE8F08100003C0100204800002062
:1058600000008CC200008C420000000000008C424E
:1058700000003442000034C200008CC20000C84264
:105880000000C842FEE7000070B500252C46214804
:10589000FCF75AF800283CD102211E48FBF7FEFF16
:1058A00000281C4803D0BDE87040FCF7CBB8FBF7DC
:1058B0007BFF05441748FCF7C5F8641CA4B2102C04
:1058C000E5D3C5F30F1100EE101ADFED140A9FEDBA
:1058D000141AB8EE400A104820EE200AF2EE060A2A
:1058E000A0F8741060EE200A80EE810AD0ED160A4E
:1058F000F5EEC00AF1EE10FA09D09FED0A1A60EE3B
:10590000810A9FED091A40EE010AB0EE600A80EDAF
:10591000160A70BD100400204800002033335340A5
:1059200000F07F459A99593F9A99193E70B5084DF4
:10593000040009D0FCF7C8FA2044686001202870F0
:10594000BDE8704000F00EB800202870F8E70000B5
:105950003000002002490020087000F003B8000069
:105960003000002008B1012200E000224FF48071D5
:105970000148FCF7A4BA00000000024005490A787B
:10598000002A06D04A68801A03D400200870FFF766
:10599000E9BF70473000002000680549884206D101
:1059A00004490020887001220348FDF76FBE70474C
:1059B00000440040280000205C060020012202492B
:1059C0000248FDF763BE0000280000205C060020AE
:1059D00001488078704700002800002070B5134E01
:1059E0000025134C1AE01149E0888039085CE188F1
:1059F000491C01F07F01E1800A2808D00D2806D05B
:105A000061783F2909D27054491C617006E06078C2
:105A100020B135540548FEF70BFC6570E088A1887D
:105A20008842E0D1BDE87040FFF788BB50020020FB
:105A30002800002030B400680B49884212D10B487E
:105A40008188C288491C01F07F01914204D002780C
:105A5000074B84881A55818030BC012203490548D0
:105A6000FDF714BE30BC7047004400402800002001
:105A7000D00100205C0600202DE9F0416E4D8046EB
:105A80002DED028BA0B0A87800287DD100F0B8FFE2
:105A9000074600F0A1FF064600F0CEFF674C014626
:105AA0000DF15C0C94F88A00E389A289CDE91D70A0
:105AB000CDE91B23A08867892389E2888CE88D00C3
:105AC0006088228894F88930CDE91520CDE9133615
:105AD0005B48B7EE000A94F89120D0ED030A30EE4F
